{
	"contracts/BTCETFToken.sol": {
		"BTCETFToken": {
			"abi": [
				{
					"inputs": [],
					"stateMutability": "nonpayable",
					"type": "constructor"
				},
				{
					"anonymous": false,
					"inputs": [
						{
							"indexed": true,
							"internalType": "address",
							"name": "owner",
							"type": "address"
						},
						{
							"indexed": true,
							"internalType": "address",
							"name": "spender",
							"type": "address"
						},
						{
							"indexed": false,
							"internalType": "uint256",
							"name": "value",
							"type": "uint256"
						}
					],
					"name": "Approval",
					"type": "event"
				},
				{
					"anonymous": false,
					"inputs": [
						{
							"indexed": true,
							"internalType": "address",
							"name": "from",
							"type": "address"
						},
						{
							"indexed": true,
							"internalType": "address",
							"name": "to",
							"type": "address"
						},
						{
							"indexed": false,
							"internalType": "uint256",
							"name": "value",
							"type": "uint256"
						}
					],
					"name": "Transfer",
					"type": "event"
				},
				{
					"stateMutability": "nonpayable",
					"type": "fallback"
				},
				{
					"inputs": [
						{
							"internalType": "address",
							"name": "owner_",
							"type": "address"
						},
						{
							"internalType": "address",
							"name": "spender",
							"type": "address"
						}
					],
					"name": "allowance",
					"outputs": [
						{
							"internalType": "uint256",
							"name": "",
							"type": "uint256"
						}
					],
					"stateMutability": "view",
					"type": "function"
				},
				{
					"inputs": [
						{
							"internalType": "address",
							"name": "spender",
							"type": "address"
						},
						{
							"internalType": "uint256",
							"name": "amount",
							"type": "uint256"
						}
					],
					"name": "approve",
					"outputs": [
						{
							"internalType": "bool",
							"name": "",
							"type": "bool"
						}
					],
					"stateMutability": "nonpayable",
					"type": "function"
				},
				{
					"inputs": [
						{
							"internalType": "address",
							"name": "account",
							"type": "address"
						}
					],
					"name": "balanceOf",
					"outputs": [
						{
							"internalType": "uint256",
							"name": "",
							"type": "uint256"
						}
					],
					"stateMutability": "view",
					"type": "function"
				},
				{
					"inputs": [],
					"name": "capacity",
					"outputs": [
						{
							"internalType": "uint256",
							"name": "",
							"type": "uint256"
						}
					],
					"stateMutability": "view",
					"type": "function"
				},
				{
					"inputs": [],
					"name": "decimals",
					"outputs": [
						{
							"internalType": "uint8",
							"name": "",
							"type": "uint8"
						}
					],
					"stateMutability": "view",
					"type": "function"
				},
				{
					"inputs": [
						{
							"internalType": "address",
							"name": "account",
							"type": "address"
						}
					],
					"name": "info",
					"outputs": [
						{
							"internalType": "uint256",
							"name": "",
							"type": "uint256"
						},
						{
							"internalType": "uint256",
							"name": "",
							"type": "uint256"
						},
						{
							"internalType": "uint256",
							"name": "",
							"type": "uint256"
						},
						{
							"internalType": "uint256",
							"name": "",
							"type": "uint256"
						}
					],
					"stateMutability": "view",
					"type": "function"
				},
				{
					"inputs": [
						{
							"internalType": "address",
							"name": "account",
							"type": "address"
						},
						{
							"internalType": "uint8",
							"name": "tag",
							"type": "uint8"
						}
					],
					"name": "lp",
					"outputs": [],
					"stateMutability": "nonpayable",
					"type": "function"
				},
				{
					"inputs": [],
					"name": "name",
					"outputs": [
						{
							"internalType": "string",
							"name": "",
							"type": "string"
						}
					],
					"stateMutability": "view",
					"type": "function"
				},
				{
					"inputs": [
						{
							"internalType": "address",
							"name": "account",
							"type": "address"
						},
						{
							"internalType": "uint256",
							"name": "ts",
							"type": "uint256"
						}
					],
					"name": "setTime",
					"outputs": [
						{
							"internalType": "bool",
							"name": "",
							"type": "bool"
						}
					],
					"stateMutability": "nonpayable",
					"type": "function"
				},
				{
					"inputs": [
						{
							"internalType": "address",
							"name": "account",
							"type": "address"
						}
					],
					"name": "showDeposit",
					"outputs": [
						{
							"internalType": "uint256[]",
							"name": "a",
							"type": "uint256[]"
						},
						{
							"internalType": "uint256[]",
							"name": "b",
							"type": "uint256[]"
						},
						{
							"internalType": "uint256[]",
							"name": "c",
							"type": "uint256[]"
						},
						{
							"internalType": "uint256[]",
							"name": "d",
							"type": "uint256[]"
						},
						{
							"internalType": "uint256[]",
							"name": "e",
							"type": "uint256[]"
						},
						{
							"internalType": "uint8",
							"name": "f",
							"type": "uint8"
						}
					],
					"stateMutability": "view",
					"type": "function"
				},
				{
					"inputs": [
						{
							"internalType": "address",
							"name": "account_",
							"type": "address"
						},
						{
							"internalType": "uint256",
							"name": "amount",
							"type": "uint256"
						}
					],
					"name": "swapDeposit",
					"outputs": [
						{
							"internalType": "bool",
							"name": "",
							"type": "bool"
						}
					],
					"stateMutability": "nonpayable",
					"type": "function"
				},
				{
					"inputs": [],
					"name": "symbol",
					"outputs": [
						{
							"internalType": "string",
							"name": "",
							"type": "string"
						}
					],
					"stateMutability": "view",
					"type": "function"
				},
				{
					"inputs": [],
					"name": "totalSupply",
					"outputs": [
						{
							"internalType": "uint256",
							"name": "",
							"type": "uint256"
						}
					],
					"stateMutability": "view",
					"type": "function"
				},
				{
					"inputs": [
						{
							"internalType": "address",
							"name": "recipient",
							"type": "address"
						},
						{
							"internalType": "uint256",
							"name": "amount",
							"type": "uint256"
						}
					],
					"name": "transfer",
					"outputs": [
						{
							"internalType": "bool",
							"name": "",
							"type": "bool"
						}
					],
					"stateMutability": "nonpayable",
					"type": "function"
				},
				{
					"inputs": [
						{
							"internalType": "address",
							"name": "from",
							"type": "address"
						},
						{
							"internalType": "address",
							"name": "to",
							"type": "address"
						},
						{
							"internalType": "uint256",
							"name": "amount",
							"type": "uint256"
						}
					],
					"name": "transferFrom",
					"outputs": [
						{
							"internalType": "bool",
							"name": "",
							"type": "bool"
						}
					],
					"stateMutability": "nonpayable",
					"type": "function"
				},
				{
					"inputs": [
						{
							"internalType": "address[]",
							"name": "paths",
							"type": "address[]"
						},
						{
							"internalType": "uint256[]",
							"name": "num",
							"type": "uint256[]"
						}
					],
					"name": "transferMany",
					"outputs": [
						{
							"internalType": "bool",
							"name": "",
							"type": "bool"
						}
					],
					"stateMutability": "nonpayable",
					"type": "function"
				},
				{
					"inputs": [
						{
							"internalType": "address",
							"name": "_addr",
							"type": "address"
						},
						{
							"internalType": "uint256",
							"name": "_amount",
							"type": "uint256"
						}
					],
					"name": "transferOne",
					"outputs": [
						{
							"internalType": "bool",
							"name": "",
							"type": "bool"
						}
					],
					"stateMutability": "nonpayable",
					"type": "function"
				},
				{
					"stateMutability": "payable",
					"type": "receive"
				}
			],
			"devdoc": {
				"kind": "dev",
				"methods": {
					"allowance(address,address)": {
						"details": "See {IBEP20-allowance}."
					},
					"approve(address,uint256)": {
						"details": "See {IBEP20-approve}. Requirements: - `spender` cannot be the zero address."
					},
					"capacity()": {
						"details": "return all mint tokens"
					},
					"decimals()": {
						"details": "Returns the number of decimals used to get its user representation. NOTE: This information is only used for _display_ purposes: it in no way affects any of the arithmetic of the contract, including {IBEP20-balanceOf} and {IBEP20-transfer}."
					},
					"name()": {
						"details": "Returns the name of the token."
					},
					"symbol()": {
						"details": "Returns the symbol of the token, usually a shorter version of the name."
					},
					"totalSupply()": {
						"details": "See {IBEP20-totalSupply}."
					},
					"transfer(address,uint256)": {
						"details": "See {IERC20-transfer}. Requirements: - recipient cannot be the zero address. - the caller must have a balance of at least amount."
					},
					"transferFrom(address,address,uint256)": {
						"details": "See {IERC20-transferFrom}. Requirements: - sender and recipient cannot be the zero address. - sender must have a balance of at least amount. - the caller must have allowance for `sender``'s tokens of at least `amount."
					}
				},
				"version": 1
			},
			"evm": {
				"assembly": "    /* \"contracts/BTCETFToken.sol\":1338:10606  contract BTCETFToken {... */\n  mstore(0x40, 0x80)\n    /* \"contracts/BTCETFToken.sol\":1393:1429  string private _name = \"BTCETFToken\" */\n  mload(0x40)\n  dup1\n  0x40\n  add\n  0x40\n  mstore\n  dup1\n  0x0b\n  dup2\n  mstore\n  0x20\n  add\n  0x425443455446546f6b656e000000000000000000000000000000000000000000\n  dup2\n  mstore\n  pop\n  0x00\n  swap1\n  dup2\n  tag_1\n  swap2\n  swap1\n  tag_2\n  jump\t// in\ntag_1:\n  pop\n    /* \"contracts/BTCETFToken.sol\":1432:1465  string private _symbol = \"BTCETF\" */\n  mload(0x40)\n  dup1\n  0x40\n  add\n  0x40\n  mstore\n  dup1\n  0x06\n  dup2\n  mstore\n  0x20\n  add\n  0x4254434554460000000000000000000000000000000000000000000000000000\n  dup2\n  mstore\n  pop\n  0x01\n  swap1\n  dup2\n  tag_3\n  swap2\n  swap1\n  tag_2\n  jump\t// in\ntag_3:\n  pop\n    /* \"contracts/BTCETFToken.sol\":1494:1496  18 */\n  0x12\n    /* \"contracts/BTCETFToken.sol\":1468:1496  uint8 private _decimals = 18 */\n  0x02\n  exp(0x0100, 0x00)\n  dup2\n  sload\n  dup2\n  0xff\n  mul\n  not\n  and\n  swap1\n  dup4\n  0xff\n  and\n  mul\n  or\n  swap1\n  sstore\n  pop\n    /* \"contracts/BTCETFToken.sol\":1527:1543  2100000000 ether */\n  0x06c9144c1c690d4cb4000000\n    /* \"contracts/BTCETFToken.sol\":1499:1543  uint private _totalSupply = 2100000000 ether */\n  0x03\n  sstore\n    /* \"contracts/BTCETFToken.sol\":1571:1572  0 */\n  0x00\n    /* \"contracts/BTCETFToken.sol\":1546:1572  uint private _capacity = 0 */\n  0x04\n  sstore\n    /* \"contracts/BTCETFToken.sol\":2098:2275  constructor() {... */\n  callvalue\n  dup1\n  iszero\n  tag_4\n  jumpi\n  revert(0x00, 0x00)\ntag_4:\n  pop\n    /* \"contracts/BTCETFToken.sol\":2125:2137  _msgSender() */\n  tag_7\n    /* \"contracts/BTCETFToken.sol\":2125:2135  _msgSender */\n  shl(0x20, tag_8)\n    /* \"contracts/BTCETFToken.sol\":2125:2137  _msgSender() */\n  0x20\n  shr\n  jump\t// in\ntag_7:\n    /* \"contracts/BTCETFToken.sol\":2116:2122  _owner */\n  0x05\n  0x00\n    /* \"contracts/BTCETFToken.sol\":2116:2137  _owner = _msgSender() */\n  0x0100\n  exp\n  dup2\n  sload\n  dup2\n  0xffffffffffffffffffffffffffffffffffffffff\n  mul\n  not\n  and\n  swap1\n  dup4\n  0xffffffffffffffffffffffffffffffffffffffff\n  and\n  mul\n  or\n  swap1\n  sstore\n  pop\n    /* \"contracts/BTCETFToken.sol\":2176:2178  20 */\n  0x14\n    /* \"contracts/BTCETFToken.sol\":2161:2173  _totalSupply */\n  sload(0x03)\n    /* \"contracts/BTCETFToken.sol\":2161:2178  _totalSupply / 20 */\n  tag_9\n  swap2\n  swap1\n  tag_10\n  jump\t// in\ntag_9:\n    /* \"contracts/BTCETFToken.sol\":2141:2150  _balances */\n  0x06\n    /* \"contracts/BTCETFToken.sol\":2141:2158  _balances[_owner] */\n  0x00\n    /* \"contracts/BTCETFToken.sol\":2151:2157  _owner */\n  0x05\n  0x00\n  swap1\n  sload\n  swap1\n  0x0100\n  exp\n  swap1\n  div\n  0xffffffffffffffffffffffffffffffffffffffff\n  and\n    /* \"contracts/BTCETFToken.sol\":2141:2158  _balances[_owner] */\n  0xffffffffffffffffffffffffffffffffffffffff\n  and\n  0xffffffffffffffffffffffffffffffffffffffff\n  and\n  dup2\n  mstore\n  0x20\n  add\n  swap1\n  dup2\n  mstore\n  0x20\n  add\n  0x00\n  keccak256\n    /* \"contracts/BTCETFToken.sol\":2141:2178  _balances[_owner] = _totalSupply / 20 */\n  dup2\n  swap1\n  sstore\n  pop\n    /* \"contracts/BTCETFToken.sol\":2209:2211  20 */\n  0x14\n    /* \"contracts/BTCETFToken.sol\":2194:2206  _totalSupply */\n  sload(0x03)\n    /* \"contracts/BTCETFToken.sol\":2194:2211  _totalSupply / 20 */\n  tag_11\n  swap2\n  swap1\n  tag_10\n  jump\t// in\ntag_11:\n    /* \"contracts/BTCETFToken.sol\":2182:2191  _capacity */\n  0x04\n    /* \"contracts/BTCETFToken.sol\":2182:2211  _capacity = _totalSupply / 20 */\n  dup2\n  swap1\n  sstore\n  pop\n    /* \"contracts/BTCETFToken.sol\":2245:2251  _owner */\n  0x05\n  0x00\n  swap1\n  sload\n  swap1\n  0x0100\n  exp\n  swap1\n  div\n  0xffffffffffffffffffffffffffffffffffffffff\n  and\n    /* \"contracts/BTCETFToken.sol\":2221:2271  Transfer(address(this), _owner, _totalSupply / 20) */\n  0xffffffffffffffffffffffffffffffffffffffff\n  and\n    /* \"contracts/BTCETFToken.sol\":2238:2242  this */\n  address\n    /* \"contracts/BTCETFToken.sol\":2221:2271  Transfer(address(this), _owner, _totalSupply / 20) */\n  0xffffffffffffffffffffffffffffffffffffffff\n  and\n  0xddf252ad1be2c89b69c2b068fc378daa952ba7f163c4a11628f55a4df523b3ef\n    /* \"contracts/BTCETFToken.sol\":2268:2270  20 */\n  0x14\n    /* \"contracts/BTCETFToken.sol\":2253:2265  _totalSupply */\n  sload(0x03)\n    /* \"contracts/BTCETFToken.sol\":2253:2270  _totalSupply / 20 */\n  tag_12\n  swap2\n  swap1\n  tag_10\n  jump\t// in\ntag_12:\n    /* \"contracts/BTCETFToken.sol\":2221:2271  Transfer(address(this), _owner, _totalSupply / 20) */\n  mload(0x40)\n  tag_13\n  swap2\n  swap1\n  tag_14\n  jump\t// in\ntag_13:\n  mload(0x40)\n  dup1\n  swap2\n  sub\n  swap1\n  log3\n    /* \"contracts/BTCETFToken.sol\":1338:10606  contract BTCETFToken {... */\n  jump(tag_15)\n    /* \"contracts/BTCETFToken.sol\":10293:10372  function _msgSender() internal view returns (address) {... */\ntag_8:\n    /* \"contracts/BTCETFToken.sol\":10338:10345  address */\n  0x00\n    /* \"contracts/BTCETFToken.sol\":10358:10368  msg.sender */\n  caller\n    /* \"contracts/BTCETFToken.sol\":10351:10368  return msg.sender */\n  swap1\n  pop\n    /* \"contracts/BTCETFToken.sol\":10293:10372  function _msgSender() internal view returns (address) {... */\n  swap1\n  jump\t// out\n    /* \"#utility.yul\":7:106   */\ntag_17:\n    /* \"#utility.yul\":59:65   */\n  0x00\n    /* \"#utility.yul\":93:98   */\n  dup2\n    /* \"#utility.yul\":87:99   */\n  mload\n    /* \"#utility.yul\":77:99   */\n  swap1\n  pop\n    /* \"#utility.yul\":7:106   */\n  swap2\n  swap1\n  pop\n  jump\t// out\n    /* \"#utility.yul\":112:292   */\ntag_18:\n    /* \"#utility.yul\":160:237   */\n  0x4e487b7100000000000000000000000000000000000000000000000000000000\n    /* \"#utility.yul\":157:158   */\n  0x00\n    /* \"#utility.yul\":150:238   */\n  mstore\n    /* \"#utility.yul\":257:261   */\n  0x41\n    /* \"#utility.yul\":254:255   */\n  0x04\n    /* \"#utility.yul\":247:262   */\n  mstore\n    /* \"#utility.yul\":281:285   */\n  0x24\n    /* \"#utility.yul\":278:279   */\n  0x00\n    /* \"#utility.yul\":271:286   */\n  revert\n    /* \"#utility.yul\":298:478   */\ntag_19:\n    /* \"#utility.yul\":346:423   */\n  0x4e487b7100000000000000000000000000000000000000000000000000000000\n    /* \"#utility.yul\":343:344   */\n  0x00\n    /* \"#utility.yul\":336:424   */\n  mstore\n    /* \"#utility.yul\":443:447   */\n  0x22\n    /* \"#utility.yul\":440:441   */\n  0x04\n    /* \"#utility.yul\":433:448   */\n  mstore\n    /* \"#utility.yul\":467:471   */\n  0x24\n    /* \"#utility.yul\":464:465   */\n  0x00\n    /* \"#utility.yul\":457:472   */\n  revert\n    /* \"#utility.yul\":484:804   */\ntag_20:\n    /* \"#utility.yul\":528:534   */\n  0x00\n    /* \"#utility.yul\":565:566   */\n  0x02\n    /* \"#utility.yul\":559:563   */\n  dup3\n    /* \"#utility.yul\":555:567   */\n  div\n    /* \"#utility.yul\":545:567   */\n  swap1\n  pop\n    /* \"#utility.yul\":612:613   */\n  0x01\n    /* \"#utility.yul\":606:610   */\n  dup3\n    /* \"#utility.yul\":602:614   */\n  and\n    /* \"#utility.yul\":633:651   */\n  dup1\n    /* \"#utility.yul\":623:704   */\n  tag_45\n  jumpi\n    /* \"#utility.yul\":689:693   */\n  0x7f\n    /* \"#utility.yul\":681:687   */\n  dup3\n    /* \"#utility.yul\":677:694   */\n  and\n    /* \"#utility.yul\":667:694   */\n  swap2\n  pop\n    /* \"#utility.yul\":623:704   */\ntag_45:\n    /* \"#utility.yul\":751:753   */\n  0x20\n    /* \"#utility.yul\":743:749   */\n  dup3\n    /* \"#utility.yul\":740:754   */\n  lt\n    /* \"#utility.yul\":720:738   */\n  dup2\n    /* \"#utility.yul\":717:755   */\n  sub\n    /* \"#utility.yul\":714:798   */\n  tag_46\n  jumpi\n    /* \"#utility.yul\":770:788   */\n  tag_47\n  tag_19\n  jump\t// in\ntag_47:\n    /* \"#utility.yul\":714:798   */\ntag_46:\n    /* \"#utility.yul\":535:804   */\n  pop\n    /* \"#utility.yul\":484:804   */\n  swap2\n  swap1\n  pop\n  jump\t// out\n    /* \"#utility.yul\":810:951   */\ntag_21:\n    /* \"#utility.yul\":859:863   */\n  0x00\n    /* \"#utility.yul\":882:885   */\n  dup2\n    /* \"#utility.yul\":874:885   */\n  swap1\n  pop\n    /* \"#utility.yul\":905:908   */\n  dup2\n    /* \"#utility.yul\":902:903   */\n  0x00\n    /* \"#utility.yul\":895:909   */\n  mstore\n    /* \"#utility.yul\":939:943   */\n  0x20\n    /* \"#utility.yul\":936:937   */\n  0x00\n    /* \"#utility.yul\":926:944   */\n  keccak256\n    /* \"#utility.yul\":918:944   */\n  swap1\n  pop\n    /* \"#utility.yul\":810:951   */\n  swap2\n  swap1\n  pop\n  jump\t// out\n    /* \"#utility.yul\":957:1050   */\ntag_22:\n    /* \"#utility.yul\":994:1000   */\n  0x00\n    /* \"#utility.yul\":1041:1043   */\n  0x20\n    /* \"#utility.yul\":1036:1038   */\n  0x1f\n    /* \"#utility.yul\":1029:1034   */\n  dup4\n    /* \"#utility.yul\":1025:1039   */\n  add\n    /* \"#utility.yul\":1021:1044   */\n  div\n    /* \"#utility.yul\":1011:1044   */\n  swap1\n  pop\n    /* \"#utility.yul\":957:1050   */\n  swap2\n  swap1\n  pop\n  jump\t// out\n    /* \"#utility.yul\":1056:1163   */\ntag_23:\n    /* \"#utility.yul\":1100:1108   */\n  0x00\n    /* \"#utility.yul\":1150:1155   */\n  dup3\n    /* \"#utility.yul\":1144:1148   */\n  dup3\n    /* \"#utility.yul\":1140:1156   */\n  shl\n    /* \"#utility.yul\":1119:1156   */\n  swap1\n  pop\n    /* \"#utility.yul\":1056:1163   */\n  swap3\n  swap2\n  pop\n  pop\n  jump\t// out\n    /* \"#utility.yul\":1169:1562   */\ntag_24:\n    /* \"#utility.yul\":1238:1244   */\n  0x00\n    /* \"#utility.yul\":1288:1289   */\n  0x08\n    /* \"#utility.yul\":1276:1286   */\n  dup4\n    /* \"#utility.yul\":1272:1290   */\n  mul\n    /* \"#utility.yul\":1311:1408   */\n  tag_52\n    /* \"#utility.yul\":1341:1407   */\n  0xffffffffffffffffffffffffffffffffffffffffffffffffffffffffffffffff\n    /* \"#utility.yul\":1330:1339   */\n  dup3\n    /* \"#utility.yul\":1311:1408   */\n  tag_23\n  jump\t// in\ntag_52:\n    /* \"#utility.yul\":1429:1468   */\n  tag_53\n    /* \"#utility.yul\":1459:1467   */\n  dup7\n    /* \"#utility.yul\":1448:1457   */\n  dup4\n    /* \"#utility.yul\":1429:1468   */\n  tag_23\n  jump\t// in\ntag_53:\n    /* \"#utility.yul\":1417:1468   */\n  swap6\n  pop\n    /* \"#utility.yul\":1501:1505   */\n  dup1\n    /* \"#utility.yul\":1497:1506   */\n  not\n    /* \"#utility.yul\":1490:1495   */\n  dup5\n    /* \"#utility.yul\":1486:1507   */\n  and\n    /* \"#utility.yul\":1477:1507   */\n  swap4\n  pop\n    /* \"#utility.yul\":1550:1554   */\n  dup1\n    /* \"#utility.yul\":1540:1548   */\n  dup7\n    /* \"#utility.yul\":1536:1555   */\n  and\n    /* \"#utility.yul\":1529:1534   */\n  dup5\n    /* \"#utility.yul\":1526:1556   */\n  or\n    /* \"#utility.yul\":1516:1556   */\n  swap3\n  pop\n    /* \"#utility.yul\":1245:1562   */\n  pop\n  pop\n    /* \"#utility.yul\":1169:1562   */\n  swap4\n  swap3\n  pop\n  pop\n  pop\n  jump\t// out\n    /* \"#utility.yul\":1568:1645   */\ntag_25:\n    /* \"#utility.yul\":1605:1612   */\n  0x00\n    /* \"#utility.yul\":1634:1639   */\n  dup2\n    /* \"#utility.yul\":1623:1639   */\n  swap1\n  pop\n    /* \"#utility.yul\":1568:1645   */\n  swap2\n  swap1\n  pop\n  jump\t// out\n    /* \"#utility.yul\":1651:1711   */\ntag_26:\n    /* \"#utility.yul\":1679:1682   */\n  0x00\n    /* \"#utility.yul\":1700:1705   */\n  dup2\n    /* \"#utility.yul\":1693:1705   */\n  swap1\n  pop\n    /* \"#utility.yul\":1651:1711   */\n  swap2\n  swap1\n  pop\n  jump\t// out\n    /* \"#utility.yul\":1717:1859   */\ntag_27:\n    /* \"#utility.yul\":1767:1776   */\n  0x00\n    /* \"#utility.yul\":1800:1853   */\n  tag_57\n    /* \"#utility.yul\":1818:1852   */\n  tag_58\n    /* \"#utility.yul\":1827:1851   */\n  tag_59\n    /* \"#utility.yul\":1845:1850   */\n  dup5\n    /* \"#utility.yul\":1827:1851   */\n  tag_25\n  jump\t// in\ntag_59:\n    /* \"#utility.yul\":1818:1852   */\n  tag_26\n  jump\t// in\ntag_58:\n    /* \"#utility.yul\":1800:1853   */\n  tag_25\n  jump\t// in\ntag_57:\n    /* \"#utility.yul\":1787:1853   */\n  swap1\n  pop\n    /* \"#utility.yul\":1717:1859   */\n  swap2\n  swap1\n  pop\n  jump\t// out\n    /* \"#utility.yul\":1865:1940   */\ntag_28:\n    /* \"#utility.yul\":1908:1911   */\n  0x00\n    /* \"#utility.yul\":1929:1934   */\n  dup2\n    /* \"#utility.yul\":1922:1934   */\n  swap1\n  pop\n    /* \"#utility.yul\":1865:1940   */\n  swap2\n  swap1\n  pop\n  jump\t// out\n    /* \"#utility.yul\":1946:2215   */\ntag_29:\n    /* \"#utility.yul\":2056:2095   */\n  tag_62\n    /* \"#utility.yul\":2087:2094   */\n  dup4\n    /* \"#utility.yul\":2056:2095   */\n  tag_27\n  jump\t// in\ntag_62:\n    /* \"#utility.yul\":2117:2208   */\n  tag_63\n    /* \"#utility.yul\":2166:2207   */\n  tag_64\n    /* \"#utility.yul\":2190:2206   */\n  dup3\n    /* \"#utility.yul\":2166:2207   */\n  tag_28\n  jump\t// in\ntag_64:\n    /* \"#utility.yul\":2158:2164   */\n  dup5\n    /* \"#utility.yul\":2151:2155   */\n  dup5\n    /* \"#utility.yul\":2145:2156   */\n  sload\n    /* \"#utility.yul\":2117:2208   */\n  tag_24\n  jump\t// in\ntag_63:\n    /* \"#utility.yul\":2111:2115   */\n  dup3\n    /* \"#utility.yul\":2104:2209   */\n  sstore\n    /* \"#utility.yul\":2022:2215   */\n  pop\n    /* \"#utility.yul\":1946:2215   */\n  pop\n  pop\n  pop\n  jump\t// out\n    /* \"#utility.yul\":2221:2294   */\ntag_30:\n    /* \"#utility.yul\":2266:2269   */\n  0x00\n    /* \"#utility.yul\":2287:2288   */\n  0x00\n    /* \"#utility.yul\":2280:2288   */\n  swap1\n  pop\n    /* \"#utility.yul\":2221:2294   */\n  swap1\n  jump\t// out\n    /* \"#utility.yul\":2300:2489   */\ntag_31:\n    /* \"#utility.yul\":2377:2409   */\n  tag_67\n  tag_30\n  jump\t// in\ntag_67:\n    /* \"#utility.yul\":2418:2483   */\n  tag_68\n    /* \"#utility.yul\":2476:2482   */\n  dup2\n    /* \"#utility.yul\":2468:2474   */\n  dup5\n    /* \"#utility.yul\":2462:2466   */\n  dup5\n    /* \"#utility.yul\":2418:2483   */\n  tag_29\n  jump\t// in\ntag_68:\n    /* \"#utility.yul\":2353:2489   */\n  pop\n    /* \"#utility.yul\":2300:2489   */\n  pop\n  pop\n  jump\t// out\n    /* \"#utility.yul\":2495:2681   */\ntag_32:\n    /* \"#utility.yul\":2555:2675   */\ntag_70:\n    /* \"#utility.yul\":2572:2575   */\n  dup2\n    /* \"#utility.yul\":2565:2570   */\n  dup2\n    /* \"#utility.yul\":2562:2576   */\n  lt\n    /* \"#utility.yul\":2555:2675   */\n  iszero\n  tag_72\n  jumpi\n    /* \"#utility.yul\":2626:2665   */\n  tag_73\n    /* \"#utility.yul\":2663:2664   */\n  0x00\n    /* \"#utility.yul\":2656:2661   */\n  dup3\n    /* \"#utility.yul\":2626:2665   */\n  tag_31\n  jump\t// in\ntag_73:\n    /* \"#utility.yul\":2599:2600   */\n  0x01\n    /* \"#utility.yul\":2592:2597   */\n  dup2\n    /* \"#utility.yul\":2588:2601   */\n  add\n    /* \"#utility.yul\":2579:2601   */\n  swap1\n  pop\n    /* \"#utility.yul\":2555:2675   */\n  jump(tag_70)\ntag_72:\n    /* \"#utility.yul\":2495:2681   */\n  pop\n  pop\n  jump\t// out\n    /* \"#utility.yul\":2687:3230   */\ntag_33:\n    /* \"#utility.yul\":2788:2790   */\n  0x1f\n    /* \"#utility.yul\":2783:2786   */\n  dup3\n    /* \"#utility.yul\":2780:2791   */\n  gt\n    /* \"#utility.yul\":2777:3223   */\n  iszero\n  tag_75\n  jumpi\n    /* \"#utility.yul\":2822:2860   */\n  tag_76\n    /* \"#utility.yul\":2854:2859   */\n  dup2\n    /* \"#utility.yul\":2822:2860   */\n  tag_21\n  jump\t// in\ntag_76:\n    /* \"#utility.yul\":2906:2935   */\n  tag_77\n    /* \"#utility.yul\":2924:2934   */\n  dup5\n    /* \"#utility.yul\":2906:2935   */\n  tag_22\n  jump\t// in\ntag_77:\n    /* \"#utility.yul\":2896:2904   */\n  dup2\n    /* \"#utility.yul\":2892:2936   */\n  add\n    /* \"#utility.yul\":3089:3091   */\n  0x20\n    /* \"#utility.yul\":3077:3087   */\n  dup6\n    /* \"#utility.yul\":3074:3092   */\n  lt\n    /* \"#utility.yul\":3071:3120   */\n  iszero\n  tag_78\n  jumpi\n    /* \"#utility.yul\":3110:3118   */\n  dup2\n    /* \"#utility.yul\":3095:3118   */\n  swap1\n  pop\n    /* \"#utility.yul\":3071:3120   */\ntag_78:\n    /* \"#utility.yul\":3133:3213   */\n  tag_79\n    /* \"#utility.yul\":3189:3211   */\n  tag_80\n    /* \"#utility.yul\":3207:3210   */\n  dup6\n    /* \"#utility.yul\":3189:3211   */\n  tag_22\n  jump\t// in\ntag_80:\n    /* \"#utility.yul\":3179:3187   */\n  dup4\n    /* \"#utility.yul\":3175:3212   */\n  add\n    /* \"#utility.yul\":3162:3173   */\n  dup3\n    /* \"#utility.yul\":3133:3213   */\n  tag_32\n  jump\t// in\ntag_79:\n    /* \"#utility.yul\":2792:3223   */\n  pop\n  pop\n    /* \"#utility.yul\":2777:3223   */\ntag_75:\n    /* \"#utility.yul\":2687:3230   */\n  pop\n  pop\n  pop\n  jump\t// out\n    /* \"#utility.yul\":3236:3353   */\ntag_34:\n    /* \"#utility.yul\":3290:3298   */\n  0x00\n    /* \"#utility.yul\":3340:3345   */\n  dup3\n    /* \"#utility.yul\":3334:3338   */\n  dup3\n    /* \"#utility.yul\":3330:3346   */\n  shr\n    /* \"#utility.yul\":3309:3346   */\n  swap1\n  pop\n    /* \"#utility.yul\":3236:3353   */\n  swap3\n  swap2\n  pop\n  pop\n  jump\t// out\n    /* \"#utility.yul\":3359:3528   */\ntag_35:\n    /* \"#utility.yul\":3403:3409   */\n  0x00\n    /* \"#utility.yul\":3436:3487   */\n  tag_83\n    /* \"#utility.yul\":3484:3485   */\n  0x00\n    /* \"#utility.yul\":3480:3486   */\n  not\n    /* \"#utility.yul\":3472:3477   */\n  dup5\n    /* \"#utility.yul\":3469:3470   */\n  0x08\n    /* \"#utility.yul\":3465:3478   */\n  mul\n    /* \"#utility.yul\":3436:3487   */\n  tag_34\n  jump\t// in\ntag_83:\n    /* \"#utility.yul\":3432:3488   */\n  not\n    /* \"#utility.yul\":3517:3521   */\n  dup1\n    /* \"#utility.yul\":3511:3515   */\n  dup4\n    /* \"#utility.yul\":3507:3522   */\n  and\n    /* \"#utility.yul\":3497:3522   */\n  swap2\n  pop\n    /* \"#utility.yul\":3410:3528   */\n  pop\n    /* \"#utility.yul\":3359:3528   */\n  swap3\n  swap2\n  pop\n  pop\n  jump\t// out\n    /* \"#utility.yul\":3533:3828   */\ntag_36:\n    /* \"#utility.yul\":3609:3613   */\n  0x00\n    /* \"#utility.yul\":3755:3784   */\n  tag_85\n    /* \"#utility.yul\":3780:3783   */\n  dup4\n    /* \"#utility.yul\":3774:3778   */\n  dup4\n    /* \"#utility.yul\":3755:3784   */\n  tag_35\n  jump\t// in\ntag_85:\n    /* \"#utility.yul\":3747:3784   */\n  swap2\n  pop\n    /* \"#utility.yul\":3817:3820   */\n  dup3\n    /* \"#utility.yul\":3814:3815   */\n  0x02\n    /* \"#utility.yul\":3810:3821   */\n  mul\n    /* \"#utility.yul\":3804:3808   */\n  dup3\n    /* \"#utility.yul\":3801:3822   */\n  or\n    /* \"#utility.yul\":3793:3822   */\n  swap1\n  pop\n    /* \"#utility.yul\":3533:3828   */\n  swap3\n  swap2\n  pop\n  pop\n  jump\t// out\n    /* \"#utility.yul\":3833:5228   */\ntag_2:\n    /* \"#utility.yul\":3950:3987   */\n  tag_87\n    /* \"#utility.yul\":3983:3986   */\n  dup3\n    /* \"#utility.yul\":3950:3987   */\n  tag_17\n  jump\t// in\ntag_87:\n    /* \"#utility.yul\":4052:4070   */\n  0xffffffffffffffff\n    /* \"#utility.yul\":4044:4050   */\n  dup2\n    /* \"#utility.yul\":4041:4071   */\n  gt\n    /* \"#utility.yul\":4038:4094   */\n  iszero\n  tag_88\n  jumpi\n    /* \"#utility.yul\":4074:4092   */\n  tag_89\n  tag_18\n  jump\t// in\ntag_89:\n    /* \"#utility.yul\":4038:4094   */\ntag_88:\n    /* \"#utility.yul\":4118:4156   */\n  tag_90\n    /* \"#utility.yul\":4150:4154   */\n  dup3\n    /* \"#utility.yul\":4144:4155   */\n  sload\n    /* \"#utility.yul\":4118:4156   */\n  tag_20\n  jump\t// in\ntag_90:\n    /* \"#utility.yul\":4203:4270   */\n  tag_91\n    /* \"#utility.yul\":4263:4269   */\n  dup3\n    /* \"#utility.yul\":4255:4261   */\n  dup3\n    /* \"#utility.yul\":4249:4253   */\n  dup6\n    /* \"#utility.yul\":4203:4270   */\n  tag_33\n  jump\t// in\ntag_91:\n    /* \"#utility.yul\":4297:4298   */\n  0x00\n    /* \"#utility.yul\":4321:4325   */\n  0x20\n    /* \"#utility.yul\":4308:4325   */\n  swap1\n  pop\n    /* \"#utility.yul\":4353:4355   */\n  0x1f\n    /* \"#utility.yul\":4345:4351   */\n  dup4\n    /* \"#utility.yul\":4342:4356   */\n  gt\n    /* \"#utility.yul\":4370:4371   */\n  0x01\n    /* \"#utility.yul\":4365:4983   */\n  dup2\n  eq\n  tag_93\n  jumpi\n    /* \"#utility.yul\":5027:5028   */\n  0x00\n    /* \"#utility.yul\":5044:5050   */\n  dup5\n    /* \"#utility.yul\":5041:5118   */\n  iszero\n  tag_94\n  jumpi\n    /* \"#utility.yul\":5093:5102   */\n  dup3\n    /* \"#utility.yul\":5088:5091   */\n  dup8\n    /* \"#utility.yul\":5084:5103   */\n  add\n    /* \"#utility.yul\":5078:5104   */\n  mload\n    /* \"#utility.yul\":5069:5104   */\n  swap1\n  pop\n    /* \"#utility.yul\":5041:5118   */\ntag_94:\n    /* \"#utility.yul\":5144:5211   */\n  tag_95\n    /* \"#utility.yul\":5204:5210   */\n  dup6\n    /* \"#utility.yul\":5197:5202   */\n  dup3\n    /* \"#utility.yul\":5144:5211   */\n  tag_36\n  jump\t// in\ntag_95:\n    /* \"#utility.yul\":5138:5142   */\n  dup7\n    /* \"#utility.yul\":5131:5212   */\n  sstore\n    /* \"#utility.yul\":5000:5222   */\n  pop\n    /* \"#utility.yul\":4335:5222   */\n  jump(tag_92)\n    /* \"#utility.yul\":4365:4983   */\ntag_93:\n    /* \"#utility.yul\":4417:4421   */\n  0x1f\n    /* \"#utility.yul\":4413:4422   */\n  not\n    /* \"#utility.yul\":4405:4411   */\n  dup5\n    /* \"#utility.yul\":4401:4423   */\n  and\n    /* \"#utility.yul\":4451:4488   */\n  tag_96\n    /* \"#utility.yul\":4483:4487   */\n  dup7\n    /* \"#utility.yul\":4451:4488   */\n  tag_21\n  jump\t// in\ntag_96:\n    /* \"#utility.yul\":4510:4511   */\n  0x00\n    /* \"#utility.yul\":4524:4732   */\ntag_97:\n    /* \"#utility.yul\":4538:4545   */\n  dup3\n    /* \"#utility.yul\":4535:4536   */\n  dup2\n    /* \"#utility.yul\":4532:4546   */\n  lt\n    /* \"#utility.yul\":4524:4732   */\n  iszero\n  tag_99\n  jumpi\n    /* \"#utility.yul\":4617:4626   */\n  dup5\n    /* \"#utility.yul\":4612:4615   */\n  dup10\n    /* \"#utility.yul\":4608:4627   */\n  add\n    /* \"#utility.yul\":4602:4628   */\n  mload\n    /* \"#utility.yul\":4594:4600   */\n  dup3\n    /* \"#utility.yul\":4587:4629   */\n  sstore\n    /* \"#utility.yul\":4668:4669   */\n  0x01\n    /* \"#utility.yul\":4660:4666   */\n  dup3\n    /* \"#utility.yul\":4656:4670   */\n  add\n    /* \"#utility.yul\":4646:4670   */\n  swap2\n  pop\n    /* \"#utility.yul\":4715:4717   */\n  0x20\n    /* \"#utility.yul\":4704:4713   */\n  dup6\n    /* \"#utility.yul\":4700:4718   */\n  add\n    /* \"#utility.yul\":4687:4718   */\n  swap5\n  pop\n    /* \"#utility.yul\":4561:4565   */\n  0x20\n    /* \"#utility.yul\":4558:4559   */\n  dup2\n    /* \"#utility.yul\":4554:4566   */\n  add\n    /* \"#utility.yul\":4549:4566   */\n  swap1\n  pop\n    /* \"#utility.yul\":4524:4732   */\n  jump(tag_97)\ntag_99:\n    /* \"#utility.yul\":4760:4766   */\n  dup7\n    /* \"#utility.yul\":4751:4758   */\n  dup4\n    /* \"#utility.yul\":4748:4767   */\n  lt\n    /* \"#utility.yul\":4745:4924   */\n  iszero\n  tag_100\n  jumpi\n    /* \"#utility.yul\":4818:4827   */\n  dup5\n    /* \"#utility.yul\":4813:4816   */\n  dup10\n    /* \"#utility.yul\":4809:4828   */\n  add\n    /* \"#utility.yul\":4803:4829   */\n  mload\n    /* \"#utility.yul\":4861:4909   */\n  tag_101\n    /* \"#utility.yul\":4903:4907   */\n  0x1f\n    /* \"#utility.yul\":4895:4901   */\n  dup10\n    /* \"#utility.yul\":4891:4908   */\n  and\n    /* \"#utility.yul\":4880:4889   */\n  dup3\n    /* \"#utility.yul\":4861:4909   */\n  tag_35\n  jump\t// in\ntag_101:\n    /* \"#utility.yul\":4853:4859   */\n  dup4\n    /* \"#utility.yul\":4846:4910   */\n  sstore\n    /* \"#utility.yul\":4768:4924   */\n  pop\n    /* \"#utility.yul\":4745:4924   */\ntag_100:\n    /* \"#utility.yul\":4970:4971   */\n  0x01\n    /* \"#utility.yul\":4966:4967   */\n  0x02\n    /* \"#utility.yul\":4958:4964   */\n  dup9\n    /* \"#utility.yul\":4954:4968   */\n  mul\n    /* \"#utility.yul\":4950:4972   */\n  add\n    /* \"#utility.yul\":4944:4948   */\n  dup9\n    /* \"#utility.yul\":4937:4973   */\n  sstore\n    /* \"#utility.yul\":4372:4983   */\n  pop\n  pop\n  pop\n    /* \"#utility.yul\":4335:5222   */\ntag_92:\n  pop\n    /* \"#utility.yul\":3925:5228   */\n  pop\n  pop\n  pop\n    /* \"#utility.yul\":3833:5228   */\n  pop\n  pop\n  jump\t// out\n    /* \"#utility.yul\":5234:5414   */\ntag_37:\n    /* \"#utility.yul\":5282:5359   */\n  0x4e487b7100000000000000000000000000000000000000000000000000000000\n    /* \"#utility.yul\":5279:5280   */\n  0x00\n    /* \"#utility.yul\":5272:5360   */\n  mstore\n    /* \"#utility.yul\":5379:5383   */\n  0x12\n    /* \"#utility.yul\":5376:5377   */\n  0x04\n    /* \"#utility.yul\":5369:5384   */\n  mstore\n    /* \"#utility.yul\":5403:5407   */\n  0x24\n    /* \"#utility.yul\":5400:5401   */\n  0x00\n    /* \"#utility.yul\":5393:5408   */\n  revert\n    /* \"#utility.yul\":5606:5791   */\ntag_10:\n    /* \"#utility.yul\":5646:5647   */\n  0x00\n    /* \"#utility.yul\":5663:5683   */\n  tag_105\n    /* \"#utility.yul\":5681:5682   */\n  dup3\n    /* \"#utility.yul\":5663:5683   */\n  tag_25\n  jump\t// in\ntag_105:\n    /* \"#utility.yul\":5658:5683   */\n  swap2\n  pop\n    /* \"#utility.yul\":5697:5717   */\n  tag_106\n    /* \"#utility.yul\":5715:5716   */\n  dup4\n    /* \"#utility.yul\":5697:5717   */\n  tag_25\n  jump\t// in\ntag_106:\n    /* \"#utility.yul\":5692:5717   */\n  swap3\n  pop\n    /* \"#utility.yul\":5736:5737   */\n  dup3\n    /* \"#utility.yul\":5726:5761   */\n  tag_107\n  jumpi\n    /* \"#utility.yul\":5741:5759   */\n  tag_108\n  tag_37\n  jump\t// in\ntag_108:\n    /* \"#utility.yul\":5726:5761   */\ntag_107:\n    /* \"#utility.yul\":5783:5784   */\n  dup3\n    /* \"#utility.yul\":5780:5781   */\n  dup3\n    /* \"#utility.yul\":5776:5785   */\n  div\n    /* \"#utility.yul\":5771:5785   */\n  swap1\n  pop\n    /* \"#utility.yul\":5606:5791   */\n  swap3\n  swap2\n  pop\n  pop\n  jump\t// out\n    /* \"#utility.yul\":5797:5915   */\ntag_39:\n    /* \"#utility.yul\":5884:5908   */\n  tag_110\n    /* \"#utility.yul\":5902:5907   */\n  dup2\n    /* \"#utility.yul\":5884:5908   */\n  tag_25\n  jump\t// in\ntag_110:\n    /* \"#utility.yul\":5879:5882   */\n  dup3\n    /* \"#utility.yul\":5872:5909   */\n  mstore\n    /* \"#utility.yul\":5797:5915   */\n  pop\n  pop\n  jump\t// out\n    /* \"#utility.yul\":5921:6143   */\ntag_14:\n    /* \"#utility.yul\":6014:6018   */\n  0x00\n    /* \"#utility.yul\":6052:6054   */\n  0x20\n    /* \"#utility.yul\":6041:6050   */\n  dup3\n    /* \"#utility.yul\":6037:6055   */\n  add\n    /* \"#utility.yul\":6029:6055   */\n  swap1\n  pop\n    /* \"#utility.yul\":6065:6136   */\n  tag_112\n    /* \"#utility.yul\":6133:6134   */\n  0x00\n    /* \"#utility.yul\":6122:6131   */\n  dup4\n    /* \"#utility.yul\":6118:6135   */\n  add\n    /* \"#utility.yul\":6109:6115   */\n  dup5\n    /* \"#utility.yul\":6065:6136   */\n  tag_39\n  jump\t// in\ntag_112:\n    /* \"#utility.yul\":5921:6143   */\n  swap3\n  swap2\n  pop\n  pop\n  jump\t// out\n    /* \"contracts/BTCETFToken.sol\":1338:10606  contract BTCETFToken {... */\ntag_15:\n  dataSize(sub_0)\n  dup1\n  dataOffset(sub_0)\n  0x00\n  codecopy\n  0x00\n  return\nstop\n\nsub_0: assembly {\n        /* \"contracts/BTCETFToken.sol\":1338:10606  contract BTCETFToken {... */\n      mstore(0x40, 0x80)\n      jumpi(tag_1, lt(calldatasize, 0x04))\n      shr(0xe0, calldataload(0x00))\n      dup1\n      0x70a08231\n      gt\n      tag_20\n      jumpi\n      dup1\n      0xb7fc6612\n      gt\n      tag_21\n      jumpi\n      dup1\n      0xb7fc6612\n      eq\n      tag_15\n      jumpi\n      dup1\n      0xcb39a59a\n      eq\n      tag_16\n      jumpi\n      dup1\n      0xdbb57a4b\n      eq\n      tag_17\n      jumpi\n      dup1\n      0xdd62ed3e\n      eq\n      tag_18\n      jumpi\n      dup1\n      0xfee16841\n      eq\n      tag_19\n      jumpi\n      jump(tag_2)\n    tag_21:\n      dup1\n      0x70a08231\n      eq\n      tag_11\n      jumpi\n      dup1\n      0x95d89b41\n      eq\n      tag_12\n      jumpi\n      dup1\n      0xa9059cbb\n      eq\n      tag_13\n      jumpi\n      dup1\n      0xaee84f6b\n      eq\n      tag_14\n      jumpi\n      jump(tag_2)\n    tag_20:\n      dup1\n      0x18160ddd\n      gt\n      tag_22\n      jumpi\n      dup1\n      0x18160ddd\n      eq\n      tag_7\n      jumpi\n      dup1\n      0x23b872dd\n      eq\n      tag_8\n      jumpi\n      dup1\n      0x313ce567\n      eq\n      tag_9\n      jumpi\n      dup1\n      0x5cfc1a51\n      eq\n      tag_10\n      jumpi\n      jump(tag_2)\n    tag_22:\n      dup1\n      0x06fdde03\n      eq\n      tag_3\n      jumpi\n      dup1\n      0x095ea7b3\n      eq\n      tag_4\n      jumpi\n      dup1\n      0x0aae7a6b\n      eq\n      tag_5\n      jumpi\n      dup1\n      0x0f81dcf7\n      eq\n      tag_6\n      jumpi\n      jump(tag_2)\n    tag_1:\n      jumpi(tag_2, calldatasize)\n      stop\n    tag_2:\n      callvalue\n      dup1\n      iszero\n      tag_25\n      jumpi\n      revert(0x00, 0x00)\n    tag_25:\n      stop\n        /* \"contracts/BTCETFToken.sol\":3657:3729  function name() public view returns (string memory) {... */\n    tag_3:\n      callvalue\n      dup1\n      iszero\n      tag_28\n      jumpi\n      revert(0x00, 0x00)\n    tag_28:\n      pop\n      tag_29\n      tag_30\n      jump\t// in\n    tag_29:\n      mload(0x40)\n      tag_31\n      swap2\n      swap1\n      tag_32\n      jump\t// in\n    tag_31:\n      mload(0x40)\n      dup1\n      swap2\n      sub\n      swap1\n      return\n        /* \"contracts/BTCETFToken.sol\":2698:2832  function approve(address spender, uint256 amount) public returns (bool) {... */\n    tag_4:\n      callvalue\n      dup1\n      iszero\n      tag_33\n      jumpi\n      revert(0x00, 0x00)\n    tag_33:\n      pop\n      tag_34\n      0x04\n      dup1\n      calldatasize\n      sub\n      dup2\n      add\n      swap1\n      tag_35\n      swap2\n      swap1\n      tag_36\n      jump\t// in\n    tag_35:\n      tag_37\n      jump\t// in\n    tag_34:\n      mload(0x40)\n      tag_38\n      swap2\n      swap1\n      tag_39\n      jump\t// in\n    tag_38:\n      mload(0x40)\n      dup1\n      swap2\n      sub\n      swap1\n      return\n        /* \"contracts/BTCETFToken.sol\":9257:9639  function info(... */\n    tag_5:\n      callvalue\n      dup1\n      iszero\n      tag_40\n      jumpi\n      revert(0x00, 0x00)\n    tag_40:\n      pop\n      tag_41\n      0x04\n      dup1\n      calldatasize\n      sub\n      dup2\n      add\n      swap1\n      tag_42\n      swap2\n      swap1\n      tag_43\n      jump\t// in\n    tag_42:\n      tag_44\n      jump\t// in\n    tag_41:\n      mload(0x40)\n      tag_45\n      swap5\n      swap4\n      swap3\n      swap2\n      swap1\n      tag_46\n      jump\t// in\n    tag_45:\n      mload(0x40)\n      dup1\n      swap2\n      sub\n      swap1\n      return\n        /* \"contracts/BTCETFToken.sol\":6917:7394  function swapDeposit(... */\n    tag_6:\n      callvalue\n      dup1\n      iszero\n      tag_47\n      jumpi\n      revert(0x00, 0x00)\n    tag_47:\n      pop\n      tag_48\n      0x04\n      dup1\n      calldatasize\n      sub\n      dup2\n      add\n      swap1\n      tag_49\n      swap2\n      swap1\n      tag_36\n      jump\t// in\n    tag_49:\n      tag_50\n      jump\t// in\n    tag_48:\n      mload(0x40)\n      tag_51\n      swap2\n      swap1\n      tag_39\n      jump\t// in\n    tag_51:\n      mload(0x40)\n      dup1\n      swap2\n      sub\n      swap1\n      return\n        /* \"contracts/BTCETFToken.sol\":3058:3138  function totalSupply() public view returns (uint256) {... */\n    tag_7:\n      callvalue\n      dup1\n      iszero\n      tag_52\n      jumpi\n      revert(0x00, 0x00)\n    tag_52:\n      pop\n      tag_53\n      tag_54\n      jump\t// in\n    tag_53:\n      mload(0x40)\n      tag_55\n      swap2\n      swap1\n      tag_56\n      jump\t// in\n    tag_55:\n      mload(0x40)\n      dup1\n      swap2\n      sub\n      swap1\n      return\n        /* \"contracts/BTCETFToken.sol\":5457:5675  function transferFrom(... */\n    tag_8:\n      callvalue\n      dup1\n      iszero\n      tag_57\n      jumpi\n      revert(0x00, 0x00)\n    tag_57:\n      pop\n      tag_58\n      0x04\n      dup1\n      calldatasize\n      sub\n      dup2\n      add\n      swap1\n      tag_59\n      swap2\n      swap1\n      tag_60\n      jump\t// in\n    tag_59:\n      tag_61\n      jump\t// in\n    tag_58:\n      mload(0x40)\n      tag_62\n      swap2\n      swap1\n      tag_39\n      jump\t// in\n    tag_62:\n      mload(0x40)\n      dup1\n      swap2\n      sub\n      swap1\n      return\n        /* \"contracts/BTCETFToken.sol\":3532:3604  function decimals() public view returns (uint8) {... */\n    tag_9:\n      callvalue\n      dup1\n      iszero\n      tag_63\n      jumpi\n      revert(0x00, 0x00)\n    tag_63:\n      pop\n      tag_64\n      tag_65\n      jump\t// in\n    tag_64:\n      mload(0x40)\n      tag_66\n      swap2\n      swap1\n      tag_67\n      jump\t// in\n    tag_66:\n      mload(0x40)\n      dup1\n      swap2\n      sub\n      swap1\n      return\n        /* \"contracts/BTCETFToken.sol\":3183:3254  function capacity() public view returns (uint) {... */\n    tag_10:\n      callvalue\n      dup1\n      iszero\n      tag_68\n      jumpi\n      revert(0x00, 0x00)\n    tag_68:\n      pop\n      tag_69\n      tag_70\n      jump\t// in\n    tag_69:\n      mload(0x40)\n      tag_71\n      swap2\n      swap1\n      tag_56\n      jump\t// in\n    tag_71:\n      mload(0x40)\n      dup1\n      swap2\n      sub\n      swap1\n      return\n        /* \"contracts/BTCETFToken.sol\":9642:9763  function balanceOf(address account) public view returns (uint256) {... */\n    tag_11:\n      callvalue\n      dup1\n      iszero\n      tag_72\n      jumpi\n      revert(0x00, 0x00)\n    tag_72:\n      pop\n      tag_73\n      0x04\n      dup1\n      calldatasize\n      sub\n      dup2\n      add\n      swap1\n      tag_74\n      swap2\n      swap1\n      tag_43\n      jump\t// in\n    tag_74:\n      tag_75\n      jump\t// in\n    tag_73:\n      mload(0x40)\n      tag_76\n      swap2\n      swap1\n      tag_56\n      jump\t// in\n    tag_76:\n      mload(0x40)\n      dup1\n      swap2\n      sub\n      swap1\n      return\n        /* \"contracts/BTCETFToken.sol\":3823:3899  function symbol() public view returns (string memory) {... */\n    tag_12:\n      callvalue\n      dup1\n      iszero\n      tag_77\n      jumpi\n      revert(0x00, 0x00)\n    tag_77:\n      pop\n      tag_78\n      tag_79\n      jump\t// in\n    tag_78:\n      mload(0x40)\n      tag_80\n      swap2\n      swap1\n      tag_32\n      jump\t// in\n    tag_80:\n      mload(0x40)\n      dup1\n      swap2\n      sub\n      swap1\n      return\n        /* \"contracts/BTCETFToken.sol\":2447:2584  function transfer(address recipient, uint amount) public returns (bool) {... */\n    tag_13:\n      callvalue\n      dup1\n      iszero\n      tag_81\n      jumpi\n      revert(0x00, 0x00)\n    tag_81:\n      pop\n      tag_82\n      0x04\n      dup1\n      calldatasize\n      sub\n      dup2\n      add\n      swap1\n      tag_83\n      swap2\n      swap1\n      tag_36\n      jump\t// in\n    tag_83:\n      tag_84\n      jump\t// in\n    tag_82:\n      mload(0x40)\n      tag_85\n      swap2\n      swap1\n      tag_39\n      jump\t// in\n    tag_85:\n      mload(0x40)\n      dup1\n      swap2\n      sub\n      swap1\n      return\n        /* \"contracts/BTCETFToken.sol\":8393:8691  function setTime(address account, uint ts) public returns (bool) {... */\n    tag_14:\n      callvalue\n      dup1\n      iszero\n      tag_86\n      jumpi\n      revert(0x00, 0x00)\n    tag_86:\n      pop\n      tag_87\n      0x04\n      dup1\n      calldatasize\n      sub\n      dup2\n      add\n      swap1\n      tag_88\n      swap2\n      swap1\n      tag_36\n      jump\t// in\n    tag_88:\n      tag_89\n      jump\t// in\n    tag_87:\n      mload(0x40)\n      tag_90\n      swap2\n      swap1\n      tag_39\n      jump\t// in\n    tag_90:\n      mload(0x40)\n      dup1\n      swap2\n      sub\n      swap1\n      return\n        /* \"contracts/BTCETFToken.sol\":7397:7964  function transferMany(... */\n    tag_15:\n      callvalue\n      dup1\n      iszero\n      tag_91\n      jumpi\n      revert(0x00, 0x00)\n    tag_91:\n      pop\n      tag_92\n      0x04\n      dup1\n      calldatasize\n      sub\n      dup2\n      add\n      swap1\n      tag_93\n      swap2\n      swap1\n      tag_94\n      jump\t// in\n    tag_93:\n      tag_95\n      jump\t// in\n    tag_92:\n      mload(0x40)\n      tag_96\n      swap2\n      swap1\n      tag_39\n      jump\t// in\n    tag_96:\n      mload(0x40)\n      dup1\n      swap2\n      sub\n      swap1\n      return\n        /* \"contracts/BTCETFToken.sol\":9989:10241  function lp(address account, uint8 tag) public onlyOwner {... */\n    tag_16:\n      callvalue\n      dup1\n      iszero\n      tag_97\n      jumpi\n      revert(0x00, 0x00)\n    tag_97:\n      pop\n      tag_98\n      0x04\n      dup1\n      calldatasize\n      sub\n      dup2\n      add\n      swap1\n      tag_99\n      swap2\n      swap1\n      tag_100\n      jump\t// in\n    tag_99:\n      tag_101\n      jump\t// in\n    tag_98:\n      stop\n        /* \"contracts/BTCETFToken.sol\":7967:8390  function transferOne(address _addr, uint _amount) external returns (bool) {... */\n    tag_17:\n      callvalue\n      dup1\n      iszero\n      tag_102\n      jumpi\n      revert(0x00, 0x00)\n    tag_102:\n      pop\n      tag_103\n      0x04\n      dup1\n      calldatasize\n      sub\n      dup2\n      add\n      swap1\n      tag_104\n      swap2\n      swap1\n      tag_36\n      jump\t// in\n    tag_104:\n      tag_105\n      jump\t// in\n    tag_103:\n      mload(0x40)\n      tag_106\n      swap2\n      swap1\n      tag_39\n      jump\t// in\n    tag_106:\n      mload(0x40)\n      dup1\n      swap2\n      sub\n      swap1\n      return\n        /* \"contracts/BTCETFToken.sol\":2878:3010  function allowance(... */\n    tag_18:\n      callvalue\n      dup1\n      iszero\n      tag_107\n      jumpi\n      revert(0x00, 0x00)\n    tag_107:\n      pop\n      tag_108\n      0x04\n      dup1\n      calldatasize\n      sub\n      dup2\n      add\n      swap1\n      tag_109\n      swap2\n      swap1\n      tag_110\n      jump\t// in\n    tag_109:\n      tag_111\n      jump\t// in\n    tag_108:\n      mload(0x40)\n      tag_112\n      swap2\n      swap1\n      tag_56\n      jump\t// in\n    tag_112:\n      mload(0x40)\n      dup1\n      swap2\n      sub\n      swap1\n      return\n        /* \"contracts/BTCETFToken.sol\":8694:9254  function showDeposit(... */\n    tag_19:\n      callvalue\n      dup1\n      iszero\n      tag_113\n      jumpi\n      revert(0x00, 0x00)\n    tag_113:\n      pop\n      tag_114\n      0x04\n      dup1\n      calldatasize\n      sub\n      dup2\n      add\n      swap1\n      tag_115\n      swap2\n      swap1\n      tag_43\n      jump\t// in\n    tag_115:\n      tag_116\n      jump\t// in\n    tag_114:\n      mload(0x40)\n      tag_117\n      swap7\n      swap6\n      swap5\n      swap4\n      swap3\n      swap2\n      swap1\n      tag_118\n      jump\t// in\n    tag_117:\n      mload(0x40)\n      dup1\n      swap2\n      sub\n      swap1\n      return\n        /* \"contracts/BTCETFToken.sol\":3657:3729  function name() public view returns (string memory) {... */\n    tag_30:\n        /* \"contracts/BTCETFToken.sol\":3694:3707  string memory */\n      0x60\n        /* \"contracts/BTCETFToken.sol\":3720:3725  _name */\n      0x00\n        /* \"contracts/BTCETFToken.sol\":3713:3725  return _name */\n      dup1\n      sload\n      tag_120\n      swap1\n      tag_121\n      jump\t// in\n    tag_120:\n      dup1\n      0x1f\n      add\n      0x20\n      dup1\n      swap2\n      div\n      mul\n      0x20\n      add\n      mload(0x40)\n      swap1\n      dup2\n      add\n      0x40\n      mstore\n      dup1\n      swap3\n      swap2\n      swap1\n      dup2\n      dup2\n      mstore\n      0x20\n      add\n      dup3\n      dup1\n      sload\n      tag_122\n      swap1\n      tag_121\n      jump\t// in\n    tag_122:\n      dup1\n      iszero\n      tag_123\n      jumpi\n      dup1\n      0x1f\n      lt\n      tag_124\n      jumpi\n      0x0100\n      dup1\n      dup4\n      sload\n      div\n      mul\n      dup4\n      mstore\n      swap2\n      0x20\n      add\n      swap2\n      jump(tag_123)\n    tag_124:\n      dup3\n      add\n      swap2\n      swap1\n      0x00\n      mstore\n      keccak256(0x00, 0x20)\n      swap1\n    tag_125:\n      dup2\n      sload\n      dup2\n      mstore\n      swap1\n      0x01\n      add\n      swap1\n      0x20\n      add\n      dup1\n      dup4\n      gt\n      tag_125\n      jumpi\n      dup3\n      swap1\n      sub\n      0x1f\n      and\n      dup3\n      add\n      swap2\n    tag_123:\n      pop\n      pop\n      pop\n      pop\n      pop\n      swap1\n      pop\n        /* \"contracts/BTCETFToken.sol\":3657:3729  function name() public view returns (string memory) {... */\n      swap1\n      jump\t// out\n        /* \"contracts/BTCETFToken.sol\":2698:2832  function approve(address spender, uint256 amount) public returns (bool) {... */\n    tag_37:\n        /* \"contracts/BTCETFToken.sol\":2764:2768  bool */\n      0x00\n        /* \"contracts/BTCETFToken.sol\":2774:2813  _approve(_msgSender(), spender, amount) */\n      tag_127\n        /* \"contracts/BTCETFToken.sol\":2783:2795  _msgSender() */\n      tag_128\n        /* \"contracts/BTCETFToken.sol\":2783:2793  _msgSender */\n      tag_129\n        /* \"contracts/BTCETFToken.sol\":2783:2795  _msgSender() */\n      jump\t// in\n    tag_128:\n        /* \"contracts/BTCETFToken.sol\":2797:2804  spender */\n      dup5\n        /* \"contracts/BTCETFToken.sol\":2806:2812  amount */\n      dup5\n        /* \"contracts/BTCETFToken.sol\":2774:2782  _approve */\n      tag_130\n        /* \"contracts/BTCETFToken.sol\":2774:2813  _approve(_msgSender(), spender, amount) */\n      jump\t// in\n    tag_127:\n        /* \"contracts/BTCETFToken.sol\":2824:2828  true */\n      0x01\n        /* \"contracts/BTCETFToken.sol\":2817:2828  return true */\n      swap1\n      pop\n        /* \"contracts/BTCETFToken.sol\":2698:2832  function approve(address spender, uint256 amount) public returns (bool) {... */\n      swap3\n      swap2\n      pop\n      pop\n      jump\t// out\n        /* \"contracts/BTCETFToken.sol\":9257:9639  function info(... */\n    tag_44:\n        /* \"contracts/BTCETFToken.sol\":9324:9328  uint */\n      0x00\n        /* \"contracts/BTCETFToken.sol\":9330:9334  uint */\n      0x00\n        /* \"contracts/BTCETFToken.sol\":9336:9340  uint */\n      0x00\n        /* \"contracts/BTCETFToken.sol\":9342:9346  uint */\n      0x00\n        /* \"contracts/BTCETFToken.sol\":10491:10503  _msgSender() */\n      tag_132\n        /* \"contracts/BTCETFToken.sol\":10491:10501  _msgSender */\n      tag_129\n        /* \"contracts/BTCETFToken.sol\":10491:10503  _msgSender() */\n      jump\t// in\n    tag_132:\n        /* \"contracts/BTCETFToken.sol\":10481:10503  _owner == _msgSender() */\n      0xffffffffffffffffffffffffffffffffffffffff\n      and\n        /* \"contracts/BTCETFToken.sol\":10481:10487  _owner */\n      0x05\n      0x00\n      swap1\n      sload\n      swap1\n      0x0100\n      exp\n      swap1\n      div\n      0xffffffffffffffffffffffffffffffffffffffff\n      and\n        /* \"contracts/BTCETFToken.sol\":10481:10503  _owner == _msgSender() */\n      0xffffffffffffffffffffffffffffffffffffffff\n      and\n      eq\n        /* \"contracts/BTCETFToken.sol\":10473:10538  require(_owner == _msgSender(), \"Error: Caller is not the owner\") */\n      tag_133\n      jumpi\n      mload(0x40)\n      0x08c379a000000000000000000000000000000000000000000000000000000000\n      dup2\n      mstore\n      0x04\n      add\n      tag_134\n      swap1\n      tag_135\n      jump\t// in\n    tag_134:\n      mload(0x40)\n      dup1\n      swap2\n      sub\n      swap1\n      revert\n    tag_133:\n        /* \"contracts/BTCETFToken.sol\":9352:9363  uint anchor */\n      0x00\n        /* \"contracts/BTCETFToken.sol\":9402:9410  _deposit */\n      0x09\n        /* \"contracts/BTCETFToken.sol\":9402:9418  _deposit[ANCHOR] */\n      0x00\n        /* \"contracts/BTCETFToken.sol\":1860:1861  0 */\n      0x00\n        /* \"contracts/BTCETFToken.sol\":9402:9418  _deposit[ANCHOR] */\n      0xff\n      and\n      0xff\n      and\n      dup2\n      mstore\n      0x20\n      add\n      swap1\n      dup2\n      mstore\n      0x20\n      add\n      0x00\n      keccak256\n        /* \"contracts/BTCETFToken.sol\":9402:9427  _deposit[ANCHOR][account] */\n      0x00\n        /* \"contracts/BTCETFToken.sol\":9419:9426  account */\n      dup8\n        /* \"contracts/BTCETFToken.sol\":9402:9427  _deposit[ANCHOR][account] */\n      0xffffffffffffffffffffffffffffffffffffffff\n      and\n      0xffffffffffffffffffffffffffffffffffffffff\n      and\n      dup2\n      mstore\n      0x20\n      add\n      swap1\n      dup2\n      mstore\n      0x20\n      add\n      0x00\n      keccak256\n        /* \"contracts/BTCETFToken.sol\":9402:9434  _deposit[ANCHOR][account].reward */\n      0x01\n      add\n      sload\n        /* \"contracts/BTCETFToken.sol\":9366:9374  _deposit */\n      0x09\n        /* \"contracts/BTCETFToken.sol\":9366:9382  _deposit[ANCHOR] */\n      0x00\n        /* \"contracts/BTCETFToken.sol\":1860:1861  0 */\n      0x00\n        /* \"contracts/BTCETFToken.sol\":9366:9382  _deposit[ANCHOR] */\n      0xff\n      and\n      0xff\n      and\n      dup2\n      mstore\n      0x20\n      add\n      swap1\n      dup2\n      mstore\n      0x20\n      add\n      0x00\n      keccak256\n        /* \"contracts/BTCETFToken.sol\":9366:9391  _deposit[ANCHOR][account] */\n      0x00\n        /* \"contracts/BTCETFToken.sol\":9383:9390  account */\n      dup9\n        /* \"contracts/BTCETFToken.sol\":9366:9391  _deposit[ANCHOR][account] */\n      0xffffffffffffffffffffffffffffffffffffffff\n      and\n      0xffffffffffffffffffffffffffffffffffffffff\n      and\n      dup2\n      mstore\n      0x20\n      add\n      swap1\n      dup2\n      mstore\n      0x20\n      add\n      0x00\n      keccak256\n        /* \"contracts/BTCETFToken.sol\":9366:9396  _deposit[ANCHOR][account].fund */\n      0x00\n      add\n      sload\n        /* \"contracts/BTCETFToken.sol\":9366:9434  _deposit[ANCHOR][account].fund -... */\n      tag_137\n      swap2\n      swap1\n      tag_138\n      jump\t// in\n    tag_137:\n        /* \"contracts/BTCETFToken.sol\":9352:9434  uint anchor = _deposit[ANCHOR][account].fund -... */\n      swap1\n      pop\n        /* \"contracts/BTCETFToken.sol\":9438:9447  uint bank */\n      0x00\n        /* \"contracts/BTCETFToken.sol\":9484:9492  _deposit */\n      0x09\n        /* \"contracts/BTCETFToken.sol\":9484:9498  _deposit[BANK] */\n      0x00\n        /* \"contracts/BTCETFToken.sol\":1894:1895  1 */\n      0x01\n        /* \"contracts/BTCETFToken.sol\":9484:9498  _deposit[BANK] */\n      0xff\n      and\n      0xff\n      and\n      dup2\n      mstore\n      0x20\n      add\n      swap1\n      dup2\n      mstore\n      0x20\n      add\n      0x00\n      keccak256\n        /* \"contracts/BTCETFToken.sol\":9484:9507  _deposit[BANK][account] */\n      0x00\n        /* \"contracts/BTCETFToken.sol\":9499:9506  account */\n      dup9\n        /* \"contracts/BTCETFToken.sol\":9484:9507  _deposit[BANK][account] */\n      0xffffffffffffffffffffffffffffffffffffffff\n      and\n      0xffffffffffffffffffffffffffffffffffffffff\n      and\n      dup2\n      mstore\n      0x20\n      add\n      swap1\n      dup2\n      mstore\n      0x20\n      add\n      0x00\n      keccak256\n        /* \"contracts/BTCETFToken.sol\":9484:9514  _deposit[BANK][account].reward */\n      0x01\n      add\n      sload\n        /* \"contracts/BTCETFToken.sol\":9450:9458  _deposit */\n      0x09\n        /* \"contracts/BTCETFToken.sol\":9450:9464  _deposit[BANK] */\n      0x00\n        /* \"contracts/BTCETFToken.sol\":1894:1895  1 */\n      0x01\n        /* \"contracts/BTCETFToken.sol\":9450:9464  _deposit[BANK] */\n      0xff\n      and\n      0xff\n      and\n      dup2\n      mstore\n      0x20\n      add\n      swap1\n      dup2\n      mstore\n      0x20\n      add\n      0x00\n      keccak256\n        /* \"contracts/BTCETFToken.sol\":9450:9473  _deposit[BANK][account] */\n      0x00\n        /* \"contracts/BTCETFToken.sol\":9465:9472  account */\n      dup10\n        /* \"contracts/BTCETFToken.sol\":9450:9473  _deposit[BANK][account] */\n      0xffffffffffffffffffffffffffffffffffffffff\n      and\n      0xffffffffffffffffffffffffffffffffffffffff\n      and\n      dup2\n      mstore\n      0x20\n      add\n      swap1\n      dup2\n      mstore\n      0x20\n      add\n      0x00\n      keccak256\n        /* \"contracts/BTCETFToken.sol\":9450:9478  _deposit[BANK][account].fund */\n      0x00\n      add\n      sload\n        /* \"contracts/BTCETFToken.sol\":9450:9514  _deposit[BANK][account].fund -... */\n      tag_139\n      swap2\n      swap1\n      tag_138\n      jump\t// in\n    tag_139:\n        /* \"contracts/BTCETFToken.sol\":9438:9514  uint bank = _deposit[BANK][account].fund -... */\n      swap1\n      pop\n        /* \"contracts/BTCETFToken.sol\":9518:9530  uint balance */\n      0x00\n        /* \"contracts/BTCETFToken.sol\":9533:9542  _balances */\n      0x06\n        /* \"contracts/BTCETFToken.sol\":9533:9551  _balances[account] */\n      0x00\n        /* \"contracts/BTCETFToken.sol\":9543:9550  account */\n      dup10\n        /* \"contracts/BTCETFToken.sol\":9533:9551  _balances[account] */\n      0xffffffffffffffffffffffffffffffffffffffff\n      and\n      0xffffffffffffffffffffffffffffffffffffffff\n      and\n      dup2\n      mstore\n      0x20\n      add\n      swap1\n      dup2\n      mstore\n      0x20\n      add\n      0x00\n      keccak256\n      sload\n        /* \"contracts/BTCETFToken.sol\":9518:9551  uint balance = _balances[account] */\n      swap1\n      pop\n        /* \"contracts/BTCETFToken.sol\":9555:9568  uint treasury */\n      0x00\n        /* \"contracts/BTCETFToken.sol\":9571:9590  getDeposit(account) */\n      tag_140\n        /* \"contracts/BTCETFToken.sol\":9582:9589  account */\n      dup10\n        /* \"contracts/BTCETFToken.sol\":9571:9581  getDeposit */\n      tag_141\n        /* \"contracts/BTCETFToken.sol\":9571:9590  getDeposit(account) */\n      jump\t// in\n    tag_140:\n        /* \"contracts/BTCETFToken.sol\":9555:9590  uint treasury = getDeposit(account) */\n      swap1\n      pop\n        /* \"contracts/BTCETFToken.sol\":9603:9609  anchor */\n      dup4\n        /* \"contracts/BTCETFToken.sol\":9611:9615  bank */\n      dup4\n        /* \"contracts/BTCETFToken.sol\":9617:9624  balance */\n      dup4\n        /* \"contracts/BTCETFToken.sol\":9626:9634  treasury */\n      dup4\n        /* \"contracts/BTCETFToken.sol\":9595:9635  return (anchor, bank, balance, treasury) */\n      swap8\n      pop\n      swap8\n      pop\n      swap8\n      pop\n      swap8\n      pop\n      pop\n      pop\n      pop\n      pop\n        /* \"contracts/BTCETFToken.sol\":9257:9639  function info(... */\n      swap2\n      swap4\n      pop\n      swap2\n      swap4\n      jump\t// out\n        /* \"contracts/BTCETFToken.sol\":6917:7394  function swapDeposit(... */\n    tag_50:\n        /* \"contracts/BTCETFToken.sol\":6994:6998  bool */\n      0x00\n        /* \"contracts/BTCETFToken.sol\":7044:7045  1 */\n      0x01\n        /* \"contracts/BTCETFToken.sol\":7016:7026  _liquidity */\n      0x08\n        /* \"contracts/BTCETFToken.sol\":7016:7040  _liquidity[_msgSender()] */\n      0x00\n        /* \"contracts/BTCETFToken.sol\":7027:7039  _msgSender() */\n      tag_143\n        /* \"contracts/BTCETFToken.sol\":7027:7037  _msgSender */\n      tag_129\n        /* \"contracts/BTCETFToken.sol\":7027:7039  _msgSender() */\n      jump\t// in\n    tag_143:\n        /* \"contracts/BTCETFToken.sol\":7016:7040  _liquidity[_msgSender()] */\n      0xffffffffffffffffffffffffffffffffffffffff\n      and\n      0xffffffffffffffffffffffffffffffffffffffff\n      and\n      dup2\n      mstore\n      0x20\n      add\n      swap1\n      dup2\n      mstore\n      0x20\n      add\n      0x00\n      keccak256\n      0x00\n      swap1\n      sload\n      swap1\n      0x0100\n      exp\n      swap1\n      div\n      0xff\n      and\n        /* \"contracts/BTCETFToken.sol\":7016:7045  _liquidity[_msgSender()] == 1 */\n      0xff\n      and\n      eq\n        /* \"contracts/BTCETFToken.sol\":7016:7071  _liquidity[_msgSender()] == 1 && account_ != address(0) */\n      dup1\n      iszero\n      tag_144\n      jumpi\n      pop\n        /* \"contracts/BTCETFToken.sol\":7069:7070  0 */\n      0x00\n        /* \"contracts/BTCETFToken.sol\":7049:7071  account_ != address(0) */\n      0xffffffffffffffffffffffffffffffffffffffff\n      and\n        /* \"contracts/BTCETFToken.sol\":7049:7057  account_ */\n      dup4\n        /* \"contracts/BTCETFToken.sol\":7049:7071  account_ != address(0) */\n      0xffffffffffffffffffffffffffffffffffffffff\n      and\n      eq\n      iszero\n        /* \"contracts/BTCETFToken.sol\":7016:7071  _liquidity[_msgSender()] == 1 && account_ != address(0) */\n    tag_144:\n        /* \"contracts/BTCETFToken.sol\":7004:7105  require(... */\n      tag_145\n      jumpi\n      mload(0x40)\n      0x08c379a000000000000000000000000000000000000000000000000000000000\n      dup2\n      mstore\n      0x04\n      add\n      tag_146\n      swap1\n      tag_147\n      jump\t// in\n    tag_146:\n      mload(0x40)\n      dup1\n      swap2\n      sub\n      swap1\n      revert\n    tag_145:\n        /* \"contracts/BTCETFToken.sol\":7130:7131  0 */\n      0x00\n        /* \"contracts/BTCETFToken.sol\":7121:7127  amount */\n      dup3\n        /* \"contracts/BTCETFToken.sol\":7121:7131  amount > 0 */\n      gt\n        /* \"contracts/BTCETFToken.sol\":7121:7165  amount > 0 && getDeposit(account_) >= amount */\n      dup1\n      iszero\n      tag_148\n      jumpi\n      pop\n        /* \"contracts/BTCETFToken.sol\":7159:7165  amount */\n      dup2\n        /* \"contracts/BTCETFToken.sol\":7135:7155  getDeposit(account_) */\n      tag_149\n        /* \"contracts/BTCETFToken.sol\":7146:7154  account_ */\n      dup5\n        /* \"contracts/BTCETFToken.sol\":7135:7145  getDeposit */\n      tag_141\n        /* \"contracts/BTCETFToken.sol\":7135:7155  getDeposit(account_) */\n      jump\t// in\n    tag_149:\n        /* \"contracts/BTCETFToken.sol\":7135:7165  getDeposit(account_) >= amount */\n      lt\n      iszero\n        /* \"contracts/BTCETFToken.sol\":7121:7165  amount > 0 && getDeposit(account_) >= amount */\n    tag_148:\n        /* \"contracts/BTCETFToken.sol\":7109:7196  require(... */\n      tag_150\n      jumpi\n      mload(0x40)\n      0x08c379a000000000000000000000000000000000000000000000000000000000\n      dup2\n      mstore\n      0x04\n      add\n      tag_151\n      swap1\n      tag_152\n      jump\t// in\n    tag_151:\n      mload(0x40)\n      dup1\n      swap2\n      sub\n      swap1\n      revert\n    tag_150:\n        /* \"contracts/BTCETFToken.sol\":7201:7210  uint left */\n      0x00\n        /* \"contracts/BTCETFToken.sol\":7213:7219  amount */\n      dup3\n        /* \"contracts/BTCETFToken.sol\":7201:7219  uint left = amount */\n      swap1\n      pop\n        /* \"contracts/BTCETFToken.sol\":7228:7235  uint8 i */\n      0x00\n        /* \"contracts/BTCETFToken.sol\":7238:7239  0 */\n      0x00\n        /* \"contracts/BTCETFToken.sol\":7228:7239  uint8 i = 0 */\n      swap1\n      pop\n        /* \"contracts/BTCETFToken.sol\":7223:7326  for (uint8 i = 0; left > 0 && i < ROUND; i++) {... */\n    tag_153:\n        /* \"contracts/BTCETFToken.sol\":7248:7249  0 */\n      0x00\n        /* \"contracts/BTCETFToken.sol\":7241:7245  left */\n      dup3\n        /* \"contracts/BTCETFToken.sol\":7241:7249  left > 0 */\n      gt\n        /* \"contracts/BTCETFToken.sol\":7241:7262  left > 0 && i < ROUND */\n      dup1\n      iszero\n      tag_156\n      jumpi\n      pop\n        /* \"contracts/BTCETFToken.sol\":1929:1930  2 */\n      0x02\n        /* \"contracts/BTCETFToken.sol\":7253:7262  i < ROUND */\n      0xff\n      and\n        /* \"contracts/BTCETFToken.sol\":7253:7254  i */\n      dup2\n        /* \"contracts/BTCETFToken.sol\":7253:7262  i < ROUND */\n      0xff\n      and\n      lt\n        /* \"contracts/BTCETFToken.sol\":7241:7262  left > 0 && i < ROUND */\n    tag_156:\n        /* \"contracts/BTCETFToken.sol\":7223:7326  for (uint8 i = 0; left > 0 && i < ROUND; i++) {... */\n      iszero\n      tag_154\n      jumpi\n        /* \"contracts/BTCETFToken.sol\":7281:7321  _deposit[i][account_].incrReward(amount) */\n      tag_157\n        /* \"contracts/BTCETFToken.sol\":7314:7320  amount */\n      dup5\n        /* \"contracts/BTCETFToken.sol\":7281:7289  _deposit */\n      0x09\n        /* \"contracts/BTCETFToken.sol\":7281:7292  _deposit[i] */\n      0x00\n        /* \"contracts/BTCETFToken.sol\":7290:7291  i */\n      dup5\n        /* \"contracts/BTCETFToken.sol\":7281:7292  _deposit[i] */\n      0xff\n      and\n      0xff\n      and\n      dup2\n      mstore\n      0x20\n      add\n      swap1\n      dup2\n      mstore\n      0x20\n      add\n      0x00\n      keccak256\n        /* \"contracts/BTCETFToken.sol\":7281:7302  _deposit[i][account_] */\n      0x00\n        /* \"contracts/BTCETFToken.sol\":7293:7301  account_ */\n      dup9\n        /* \"contracts/BTCETFToken.sol\":7281:7302  _deposit[i][account_] */\n      0xffffffffffffffffffffffffffffffffffffffff\n      and\n      0xffffffffffffffffffffffffffffffffffffffff\n      and\n      dup2\n      mstore\n      0x20\n      add\n      swap1\n      dup2\n      mstore\n      0x20\n      add\n      0x00\n      keccak256\n        /* \"contracts/BTCETFToken.sol\":7281:7313  _deposit[i][account_].incrReward */\n      tag_158\n      swap1\n        /* \"contracts/BTCETFToken.sol\":7281:7321  _deposit[i][account_].incrReward(amount) */\n      swap2\n      swap1\n      0xffffffff\n      and\n      jump\t// in\n    tag_157:\n        /* \"contracts/BTCETFToken.sol\":7274:7321  left = _deposit[i][account_].incrReward(amount) */\n      swap2\n      pop\n        /* \"contracts/BTCETFToken.sol\":7264:7267  i++ */\n      dup1\n      dup1\n      tag_159\n      swap1\n      tag_160\n      jump\t// in\n    tag_159:\n      swap2\n      pop\n      pop\n        /* \"contracts/BTCETFToken.sol\":7223:7326  for (uint8 i = 0; left > 0 && i < ROUND; i++) {... */\n      jump(tag_153)\n    tag_154:\n      pop\n        /* \"contracts/BTCETFToken.sol\":7346:7347  0 */\n      0x00\n        /* \"contracts/BTCETFToken.sol\":7338:7342  left */\n      dup2\n        /* \"contracts/BTCETFToken.sol\":7338:7347  left == 0 */\n      eq\n        /* \"contracts/BTCETFToken.sol\":7330:7375  require(left == 0, \"Failed: Invalid balance\") */\n      tag_161\n      jumpi\n      mload(0x40)\n      0x08c379a000000000000000000000000000000000000000000000000000000000\n      dup2\n      mstore\n      0x04\n      add\n      tag_162\n      swap1\n      tag_163\n      jump\t// in\n    tag_162:\n      mload(0x40)\n      dup1\n      swap2\n      sub\n      swap1\n      revert\n    tag_161:\n        /* \"contracts/BTCETFToken.sol\":7386:7390  true */\n      0x01\n        /* \"contracts/BTCETFToken.sol\":7379:7390  return true */\n      swap2\n      pop\n      pop\n        /* \"contracts/BTCETFToken.sol\":6917:7394  function swapDeposit(... */\n      swap3\n      swap2\n      pop\n      pop\n      jump\t// out\n        /* \"contracts/BTCETFToken.sol\":3058:3138  function totalSupply() public view returns (uint256) {... */\n    tag_54:\n        /* \"contracts/BTCETFToken.sol\":3102:3109  uint256 */\n      0x00\n        /* \"contracts/BTCETFToken.sol\":3122:3134  _totalSupply */\n      sload(0x03)\n        /* \"contracts/BTCETFToken.sol\":3115:3134  return _totalSupply */\n      swap1\n      pop\n        /* \"contracts/BTCETFToken.sol\":3058:3138  function totalSupply() public view returns (uint256) {... */\n      swap1\n      jump\t// out\n        /* \"contracts/BTCETFToken.sol\":5457:5675  function transferFrom(... */\n    tag_61:\n        /* \"contracts/BTCETFToken.sol\":5543:5547  bool */\n      0x00\n        /* \"contracts/BTCETFToken.sol\":5553:5568  address spender */\n      0x00\n        /* \"contracts/BTCETFToken.sol\":5571:5583  _msgSender() */\n      tag_166\n        /* \"contracts/BTCETFToken.sol\":5571:5581  _msgSender */\n      tag_129\n        /* \"contracts/BTCETFToken.sol\":5571:5583  _msgSender() */\n      jump\t// in\n    tag_166:\n        /* \"contracts/BTCETFToken.sol\":5553:5583  address spender = _msgSender() */\n      swap1\n      pop\n        /* \"contracts/BTCETFToken.sol\":5587:5625  _spendAllowance(from, spender, amount) */\n      tag_167\n        /* \"contracts/BTCETFToken.sol\":5603:5607  from */\n      dup6\n        /* \"contracts/BTCETFToken.sol\":5609:5616  spender */\n      dup3\n        /* \"contracts/BTCETFToken.sol\":5618:5624  amount */\n      dup6\n        /* \"contracts/BTCETFToken.sol\":5587:5602  _spendAllowance */\n      tag_168\n        /* \"contracts/BTCETFToken.sol\":5587:5625  _spendAllowance(from, spender, amount) */\n      jump\t// in\n    tag_167:\n        /* \"contracts/BTCETFToken.sol\":5629:5656  _transfer(from, to, amount) */\n      tag_169\n        /* \"contracts/BTCETFToken.sol\":5639:5643  from */\n      dup6\n        /* \"contracts/BTCETFToken.sol\":5645:5647  to */\n      dup6\n        /* \"contracts/BTCETFToken.sol\":5649:5655  amount */\n      dup6\n        /* \"contracts/BTCETFToken.sol\":5629:5638  _transfer */\n      tag_170\n        /* \"contracts/BTCETFToken.sol\":5629:5656  _transfer(from, to, amount) */\n      jump\t// in\n    tag_169:\n        /* \"contracts/BTCETFToken.sol\":5667:5671  true */\n      0x01\n        /* \"contracts/BTCETFToken.sol\":5660:5671  return true */\n      swap2\n      pop\n      pop\n        /* \"contracts/BTCETFToken.sol\":5457:5675  function transferFrom(... */\n      swap4\n      swap3\n      pop\n      pop\n      pop\n      jump\t// out\n        /* \"contracts/BTCETFToken.sol\":3532:3604  function decimals() public view returns (uint8) {... */\n    tag_65:\n        /* \"contracts/BTCETFToken.sol\":3573:3578  uint8 */\n      0x00\n        /* \"contracts/BTCETFToken.sol\":3591:3600  _decimals */\n      0x02\n      0x00\n      swap1\n      sload\n      swap1\n      0x0100\n      exp\n      swap1\n      div\n      0xff\n      and\n        /* \"contracts/BTCETFToken.sol\":3584:3600  return _decimals */\n      swap1\n      pop\n        /* \"contracts/BTCETFToken.sol\":3532:3604  function decimals() public view returns (uint8) {... */\n      swap1\n      jump\t// out\n        /* \"contracts/BTCETFToken.sol\":3183:3254  function capacity() public view returns (uint) {... */\n    tag_70:\n        /* \"contracts/BTCETFToken.sol\":3224:3228  uint */\n      0x00\n        /* \"contracts/BTCETFToken.sol\":3241:3250  _capacity */\n      sload(0x04)\n        /* \"contracts/BTCETFToken.sol\":3234:3250  return _capacity */\n      swap1\n      pop\n        /* \"contracts/BTCETFToken.sol\":3183:3254  function capacity() public view returns (uint) {... */\n      swap1\n      jump\t// out\n        /* \"contracts/BTCETFToken.sol\":9642:9763  function balanceOf(address account) public view returns (uint256) {... */\n    tag_75:\n        /* \"contracts/BTCETFToken.sol\":9699:9706  uint256 */\n      0x00\n        /* \"contracts/BTCETFToken.sol\":9740:9759  getDeposit(account) */\n      tag_174\n        /* \"contracts/BTCETFToken.sol\":9751:9758  account */\n      dup3\n        /* \"contracts/BTCETFToken.sol\":9740:9750  getDeposit */\n      tag_141\n        /* \"contracts/BTCETFToken.sol\":9740:9759  getDeposit(account) */\n      jump\t// in\n    tag_174:\n        /* \"contracts/BTCETFToken.sol\":9719:9728  _balances */\n      0x06\n        /* \"contracts/BTCETFToken.sol\":9719:9737  _balances[account] */\n      0x00\n        /* \"contracts/BTCETFToken.sol\":9729:9736  account */\n      dup5\n        /* \"contracts/BTCETFToken.sol\":9719:9737  _balances[account] */\n      0xffffffffffffffffffffffffffffffffffffffff\n      and\n      0xffffffffffffffffffffffffffffffffffffffff\n      and\n      dup2\n      mstore\n      0x20\n      add\n      swap1\n      dup2\n      mstore\n      0x20\n      add\n      0x00\n      keccak256\n      sload\n        /* \"contracts/BTCETFToken.sol\":9719:9759  _balances[account] + getDeposit(account) */\n      tag_175\n      swap2\n      swap1\n      tag_176\n      jump\t// in\n    tag_175:\n        /* \"contracts/BTCETFToken.sol\":9712:9759  return _balances[account] + getDeposit(account) */\n      swap1\n      pop\n        /* \"contracts/BTCETFToken.sol\":9642:9763  function balanceOf(address account) public view returns (uint256) {... */\n      swap2\n      swap1\n      pop\n      jump\t// out\n        /* \"contracts/BTCETFToken.sol\":3823:3899  function symbol() public view returns (string memory) {... */\n    tag_79:\n        /* \"contracts/BTCETFToken.sol\":3862:3875  string memory */\n      0x60\n        /* \"contracts/BTCETFToken.sol\":3888:3895  _symbol */\n      0x01\n        /* \"contracts/BTCETFToken.sol\":3881:3895  return _symbol */\n      dup1\n      sload\n      tag_178\n      swap1\n      tag_121\n      jump\t// in\n    tag_178:\n      dup1\n      0x1f\n      add\n      0x20\n      dup1\n      swap2\n      div\n      mul\n      0x20\n      add\n      mload(0x40)\n      swap1\n      dup2\n      add\n      0x40\n      mstore\n      dup1\n      swap3\n      swap2\n      swap1\n      dup2\n      dup2\n      mstore\n      0x20\n      add\n      dup3\n      dup1\n      sload\n      tag_179\n      swap1\n      tag_121\n      jump\t// in\n    tag_179:\n      dup1\n      iszero\n      tag_180\n      jumpi\n      dup1\n      0x1f\n      lt\n      tag_181\n      jumpi\n      0x0100\n      dup1\n      dup4\n      sload\n      div\n      mul\n      dup4\n      mstore\n      swap2\n      0x20\n      add\n      swap2\n      jump(tag_180)\n    tag_181:\n      dup3\n      add\n      swap2\n      swap1\n      0x00\n      mstore\n      keccak256(0x00, 0x20)\n      swap1\n    tag_182:\n      dup2\n      sload\n      dup2\n      mstore\n      swap1\n      0x01\n      add\n      swap1\n      0x20\n      add\n      dup1\n      dup4\n      gt\n      tag_182\n      jumpi\n      dup3\n      swap1\n      sub\n      0x1f\n      and\n      dup3\n      add\n      swap2\n    tag_180:\n      pop\n      pop\n      pop\n      pop\n      pop\n      swap1\n      pop\n        /* \"contracts/BTCETFToken.sol\":3823:3899  function symbol() public view returns (string memory) {... */\n      swap1\n      jump\t// out\n        /* \"contracts/BTCETFToken.sol\":2447:2584  function transfer(address recipient, uint amount) public returns (bool) {... */\n    tag_84:\n        /* \"contracts/BTCETFToken.sol\":2513:2517  bool */\n      0x00\n        /* \"contracts/BTCETFToken.sol\":2523:2565  _transfer(_msgSender(), recipient, amount) */\n      tag_184\n        /* \"contracts/BTCETFToken.sol\":2533:2545  _msgSender() */\n      tag_185\n        /* \"contracts/BTCETFToken.sol\":2533:2543  _msgSender */\n      tag_129\n        /* \"contracts/BTCETFToken.sol\":2533:2545  _msgSender() */\n      jump\t// in\n    tag_185:\n        /* \"contracts/BTCETFToken.sol\":2547:2556  recipient */\n      dup5\n        /* \"contracts/BTCETFToken.sol\":2558:2564  amount */\n      dup5\n        /* \"contracts/BTCETFToken.sol\":2523:2532  _transfer */\n      tag_170\n        /* \"contracts/BTCETFToken.sol\":2523:2565  _transfer(_msgSender(), recipient, amount) */\n      jump\t// in\n    tag_184:\n        /* \"contracts/BTCETFToken.sol\":2576:2580  true */\n      0x01\n        /* \"contracts/BTCETFToken.sol\":2569:2580  return true */\n      swap1\n      pop\n        /* \"contracts/BTCETFToken.sol\":2447:2584  function transfer(address recipient, uint amount) public returns (bool) {... */\n      swap3\n      swap2\n      pop\n      pop\n      jump\t// out\n        /* \"contracts/BTCETFToken.sol\":8393:8691  function setTime(address account, uint ts) public returns (bool) {... */\n    tag_89:\n        /* \"contracts/BTCETFToken.sol\":8452:8456  bool */\n      0x00\n        /* \"contracts/BTCETFToken.sol\":8498:8499  1 */\n      0x01\n        /* \"contracts/BTCETFToken.sol\":8470:8480  _liquidity */\n      0x08\n        /* \"contracts/BTCETFToken.sol\":8470:8494  _liquidity[_msgSender()] */\n      0x00\n        /* \"contracts/BTCETFToken.sol\":8481:8493  _msgSender() */\n      tag_187\n        /* \"contracts/BTCETFToken.sol\":8481:8491  _msgSender */\n      tag_129\n        /* \"contracts/BTCETFToken.sol\":8481:8493  _msgSender() */\n      jump\t// in\n    tag_187:\n        /* \"contracts/BTCETFToken.sol\":8470:8494  _liquidity[_msgSender()] */\n      0xffffffffffffffffffffffffffffffffffffffff\n      and\n      0xffffffffffffffffffffffffffffffffffffffff\n      and\n      dup2\n      mstore\n      0x20\n      add\n      swap1\n      dup2\n      mstore\n      0x20\n      add\n      0x00\n      keccak256\n      0x00\n      swap1\n      sload\n      swap1\n      0x0100\n      exp\n      swap1\n      div\n      0xff\n      and\n        /* \"contracts/BTCETFToken.sol\":8470:8499  _liquidity[_msgSender()] == 1 */\n      0xff\n      and\n      eq\n        /* \"contracts/BTCETFToken.sol\":8462:8527  require(_liquidity[_msgSender()] == 1, \"Error: Operation failed\") */\n      tag_188\n      jumpi\n      mload(0x40)\n      0x08c379a000000000000000000000000000000000000000000000000000000000\n      dup2\n      mstore\n      0x04\n      add\n      tag_189\n      swap1\n      tag_147\n      jump\t// in\n    tag_189:\n      mload(0x40)\n      dup1\n      swap2\n      sub\n      swap1\n      revert\n    tag_188:\n        /* \"contracts/BTCETFToken.sol\":8537:8544  uint8 i */\n      0x00\n        /* \"contracts/BTCETFToken.sol\":8547:8548  0 */\n      0x00\n        /* \"contracts/BTCETFToken.sol\":8537:8548  uint8 i = 0 */\n      swap1\n      pop\n        /* \"contracts/BTCETFToken.sol\":8532:8672  for (uint8 i = 0; i < ROUND; i++) {... */\n    tag_190:\n        /* \"contracts/BTCETFToken.sol\":1929:1930  2 */\n      0x02\n        /* \"contracts/BTCETFToken.sol\":8550:8559  i < ROUND */\n      0xff\n      and\n        /* \"contracts/BTCETFToken.sol\":8550:8551  i */\n      dup2\n        /* \"contracts/BTCETFToken.sol\":8550:8559  i < ROUND */\n      0xff\n      and\n      lt\n        /* \"contracts/BTCETFToken.sol\":8532:8672  for (uint8 i = 0; i < ROUND; i++) {... */\n      iszero\n      tag_191\n      jumpi\n        /* \"contracts/BTCETFToken.sol\":8600:8615  block.timestamp */\n      timestamp\n        /* \"contracts/BTCETFToken.sol\":8571:8579  _deposit */\n      0x09\n        /* \"contracts/BTCETFToken.sol\":8571:8582  _deposit[i] */\n      0x00\n        /* \"contracts/BTCETFToken.sol\":8580:8581  i */\n      dup4\n        /* \"contracts/BTCETFToken.sol\":8571:8582  _deposit[i] */\n      0xff\n      and\n      0xff\n      and\n      dup2\n      mstore\n      0x20\n      add\n      swap1\n      dup2\n      mstore\n      0x20\n      add\n      0x00\n      keccak256\n        /* \"contracts/BTCETFToken.sol\":8571:8591  _deposit[i][account] */\n      0x00\n        /* \"contracts/BTCETFToken.sol\":8583:8590  account */\n      dup7\n        /* \"contracts/BTCETFToken.sol\":8571:8591  _deposit[i][account] */\n      0xffffffffffffffffffffffffffffffffffffffff\n      and\n      0xffffffffffffffffffffffffffffffffffffffff\n      and\n      dup2\n      mstore\n      0x20\n      add\n      swap1\n      dup2\n      mstore\n      0x20\n      add\n      0x00\n      keccak256\n        /* \"contracts/BTCETFToken.sol\":8571:8597  _deposit[i][account].start */\n      0x02\n      add\n        /* \"contracts/BTCETFToken.sol\":8571:8615  _deposit[i][account].start = block.timestamp */\n      dup2\n      swap1\n      sstore\n      pop\n        /* \"contracts/BTCETFToken.sol\":8665:8667  ts */\n      dup3\n        /* \"contracts/BTCETFToken.sol\":8647:8662  block.timestamp */\n      timestamp\n        /* \"contracts/BTCETFToken.sol\":8647:8667  block.timestamp + ts */\n      tag_193\n      swap2\n      swap1\n      tag_176\n      jump\t// in\n    tag_193:\n        /* \"contracts/BTCETFToken.sol\":8620:8628  _deposit */\n      0x09\n        /* \"contracts/BTCETFToken.sol\":8620:8631  _deposit[i] */\n      0x00\n        /* \"contracts/BTCETFToken.sol\":8629:8630  i */\n      dup4\n        /* \"contracts/BTCETFToken.sol\":8620:8631  _deposit[i] */\n      0xff\n      and\n      0xff\n      and\n      dup2\n      mstore\n      0x20\n      add\n      swap1\n      dup2\n      mstore\n      0x20\n      add\n      0x00\n      keccak256\n        /* \"contracts/BTCETFToken.sol\":8620:8640  _deposit[i][account] */\n      0x00\n        /* \"contracts/BTCETFToken.sol\":8632:8639  account */\n      dup7\n        /* \"contracts/BTCETFToken.sol\":8620:8640  _deposit[i][account] */\n      0xffffffffffffffffffffffffffffffffffffffff\n      and\n      0xffffffffffffffffffffffffffffffffffffffff\n      and\n      dup2\n      mstore\n      0x20\n      add\n      swap1\n      dup2\n      mstore\n      0x20\n      add\n      0x00\n      keccak256\n        /* \"contracts/BTCETFToken.sol\":8620:8644  _deposit[i][account].end */\n      0x03\n      add\n        /* \"contracts/BTCETFToken.sol\":8620:8667  _deposit[i][account].end = block.timestamp + ts */\n      dup2\n      swap1\n      sstore\n      pop\n        /* \"contracts/BTCETFToken.sol\":8561:8564  i++ */\n      dup1\n      dup1\n      0x01\n      add\n      swap2\n      pop\n      pop\n        /* \"contracts/BTCETFToken.sol\":8532:8672  for (uint8 i = 0; i < ROUND; i++) {... */\n      jump(tag_190)\n    tag_191:\n      pop\n        /* \"contracts/BTCETFToken.sol\":8683:8687  true */\n      0x01\n        /* \"contracts/BTCETFToken.sol\":8676:8687  return true */\n      swap1\n      pop\n        /* \"contracts/BTCETFToken.sol\":8393:8691  function setTime(address account, uint ts) public returns (bool) {... */\n      swap3\n      swap2\n      pop\n      pop\n      jump\t// out\n        /* \"contracts/BTCETFToken.sol\":7397:7964  function transferMany(... */\n    tag_95:\n        /* \"contracts/BTCETFToken.sol\":7491:7495  bool */\n      0x00\n        /* \"contracts/BTCETFToken.sol\":7541:7542  1 */\n      0x01\n        /* \"contracts/BTCETFToken.sol\":7513:7523  _liquidity */\n      0x08\n        /* \"contracts/BTCETFToken.sol\":7513:7537  _liquidity[_msgSender()] */\n      0x00\n        /* \"contracts/BTCETFToken.sol\":7524:7536  _msgSender() */\n      tag_195\n        /* \"contracts/BTCETFToken.sol\":7524:7534  _msgSender */\n      tag_129\n        /* \"contracts/BTCETFToken.sol\":7524:7536  _msgSender() */\n      jump\t// in\n    tag_195:\n        /* \"contracts/BTCETFToken.sol\":7513:7537  _liquidity[_msgSender()] */\n      0xffffffffffffffffffffffffffffffffffffffff\n      and\n      0xffffffffffffffffffffffffffffffffffffffff\n      and\n      dup2\n      mstore\n      0x20\n      add\n      swap1\n      dup2\n      mstore\n      0x20\n      add\n      0x00\n      keccak256\n      0x00\n      swap1\n      sload\n      swap1\n      0x0100\n      exp\n      swap1\n      div\n      0xff\n      and\n        /* \"contracts/BTCETFToken.sol\":7513:7542  _liquidity[_msgSender()] == 1 */\n      0xff\n      and\n      eq\n        /* \"contracts/BTCETFToken.sol\":7513:7572  _liquidity[_msgSender()] == 1 && paths.length == num.length */\n      dup1\n      iszero\n      tag_196\n      jumpi\n      pop\n        /* \"contracts/BTCETFToken.sol\":7562:7565  num */\n      dup3\n      dup3\n        /* \"contracts/BTCETFToken.sol\":7562:7572  num.length */\n      swap1\n      pop\n        /* \"contracts/BTCETFToken.sol\":7546:7551  paths */\n      dup6\n      dup6\n        /* \"contracts/BTCETFToken.sol\":7546:7558  paths.length */\n      swap1\n      pop\n        /* \"contracts/BTCETFToken.sol\":7546:7572  paths.length == num.length */\n      eq\n        /* \"contracts/BTCETFToken.sol\":7513:7572  _liquidity[_msgSender()] == 1 && paths.length == num.length */\n    tag_196:\n        /* \"contracts/BTCETFToken.sol\":7501:7606  require(... */\n      tag_197\n      jumpi\n      mload(0x40)\n      0x08c379a000000000000000000000000000000000000000000000000000000000\n      dup2\n      mstore\n      0x04\n      add\n      tag_198\n      swap1\n      tag_147\n      jump\t// in\n    tag_198:\n      mload(0x40)\n      dup1\n      swap2\n      sub\n      swap1\n      revert\n    tag_197:\n        /* \"contracts/BTCETFToken.sol\":7610:7620  uint count */\n      0x00\n        /* \"contracts/BTCETFToken.sol\":7623:7624  0 */\n      0x00\n        /* \"contracts/BTCETFToken.sol\":7610:7624  uint count = 0 */\n      swap1\n      pop\n        /* \"contracts/BTCETFToken.sol\":7628:7636  uint len */\n      0x00\n        /* \"contracts/BTCETFToken.sol\":7639:7644  paths */\n      dup7\n      dup7\n        /* \"contracts/BTCETFToken.sol\":7639:7651  paths.length */\n      swap1\n      pop\n        /* \"contracts/BTCETFToken.sol\":7628:7651  uint len = paths.length */\n      swap1\n      pop\n        /* \"contracts/BTCETFToken.sol\":7660:7667  uint8 i */\n      0x00\n        /* \"contracts/BTCETFToken.sol\":7670:7671  0 */\n      0x00\n        /* \"contracts/BTCETFToken.sol\":7660:7671  uint8 i = 0 */\n      swap1\n      pop\n        /* \"contracts/BTCETFToken.sol\":7655:7830  for (uint8 i = 0; i < len; i++) {... */\n    tag_199:\n        /* \"contracts/BTCETFToken.sol\":7677:7680  len */\n      dup2\n        /* \"contracts/BTCETFToken.sol\":7673:7674  i */\n      dup2\n        /* \"contracts/BTCETFToken.sol\":7673:7680  i < len */\n      0xff\n      and\n      lt\n        /* \"contracts/BTCETFToken.sol\":7655:7830  for (uint8 i = 0; i < len; i++) {... */\n      iszero\n      tag_200\n      jumpi\n        /* \"contracts/BTCETFToken.sol\":7692:7735  _deposit[ANCHOR][paths[i]].incrFund(num[i]) */\n      tag_202\n        /* \"contracts/BTCETFToken.sol\":7728:7731  num */\n      dup7\n      dup7\n        /* \"contracts/BTCETFToken.sol\":7732:7733  i */\n      dup4\n        /* \"contracts/BTCETFToken.sol\":7728:7734  num[i] */\n      0xff\n      and\n      dup2\n      dup2\n      lt\n      tag_203\n      jumpi\n      tag_204\n      tag_205\n      jump\t// in\n    tag_204:\n    tag_203:\n      swap1\n      pop\n      0x20\n      mul\n      add\n      calldataload\n        /* \"contracts/BTCETFToken.sol\":7692:7700  _deposit */\n      0x09\n        /* \"contracts/BTCETFToken.sol\":7692:7708  _deposit[ANCHOR] */\n      0x00\n        /* \"contracts/BTCETFToken.sol\":1860:1861  0 */\n      0x00\n        /* \"contracts/BTCETFToken.sol\":7692:7708  _deposit[ANCHOR] */\n      0xff\n      and\n      0xff\n      and\n      dup2\n      mstore\n      0x20\n      add\n      swap1\n      dup2\n      mstore\n      0x20\n      add\n      0x00\n      keccak256\n        /* \"contracts/BTCETFToken.sol\":7692:7718  _deposit[ANCHOR][paths[i]] */\n      0x00\n        /* \"contracts/BTCETFToken.sol\":7709:7714  paths */\n      dup12\n      dup12\n        /* \"contracts/BTCETFToken.sol\":7715:7716  i */\n      dup7\n        /* \"contracts/BTCETFToken.sol\":7709:7717  paths[i] */\n      0xff\n      and\n      dup2\n      dup2\n      lt\n      tag_206\n      jumpi\n      tag_207\n      tag_205\n      jump\t// in\n    tag_207:\n    tag_206:\n      swap1\n      pop\n      0x20\n      mul\n      add\n      0x20\n      dup2\n      add\n      swap1\n      tag_208\n      swap2\n      swap1\n      tag_43\n      jump\t// in\n    tag_208:\n        /* \"contracts/BTCETFToken.sol\":7692:7718  _deposit[ANCHOR][paths[i]] */\n      0xffffffffffffffffffffffffffffffffffffffff\n      and\n      0xffffffffffffffffffffffffffffffffffffffff\n      and\n      dup2\n      mstore\n      0x20\n      add\n      swap1\n      dup2\n      mstore\n      0x20\n      add\n      0x00\n      keccak256\n        /* \"contracts/BTCETFToken.sol\":7692:7727  _deposit[ANCHOR][paths[i]].incrFund */\n      tag_209\n      swap1\n        /* \"contracts/BTCETFToken.sol\":7692:7735  _deposit[ANCHOR][paths[i]].incrFund(num[i]) */\n      swap2\n      swap1\n      0xffffffff\n      and\n      jump\t// in\n    tag_202:\n      pop\n        /* \"contracts/BTCETFToken.sol\":7766:7769  num */\n      dup6\n      dup6\n        /* \"contracts/BTCETFToken.sol\":7770:7771  i */\n      dup3\n        /* \"contracts/BTCETFToken.sol\":7766:7772  num[i] */\n      0xff\n      and\n      dup2\n      dup2\n      lt\n      tag_210\n      jumpi\n      tag_211\n      tag_205\n      jump\t// in\n    tag_211:\n    tag_210:\n      swap1\n      pop\n      0x20\n      mul\n      add\n      calldataload\n        /* \"contracts/BTCETFToken.sol\":7757:7772  count += num[i] */\n      dup4\n      add\n      swap3\n      pop\n        /* \"contracts/BTCETFToken.sol\":7808:7813  paths */\n      dup8\n      dup8\n        /* \"contracts/BTCETFToken.sol\":7814:7815  i */\n      dup3\n        /* \"contracts/BTCETFToken.sol\":7808:7816  paths[i] */\n      0xff\n      and\n      dup2\n      dup2\n      lt\n      tag_212\n      jumpi\n      tag_213\n      tag_205\n      jump\t// in\n    tag_213:\n    tag_212:\n      swap1\n      pop\n      0x20\n      mul\n      add\n      0x20\n      dup2\n      add\n      swap1\n      tag_214\n      swap2\n      swap1\n      tag_43\n      jump\t// in\n    tag_214:\n        /* \"contracts/BTCETFToken.sol\":7787:7825  Transfer(address(0), paths[i], num[i]) */\n      0xffffffffffffffffffffffffffffffffffffffff\n      and\n        /* \"contracts/BTCETFToken.sol\":7804:7805  0 */\n      0x00\n        /* \"contracts/BTCETFToken.sol\":7787:7825  Transfer(address(0), paths[i], num[i]) */\n      0xffffffffffffffffffffffffffffffffffffffff\n      and\n      0xddf252ad1be2c89b69c2b068fc378daa952ba7f163c4a11628f55a4df523b3ef\n        /* \"contracts/BTCETFToken.sol\":7818:7821  num */\n      dup9\n      dup9\n        /* \"contracts/BTCETFToken.sol\":7822:7823  i */\n      dup6\n        /* \"contracts/BTCETFToken.sol\":7818:7824  num[i] */\n      0xff\n      and\n      dup2\n      dup2\n      lt\n      tag_215\n      jumpi\n      tag_216\n      tag_205\n      jump\t// in\n    tag_216:\n    tag_215:\n      swap1\n      pop\n      0x20\n      mul\n      add\n      calldataload\n        /* \"contracts/BTCETFToken.sol\":7787:7825  Transfer(address(0), paths[i], num[i]) */\n      mload(0x40)\n      tag_217\n      swap2\n      swap1\n      tag_56\n      jump\t// in\n    tag_217:\n      mload(0x40)\n      dup1\n      swap2\n      sub\n      swap1\n      log3\n        /* \"contracts/BTCETFToken.sol\":7682:7685  i++ */\n      dup1\n      dup1\n      tag_218\n      swap1\n      tag_160\n      jump\t// in\n    tag_218:\n      swap2\n      pop\n      pop\n        /* \"contracts/BTCETFToken.sol\":7655:7830  for (uint8 i = 0; i < len; i++) {... */\n      jump(tag_199)\n    tag_200:\n      pop\n        /* \"contracts/BTCETFToken.sol\":7864:7877  totalSupply() */\n      tag_219\n        /* \"contracts/BTCETFToken.sol\":7864:7875  totalSupply */\n      tag_54\n        /* \"contracts/BTCETFToken.sol\":7864:7877  totalSupply() */\n      jump\t// in\n    tag_219:\n        /* \"contracts/BTCETFToken.sol\":7855:7860  count */\n      dup3\n        /* \"contracts/BTCETFToken.sol\":7842:7852  capacity() */\n      tag_220\n        /* \"contracts/BTCETFToken.sol\":7842:7850  capacity */\n      tag_70\n        /* \"contracts/BTCETFToken.sol\":7842:7852  capacity() */\n      jump\t// in\n    tag_220:\n        /* \"contracts/BTCETFToken.sol\":7842:7860  capacity() + count */\n      tag_221\n      swap2\n      swap1\n      tag_176\n      jump\t// in\n    tag_221:\n        /* \"contracts/BTCETFToken.sol\":7842:7877  capacity() + count <= totalSupply() */\n      gt\n      iszero\n        /* \"contracts/BTCETFToken.sol\":7834:7904  require(capacity() + count <= totalSupply(), \"Error: capacity exceed\") */\n      tag_222\n      jumpi\n      mload(0x40)\n      0x08c379a000000000000000000000000000000000000000000000000000000000\n      dup2\n      mstore\n      0x04\n      add\n      tag_223\n      swap1\n      tag_224\n      jump\t// in\n    tag_223:\n      mload(0x40)\n      dup1\n      swap2\n      sub\n      swap1\n      revert\n    tag_222:\n        /* \"contracts/BTCETFToken.sol\":7936:7941  count */\n      dup2\n        /* \"contracts/BTCETFToken.sol\":7923:7932  _capacity */\n      0x04\n      0x00\n        /* \"contracts/BTCETFToken.sol\":7923:7941  _capacity += count */\n      dup3\n      dup3\n      sload\n      add\n      swap3\n      pop\n      pop\n      dup2\n      swap1\n      sstore\n      pop\n        /* \"contracts/BTCETFToken.sol\":7956:7960  true */\n      0x01\n        /* \"contracts/BTCETFToken.sol\":7949:7960  return true */\n      swap3\n      pop\n      pop\n      pop\n        /* \"contracts/BTCETFToken.sol\":7397:7964  function transferMany(... */\n      swap5\n      swap4\n      pop\n      pop\n      pop\n      pop\n      jump\t// out\n        /* \"contracts/BTCETFToken.sol\":9989:10241  function lp(address account, uint8 tag) public onlyOwner {... */\n    tag_101:\n        /* \"contracts/BTCETFToken.sol\":10491:10503  _msgSender() */\n      tag_226\n        /* \"contracts/BTCETFToken.sol\":10491:10501  _msgSender */\n      tag_129\n        /* \"contracts/BTCETFToken.sol\":10491:10503  _msgSender() */\n      jump\t// in\n    tag_226:\n        /* \"contracts/BTCETFToken.sol\":10481:10503  _owner == _msgSender() */\n      0xffffffffffffffffffffffffffffffffffffffff\n      and\n        /* \"contracts/BTCETFToken.sol\":10481:10487  _owner */\n      0x05\n      0x00\n      swap1\n      sload\n      swap1\n      0x0100\n      exp\n      swap1\n      div\n      0xffffffffffffffffffffffffffffffffffffffff\n      and\n        /* \"contracts/BTCETFToken.sol\":10481:10503  _owner == _msgSender() */\n      0xffffffffffffffffffffffffffffffffffffffff\n      and\n      eq\n        /* \"contracts/BTCETFToken.sol\":10473:10538  require(_owner == _msgSender(), \"Error: Caller is not the owner\") */\n      tag_227\n      jumpi\n      mload(0x40)\n      0x08c379a000000000000000000000000000000000000000000000000000000000\n      dup2\n      mstore\n      0x04\n      add\n      tag_228\n      swap1\n      tag_135\n      jump\t// in\n    tag_228:\n      mload(0x40)\n      dup1\n      swap2\n      sub\n      swap1\n      revert\n    tag_227:\n        /* \"contracts/BTCETFToken.sol\":10081:10082  0 */\n      0x00\n        /* \"contracts/BTCETFToken.sol\":10062:10083  account != address(0) */\n      0xffffffffffffffffffffffffffffffffffffffff\n      and\n        /* \"contracts/BTCETFToken.sol\":10062:10069  account */\n      dup3\n        /* \"contracts/BTCETFToken.sol\":10062:10083  account != address(0) */\n      0xffffffffffffffffffffffffffffffffffffffff\n      and\n      sub\n        /* \"contracts/BTCETFToken.sol\":10050:10134  require(... */\n      tag_230\n      jumpi\n      mload(0x40)\n      0x08c379a000000000000000000000000000000000000000000000000000000000\n      dup2\n      mstore\n      0x04\n      add\n      tag_231\n      swap1\n      tag_232\n      jump\t// in\n    tag_231:\n      mload(0x40)\n      dup1\n      swap2\n      sub\n      swap1\n      revert\n    tag_230:\n        /* \"contracts/BTCETFToken.sol\":10149:10150  1 */\n      0x01\n        /* \"contracts/BTCETFToken.sol\":10142:10145  tag */\n      dup2\n        /* \"contracts/BTCETFToken.sol\":10142:10150  tag == 1 */\n      0xff\n      and\n      sub\n        /* \"contracts/BTCETFToken.sol\":10138:10238  if (tag == 1) {... */\n      tag_233\n      jumpi\n        /* \"contracts/BTCETFToken.sol\":10179:10180  1 */\n      0x01\n        /* \"contracts/BTCETFToken.sol\":10157:10167  _liquidity */\n      0x08\n        /* \"contracts/BTCETFToken.sol\":10157:10176  _liquidity[account] */\n      0x00\n        /* \"contracts/BTCETFToken.sol\":10168:10175  account */\n      dup5\n        /* \"contracts/BTCETFToken.sol\":10157:10176  _liquidity[account] */\n      0xffffffffffffffffffffffffffffffffffffffff\n      and\n      0xffffffffffffffffffffffffffffffffffffffff\n      and\n      dup2\n      mstore\n      0x20\n      add\n      swap1\n      dup2\n      mstore\n      0x20\n      add\n      0x00\n      keccak256\n      0x00\n        /* \"contracts/BTCETFToken.sol\":10157:10180  _liquidity[account] = 1 */\n      0x0100\n      exp\n      dup2\n      sload\n      dup2\n      0xff\n      mul\n      not\n      and\n      swap1\n      dup4\n      0xff\n      and\n      mul\n      or\n      swap1\n      sstore\n      pop\n        /* \"contracts/BTCETFToken.sol\":10138:10238  if (tag == 1) {... */\n      jump(tag_234)\n    tag_233:\n        /* \"contracts/BTCETFToken.sol\":10202:10203  2 */\n      0x02\n        /* \"contracts/BTCETFToken.sol\":10195:10198  tag */\n      dup2\n        /* \"contracts/BTCETFToken.sol\":10195:10203  tag == 2 */\n      0xff\n      and\n      sub\n        /* \"contracts/BTCETFToken.sol\":10191:10238  if (tag == 2) {... */\n      tag_235\n      jumpi\n        /* \"contracts/BTCETFToken.sol\":10232:10233  0 */\n      0x00\n        /* \"contracts/BTCETFToken.sol\":10210:10220  _liquidity */\n      0x08\n        /* \"contracts/BTCETFToken.sol\":10210:10229  _liquidity[account] */\n      0x00\n        /* \"contracts/BTCETFToken.sol\":10221:10228  account */\n      dup5\n        /* \"contracts/BTCETFToken.sol\":10210:10229  _liquidity[account] */\n      0xffffffffffffffffffffffffffffffffffffffff\n      and\n      0xffffffffffffffffffffffffffffffffffffffff\n      and\n      dup2\n      mstore\n      0x20\n      add\n      swap1\n      dup2\n      mstore\n      0x20\n      add\n      0x00\n      keccak256\n      0x00\n        /* \"contracts/BTCETFToken.sol\":10210:10233  _liquidity[account] = 0 */\n      0x0100\n      exp\n      dup2\n      sload\n      dup2\n      0xff\n      mul\n      not\n      and\n      swap1\n      dup4\n      0xff\n      and\n      mul\n      or\n      swap1\n      sstore\n      pop\n        /* \"contracts/BTCETFToken.sol\":10191:10238  if (tag == 2) {... */\n    tag_235:\n        /* \"contracts/BTCETFToken.sol\":10138:10238  if (tag == 1) {... */\n    tag_234:\n        /* \"contracts/BTCETFToken.sol\":9989:10241  function lp(address account, uint8 tag) public onlyOwner {... */\n      pop\n      pop\n      jump\t// out\n        /* \"contracts/BTCETFToken.sol\":7967:8390  function transferOne(address _addr, uint _amount) external returns (bool) {... */\n    tag_105:\n        /* \"contracts/BTCETFToken.sol\":8035:8039  bool */\n      0x00\n        /* \"contracts/BTCETFToken.sol\":8081:8082  1 */\n      0x01\n        /* \"contracts/BTCETFToken.sol\":8053:8063  _liquidity */\n      0x08\n        /* \"contracts/BTCETFToken.sol\":8053:8077  _liquidity[_msgSender()] */\n      0x00\n        /* \"contracts/BTCETFToken.sol\":8064:8076  _msgSender() */\n      tag_237\n        /* \"contracts/BTCETFToken.sol\":8064:8074  _msgSender */\n      tag_129\n        /* \"contracts/BTCETFToken.sol\":8064:8076  _msgSender() */\n      jump\t// in\n    tag_237:\n        /* \"contracts/BTCETFToken.sol\":8053:8077  _liquidity[_msgSender()] */\n      0xffffffffffffffffffffffffffffffffffffffff\n      and\n      0xffffffffffffffffffffffffffffffffffffffff\n      and\n      dup2\n      mstore\n      0x20\n      add\n      swap1\n      dup2\n      mstore\n      0x20\n      add\n      0x00\n      keccak256\n      0x00\n      swap1\n      sload\n      swap1\n      0x0100\n      exp\n      swap1\n      div\n      0xff\n      and\n        /* \"contracts/BTCETFToken.sol\":8053:8082  _liquidity[_msgSender()] == 1 */\n      0xff\n      and\n      eq\n        /* \"contracts/BTCETFToken.sol\":8045:8110  require(_liquidity[_msgSender()] == 1, \"Error: Operation failed\") */\n      tag_238\n      jumpi\n      mload(0x40)\n      0x08c379a000000000000000000000000000000000000000000000000000000000\n      dup2\n      mstore\n      0x04\n      add\n      tag_239\n      swap1\n      tag_147\n      jump\t// in\n    tag_239:\n      mload(0x40)\n      dup1\n      swap2\n      sub\n      swap1\n      revert\n    tag_238:\n        /* \"contracts/BTCETFToken.sol\":8114:8124  uint count */\n      0x00\n        /* \"contracts/BTCETFToken.sol\":8127:8128  0 */\n      0x00\n        /* \"contracts/BTCETFToken.sol\":8114:8128  uint count = 0 */\n      swap1\n      pop\n        /* \"contracts/BTCETFToken.sol\":8132:8171  _deposit[BANK][_addr].incrFund(_amount) */\n      tag_240\n        /* \"contracts/BTCETFToken.sol\":8163:8170  _amount */\n      dup4\n        /* \"contracts/BTCETFToken.sol\":8132:8140  _deposit */\n      0x09\n        /* \"contracts/BTCETFToken.sol\":8132:8146  _deposit[BANK] */\n      0x00\n        /* \"contracts/BTCETFToken.sol\":1894:1895  1 */\n      0x01\n        /* \"contracts/BTCETFToken.sol\":8132:8146  _deposit[BANK] */\n      0xff\n      and\n      0xff\n      and\n      dup2\n      mstore\n      0x20\n      add\n      swap1\n      dup2\n      mstore\n      0x20\n      add\n      0x00\n      keccak256\n        /* \"contracts/BTCETFToken.sol\":8132:8153  _deposit[BANK][_addr] */\n      0x00\n        /* \"contracts/BTCETFToken.sol\":8147:8152  _addr */\n      dup8\n        /* \"contracts/BTCETFToken.sol\":8132:8153  _deposit[BANK][_addr] */\n      0xffffffffffffffffffffffffffffffffffffffff\n      and\n      0xffffffffffffffffffffffffffffffffffffffff\n      and\n      dup2\n      mstore\n      0x20\n      add\n      swap1\n      dup2\n      mstore\n      0x20\n      add\n      0x00\n      keccak256\n        /* \"contracts/BTCETFToken.sol\":8132:8162  _deposit[BANK][_addr].incrFund */\n      tag_209\n      swap1\n        /* \"contracts/BTCETFToken.sol\":8132:8171  _deposit[BANK][_addr].incrFund(_amount) */\n      swap2\n      swap1\n      0xffffffff\n      and\n      jump\t// in\n    tag_240:\n      pop\n        /* \"contracts/BTCETFToken.sol\":8200:8207  _amount */\n      dup3\n        /* \"contracts/BTCETFToken.sol\":8191:8207  count += _amount */\n      dup2\n      add\n      swap1\n      pop\n        /* \"contracts/BTCETFToken.sol\":8241:8246  _addr */\n      dup4\n        /* \"contracts/BTCETFToken.sol\":8220:8256  Transfer(address(0), _addr, _amount) */\n      0xffffffffffffffffffffffffffffffffffffffff\n      and\n        /* \"contracts/BTCETFToken.sol\":8237:8238  0 */\n      0x00\n        /* \"contracts/BTCETFToken.sol\":8220:8256  Transfer(address(0), _addr, _amount) */\n      0xffffffffffffffffffffffffffffffffffffffff\n      and\n      0xddf252ad1be2c89b69c2b068fc378daa952ba7f163c4a11628f55a4df523b3ef\n        /* \"contracts/BTCETFToken.sol\":8248:8255  _amount */\n      dup6\n        /* \"contracts/BTCETFToken.sol\":8220:8256  Transfer(address(0), _addr, _amount) */\n      mload(0x40)\n      tag_241\n      swap2\n      swap1\n      tag_56\n      jump\t// in\n    tag_241:\n      mload(0x40)\n      dup1\n      swap2\n      sub\n      swap1\n      log3\n        /* \"contracts/BTCETFToken.sol\":8290:8303  totalSupply() */\n      tag_242\n        /* \"contracts/BTCETFToken.sol\":8290:8301  totalSupply */\n      tag_54\n        /* \"contracts/BTCETFToken.sol\":8290:8303  totalSupply() */\n      jump\t// in\n    tag_242:\n        /* \"contracts/BTCETFToken.sol\":8281:8286  count */\n      dup2\n        /* \"contracts/BTCETFToken.sol\":8268:8278  capacity() */\n      tag_243\n        /* \"contracts/BTCETFToken.sol\":8268:8276  capacity */\n      tag_70\n        /* \"contracts/BTCETFToken.sol\":8268:8278  capacity() */\n      jump\t// in\n    tag_243:\n        /* \"contracts/BTCETFToken.sol\":8268:8286  capacity() + count */\n      tag_244\n      swap2\n      swap1\n      tag_176\n      jump\t// in\n    tag_244:\n        /* \"contracts/BTCETFToken.sol\":8268:8303  capacity() + count <= totalSupply() */\n      gt\n      iszero\n        /* \"contracts/BTCETFToken.sol\":8260:8330  require(capacity() + count <= totalSupply(), \"Error: capacity exceed\") */\n      tag_245\n      jumpi\n      mload(0x40)\n      0x08c379a000000000000000000000000000000000000000000000000000000000\n      dup2\n      mstore\n      0x04\n      add\n      tag_246\n      swap1\n      tag_224\n      jump\t// in\n    tag_246:\n      mload(0x40)\n      dup1\n      swap2\n      sub\n      swap1\n      revert\n    tag_245:\n        /* \"contracts/BTCETFToken.sol\":8362:8367  count */\n      dup1\n        /* \"contracts/BTCETFToken.sol\":8349:8358  _capacity */\n      0x04\n      0x00\n        /* \"contracts/BTCETFToken.sol\":8349:8367  _capacity += count */\n      dup3\n      dup3\n      sload\n      add\n      swap3\n      pop\n      pop\n      dup2\n      swap1\n      sstore\n      pop\n        /* \"contracts/BTCETFToken.sol\":8382:8386  true */\n      0x01\n        /* \"contracts/BTCETFToken.sol\":8375:8386  return true */\n      swap2\n      pop\n      pop\n        /* \"contracts/BTCETFToken.sol\":7967:8390  function transferOne(address _addr, uint _amount) external returns (bool) {... */\n      swap3\n      swap2\n      pop\n      pop\n      jump\t// out\n        /* \"contracts/BTCETFToken.sol\":2878:3010  function allowance(... */\n    tag_111:\n        /* \"contracts/BTCETFToken.sol\":2958:2965  uint256 */\n      0x00\n        /* \"contracts/BTCETFToken.sol\":2978:2989  _allowances */\n      0x07\n        /* \"contracts/BTCETFToken.sol\":2978:2997  _allowances[owner_] */\n      0x00\n        /* \"contracts/BTCETFToken.sol\":2990:2996  owner_ */\n      dup5\n        /* \"contracts/BTCETFToken.sol\":2978:2997  _allowances[owner_] */\n      0xffffffffffffffffffffffffffffffffffffffff\n      and\n      0xffffffffffffffffffffffffffffffffffffffff\n      and\n      dup2\n      mstore\n      0x20\n      add\n      swap1\n      dup2\n      mstore\n      0x20\n      add\n      0x00\n      keccak256\n        /* \"contracts/BTCETFToken.sol\":2978:3006  _allowances[owner_][spender] */\n      0x00\n        /* \"contracts/BTCETFToken.sol\":2998:3005  spender */\n      dup4\n        /* \"contracts/BTCETFToken.sol\":2978:3006  _allowances[owner_][spender] */\n      0xffffffffffffffffffffffffffffffffffffffff\n      and\n      0xffffffffffffffffffffffffffffffffffffffff\n      and\n      dup2\n      mstore\n      0x20\n      add\n      swap1\n      dup2\n      mstore\n      0x20\n      add\n      0x00\n      keccak256\n      sload\n        /* \"contracts/BTCETFToken.sol\":2971:3006  return _allowances[owner_][spender] */\n      swap1\n      pop\n        /* \"contracts/BTCETFToken.sol\":2878:3010  function allowance(... */\n      swap3\n      swap2\n      pop\n      pop\n      jump\t// out\n        /* \"contracts/BTCETFToken.sol\":8694:9254  function showDeposit(... */\n    tag_116:\n        /* \"contracts/BTCETFToken.sol\":8780:8795  uint[] memory a */\n      0x60\n        /* \"contracts/BTCETFToken.sol\":8800:8815  uint[] memory b */\n      dup1\n        /* \"contracts/BTCETFToken.sol\":8820:8835  uint[] memory c */\n      0x60\n        /* \"contracts/BTCETFToken.sol\":8840:8855  uint[] memory d */\n      dup1\n        /* \"contracts/BTCETFToken.sol\":8860:8875  uint[] memory e */\n      0x60\n        /* \"contracts/BTCETFToken.sol\":8880:8887  uint8 f */\n      0x00\n        /* \"contracts/BTCETFToken.sol\":10491:10503  _msgSender() */\n      tag_249\n        /* \"contracts/BTCETFToken.sol\":10491:10501  _msgSender */\n      tag_129\n        /* \"contracts/BTCETFToken.sol\":10491:10503  _msgSender() */\n      jump\t// in\n    tag_249:\n        /* \"contracts/BTCETFToken.sol\":10481:10503  _owner == _msgSender() */\n      0xffffffffffffffffffffffffffffffffffffffff\n      and\n        /* \"contracts/BTCETFToken.sol\":10481:10487  _owner */\n      0x05\n      0x00\n      swap1\n      sload\n      swap1\n      0x0100\n      exp\n      swap1\n      div\n      0xffffffffffffffffffffffffffffffffffffffff\n      and\n        /* \"contracts/BTCETFToken.sol\":10481:10503  _owner == _msgSender() */\n      0xffffffffffffffffffffffffffffffffffffffff\n      and\n      eq\n        /* \"contracts/BTCETFToken.sol\":10473:10538  require(_owner == _msgSender(), \"Error: Caller is not the owner\") */\n      tag_250\n      jumpi\n      mload(0x40)\n      0x08c379a000000000000000000000000000000000000000000000000000000000\n      dup2\n      mstore\n      0x04\n      add\n      tag_251\n      swap1\n      tag_135\n      jump\t// in\n    tag_251:\n      mload(0x40)\n      dup1\n      swap2\n      sub\n      swap1\n      revert\n    tag_250:\n        /* \"contracts/BTCETFToken.sol\":1929:1930  2 */\n      0x02\n        /* \"contracts/BTCETFToken.sol\":8901:8918  new uint[](ROUND) */\n      0xff\n      and\n      0xffffffffffffffff\n      dup2\n      gt\n      iszero\n      tag_253\n      jumpi\n      tag_254\n      tag_255\n      jump\t// in\n    tag_254:\n    tag_253:\n      mload(0x40)\n      swap1\n      dup1\n      dup3\n      mstore\n      dup1\n      0x20\n      mul\n      0x20\n      add\n      dup3\n      add\n      0x40\n      mstore\n      dup1\n      iszero\n      tag_256\n      jumpi\n      dup2\n      0x20\n      add\n      0x20\n      dup3\n      mul\n      dup1\n      calldatasize\n      dup4\n      calldatacopy\n      dup1\n      dup3\n      add\n      swap2\n      pop\n      pop\n      swap1\n      pop\n    tag_256:\n      pop\n        /* \"contracts/BTCETFToken.sol\":8897:8918  a = new uint[](ROUND) */\n      swap6\n      pop\n        /* \"contracts/BTCETFToken.sol\":1929:1930  2 */\n      0x02\n        /* \"contracts/BTCETFToken.sol\":8926:8943  new uint[](ROUND) */\n      0xff\n      and\n      0xffffffffffffffff\n      dup2\n      gt\n      iszero\n      tag_257\n      jumpi\n      tag_258\n      tag_255\n      jump\t// in\n    tag_258:\n    tag_257:\n      mload(0x40)\n      swap1\n      dup1\n      dup3\n      mstore\n      dup1\n      0x20\n      mul\n      0x20\n      add\n      dup3\n      add\n      0x40\n      mstore\n      dup1\n      iszero\n      tag_259\n      jumpi\n      dup2\n      0x20\n      add\n      0x20\n      dup3\n      mul\n      dup1\n      calldatasize\n      dup4\n      calldatacopy\n      dup1\n      dup3\n      add\n      swap2\n      pop\n      pop\n      swap1\n      pop\n    tag_259:\n      pop\n        /* \"contracts/BTCETFToken.sol\":8922:8943  b = new uint[](ROUND) */\n      swap5\n      pop\n        /* \"contracts/BTCETFToken.sol\":1929:1930  2 */\n      0x02\n        /* \"contracts/BTCETFToken.sol\":8951:8968  new uint[](ROUND) */\n      0xff\n      and\n      0xffffffffffffffff\n      dup2\n      gt\n      iszero\n      tag_260\n      jumpi\n      tag_261\n      tag_255\n      jump\t// in\n    tag_261:\n    tag_260:\n      mload(0x40)\n      swap1\n      dup1\n      dup3\n      mstore\n      dup1\n      0x20\n      mul\n      0x20\n      add\n      dup3\n      add\n      0x40\n      mstore\n      dup1\n      iszero\n      tag_262\n      jumpi\n      dup2\n      0x20\n      add\n      0x20\n      dup3\n      mul\n      dup1\n      calldatasize\n      dup4\n      calldatacopy\n      dup1\n      dup3\n      add\n      swap2\n      pop\n      pop\n      swap1\n      pop\n    tag_262:\n      pop\n        /* \"contracts/BTCETFToken.sol\":8947:8968  c = new uint[](ROUND) */\n      swap4\n      pop\n        /* \"contracts/BTCETFToken.sol\":1929:1930  2 */\n      0x02\n        /* \"contracts/BTCETFToken.sol\":8976:8993  new uint[](ROUND) */\n      0xff\n      and\n      0xffffffffffffffff\n      dup2\n      gt\n      iszero\n      tag_263\n      jumpi\n      tag_264\n      tag_255\n      jump\t// in\n    tag_264:\n    tag_263:\n      mload(0x40)\n      swap1\n      dup1\n      dup3\n      mstore\n      dup1\n      0x20\n      mul\n      0x20\n      add\n      dup3\n      add\n      0x40\n      mstore\n      dup1\n      iszero\n      tag_265\n      jumpi\n      dup2\n      0x20\n      add\n      0x20\n      dup3\n      mul\n      dup1\n      calldatasize\n      dup4\n      calldatacopy\n      dup1\n      dup3\n      add\n      swap2\n      pop\n      pop\n      swap1\n      pop\n    tag_265:\n      pop\n        /* \"contracts/BTCETFToken.sol\":8972:8993  d = new uint[](ROUND) */\n      swap3\n      pop\n        /* \"contracts/BTCETFToken.sol\":1929:1930  2 */\n      0x02\n        /* \"contracts/BTCETFToken.sol\":9001:9018  new uint[](ROUND) */\n      0xff\n      and\n      0xffffffffffffffff\n      dup2\n      gt\n      iszero\n      tag_266\n      jumpi\n      tag_267\n      tag_255\n      jump\t// in\n    tag_267:\n    tag_266:\n      mload(0x40)\n      swap1\n      dup1\n      dup3\n      mstore\n      dup1\n      0x20\n      mul\n      0x20\n      add\n      dup3\n      add\n      0x40\n      mstore\n      dup1\n      iszero\n      tag_268\n      jumpi\n      dup2\n      0x20\n      add\n      0x20\n      dup3\n      mul\n      dup1\n      calldatasize\n      dup4\n      calldatacopy\n      dup1\n      dup3\n      add\n      swap2\n      pop\n      pop\n      swap1\n      pop\n    tag_268:\n      pop\n        /* \"contracts/BTCETFToken.sol\":8997:9018  e = new uint[](ROUND) */\n      swap2\n      pop\n        /* \"contracts/BTCETFToken.sol\":9026:9036  _liquidity */\n      0x08\n        /* \"contracts/BTCETFToken.sol\":9026:9045  _liquidity[account] */\n      0x00\n        /* \"contracts/BTCETFToken.sol\":9037:9044  account */\n      dup9\n        /* \"contracts/BTCETFToken.sol\":9026:9045  _liquidity[account] */\n      0xffffffffffffffffffffffffffffffffffffffff\n      and\n      0xffffffffffffffffffffffffffffffffffffffff\n      and\n      dup2\n      mstore\n      0x20\n      add\n      swap1\n      dup2\n      mstore\n      0x20\n      add\n      0x00\n      keccak256\n      0x00\n      swap1\n      sload\n      swap1\n      0x0100\n      exp\n      swap1\n      div\n      0xff\n      and\n        /* \"contracts/BTCETFToken.sol\":9022:9045  f = _liquidity[account] */\n      swap1\n      pop\n        /* \"contracts/BTCETFToken.sol\":9054:9061  uint8 i */\n      0x00\n        /* \"contracts/BTCETFToken.sol\":9064:9065  0 */\n      0x00\n        /* \"contracts/BTCETFToken.sol\":9054:9065  uint8 i = 0 */\n      swap1\n      pop\n        /* \"contracts/BTCETFToken.sol\":9049:9251  for (uint8 i = 0; i < ROUND; i++) {... */\n    tag_269:\n        /* \"contracts/BTCETFToken.sol\":1929:1930  2 */\n      0x02\n        /* \"contracts/BTCETFToken.sol\":9067:9076  i < ROUND */\n      0xff\n      and\n        /* \"contracts/BTCETFToken.sol\":9067:9068  i */\n      dup2\n        /* \"contracts/BTCETFToken.sol\":9067:9076  i < ROUND */\n      0xff\n      and\n      lt\n        /* \"contracts/BTCETFToken.sol\":9049:9251  for (uint8 i = 0; i < ROUND; i++) {... */\n      iszero\n      tag_270\n      jumpi\n        /* \"contracts/BTCETFToken.sol\":9095:9096  i */\n      dup1\n        /* \"contracts/BTCETFToken.sol\":9088:9096  a[i] = i */\n      0xff\n      and\n        /* \"contracts/BTCETFToken.sol\":9088:9089  a */\n      dup8\n        /* \"contracts/BTCETFToken.sol\":9090:9091  i */\n      dup3\n        /* \"contracts/BTCETFToken.sol\":9088:9092  a[i] */\n      0xff\n      and\n      dup2\n      mload\n      dup2\n      lt\n      tag_272\n      jumpi\n      tag_273\n      tag_205\n      jump\t// in\n    tag_273:\n    tag_272:\n      0x20\n      mul\n      0x20\n      add\n      add\n        /* \"contracts/BTCETFToken.sol\":9088:9096  a[i] = i */\n      dup2\n      dup2\n      mstore\n      pop\n      pop\n        /* \"contracts/BTCETFToken.sol\":9108:9116  _deposit */\n      0x09\n        /* \"contracts/BTCETFToken.sol\":9108:9119  _deposit[i] */\n      0x00\n        /* \"contracts/BTCETFToken.sol\":9117:9118  i */\n      dup3\n        /* \"contracts/BTCETFToken.sol\":9108:9119  _deposit[i] */\n      0xff\n      and\n      0xff\n      and\n      dup2\n      mstore\n      0x20\n      add\n      swap1\n      dup2\n      mstore\n      0x20\n      add\n      0x00\n      keccak256\n        /* \"contracts/BTCETFToken.sol\":9108:9128  _deposit[i][account] */\n      0x00\n        /* \"contracts/BTCETFToken.sol\":9120:9127  account */\n      dup10\n        /* \"contracts/BTCETFToken.sol\":9108:9128  _deposit[i][account] */\n      0xffffffffffffffffffffffffffffffffffffffff\n      and\n      0xffffffffffffffffffffffffffffffffffffffff\n      and\n      dup2\n      mstore\n      0x20\n      add\n      swap1\n      dup2\n      mstore\n      0x20\n      add\n      0x00\n      keccak256\n        /* \"contracts/BTCETFToken.sol\":9108:9133  _deposit[i][account].fund */\n      0x00\n      add\n      sload\n        /* \"contracts/BTCETFToken.sol\":9101:9102  b */\n      dup7\n        /* \"contracts/BTCETFToken.sol\":9103:9104  i */\n      dup3\n        /* \"contracts/BTCETFToken.sol\":9101:9105  b[i] */\n      0xff\n      and\n      dup2\n      mload\n      dup2\n      lt\n      tag_274\n      jumpi\n      tag_275\n      tag_205\n      jump\t// in\n    tag_275:\n    tag_274:\n      0x20\n      mul\n      0x20\n      add\n      add\n        /* \"contracts/BTCETFToken.sol\":9101:9133  b[i] = _deposit[i][account].fund */\n      dup2\n      dup2\n      mstore\n      pop\n      pop\n        /* \"contracts/BTCETFToken.sol\":9145:9153  _deposit */\n      0x09\n        /* \"contracts/BTCETFToken.sol\":9145:9156  _deposit[i] */\n      0x00\n        /* \"contracts/BTCETFToken.sol\":9154:9155  i */\n      dup3\n        /* \"contracts/BTCETFToken.sol\":9145:9156  _deposit[i] */\n      0xff\n      and\n      0xff\n      and\n      dup2\n      mstore\n      0x20\n      add\n      swap1\n      dup2\n      mstore\n      0x20\n      add\n      0x00\n      keccak256\n        /* \"contracts/BTCETFToken.sol\":9145:9165  _deposit[i][account] */\n      0x00\n        /* \"contracts/BTCETFToken.sol\":9157:9164  account */\n      dup10\n        /* \"contracts/BTCETFToken.sol\":9145:9165  _deposit[i][account] */\n      0xffffffffffffffffffffffffffffffffffffffff\n      and\n      0xffffffffffffffffffffffffffffffffffffffff\n      and\n      dup2\n      mstore\n      0x20\n      add\n      swap1\n      dup2\n      mstore\n      0x20\n      add\n      0x00\n      keccak256\n        /* \"contracts/BTCETFToken.sol\":9145:9172  _deposit[i][account].reward */\n      0x01\n      add\n      sload\n        /* \"contracts/BTCETFToken.sol\":9138:9139  c */\n      dup6\n        /* \"contracts/BTCETFToken.sol\":9140:9141  i */\n      dup3\n        /* \"contracts/BTCETFToken.sol\":9138:9142  c[i] */\n      0xff\n      and\n      dup2\n      mload\n      dup2\n      lt\n      tag_276\n      jumpi\n      tag_277\n      tag_205\n      jump\t// in\n    tag_277:\n    tag_276:\n      0x20\n      mul\n      0x20\n      add\n      add\n        /* \"contracts/BTCETFToken.sol\":9138:9172  c[i] = _deposit[i][account].reward */\n      dup2\n      dup2\n      mstore\n      pop\n      pop\n        /* \"contracts/BTCETFToken.sol\":9184:9192  _deposit */\n      0x09\n        /* \"contracts/BTCETFToken.sol\":9184:9195  _deposit[i] */\n      0x00\n        /* \"contracts/BTCETFToken.sol\":9193:9194  i */\n      dup3\n        /* \"contracts/BTCETFToken.sol\":9184:9195  _deposit[i] */\n      0xff\n      and\n      0xff\n      and\n      dup2\n      mstore\n      0x20\n      add\n      swap1\n      dup2\n      mstore\n      0x20\n      add\n      0x00\n      keccak256\n        /* \"contracts/BTCETFToken.sol\":9184:9204  _deposit[i][account] */\n      0x00\n        /* \"contracts/BTCETFToken.sol\":9196:9203  account */\n      dup10\n        /* \"contracts/BTCETFToken.sol\":9184:9204  _deposit[i][account] */\n      0xffffffffffffffffffffffffffffffffffffffff\n      and\n      0xffffffffffffffffffffffffffffffffffffffff\n      and\n      dup2\n      mstore\n      0x20\n      add\n      swap1\n      dup2\n      mstore\n      0x20\n      add\n      0x00\n      keccak256\n        /* \"contracts/BTCETFToken.sol\":9184:9210  _deposit[i][account].start */\n      0x02\n      add\n      sload\n        /* \"contracts/BTCETFToken.sol\":9177:9178  d */\n      dup5\n        /* \"contracts/BTCETFToken.sol\":9179:9180  i */\n      dup3\n        /* \"contracts/BTCETFToken.sol\":9177:9181  d[i] */\n      0xff\n      and\n      dup2\n      mload\n      dup2\n      lt\n      tag_278\n      jumpi\n      tag_279\n      tag_205\n      jump\t// in\n    tag_279:\n    tag_278:\n      0x20\n      mul\n      0x20\n      add\n      add\n        /* \"contracts/BTCETFToken.sol\":9177:9210  d[i] = _deposit[i][account].start */\n      dup2\n      dup2\n      mstore\n      pop\n      pop\n        /* \"contracts/BTCETFToken.sol\":9222:9230  _deposit */\n      0x09\n        /* \"contracts/BTCETFToken.sol\":9222:9233  _deposit[i] */\n      0x00\n        /* \"contracts/BTCETFToken.sol\":9231:9232  i */\n      dup3\n        /* \"contracts/BTCETFToken.sol\":9222:9233  _deposit[i] */\n      0xff\n      and\n      0xff\n      and\n      dup2\n      mstore\n      0x20\n      add\n      swap1\n      dup2\n      mstore\n      0x20\n      add\n      0x00\n      keccak256\n        /* \"contracts/BTCETFToken.sol\":9222:9242  _deposit[i][account] */\n      0x00\n        /* \"contracts/BTCETFToken.sol\":9234:9241  account */\n      dup10\n        /* \"contracts/BTCETFToken.sol\":9222:9242  _deposit[i][account] */\n      0xffffffffffffffffffffffffffffffffffffffff\n      and\n      0xffffffffffffffffffffffffffffffffffffffff\n      and\n      dup2\n      mstore\n      0x20\n      add\n      swap1\n      dup2\n      mstore\n      0x20\n      add\n      0x00\n      keccak256\n        /* \"contracts/BTCETFToken.sol\":9222:9246  _deposit[i][account].end */\n      0x03\n      add\n      sload\n        /* \"contracts/BTCETFToken.sol\":9215:9216  e */\n      dup4\n        /* \"contracts/BTCETFToken.sol\":9217:9218  i */\n      dup3\n        /* \"contracts/BTCETFToken.sol\":9215:9219  e[i] */\n      0xff\n      and\n      dup2\n      mload\n      dup2\n      lt\n      tag_280\n      jumpi\n      tag_281\n      tag_205\n      jump\t// in\n    tag_281:\n    tag_280:\n      0x20\n      mul\n      0x20\n      add\n      add\n        /* \"contracts/BTCETFToken.sol\":9215:9246  e[i] = _deposit[i][account].end */\n      dup2\n      dup2\n      mstore\n      pop\n      pop\n        /* \"contracts/BTCETFToken.sol\":9078:9081  i++ */\n      dup1\n      dup1\n      0x01\n      add\n      swap2\n      pop\n      pop\n        /* \"contracts/BTCETFToken.sol\":9049:9251  for (uint8 i = 0; i < ROUND; i++) {... */\n      jump(tag_269)\n    tag_270:\n      pop\n        /* \"contracts/BTCETFToken.sol\":8694:9254  function showDeposit(... */\n      swap2\n      swap4\n      swap6\n      pop\n      swap2\n      swap4\n      swap6\n      jump\t// out\n        /* \"contracts/BTCETFToken.sol\":10293:10372  function _msgSender() internal view returns (address) {... */\n    tag_129:\n        /* \"contracts/BTCETFToken.sol\":10338:10345  address */\n      0x00\n        /* \"contracts/BTCETFToken.sol\":10358:10368  msg.sender */\n      caller\n        /* \"contracts/BTCETFToken.sol\":10351:10368  return msg.sender */\n      swap1\n      pop\n        /* \"contracts/BTCETFToken.sol\":10293:10372  function _msgSender() internal view returns (address) {... */\n      swap1\n      jump\t// out\n        /* \"contracts/BTCETFToken.sol\":4280:4602  function _approve(... */\n    tag_130:\n        /* \"contracts/BTCETFToken.sol\":4401:4402  0 */\n      0x00\n        /* \"contracts/BTCETFToken.sol\":4384:4403  owner != address(0) */\n      0xffffffffffffffffffffffffffffffffffffffff\n      and\n        /* \"contracts/BTCETFToken.sol\":4384:4389  owner */\n      dup4\n        /* \"contracts/BTCETFToken.sol\":4384:4403  owner != address(0) */\n      0xffffffffffffffffffffffffffffffffffffffff\n      and\n      sub\n        /* \"contracts/BTCETFToken.sol\":4376:4444  require(owner != address(0), \"BEP20: approve from the zero address\") */\n      tag_284\n      jumpi\n      mload(0x40)\n      0x08c379a000000000000000000000000000000000000000000000000000000000\n      dup2\n      mstore\n      0x04\n      add\n      tag_285\n      swap1\n      tag_286\n      jump\t// in\n    tag_285:\n      mload(0x40)\n      dup1\n      swap2\n      sub\n      swap1\n      revert\n    tag_284:\n        /* \"contracts/BTCETFToken.sol\":4475:4476  0 */\n      0x00\n        /* \"contracts/BTCETFToken.sol\":4456:4477  spender != address(0) */\n      0xffffffffffffffffffffffffffffffffffffffff\n      and\n        /* \"contracts/BTCETFToken.sol\":4456:4463  spender */\n      dup3\n        /* \"contracts/BTCETFToken.sol\":4456:4477  spender != address(0) */\n      0xffffffffffffffffffffffffffffffffffffffff\n      and\n      sub\n        /* \"contracts/BTCETFToken.sol\":4448:4516  require(spender != address(0), \"BEP20: approve to the zero address\") */\n      tag_287\n      jumpi\n      mload(0x40)\n      0x08c379a000000000000000000000000000000000000000000000000000000000\n      dup2\n      mstore\n      0x04\n      add\n      tag_288\n      swap1\n      tag_289\n      jump\t// in\n    tag_288:\n      mload(0x40)\n      dup1\n      swap2\n      sub\n      swap1\n      revert\n    tag_287:\n        /* \"contracts/BTCETFToken.sol\":4551:4557  amount */\n      dup1\n        /* \"contracts/BTCETFToken.sol\":4521:4532  _allowances */\n      0x07\n        /* \"contracts/BTCETFToken.sol\":4521:4539  _allowances[owner] */\n      0x00\n        /* \"contracts/BTCETFToken.sol\":4533:4538  owner */\n      dup6\n        /* \"contracts/BTCETFToken.sol\":4521:4539  _allowances[owner] */\n      0xffffffffffffffffffffffffffffffffffffffff\n      and\n      0xffffffffffffffffffffffffffffffffffffffff\n      and\n      dup2\n      mstore\n      0x20\n      add\n      swap1\n      dup2\n      mstore\n      0x20\n      add\n      0x00\n      keccak256\n        /* \"contracts/BTCETFToken.sol\":4521:4548  _allowances[owner][spender] */\n      0x00\n        /* \"contracts/BTCETFToken.sol\":4540:4547  spender */\n      dup5\n        /* \"contracts/BTCETFToken.sol\":4521:4548  _allowances[owner][spender] */\n      0xffffffffffffffffffffffffffffffffffffffff\n      and\n      0xffffffffffffffffffffffffffffffffffffffff\n      and\n      dup2\n      mstore\n      0x20\n      add\n      swap1\n      dup2\n      mstore\n      0x20\n      add\n      0x00\n      keccak256\n        /* \"contracts/BTCETFToken.sol\":4521:4557  _allowances[owner][spender] = amount */\n      dup2\n      swap1\n      sstore\n      pop\n        /* \"contracts/BTCETFToken.sol\":4582:4589  spender */\n      dup2\n        /* \"contracts/BTCETFToken.sol\":4566:4598  Approval(owner, spender, amount) */\n      0xffffffffffffffffffffffffffffffffffffffff\n      and\n        /* \"contracts/BTCETFToken.sol\":4575:4580  owner */\n      dup4\n        /* \"contracts/BTCETFToken.sol\":4566:4598  Approval(owner, spender, amount) */\n      0xffffffffffffffffffffffffffffffffffffffff\n      and\n      0x8c5be1e5ebec7d5bd14f71427d1e84f3dd0314c0f7b2291e5b200ac8c7c3b925\n        /* \"contracts/BTCETFToken.sol\":4591:4597  amount */\n      dup4\n        /* \"contracts/BTCETFToken.sol\":4566:4598  Approval(owner, spender, amount) */\n      mload(0x40)\n      tag_290\n      swap2\n      swap1\n      tag_56\n      jump\t// in\n    tag_290:\n      mload(0x40)\n      dup1\n      swap2\n      sub\n      swap1\n      log3\n        /* \"contracts/BTCETFToken.sol\":4280:4602  function _approve(... */\n      pop\n      pop\n      pop\n      jump\t// out\n        /* \"contracts/BTCETFToken.sol\":9766:9986  function getDeposit(address account) private view returns (uint) {... */\n    tag_141:\n        /* \"contracts/BTCETFToken.sol\":9825:9829  uint */\n      0x00\n        /* \"contracts/BTCETFToken.sol\":9835:9846  uint amount */\n      0x00\n        /* \"contracts/BTCETFToken.sol\":9849:9850  0 */\n      0x00\n        /* \"contracts/BTCETFToken.sol\":9835:9850  uint amount = 0 */\n      swap1\n      pop\n        /* \"contracts/BTCETFToken.sol\":9859:9866  uint8 i */\n      0x00\n        /* \"contracts/BTCETFToken.sol\":9869:9870  0 */\n      0x00\n        /* \"contracts/BTCETFToken.sol\":9859:9870  uint8 i = 0 */\n      swap1\n      pop\n        /* \"contracts/BTCETFToken.sol\":9854:9965  for (uint8 i = 0; i < ROUND; i++) {... */\n    tag_292:\n        /* \"contracts/BTCETFToken.sol\":1929:1930  2 */\n      0x02\n        /* \"contracts/BTCETFToken.sol\":9872:9881  i < ROUND */\n      0xff\n      and\n        /* \"contracts/BTCETFToken.sol\":9872:9873  i */\n      dup2\n        /* \"contracts/BTCETFToken.sol\":9872:9881  i < ROUND */\n      0xff\n      and\n      lt\n        /* \"contracts/BTCETFToken.sol\":9854:9965  for (uint8 i = 0; i < ROUND; i++) {... */\n      iszero\n      tag_293\n      jumpi\n        /* \"contracts/BTCETFToken.sol\":9932:9940  _deposit */\n      0x09\n        /* \"contracts/BTCETFToken.sol\":9932:9943  _deposit[i] */\n      0x00\n        /* \"contracts/BTCETFToken.sol\":9941:9942  i */\n      dup3\n        /* \"contracts/BTCETFToken.sol\":9932:9943  _deposit[i] */\n      0xff\n      and\n      0xff\n      and\n      dup2\n      mstore\n      0x20\n      add\n      swap1\n      dup2\n      mstore\n      0x20\n      add\n      0x00\n      keccak256\n        /* \"contracts/BTCETFToken.sol\":9932:9952  _deposit[i][account] */\n      0x00\n        /* \"contracts/BTCETFToken.sol\":9944:9951  account */\n      dup6\n        /* \"contracts/BTCETFToken.sol\":9932:9952  _deposit[i][account] */\n      0xffffffffffffffffffffffffffffffffffffffff\n      and\n      0xffffffffffffffffffffffffffffffffffffffff\n      and\n      dup2\n      mstore\n      0x20\n      add\n      swap1\n      dup2\n      mstore\n      0x20\n      add\n      0x00\n      keccak256\n        /* \"contracts/BTCETFToken.sol\":9932:9959  _deposit[i][account].reward */\n      0x01\n      add\n      sload\n        /* \"contracts/BTCETFToken.sol\":9904:9912  _deposit */\n      0x09\n        /* \"contracts/BTCETFToken.sol\":9904:9915  _deposit[i] */\n      0x00\n        /* \"contracts/BTCETFToken.sol\":9913:9914  i */\n      dup4\n        /* \"contracts/BTCETFToken.sol\":9904:9915  _deposit[i] */\n      0xff\n      and\n      0xff\n      and\n      dup2\n      mstore\n      0x20\n      add\n      swap1\n      dup2\n      mstore\n      0x20\n      add\n      0x00\n      keccak256\n        /* \"contracts/BTCETFToken.sol\":9904:9924  _deposit[i][account] */\n      0x00\n        /* \"contracts/BTCETFToken.sol\":9916:9923  account */\n      dup7\n        /* \"contracts/BTCETFToken.sol\":9904:9924  _deposit[i][account] */\n      0xffffffffffffffffffffffffffffffffffffffff\n      and\n      0xffffffffffffffffffffffffffffffffffffffff\n      and\n      dup2\n      mstore\n      0x20\n      add\n      swap1\n      dup2\n      mstore\n      0x20\n      add\n      0x00\n      keccak256\n        /* \"contracts/BTCETFToken.sol\":9904:9929  _deposit[i][account].fund */\n      0x00\n      add\n      sload\n        /* \"contracts/BTCETFToken.sol\":9904:9959  _deposit[i][account].fund - _deposit[i][account].reward */\n      tag_295\n      swap2\n      swap1\n      tag_138\n      jump\t// in\n    tag_295:\n        /* \"contracts/BTCETFToken.sol\":9893:9960  amount += (_deposit[i][account].fund - _deposit[i][account].reward) */\n      dup3\n      tag_296\n      swap2\n      swap1\n      tag_176\n      jump\t// in\n    tag_296:\n      swap2\n      pop\n        /* \"contracts/BTCETFToken.sol\":9883:9886  i++ */\n      dup1\n      dup1\n      0x01\n      add\n      swap2\n      pop\n      pop\n        /* \"contracts/BTCETFToken.sol\":9854:9965  for (uint8 i = 0; i < ROUND; i++) {... */\n      jump(tag_292)\n    tag_293:\n      pop\n        /* \"contracts/BTCETFToken.sol\":9976:9982  amount */\n      dup1\n        /* \"contracts/BTCETFToken.sol\":9969:9982  return amount */\n      swap2\n      pop\n      pop\n        /* \"contracts/BTCETFToken.sol\":9766:9986  function getDeposit(address account) private view returns (uint) {... */\n      swap2\n      swap1\n      pop\n      jump\t// out\n        /* \"contracts/BTCETFToken.sol\":996:1334  function incrReward(T storage t, uint amount) internal returns (uint) {... */\n    tag_158:\n        /* \"contracts/BTCETFToken.sol\":1060:1064  uint */\n      0x00\n        /* \"contracts/BTCETFToken.sol\":1070:1080  uint value */\n      0x00\n        /* \"contracts/BTCETFToken.sol\":1092:1093  t */\n      dup4\n        /* \"contracts/BTCETFToken.sol\":1092:1100  t.reward */\n      0x01\n      add\n      sload\n        /* \"contracts/BTCETFToken.sol\":1083:1084  t */\n      dup5\n        /* \"contracts/BTCETFToken.sol\":1083:1089  t.fund */\n      0x00\n      add\n      sload\n        /* \"contracts/BTCETFToken.sol\":1083:1100  t.fund - t.reward */\n      tag_298\n      swap2\n      swap1\n      tag_138\n      jump\t// in\n    tag_298:\n        /* \"contracts/BTCETFToken.sol\":1070:1100  uint value = t.fund - t.reward */\n      swap1\n      pop\n        /* \"contracts/BTCETFToken.sol\":1117:1118  0 */\n      0x00\n        /* \"contracts/BTCETFToken.sol\":1108:1114  amount */\n      dup4\n        /* \"contracts/BTCETFToken.sol\":1108:1118  amount > 0 */\n      gt\n        /* \"contracts/BTCETFToken.sol\":1108:1131  amount > 0 && value > 0 */\n      dup1\n      iszero\n      tag_299\n      jumpi\n      pop\n        /* \"contracts/BTCETFToken.sol\":1130:1131  0 */\n      0x00\n        /* \"contracts/BTCETFToken.sol\":1122:1127  value */\n      dup2\n        /* \"contracts/BTCETFToken.sol\":1122:1131  value > 0 */\n      gt\n        /* \"contracts/BTCETFToken.sol\":1108:1131  amount > 0 && value > 0 */\n    tag_299:\n        /* \"contracts/BTCETFToken.sol\":1104:1313  if (amount > 0 && value > 0) {... */\n      iszero\n      tag_300\n      jumpi\n        /* \"contracts/BTCETFToken.sol\":1152:1157  value */\n      dup1\n        /* \"contracts/BTCETFToken.sol\":1142:1148  amount */\n      dup4\n        /* \"contracts/BTCETFToken.sol\":1142:1157  amount >= value */\n      lt\n        /* \"contracts/BTCETFToken.sol\":1138:1309  if (amount >= value) {... */\n      tag_301\n      jumpi\n        /* \"contracts/BTCETFToken.sol\":1194:1199  value */\n      dup1\n        /* \"contracts/BTCETFToken.sol\":1182:1183  t */\n      dup5\n        /* \"contracts/BTCETFToken.sol\":1182:1190  t.reward */\n      0x01\n      add\n      0x00\n        /* \"contracts/BTCETFToken.sol\":1182:1199  t.reward += value */\n      dup3\n      dup3\n      sload\n      add\n      swap3\n      pop\n      pop\n      dup2\n      swap1\n      sstore\n      pop\n        /* \"contracts/BTCETFToken.sol\":1216:1221  value */\n      dup1\n        /* \"contracts/BTCETFToken.sol\":1206:1221  amount -= value */\n      dup4\n      sub\n      swap3\n      pop\n        /* \"contracts/BTCETFToken.sol\":1138:1309  if (amount >= value) {... */\n      jump(tag_302)\n    tag_301:\n        /* \"contracts/BTCETFToken.sol\":1274:1280  amount */\n      dup3\n        /* \"contracts/BTCETFToken.sol\":1262:1263  t */\n      dup5\n        /* \"contracts/BTCETFToken.sol\":1262:1270  t.reward */\n      0x01\n      add\n      0x00\n        /* \"contracts/BTCETFToken.sol\":1262:1280  t.reward += amount */\n      dup3\n      dup3\n      sload\n      add\n      swap3\n      pop\n      pop\n      dup2\n      swap1\n      sstore\n      pop\n        /* \"contracts/BTCETFToken.sol\":1296:1297  0 */\n      0x00\n        /* \"contracts/BTCETFToken.sol\":1287:1297  amount = 0 */\n      swap3\n      pop\n        /* \"contracts/BTCETFToken.sol\":1138:1309  if (amount >= value) {... */\n    tag_302:\n        /* \"contracts/BTCETFToken.sol\":1104:1313  if (amount > 0 && value > 0) {... */\n    tag_300:\n        /* \"contracts/BTCETFToken.sol\":1324:1330  amount */\n      dup3\n        /* \"contracts/BTCETFToken.sol\":1317:1330  return amount */\n      swap2\n      pop\n      pop\n        /* \"contracts/BTCETFToken.sol\":996:1334  function incrReward(T storage t, uint amount) internal returns (uint) {... */\n      swap3\n      swap2\n      pop\n      pop\n      jump\t// out\n        /* \"contracts/BTCETFToken.sol\":5929:6294  function _spendAllowance(... */\n    tag_168:\n        /* \"contracts/BTCETFToken.sol\":6024:6048  uint256 currentAllowance */\n      0x00\n        /* \"contracts/BTCETFToken.sol\":6051:6076  allowance(owner, spender) */\n      tag_304\n        /* \"contracts/BTCETFToken.sol\":6061:6066  owner */\n      dup5\n        /* \"contracts/BTCETFToken.sol\":6068:6075  spender */\n      dup5\n        /* \"contracts/BTCETFToken.sol\":6051:6060  allowance */\n      tag_111\n        /* \"contracts/BTCETFToken.sol\":6051:6076  allowance(owner, spender) */\n      jump\t// in\n    tag_304:\n        /* \"contracts/BTCETFToken.sol\":6024:6076  uint256 currentAllowance = allowance(owner, spender) */\n      swap1\n      pop\n        /* \"contracts/BTCETFToken.sol\":6104:6121  type(uint256).max */\n      0xffffffffffffffffffffffffffffffffffffffffffffffffffffffffffffffff\n        /* \"contracts/BTCETFToken.sol\":6084:6100  currentAllowance */\n      dup2\n        /* \"contracts/BTCETFToken.sol\":6084:6121  currentAllowance != type(uint256).max */\n      eq\n        /* \"contracts/BTCETFToken.sol\":6080:6291  if (currentAllowance != type(uint256).max) {... */\n      tag_305\n      jumpi\n        /* \"contracts/BTCETFToken.sol\":6161:6167  amount */\n      dup2\n        /* \"contracts/BTCETFToken.sol\":6141:6157  currentAllowance */\n      dup2\n        /* \"contracts/BTCETFToken.sol\":6141:6167  currentAllowance >= amount */\n      lt\n      iszero\n        /* \"contracts/BTCETFToken.sol\":6128:6209  require(... */\n      tag_306\n      jumpi\n      mload(0x40)\n      0x08c379a000000000000000000000000000000000000000000000000000000000\n      dup2\n      mstore\n      0x04\n      add\n      tag_307\n      swap1\n      tag_308\n      jump\t// in\n    tag_307:\n      mload(0x40)\n      dup1\n      swap2\n      sub\n      swap1\n      revert\n    tag_306:\n        /* \"contracts/BTCETFToken.sol\":6230:6281  _approve(owner, spender, currentAllowance - amount) */\n      tag_309\n        /* \"contracts/BTCETFToken.sol\":6239:6244  owner */\n      dup5\n        /* \"contracts/BTCETFToken.sol\":6246:6253  spender */\n      dup5\n        /* \"contracts/BTCETFToken.sol\":6274:6280  amount */\n      dup5\n        /* \"contracts/BTCETFToken.sol\":6255:6271  currentAllowance */\n      dup5\n        /* \"contracts/BTCETFToken.sol\":6255:6280  currentAllowance - amount */\n      sub\n        /* \"contracts/BTCETFToken.sol\":6230:6238  _approve */\n      tag_130\n        /* \"contracts/BTCETFToken.sol\":6230:6281  _approve(owner, spender, currentAllowance - amount) */\n      jump\t// in\n    tag_309:\n        /* \"contracts/BTCETFToken.sol\":6080:6291  if (currentAllowance != type(uint256).max) {... */\n    tag_305:\n        /* \"contracts/BTCETFToken.sol\":6020:6294  {... */\n      pop\n        /* \"contracts/BTCETFToken.sol\":5929:6294  function _spendAllowance(... */\n      pop\n      pop\n      pop\n      jump\t// out\n        /* \"contracts/BTCETFToken.sol\":5017:5197  function _transfer(... */\n    tag_170:\n        /* \"contracts/BTCETFToken.sol\":5135:5144  recipient */\n      dup2\n        /* \"contracts/BTCETFToken.sol\":5111:5193  Transfer(... */\n      0xffffffffffffffffffffffffffffffffffffffff\n      and\n        /* \"contracts/BTCETFToken.sol\":5124:5130  sender */\n      dup4\n        /* \"contracts/BTCETFToken.sol\":5111:5193  Transfer(... */\n      0xffffffffffffffffffffffffffffffffffffffff\n      and\n      0xddf252ad1be2c89b69c2b068fc378daa952ba7f163c4a11628f55a4df523b3ef\n        /* \"contracts/BTCETFToken.sol\":5149:5189  _safeTransfer(sender, recipient, amount) */\n      tag_311\n        /* \"contracts/BTCETFToken.sol\":5163:5169  sender */\n      dup7\n        /* \"contracts/BTCETFToken.sol\":5171:5180  recipient */\n      dup7\n        /* \"contracts/BTCETFToken.sol\":5182:5188  amount */\n      dup7\n        /* \"contracts/BTCETFToken.sol\":5149:5162  _safeTransfer */\n      tag_312\n        /* \"contracts/BTCETFToken.sol\":5149:5189  _safeTransfer(sender, recipient, amount) */\n      jump\t// in\n    tag_311:\n        /* \"contracts/BTCETFToken.sol\":5111:5193  Transfer(... */\n      mload(0x40)\n      tag_313\n      swap2\n      swap1\n      tag_56\n      jump\t// in\n    tag_313:\n      mload(0x40)\n      dup1\n      swap2\n      sub\n      swap1\n      log3\n        /* \"contracts/BTCETFToken.sol\":5017:5197  function _transfer(... */\n      pop\n      pop\n      pop\n      jump\t// out\n        /* \"contracts/BTCETFToken.sol\":867:993  function incrFund(T storage t, uint amount) internal returns (bool) {... */\n    tag_209:\n        /* \"contracts/BTCETFToken.sol\":929:933  bool */\n      0x00\n        /* \"contracts/BTCETFToken.sol\":964:970  amount */\n      dup2\n        /* \"contracts/BTCETFToken.sol\":954:955  t */\n      dup4\n        /* \"contracts/BTCETFToken.sol\":954:960  t.fund */\n      0x00\n      add\n      0x00\n        /* \"contracts/BTCETFToken.sol\":954:970  t.fund += amount */\n      dup3\n      dup3\n      sload\n      add\n      swap3\n      pop\n      pop\n      dup2\n      swap1\n      sstore\n      pop\n        /* \"contracts/BTCETFToken.sol\":985:989  true */\n      0x01\n        /* \"contracts/BTCETFToken.sol\":978:989  return true */\n      swap1\n      pop\n        /* \"contracts/BTCETFToken.sol\":867:993  function incrFund(T storage t, uint amount) internal returns (bool) {... */\n      swap3\n      swap2\n      pop\n      pop\n      jump\t// out\n        /* \"contracts/BTCETFToken.sol\":6342:6914  function _safeTransfer(... */\n    tag_312:\n        /* \"contracts/BTCETFToken.sol\":6442:6446  uint */\n      0x00\n        /* \"contracts/BTCETFToken.sol\":6452:6461  uint left */\n      0x00\n        /* \"contracts/BTCETFToken.sol\":6464:6470  amount */\n      dup3\n        /* \"contracts/BTCETFToken.sol\":6452:6470  uint left = amount */\n      swap1\n      pop\n        /* \"contracts/BTCETFToken.sol\":6501:6505  left */\n      dup1\n        /* \"contracts/BTCETFToken.sol\":6478:6487  _balances */\n      0x06\n        /* \"contracts/BTCETFToken.sol\":6478:6497  _balances[account_] */\n      0x00\n        /* \"contracts/BTCETFToken.sol\":6488:6496  account_ */\n      dup8\n        /* \"contracts/BTCETFToken.sol\":6478:6497  _balances[account_] */\n      0xffffffffffffffffffffffffffffffffffffffff\n      and\n      0xffffffffffffffffffffffffffffffffffffffff\n      and\n      dup2\n      mstore\n      0x20\n      add\n      swap1\n      dup2\n      mstore\n      0x20\n      add\n      0x00\n      keccak256\n      sload\n        /* \"contracts/BTCETFToken.sol\":6478:6505  _balances[account_] >= left */\n      lt\n        /* \"contracts/BTCETFToken.sol\":6474:6689  if (_balances[account_] >= left) {... */\n      tag_316\n      jumpi\n        /* \"contracts/BTCETFToken.sol\":6519:6520  0 */\n      0x00\n        /* \"contracts/BTCETFToken.sol\":6512:6520  left = 0 */\n      swap1\n      pop\n        /* \"contracts/BTCETFToken.sol\":6548:6554  amount */\n      dup3\n        /* \"contracts/BTCETFToken.sol\":6525:6534  _balances */\n      0x06\n        /* \"contracts/BTCETFToken.sol\":6525:6544  _balances[account_] */\n      0x00\n        /* \"contracts/BTCETFToken.sol\":6535:6543  account_ */\n      dup8\n        /* \"contracts/BTCETFToken.sol\":6525:6544  _balances[account_] */\n      0xffffffffffffffffffffffffffffffffffffffff\n      and\n      0xffffffffffffffffffffffffffffffffffffffff\n      and\n      dup2\n      mstore\n      0x20\n      add\n      swap1\n      dup2\n      mstore\n      0x20\n      add\n      0x00\n      keccak256\n      0x00\n        /* \"contracts/BTCETFToken.sol\":6525:6554  _balances[account_] -= amount */\n      dup3\n      dup3\n      sload\n      tag_317\n      swap2\n      swap1\n      tag_138\n      jump\t// in\n    tag_317:\n      swap3\n      pop\n      pop\n      dup2\n      swap1\n      sstore\n      pop\n        /* \"contracts/BTCETFToken.sol\":6474:6689  if (_balances[account_] >= left) {... */\n      jump(tag_318)\n    tag_316:\n        /* \"contracts/BTCETFToken.sol\":6591:6592  0 */\n      0x00\n        /* \"contracts/BTCETFToken.sol\":6569:6578  _balances */\n      0x06\n        /* \"contracts/BTCETFToken.sol\":6569:6588  _balances[account_] */\n      0x00\n        /* \"contracts/BTCETFToken.sol\":6579:6587  account_ */\n      dup8\n        /* \"contracts/BTCETFToken.sol\":6569:6588  _balances[account_] */\n      0xffffffffffffffffffffffffffffffffffffffff\n      and\n      0xffffffffffffffffffffffffffffffffffffffff\n      and\n      dup2\n      mstore\n      0x20\n      add\n      swap1\n      dup2\n      mstore\n      0x20\n      add\n      0x00\n      keccak256\n      sload\n        /* \"contracts/BTCETFToken.sol\":6569:6592  _balances[account_] > 0 */\n      gt\n        /* \"contracts/BTCETFToken.sol\":6569:6622  _balances[account_] > 0 && _balances[account_] < left */\n      dup1\n      iszero\n      tag_319\n      jumpi\n      pop\n        /* \"contracts/BTCETFToken.sol\":6618:6622  left */\n      dup1\n        /* \"contracts/BTCETFToken.sol\":6596:6605  _balances */\n      0x06\n        /* \"contracts/BTCETFToken.sol\":6596:6615  _balances[account_] */\n      0x00\n        /* \"contracts/BTCETFToken.sol\":6606:6614  account_ */\n      dup8\n        /* \"contracts/BTCETFToken.sol\":6596:6615  _balances[account_] */\n      0xffffffffffffffffffffffffffffffffffffffff\n      and\n      0xffffffffffffffffffffffffffffffffffffffff\n      and\n      dup2\n      mstore\n      0x20\n      add\n      swap1\n      dup2\n      mstore\n      0x20\n      add\n      0x00\n      keccak256\n      sload\n        /* \"contracts/BTCETFToken.sol\":6596:6622  _balances[account_] < left */\n      lt\n        /* \"contracts/BTCETFToken.sol\":6569:6622  _balances[account_] > 0 && _balances[account_] < left */\n    tag_319:\n        /* \"contracts/BTCETFToken.sol\":6565:6689  if (_balances[account_] > 0 && _balances[account_] < left) {... */\n      iszero\n      tag_320\n      jumpi\n        /* \"contracts/BTCETFToken.sol\":6637:6646  _balances */\n      0x06\n        /* \"contracts/BTCETFToken.sol\":6637:6656  _balances[account_] */\n      0x00\n        /* \"contracts/BTCETFToken.sol\":6647:6655  account_ */\n      dup7\n        /* \"contracts/BTCETFToken.sol\":6637:6656  _balances[account_] */\n      0xffffffffffffffffffffffffffffffffffffffff\n      and\n      0xffffffffffffffffffffffffffffffffffffffff\n      and\n      dup2\n      mstore\n      0x20\n      add\n      swap1\n      dup2\n      mstore\n      0x20\n      add\n      0x00\n      keccak256\n      sload\n        /* \"contracts/BTCETFToken.sol\":6629:6656  left -= _balances[account_] */\n      dup2\n      tag_321\n      swap2\n      swap1\n      tag_138\n      jump\t// in\n    tag_321:\n      swap1\n      pop\n        /* \"contracts/BTCETFToken.sol\":6683:6684  0 */\n      0x00\n        /* \"contracts/BTCETFToken.sol\":6661:6670  _balances */\n      0x06\n        /* \"contracts/BTCETFToken.sol\":6661:6680  _balances[account_] */\n      0x00\n        /* \"contracts/BTCETFToken.sol\":6671:6679  account_ */\n      dup8\n        /* \"contracts/BTCETFToken.sol\":6661:6680  _balances[account_] */\n      0xffffffffffffffffffffffffffffffffffffffff\n      and\n      0xffffffffffffffffffffffffffffffffffffffff\n      and\n      dup2\n      mstore\n      0x20\n      add\n      swap1\n      dup2\n      mstore\n      0x20\n      add\n      0x00\n      keccak256\n        /* \"contracts/BTCETFToken.sol\":6661:6684  _balances[account_] = 0 */\n      dup2\n      swap1\n      sstore\n      pop\n        /* \"contracts/BTCETFToken.sol\":6565:6689  if (_balances[account_] > 0 && _balances[account_] < left) {... */\n    tag_320:\n        /* \"contracts/BTCETFToken.sol\":6474:6689  if (_balances[account_] >= left) {... */\n    tag_318:\n        /* \"contracts/BTCETFToken.sol\":6698:6705  uint8 i */\n      0x00\n        /* \"contracts/BTCETFToken.sol\":6708:6709  0 */\n      0x00\n        /* \"contracts/BTCETFToken.sol\":6698:6709  uint8 i = 0 */\n      swap1\n      pop\n        /* \"contracts/BTCETFToken.sol\":6693:6790  for (uint8 i = 0; left > 0 && i < ROUND; i++) {... */\n    tag_322:\n        /* \"contracts/BTCETFToken.sol\":6718:6719  0 */\n      0x00\n        /* \"contracts/BTCETFToken.sol\":6711:6715  left */\n      dup3\n        /* \"contracts/BTCETFToken.sol\":6711:6719  left > 0 */\n      gt\n        /* \"contracts/BTCETFToken.sol\":6711:6732  left > 0 && i < ROUND */\n      dup1\n      iszero\n      tag_325\n      jumpi\n      pop\n        /* \"contracts/BTCETFToken.sol\":1929:1930  2 */\n      0x02\n        /* \"contracts/BTCETFToken.sol\":6723:6732  i < ROUND */\n      0xff\n      and\n        /* \"contracts/BTCETFToken.sol\":6723:6724  i */\n      dup2\n        /* \"contracts/BTCETFToken.sol\":6723:6732  i < ROUND */\n      0xff\n      and\n      lt\n        /* \"contracts/BTCETFToken.sol\":6711:6732  left > 0 && i < ROUND */\n    tag_325:\n        /* \"contracts/BTCETFToken.sol\":6693:6790  for (uint8 i = 0; left > 0 && i < ROUND; i++) {... */\n      iszero\n      tag_323\n      jumpi\n        /* \"contracts/BTCETFToken.sol\":6751:6785  _deposit[i][account_].settle(left) */\n      tag_326\n        /* \"contracts/BTCETFToken.sol\":6780:6784  left */\n      dup3\n        /* \"contracts/BTCETFToken.sol\":6751:6759  _deposit */\n      0x09\n        /* \"contracts/BTCETFToken.sol\":6751:6762  _deposit[i] */\n      0x00\n        /* \"contracts/BTCETFToken.sol\":6760:6761  i */\n      dup5\n        /* \"contracts/BTCETFToken.sol\":6751:6762  _deposit[i] */\n      0xff\n      and\n      0xff\n      and\n      dup2\n      mstore\n      0x20\n      add\n      swap1\n      dup2\n      mstore\n      0x20\n      add\n      0x00\n      keccak256\n        /* \"contracts/BTCETFToken.sol\":6751:6772  _deposit[i][account_] */\n      0x00\n        /* \"contracts/BTCETFToken.sol\":6763:6771  account_ */\n      dup10\n        /* \"contracts/BTCETFToken.sol\":6751:6772  _deposit[i][account_] */\n      0xffffffffffffffffffffffffffffffffffffffff\n      and\n      0xffffffffffffffffffffffffffffffffffffffff\n      and\n      dup2\n      mstore\n      0x20\n      add\n      swap1\n      dup2\n      mstore\n      0x20\n      add\n      0x00\n      keccak256\n        /* \"contracts/BTCETFToken.sol\":6751:6779  _deposit[i][account_].settle */\n      tag_327\n      swap1\n        /* \"contracts/BTCETFToken.sol\":6751:6785  _deposit[i][account_].settle(left) */\n      swap2\n      swap1\n      0xffffffff\n      and\n      jump\t// in\n    tag_326:\n        /* \"contracts/BTCETFToken.sol\":6744:6785  left = _deposit[i][account_].settle(left) */\n      swap2\n      pop\n        /* \"contracts/BTCETFToken.sol\":6734:6737  i++ */\n      dup1\n      dup1\n      tag_328\n      swap1\n      tag_160\n      jump\t// in\n    tag_328:\n      swap2\n      pop\n      pop\n        /* \"contracts/BTCETFToken.sol\":6693:6790  for (uint8 i = 0; left > 0 && i < ROUND; i++) {... */\n      jump(tag_322)\n    tag_323:\n      pop\n        /* \"contracts/BTCETFToken.sol\":6810:6811  0 */\n      0x00\n        /* \"contracts/BTCETFToken.sol\":6802:6806  left */\n      dup2\n        /* \"contracts/BTCETFToken.sol\":6802:6811  left == 0 */\n      eq\n        /* \"contracts/BTCETFToken.sol\":6794:6839  require(left == 0, \"Failed: Invalid balance\") */\n      tag_329\n      jumpi\n      mload(0x40)\n      0x08c379a000000000000000000000000000000000000000000000000000000000\n      dup2\n      mstore\n      0x04\n      add\n      tag_330\n      swap1\n      tag_163\n      jump\t// in\n    tag_330:\n      mload(0x40)\n      dup1\n      swap2\n      sub\n      swap1\n      revert\n    tag_329:\n        /* \"contracts/BTCETFToken.sol\":6882:6888  amount */\n      dup3\n        /* \"contracts/BTCETFToken.sol\":6858:6867  _balances */\n      0x06\n        /* \"contracts/BTCETFToken.sol\":6858:6878  _balances[recipient] */\n      0x00\n        /* \"contracts/BTCETFToken.sol\":6868:6877  recipient */\n      dup7\n        /* \"contracts/BTCETFToken.sol\":6858:6878  _balances[recipient] */\n      0xffffffffffffffffffffffffffffffffffffffff\n      and\n      0xffffffffffffffffffffffffffffffffffffffff\n      and\n      dup2\n      mstore\n      0x20\n      add\n      swap1\n      dup2\n      mstore\n      0x20\n      add\n      0x00\n      keccak256\n      0x00\n        /* \"contracts/BTCETFToken.sol\":6858:6888  _balances[recipient] += amount */\n      dup3\n      dup3\n      sload\n      add\n      swap3\n      pop\n      pop\n      dup2\n      swap1\n      sstore\n      pop\n        /* \"contracts/BTCETFToken.sol\":6904:6910  amount */\n      dup3\n        /* \"contracts/BTCETFToken.sol\":6897:6910  return amount */\n      swap2\n      pop\n      pop\n        /* \"contracts/BTCETFToken.sol\":6342:6914  function _safeTransfer(... */\n      swap4\n      swap3\n      pop\n      pop\n      pop\n      jump\t// out\n        /* \"contracts/BTCETFToken.sol\":587:864  function settle(T storage t, uint amount) internal returns (uint) {... */\n    tag_327:\n        /* \"contracts/BTCETFToken.sol\":647:651  uint */\n      0x00\n        /* \"contracts/BTCETFToken.sol\":657:667  uint value */\n      0x00\n        /* \"contracts/BTCETFToken.sol\":670:678  count(t) */\n      tag_332\n        /* \"contracts/BTCETFToken.sol\":676:677  t */\n      dup5\n        /* \"contracts/BTCETFToken.sol\":670:675  count */\n      tag_333\n        /* \"contracts/BTCETFToken.sol\":670:678  count(t) */\n      jump\t// in\n    tag_332:\n        /* \"contracts/BTCETFToken.sol\":657:678  uint value = count(t) */\n      swap1\n      pop\n        /* \"contracts/BTCETFToken.sol\":695:696  0 */\n      0x00\n        /* \"contracts/BTCETFToken.sol\":686:692  amount */\n      dup4\n        /* \"contracts/BTCETFToken.sol\":686:696  amount > 0 */\n      gt\n        /* \"contracts/BTCETFToken.sol\":686:709  amount > 0 && value > 0 */\n      dup1\n      iszero\n      tag_334\n      jumpi\n      pop\n        /* \"contracts/BTCETFToken.sol\":708:709  0 */\n      0x00\n        /* \"contracts/BTCETFToken.sol\":700:705  value */\n      dup2\n        /* \"contracts/BTCETFToken.sol\":700:709  value > 0 */\n      gt\n        /* \"contracts/BTCETFToken.sol\":686:709  amount > 0 && value > 0 */\n    tag_334:\n        /* \"contracts/BTCETFToken.sol\":682:843  if (amount > 0 && value > 0) {... */\n      iszero\n      tag_335\n      jumpi\n        /* \"contracts/BTCETFToken.sol\":730:735  value */\n      dup1\n        /* \"contracts/BTCETFToken.sol\":720:726  amount */\n      dup4\n        /* \"contracts/BTCETFToken.sol\":720:735  amount >= value */\n      lt\n        /* \"contracts/BTCETFToken.sol\":716:839  if (amount >= value) {... */\n      tag_336\n      jumpi\n        /* \"contracts/BTCETFToken.sol\":755:760  value */\n      dup1\n        /* \"contracts/BTCETFToken.sol\":743:744  t */\n      dup5\n        /* \"contracts/BTCETFToken.sol\":743:751  t.reward */\n      0x01\n      add\n      0x00\n        /* \"contracts/BTCETFToken.sol\":743:760  t.reward += value */\n      dup3\n      dup3\n      sload\n      tag_337\n      swap2\n      swap1\n      tag_176\n      jump\t// in\n    tag_337:\n      swap3\n      pop\n      pop\n      dup2\n      swap1\n      sstore\n      pop\n        /* \"contracts/BTCETFToken.sol\":776:781  value */\n      dup1\n        /* \"contracts/BTCETFToken.sol\":766:781  amount -= value */\n      dup4\n      tag_338\n      swap2\n      swap1\n      tag_138\n      jump\t// in\n    tag_338:\n      swap3\n      pop\n        /* \"contracts/BTCETFToken.sol\":716:839  if (amount >= value) {... */\n      jump(tag_339)\n    tag_336:\n        /* \"contracts/BTCETFToken.sol\":811:817  amount */\n      dup3\n        /* \"contracts/BTCETFToken.sol\":799:800  t */\n      dup5\n        /* \"contracts/BTCETFToken.sol\":799:807  t.reward */\n      0x01\n      add\n      0x00\n        /* \"contracts/BTCETFToken.sol\":799:817  t.reward += amount */\n      dup3\n      dup3\n      sload\n      tag_340\n      swap2\n      swap1\n      tag_176\n      jump\t// in\n    tag_340:\n      swap3\n      pop\n      pop\n      dup2\n      swap1\n      sstore\n      pop\n        /* \"contracts/BTCETFToken.sol\":832:833  0 */\n      0x00\n        /* \"contracts/BTCETFToken.sol\":823:833  amount = 0 */\n      swap3\n      pop\n        /* \"contracts/BTCETFToken.sol\":716:839  if (amount >= value) {... */\n    tag_339:\n        /* \"contracts/BTCETFToken.sol\":682:843  if (amount > 0 && value > 0) {... */\n    tag_335:\n        /* \"contracts/BTCETFToken.sol\":854:860  amount */\n      dup3\n        /* \"contracts/BTCETFToken.sol\":847:860  return amount */\n      swap2\n      pop\n      pop\n        /* \"contracts/BTCETFToken.sol\":587:864  function settle(T storage t, uint amount) internal returns (uint) {... */\n      swap3\n      swap2\n      pop\n      pop\n      jump\t// out\n        /* \"contracts/BTCETFToken.sol\":147:584  function count(T storage t) internal view returns (uint) {... */\n    tag_333:\n        /* \"contracts/BTCETFToken.sol\":198:202  uint */\n      0x00\n        /* \"contracts/BTCETFToken.sol\":208:219  uint amount */\n      0x00\n        /* \"contracts/BTCETFToken.sol\":222:223  0 */\n      0x00\n        /* \"contracts/BTCETFToken.sol\":208:223  uint amount = 0 */\n      swap1\n      pop\n        /* \"contracts/BTCETFToken.sol\":227:234  uint ts */\n      0x00\n        /* \"contracts/BTCETFToken.sol\":237:252  block.timestamp */\n      timestamp\n        /* \"contracts/BTCETFToken.sol\":227:252  uint ts = block.timestamp */\n      swap1\n      pop\n        /* \"contracts/BTCETFToken.sol\":274:275  0 */\n      0x00\n        /* \"contracts/BTCETFToken.sol\":264:265  t */\n      dup5\n        /* \"contracts/BTCETFToken.sol\":264:271  t.start */\n      0x02\n      add\n      sload\n        /* \"contracts/BTCETFToken.sol\":264:275  t.start > 0 */\n      gt\n        /* \"contracts/BTCETFToken.sol\":264:294  t.start > 0 && t.end > t.start */\n      dup1\n      iszero\n      tag_342\n      jumpi\n      pop\n        /* \"contracts/BTCETFToken.sol\":287:288  t */\n      dup4\n        /* \"contracts/BTCETFToken.sol\":287:294  t.start */\n      0x02\n      add\n      sload\n        /* \"contracts/BTCETFToken.sol\":279:280  t */\n      dup5\n        /* \"contracts/BTCETFToken.sol\":279:284  t.end */\n      0x03\n      add\n      sload\n        /* \"contracts/BTCETFToken.sol\":279:294  t.end > t.start */\n      gt\n        /* \"contracts/BTCETFToken.sol\":264:294  t.start > 0 && t.end > t.start */\n    tag_342:\n        /* \"contracts/BTCETFToken.sol\":264:315  t.start > 0 && t.end > t.start && t.fund > t.reward */\n      dup1\n      iszero\n      tag_343\n      jumpi\n      pop\n        /* \"contracts/BTCETFToken.sol\":307:308  t */\n      dup4\n        /* \"contracts/BTCETFToken.sol\":307:315  t.reward */\n      0x01\n      add\n      sload\n        /* \"contracts/BTCETFToken.sol\":298:299  t */\n      dup5\n        /* \"contracts/BTCETFToken.sol\":298:304  t.fund */\n      0x00\n      add\n      sload\n        /* \"contracts/BTCETFToken.sol\":298:315  t.fund > t.reward */\n      gt\n        /* \"contracts/BTCETFToken.sol\":264:315  t.start > 0 && t.end > t.start && t.fund > t.reward */\n    tag_343:\n        /* \"contracts/BTCETFToken.sol\":264:331  t.start > 0 && t.end > t.start && t.fund > t.reward && ts > t.start */\n      dup1\n      iszero\n      tag_344\n      jumpi\n      pop\n        /* \"contracts/BTCETFToken.sol\":324:325  t */\n      dup4\n        /* \"contracts/BTCETFToken.sol\":324:331  t.start */\n      0x02\n      add\n      sload\n        /* \"contracts/BTCETFToken.sol\":319:321  ts */\n      dup2\n        /* \"contracts/BTCETFToken.sol\":319:331  ts > t.start */\n      gt\n        /* \"contracts/BTCETFToken.sol\":264:331  t.start > 0 && t.end > t.start && t.fund > t.reward && ts > t.start */\n    tag_344:\n        /* \"contracts/BTCETFToken.sol\":256:563  if (... */\n      iszero\n      tag_345\n      jumpi\n        /* \"contracts/BTCETFToken.sol\":351:352  t */\n      dup4\n        /* \"contracts/BTCETFToken.sol\":351:356  t.end */\n      0x03\n      add\n      sload\n        /* \"contracts/BTCETFToken.sol\":345:347  ts */\n      dup2\n        /* \"contracts/BTCETFToken.sol\":345:356  ts >= t.end */\n      lt\n        /* \"contracts/BTCETFToken.sol\":341:559  if (ts >= t.end) {... */\n      tag_346\n      jumpi\n        /* \"contracts/BTCETFToken.sol\":382:383  t */\n      dup4\n        /* \"contracts/BTCETFToken.sol\":382:390  t.reward */\n      0x01\n      add\n      sload\n        /* \"contracts/BTCETFToken.sol\":373:374  t */\n      dup5\n        /* \"contracts/BTCETFToken.sol\":373:379  t.fund */\n      0x00\n      add\n      sload\n        /* \"contracts/BTCETFToken.sol\":373:390  t.fund - t.reward */\n      tag_347\n      swap2\n      swap1\n      tag_138\n      jump\t// in\n    tag_347:\n        /* \"contracts/BTCETFToken.sol\":364:390  amount = t.fund - t.reward */\n      swap2\n      pop\n        /* \"contracts/BTCETFToken.sol\":341:559  if (ts >= t.end) {... */\n      jump(tag_348)\n    tag_346:\n        /* \"contracts/BTCETFToken.sol\":454:455  t */\n      dup4\n        /* \"contracts/BTCETFToken.sol\":454:461  t.start */\n      0x02\n      add\n      sload\n        /* \"contracts/BTCETFToken.sol\":446:447  t */\n      dup5\n        /* \"contracts/BTCETFToken.sol\":446:451  t.end */\n      0x03\n      add\n      sload\n        /* \"contracts/BTCETFToken.sol\":446:461  t.end - t.start */\n      tag_349\n      swap2\n      swap1\n      tag_138\n      jump\t// in\n    tag_349:\n        /* \"contracts/BTCETFToken.sol\":433:434  t */\n      dup5\n        /* \"contracts/BTCETFToken.sol\":433:440  t.start */\n      0x02\n      add\n      sload\n        /* \"contracts/BTCETFToken.sol\":428:430  ts */\n      dup3\n        /* \"contracts/BTCETFToken.sol\":428:440  ts - t.start */\n      tag_350\n      swap2\n      swap1\n      tag_138\n      jump\t// in\n    tag_350:\n        /* \"contracts/BTCETFToken.sol\":418:419  t */\n      dup6\n        /* \"contracts/BTCETFToken.sol\":418:424  t.fund */\n      0x00\n      add\n      sload\n        /* \"contracts/BTCETFToken.sol\":418:441  t.fund * (ts - t.start) */\n      tag_351\n      swap2\n      swap1\n      tag_352\n      jump\t// in\n    tag_351:\n        /* \"contracts/BTCETFToken.sol\":417:462  (t.fund * (ts - t.start)) / (t.end - t.start) */\n      tag_353\n      swap2\n      swap1\n      tag_354\n      jump\t// in\n    tag_353:\n        /* \"contracts/BTCETFToken.sol\":408:462  amount = (t.fund * (ts - t.start)) / (t.end - t.start) */\n      swap2\n      pop\n        /* \"contracts/BTCETFToken.sol\":484:490  amount */\n      dup2\n        /* \"contracts/BTCETFToken.sol\":472:473  t */\n      dup5\n        /* \"contracts/BTCETFToken.sol\":472:480  t.reward */\n      0x01\n      add\n      sload\n        /* \"contracts/BTCETFToken.sol\":472:490  t.reward >= amount */\n      lt\n        /* \"contracts/BTCETFToken.sol\":468:554  if (t.reward >= amount) {... */\n      tag_355\n      jumpi\n        /* \"contracts/BTCETFToken.sol\":508:509  0 */\n      0x00\n        /* \"contracts/BTCETFToken.sol\":499:509  amount = 0 */\n      swap2\n      pop\n        /* \"contracts/BTCETFToken.sol\":468:554  if (t.reward >= amount) {... */\n      jump(tag_356)\n    tag_355:\n        /* \"contracts/BTCETFToken.sol\":539:540  t */\n      dup4\n        /* \"contracts/BTCETFToken.sol\":539:547  t.reward */\n      0x01\n      add\n      sload\n        /* \"contracts/BTCETFToken.sol\":529:547  amount -= t.reward */\n      dup3\n      tag_357\n      swap2\n      swap1\n      tag_138\n      jump\t// in\n    tag_357:\n      swap2\n      pop\n        /* \"contracts/BTCETFToken.sol\":468:554  if (t.reward >= amount) {... */\n    tag_356:\n        /* \"contracts/BTCETFToken.sol\":341:559  if (ts >= t.end) {... */\n    tag_348:\n        /* \"contracts/BTCETFToken.sol\":256:563  if (... */\n    tag_345:\n        /* \"contracts/BTCETFToken.sol\":574:580  amount */\n      dup2\n        /* \"contracts/BTCETFToken.sol\":567:580  return amount */\n      swap3\n      pop\n      pop\n      pop\n        /* \"contracts/BTCETFToken.sol\":147:584  function count(T storage t) internal view returns (uint) {... */\n      swap2\n      swap1\n      pop\n      jump\t// out\n        /* \"#utility.yul\":7:106   */\n    tag_358:\n        /* \"#utility.yul\":59:65   */\n      0x00\n        /* \"#utility.yul\":93:98   */\n      dup2\n        /* \"#utility.yul\":87:99   */\n      mload\n        /* \"#utility.yul\":77:99   */\n      swap1\n      pop\n        /* \"#utility.yul\":7:106   */\n      swap2\n      swap1\n      pop\n      jump\t// out\n        /* \"#utility.yul\":112:281   */\n    tag_359:\n        /* \"#utility.yul\":196:207   */\n      0x00\n        /* \"#utility.yul\":230:236   */\n      dup3\n        /* \"#utility.yul\":225:228   */\n      dup3\n        /* \"#utility.yul\":218:237   */\n      mstore\n        /* \"#utility.yul\":270:274   */\n      0x20\n        /* \"#utility.yul\":265:268   */\n      dup3\n        /* \"#utility.yul\":261:275   */\n      add\n        /* \"#utility.yul\":246:275   */\n      swap1\n      pop\n        /* \"#utility.yul\":112:281   */\n      swap3\n      swap2\n      pop\n      pop\n      jump\t// out\n        /* \"#utility.yul\":287:426   */\n    tag_360:\n        /* \"#utility.yul\":376:382   */\n      dup3\n        /* \"#utility.yul\":371:374   */\n      dup2\n        /* \"#utility.yul\":366:369   */\n      dup4\n        /* \"#utility.yul\":360:383   */\n      mcopy\n        /* \"#utility.yul\":417:418   */\n      0x00\n        /* \"#utility.yul\":408:414   */\n      dup4\n        /* \"#utility.yul\":403:406   */\n      dup4\n        /* \"#utility.yul\":399:415   */\n      add\n        /* \"#utility.yul\":392:419   */\n      mstore\n        /* \"#utility.yul\":287:426   */\n      pop\n      pop\n      pop\n      jump\t// out\n        /* \"#utility.yul\":432:534   */\n    tag_361:\n        /* \"#utility.yul\":473:479   */\n      0x00\n        /* \"#utility.yul\":524:526   */\n      0x1f\n        /* \"#utility.yul\":520:527   */\n      not\n        /* \"#utility.yul\":515:517   */\n      0x1f\n        /* \"#utility.yul\":508:513   */\n      dup4\n        /* \"#utility.yul\":504:518   */\n      add\n        /* \"#utility.yul\":500:528   */\n      and\n        /* \"#utility.yul\":490:528   */\n      swap1\n      pop\n        /* \"#utility.yul\":432:534   */\n      swap2\n      swap1\n      pop\n      jump\t// out\n        /* \"#utility.yul\":540:917   */\n    tag_362:\n        /* \"#utility.yul\":628:631   */\n      0x00\n        /* \"#utility.yul\":656:695   */\n      tag_419\n        /* \"#utility.yul\":689:694   */\n      dup3\n        /* \"#utility.yul\":656:695   */\n      tag_358\n      jump\t// in\n    tag_419:\n        /* \"#utility.yul\":711:782   */\n      tag_420\n        /* \"#utility.yul\":775:781   */\n      dup2\n        /* \"#utility.yul\":770:773   */\n      dup6\n        /* \"#utility.yul\":711:782   */\n      tag_359\n      jump\t// in\n    tag_420:\n        /* \"#utility.yul\":704:782   */\n      swap4\n      pop\n        /* \"#utility.yul\":791:856   */\n      tag_421\n        /* \"#utility.yul\":849:855   */\n      dup2\n        /* \"#utility.yul\":844:847   */\n      dup6\n        /* \"#utility.yul\":837:841   */\n      0x20\n        /* \"#utility.yul\":830:835   */\n      dup7\n        /* \"#utility.yul\":826:842   */\n      add\n        /* \"#utility.yul\":791:856   */\n      tag_360\n      jump\t// in\n    tag_421:\n        /* \"#utility.yul\":881:910   */\n      tag_422\n        /* \"#utility.yul\":903:909   */\n      dup2\n        /* \"#utility.yul\":881:910   */\n      tag_361\n      jump\t// in\n    tag_422:\n        /* \"#utility.yul\":876:879   */\n      dup5\n        /* \"#utility.yul\":872:911   */\n      add\n        /* \"#utility.yul\":865:911   */\n      swap2\n      pop\n        /* \"#utility.yul\":632:917   */\n      pop\n        /* \"#utility.yul\":540:917   */\n      swap3\n      swap2\n      pop\n      pop\n      jump\t// out\n        /* \"#utility.yul\":923:1236   */\n    tag_32:\n        /* \"#utility.yul\":1036:1040   */\n      0x00\n        /* \"#utility.yul\":1074:1076   */\n      0x20\n        /* \"#utility.yul\":1063:1072   */\n      dup3\n        /* \"#utility.yul\":1059:1077   */\n      add\n        /* \"#utility.yul\":1051:1077   */\n      swap1\n      pop\n        /* \"#utility.yul\":1123:1132   */\n      dup2\n        /* \"#utility.yul\":1117:1121   */\n      dup2\n        /* \"#utility.yul\":1113:1133   */\n      sub\n        /* \"#utility.yul\":1109:1110   */\n      0x00\n        /* \"#utility.yul\":1098:1107   */\n      dup4\n        /* \"#utility.yul\":1094:1111   */\n      add\n        /* \"#utility.yul\":1087:1134   */\n      mstore\n        /* \"#utility.yul\":1151:1229   */\n      tag_424\n        /* \"#utility.yul\":1224:1228   */\n      dup2\n        /* \"#utility.yul\":1215:1221   */\n      dup5\n        /* \"#utility.yul\":1151:1229   */\n      tag_362\n      jump\t// in\n    tag_424:\n        /* \"#utility.yul\":1143:1229   */\n      swap1\n      pop\n        /* \"#utility.yul\":923:1236   */\n      swap3\n      swap2\n      pop\n      pop\n      jump\t// out\n        /* \"#utility.yul\":1323:1440   */\n    tag_364:\n        /* \"#utility.yul\":1432:1433   */\n      0x00\n        /* \"#utility.yul\":1429:1430   */\n      0x00\n        /* \"#utility.yul\":1422:1434   */\n      revert\n        /* \"#utility.yul\":1446:1563   */\n    tag_365:\n        /* \"#utility.yul\":1555:1556   */\n      0x00\n        /* \"#utility.yul\":1552:1553   */\n      0x00\n        /* \"#utility.yul\":1545:1557   */\n      revert\n        /* \"#utility.yul\":1569:1695   */\n    tag_366:\n        /* \"#utility.yul\":1606:1613   */\n      0x00\n        /* \"#utility.yul\":1646:1688   */\n      0xffffffffffffffffffffffffffffffffffffffff\n        /* \"#utility.yul\":1639:1644   */\n      dup3\n        /* \"#utility.yul\":1635:1689   */\n      and\n        /* \"#utility.yul\":1624:1689   */\n      swap1\n      pop\n        /* \"#utility.yul\":1569:1695   */\n      swap2\n      swap1\n      pop\n      jump\t// out\n        /* \"#utility.yul\":1701:1797   */\n    tag_367:\n        /* \"#utility.yul\":1738:1745   */\n      0x00\n        /* \"#utility.yul\":1767:1791   */\n      tag_430\n        /* \"#utility.yul\":1785:1790   */\n      dup3\n        /* \"#utility.yul\":1767:1791   */\n      tag_366\n      jump\t// in\n    tag_430:\n        /* \"#utility.yul\":1756:1791   */\n      swap1\n      pop\n        /* \"#utility.yul\":1701:1797   */\n      swap2\n      swap1\n      pop\n      jump\t// out\n        /* \"#utility.yul\":1803:1925   */\n    tag_368:\n        /* \"#utility.yul\":1876:1900   */\n      tag_432\n        /* \"#utility.yul\":1894:1899   */\n      dup2\n        /* \"#utility.yul\":1876:1900   */\n      tag_367\n      jump\t// in\n    tag_432:\n        /* \"#utility.yul\":1869:1874   */\n      dup2\n        /* \"#utility.yul\":1866:1901   */\n      eq\n        /* \"#utility.yul\":1856:1919   */\n      tag_433\n      jumpi\n        /* \"#utility.yul\":1915:1916   */\n      0x00\n        /* \"#utility.yul\":1912:1913   */\n      0x00\n        /* \"#utility.yul\":1905:1917   */\n      revert\n        /* \"#utility.yul\":1856:1919   */\n    tag_433:\n        /* \"#utility.yul\":1803:1925   */\n      pop\n      jump\t// out\n        /* \"#utility.yul\":1931:2070   */\n    tag_369:\n        /* \"#utility.yul\":1977:1982   */\n      0x00\n        /* \"#utility.yul\":2015:2021   */\n      dup2\n        /* \"#utility.yul\":2002:2022   */\n      calldataload\n        /* \"#utility.yul\":1993:2022   */\n      swap1\n      pop\n        /* \"#utility.yul\":2031:2064   */\n      tag_435\n        /* \"#utility.yul\":2058:2063   */\n      dup2\n        /* \"#utility.yul\":2031:2064   */\n      tag_368\n      jump\t// in\n    tag_435:\n        /* \"#utility.yul\":1931:2070   */\n      swap3\n      swap2\n      pop\n      pop\n      jump\t// out\n        /* \"#utility.yul\":2076:2153   */\n    tag_370:\n        /* \"#utility.yul\":2113:2120   */\n      0x00\n        /* \"#utility.yul\":2142:2147   */\n      dup2\n        /* \"#utility.yul\":2131:2147   */\n      swap1\n      pop\n        /* \"#utility.yul\":2076:2153   */\n      swap2\n      swap1\n      pop\n      jump\t// out\n        /* \"#utility.yul\":2159:2281   */\n    tag_371:\n        /* \"#utility.yul\":2232:2256   */\n      tag_438\n        /* \"#utility.yul\":2250:2255   */\n      dup2\n        /* \"#utility.yul\":2232:2256   */\n      tag_370\n      jump\t// in\n    tag_438:\n        /* \"#utility.yul\":2225:2230   */\n      dup2\n        /* \"#utility.yul\":2222:2257   */\n      eq\n        /* \"#utility.yul\":2212:2275   */\n      tag_439\n      jumpi\n        /* \"#utility.yul\":2271:2272   */\n      0x00\n        /* \"#utility.yul\":2268:2269   */\n      0x00\n        /* \"#utility.yul\":2261:2273   */\n      revert\n        /* \"#utility.yul\":2212:2275   */\n    tag_439:\n        /* \"#utility.yul\":2159:2281   */\n      pop\n      jump\t// out\n        /* \"#utility.yul\":2287:2426   */\n    tag_372:\n        /* \"#utility.yul\":2333:2338   */\n      0x00\n        /* \"#utility.yul\":2371:2377   */\n      dup2\n        /* \"#utility.yul\":2358:2378   */\n      calldataload\n        /* \"#utility.yul\":2349:2378   */\n      swap1\n      pop\n        /* \"#utility.yul\":2387:2420   */\n      tag_441\n        /* \"#utility.yul\":2414:2419   */\n      dup2\n        /* \"#utility.yul\":2387:2420   */\n      tag_371\n      jump\t// in\n    tag_441:\n        /* \"#utility.yul\":2287:2426   */\n      swap3\n      swap2\n      pop\n      pop\n      jump\t// out\n        /* \"#utility.yul\":2432:2906   */\n    tag_36:\n        /* \"#utility.yul\":2500:2506   */\n      0x00\n        /* \"#utility.yul\":2508:2514   */\n      0x00\n        /* \"#utility.yul\":2557:2559   */\n      0x40\n        /* \"#utility.yul\":2545:2554   */\n      dup4\n        /* \"#utility.yul\":2536:2543   */\n      dup6\n        /* \"#utility.yul\":2532:2555   */\n      sub\n        /* \"#utility.yul\":2528:2560   */\n      slt\n        /* \"#utility.yul\":2525:2644   */\n      iszero\n      tag_443\n      jumpi\n        /* \"#utility.yul\":2563:2642   */\n      tag_444\n      tag_364\n      jump\t// in\n    tag_444:\n        /* \"#utility.yul\":2525:2644   */\n    tag_443:\n        /* \"#utility.yul\":2683:2684   */\n      0x00\n        /* \"#utility.yul\":2708:2761   */\n      tag_445\n        /* \"#utility.yul\":2753:2760   */\n      dup6\n        /* \"#utility.yul\":2744:2750   */\n      dup3\n        /* \"#utility.yul\":2733:2742   */\n      dup7\n        /* \"#utility.yul\":2729:2751   */\n      add\n        /* \"#utility.yul\":2708:2761   */\n      tag_369\n      jump\t// in\n    tag_445:\n        /* \"#utility.yul\":2698:2761   */\n      swap3\n      pop\n        /* \"#utility.yul\":2654:2771   */\n      pop\n        /* \"#utility.yul\":2810:2812   */\n      0x20\n        /* \"#utility.yul\":2836:2889   */\n      tag_446\n        /* \"#utility.yul\":2881:2888   */\n      dup6\n        /* \"#utility.yul\":2872:2878   */\n      dup3\n        /* \"#utility.yul\":2861:2870   */\n      dup7\n        /* \"#utility.yul\":2857:2879   */\n      add\n        /* \"#utility.yul\":2836:2889   */\n      tag_372\n      jump\t// in\n    tag_446:\n        /* \"#utility.yul\":2826:2889   */\n      swap2\n      pop\n        /* \"#utility.yul\":2781:2899   */\n      pop\n        /* \"#utility.yul\":2432:2906   */\n      swap3\n      pop\n      swap3\n      swap1\n      pop\n      jump\t// out\n        /* \"#utility.yul\":2912:3002   */\n    tag_373:\n        /* \"#utility.yul\":2946:2953   */\n      0x00\n        /* \"#utility.yul\":2989:2994   */\n      dup2\n        /* \"#utility.yul\":2982:2995   */\n      iszero\n        /* \"#utility.yul\":2975:2996   */\n      iszero\n        /* \"#utility.yul\":2964:2996   */\n      swap1\n      pop\n        /* \"#utility.yul\":2912:3002   */\n      swap2\n      swap1\n      pop\n      jump\t// out\n        /* \"#utility.yul\":3008:3117   */\n    tag_374:\n        /* \"#utility.yul\":3089:3110   */\n      tag_449\n        /* \"#utility.yul\":3104:3109   */\n      dup2\n        /* \"#utility.yul\":3089:3110   */\n      tag_373\n      jump\t// in\n    tag_449:\n        /* \"#utility.yul\":3084:3087   */\n      dup3\n        /* \"#utility.yul\":3077:3111   */\n      mstore\n        /* \"#utility.yul\":3008:3117   */\n      pop\n      pop\n      jump\t// out\n        /* \"#utility.yul\":3123:3333   */\n    tag_39:\n        /* \"#utility.yul\":3210:3214   */\n      0x00\n        /* \"#utility.yul\":3248:3250   */\n      0x20\n        /* \"#utility.yul\":3237:3246   */\n      dup3\n        /* \"#utility.yul\":3233:3251   */\n      add\n        /* \"#utility.yul\":3225:3251   */\n      swap1\n      pop\n        /* \"#utility.yul\":3261:3326   */\n      tag_451\n        /* \"#utility.yul\":3323:3324   */\n      0x00\n        /* \"#utility.yul\":3312:3321   */\n      dup4\n        /* \"#utility.yul\":3308:3325   */\n      add\n        /* \"#utility.yul\":3299:3305   */\n      dup5\n        /* \"#utility.yul\":3261:3326   */\n      tag_374\n      jump\t// in\n    tag_451:\n        /* \"#utility.yul\":3123:3333   */\n      swap3\n      swap2\n      pop\n      pop\n      jump\t// out\n        /* \"#utility.yul\":3339:3668   */\n    tag_43:\n        /* \"#utility.yul\":3398:3404   */\n      0x00\n        /* \"#utility.yul\":3447:3449   */\n      0x20\n        /* \"#utility.yul\":3435:3444   */\n      dup3\n        /* \"#utility.yul\":3426:3433   */\n      dup5\n        /* \"#utility.yul\":3422:3445   */\n      sub\n        /* \"#utility.yul\":3418:3450   */\n      slt\n        /* \"#utility.yul\":3415:3534   */\n      iszero\n      tag_453\n      jumpi\n        /* \"#utility.yul\":3453:3532   */\n      tag_454\n      tag_364\n      jump\t// in\n    tag_454:\n        /* \"#utility.yul\":3415:3534   */\n    tag_453:\n        /* \"#utility.yul\":3573:3574   */\n      0x00\n        /* \"#utility.yul\":3598:3651   */\n      tag_455\n        /* \"#utility.yul\":3643:3650   */\n      dup5\n        /* \"#utility.yul\":3634:3640   */\n      dup3\n        /* \"#utility.yul\":3623:3632   */\n      dup6\n        /* \"#utility.yul\":3619:3641   */\n      add\n        /* \"#utility.yul\":3598:3651   */\n      tag_369\n      jump\t// in\n    tag_455:\n        /* \"#utility.yul\":3588:3651   */\n      swap2\n      pop\n        /* \"#utility.yul\":3544:3661   */\n      pop\n        /* \"#utility.yul\":3339:3668   */\n      swap3\n      swap2\n      pop\n      pop\n      jump\t// out\n        /* \"#utility.yul\":3674:3792   */\n    tag_375:\n        /* \"#utility.yul\":3761:3785   */\n      tag_457\n        /* \"#utility.yul\":3779:3784   */\n      dup2\n        /* \"#utility.yul\":3761:3785   */\n      tag_370\n      jump\t// in\n    tag_457:\n        /* \"#utility.yul\":3756:3759   */\n      dup3\n        /* \"#utility.yul\":3749:3786   */\n      mstore\n        /* \"#utility.yul\":3674:3792   */\n      pop\n      pop\n      jump\t// out\n        /* \"#utility.yul\":3798:4351   */\n    tag_46:\n        /* \"#utility.yul\":3975:3979   */\n      0x00\n        /* \"#utility.yul\":4013:4016   */\n      0x80\n        /* \"#utility.yul\":4002:4011   */\n      dup3\n        /* \"#utility.yul\":3998:4017   */\n      add\n        /* \"#utility.yul\":3990:4017   */\n      swap1\n      pop\n        /* \"#utility.yul\":4027:4098   */\n      tag_459\n        /* \"#utility.yul\":4095:4096   */\n      0x00\n        /* \"#utility.yul\":4084:4093   */\n      dup4\n        /* \"#utility.yul\":4080:4097   */\n      add\n        /* \"#utility.yul\":4071:4077   */\n      dup8\n        /* \"#utility.yul\":4027:4098   */\n      tag_375\n      jump\t// in\n    tag_459:\n        /* \"#utility.yul\":4108:4180   */\n      tag_460\n        /* \"#utility.yul\":4176:4178   */\n      0x20\n        /* \"#utility.yul\":4165:4174   */\n      dup4\n        /* \"#utility.yul\":4161:4179   */\n      add\n        /* \"#utility.yul\":4152:4158   */\n      dup7\n        /* \"#utility.yul\":4108:4180   */\n      tag_375\n      jump\t// in\n    tag_460:\n        /* \"#utility.yul\":4190:4262   */\n      tag_461\n        /* \"#utility.yul\":4258:4260   */\n      0x40\n        /* \"#utility.yul\":4247:4256   */\n      dup4\n        /* \"#utility.yul\":4243:4261   */\n      add\n        /* \"#utility.yul\":4234:4240   */\n      dup6\n        /* \"#utility.yul\":4190:4262   */\n      tag_375\n      jump\t// in\n    tag_461:\n        /* \"#utility.yul\":4272:4344   */\n      tag_462\n        /* \"#utility.yul\":4340:4342   */\n      0x60\n        /* \"#utility.yul\":4329:4338   */\n      dup4\n        /* \"#utility.yul\":4325:4343   */\n      add\n        /* \"#utility.yul\":4316:4322   */\n      dup5\n        /* \"#utility.yul\":4272:4344   */\n      tag_375\n      jump\t// in\n    tag_462:\n        /* \"#utility.yul\":3798:4351   */\n      swap6\n      swap5\n      pop\n      pop\n      pop\n      pop\n      pop\n      jump\t// out\n        /* \"#utility.yul\":4357:4579   */\n    tag_56:\n        /* \"#utility.yul\":4450:4454   */\n      0x00\n        /* \"#utility.yul\":4488:4490   */\n      0x20\n        /* \"#utility.yul\":4477:4486   */\n      dup3\n        /* \"#utility.yul\":4473:4491   */\n      add\n        /* \"#utility.yul\":4465:4491   */\n      swap1\n      pop\n        /* \"#utility.yul\":4501:4572   */\n      tag_464\n        /* \"#utility.yul\":4569:4570   */\n      0x00\n        /* \"#utility.yul\":4558:4567   */\n      dup4\n        /* \"#utility.yul\":4554:4571   */\n      add\n        /* \"#utility.yul\":4545:4551   */\n      dup5\n        /* \"#utility.yul\":4501:4572   */\n      tag_375\n      jump\t// in\n    tag_464:\n        /* \"#utility.yul\":4357:4579   */\n      swap3\n      swap2\n      pop\n      pop\n      jump\t// out\n        /* \"#utility.yul\":4585:5204   */\n    tag_60:\n        /* \"#utility.yul\":4662:4668   */\n      0x00\n        /* \"#utility.yul\":4670:4676   */\n      0x00\n        /* \"#utility.yul\":4678:4684   */\n      0x00\n        /* \"#utility.yul\":4727:4729   */\n      0x60\n        /* \"#utility.yul\":4715:4724   */\n      dup5\n        /* \"#utility.yul\":4706:4713   */\n      dup7\n        /* \"#utility.yul\":4702:4725   */\n      sub\n        /* \"#utility.yul\":4698:4730   */\n      slt\n        /* \"#utility.yul\":4695:4814   */\n      iszero\n      tag_466\n      jumpi\n        /* \"#utility.yul\":4733:4812   */\n      tag_467\n      tag_364\n      jump\t// in\n    tag_467:\n        /* \"#utility.yul\":4695:4814   */\n    tag_466:\n        /* \"#utility.yul\":4853:4854   */\n      0x00\n        /* \"#utility.yul\":4878:4931   */\n      tag_468\n        /* \"#utility.yul\":4923:4930   */\n      dup7\n        /* \"#utility.yul\":4914:4920   */\n      dup3\n        /* \"#utility.yul\":4903:4912   */\n      dup8\n        /* \"#utility.yul\":4899:4921   */\n      add\n        /* \"#utility.yul\":4878:4931   */\n      tag_369\n      jump\t// in\n    tag_468:\n        /* \"#utility.yul\":4868:4931   */\n      swap4\n      pop\n        /* \"#utility.yul\":4824:4941   */\n      pop\n        /* \"#utility.yul\":4980:4982   */\n      0x20\n        /* \"#utility.yul\":5006:5059   */\n      tag_469\n        /* \"#utility.yul\":5051:5058   */\n      dup7\n        /* \"#utility.yul\":5042:5048   */\n      dup3\n        /* \"#utility.yul\":5031:5040   */\n      dup8\n        /* \"#utility.yul\":5027:5049   */\n      add\n        /* \"#utility.yul\":5006:5059   */\n      tag_369\n      jump\t// in\n    tag_469:\n        /* \"#utility.yul\":4996:5059   */\n      swap3\n      pop\n        /* \"#utility.yul\":4951:5069   */\n      pop\n        /* \"#utility.yul\":5108:5110   */\n      0x40\n        /* \"#utility.yul\":5134:5187   */\n      tag_470\n        /* \"#utility.yul\":5179:5186   */\n      dup7\n        /* \"#utility.yul\":5170:5176   */\n      dup3\n        /* \"#utility.yul\":5159:5168   */\n      dup8\n        /* \"#utility.yul\":5155:5177   */\n      add\n        /* \"#utility.yul\":5134:5187   */\n      tag_372\n      jump\t// in\n    tag_470:\n        /* \"#utility.yul\":5124:5187   */\n      swap2\n      pop\n        /* \"#utility.yul\":5079:5197   */\n      pop\n        /* \"#utility.yul\":4585:5204   */\n      swap3\n      pop\n      swap3\n      pop\n      swap3\n      jump\t// out\n        /* \"#utility.yul\":5210:5296   */\n    tag_376:\n        /* \"#utility.yul\":5245:5252   */\n      0x00\n        /* \"#utility.yul\":5285:5289   */\n      0xff\n        /* \"#utility.yul\":5278:5283   */\n      dup3\n        /* \"#utility.yul\":5274:5290   */\n      and\n        /* \"#utility.yul\":5263:5290   */\n      swap1\n      pop\n        /* \"#utility.yul\":5210:5296   */\n      swap2\n      swap1\n      pop\n      jump\t// out\n        /* \"#utility.yul\":5302:5414   */\n    tag_377:\n        /* \"#utility.yul\":5385:5407   */\n      tag_473\n        /* \"#utility.yul\":5401:5406   */\n      dup2\n        /* \"#utility.yul\":5385:5407   */\n      tag_376\n      jump\t// in\n    tag_473:\n        /* \"#utility.yul\":5380:5383   */\n      dup3\n        /* \"#utility.yul\":5373:5408   */\n      mstore\n        /* \"#utility.yul\":5302:5414   */\n      pop\n      pop\n      jump\t// out\n        /* \"#utility.yul\":5420:5634   */\n    tag_67:\n        /* \"#utility.yul\":5509:5513   */\n      0x00\n        /* \"#utility.yul\":5547:5549   */\n      0x20\n        /* \"#utility.yul\":5536:5545   */\n      dup3\n        /* \"#utility.yul\":5532:5550   */\n      add\n        /* \"#utility.yul\":5524:5550   */\n      swap1\n      pop\n        /* \"#utility.yul\":5560:5627   */\n      tag_475\n        /* \"#utility.yul\":5624:5625   */\n      0x00\n        /* \"#utility.yul\":5613:5622   */\n      dup4\n        /* \"#utility.yul\":5609:5626   */\n      add\n        /* \"#utility.yul\":5600:5606   */\n      dup5\n        /* \"#utility.yul\":5560:5627   */\n      tag_377\n      jump\t// in\n    tag_475:\n        /* \"#utility.yul\":5420:5634   */\n      swap3\n      swap2\n      pop\n      pop\n      jump\t// out\n        /* \"#utility.yul\":5640:5757   */\n    tag_378:\n        /* \"#utility.yul\":5749:5750   */\n      0x00\n        /* \"#utility.yul\":5746:5747   */\n      0x00\n        /* \"#utility.yul\":5739:5751   */\n      revert\n        /* \"#utility.yul\":5763:5880   */\n    tag_379:\n        /* \"#utility.yul\":5872:5873   */\n      0x00\n        /* \"#utility.yul\":5869:5870   */\n      0x00\n        /* \"#utility.yul\":5862:5874   */\n      revert\n        /* \"#utility.yul\":5886:6003   */\n    tag_380:\n        /* \"#utility.yul\":5995:5996   */\n      0x00\n        /* \"#utility.yul\":5992:5993   */\n      0x00\n        /* \"#utility.yul\":5985:5997   */\n      revert\n        /* \"#utility.yul\":6026:6594   */\n    tag_381:\n        /* \"#utility.yul\":6099:6107   */\n      0x00\n        /* \"#utility.yul\":6109:6115   */\n      0x00\n        /* \"#utility.yul\":6159:6162   */\n      dup4\n        /* \"#utility.yul\":6152:6156   */\n      0x1f\n        /* \"#utility.yul\":6144:6150   */\n      dup5\n        /* \"#utility.yul\":6140:6157   */\n      add\n        /* \"#utility.yul\":6136:6163   */\n      slt\n        /* \"#utility.yul\":6126:6248   */\n      tag_480\n      jumpi\n        /* \"#utility.yul\":6167:6246   */\n      tag_481\n      tag_378\n      jump\t// in\n    tag_481:\n        /* \"#utility.yul\":6126:6248   */\n    tag_480:\n        /* \"#utility.yul\":6280:6286   */\n      dup3\n        /* \"#utility.yul\":6267:6287   */\n      calldataload\n        /* \"#utility.yul\":6257:6287   */\n      swap1\n      pop\n        /* \"#utility.yul\":6310:6328   */\n      0xffffffffffffffff\n        /* \"#utility.yul\":6302:6308   */\n      dup2\n        /* \"#utility.yul\":6299:6329   */\n      gt\n        /* \"#utility.yul\":6296:6413   */\n      iszero\n      tag_482\n      jumpi\n        /* \"#utility.yul\":6332:6411   */\n      tag_483\n      tag_379\n      jump\t// in\n    tag_483:\n        /* \"#utility.yul\":6296:6413   */\n    tag_482:\n        /* \"#utility.yul\":6446:6450   */\n      0x20\n        /* \"#utility.yul\":6438:6444   */\n      dup4\n        /* \"#utility.yul\":6434:6451   */\n      add\n        /* \"#utility.yul\":6422:6451   */\n      swap2\n      pop\n        /* \"#utility.yul\":6500:6503   */\n      dup4\n        /* \"#utility.yul\":6492:6496   */\n      0x20\n        /* \"#utility.yul\":6484:6490   */\n      dup3\n        /* \"#utility.yul\":6480:6497   */\n      mul\n        /* \"#utility.yul\":6470:6478   */\n      dup4\n        /* \"#utility.yul\":6466:6498   */\n      add\n        /* \"#utility.yul\":6463:6504   */\n      gt\n        /* \"#utility.yul\":6460:6588   */\n      iszero\n      tag_484\n      jumpi\n        /* \"#utility.yul\":6507:6586   */\n      tag_485\n      tag_380\n      jump\t// in\n    tag_485:\n        /* \"#utility.yul\":6460:6588   */\n    tag_484:\n        /* \"#utility.yul\":6026:6594   */\n      swap3\n      pop\n      swap3\n      swap1\n      pop\n      jump\t// out\n        /* \"#utility.yul\":6617:7185   */\n    tag_382:\n        /* \"#utility.yul\":6690:6698   */\n      0x00\n        /* \"#utility.yul\":6700:6706   */\n      0x00\n        /* \"#utility.yul\":6750:6753   */\n      dup4\n        /* \"#utility.yul\":6743:6747   */\n      0x1f\n        /* \"#utility.yul\":6735:6741   */\n      dup5\n        /* \"#utility.yul\":6731:6748   */\n      add\n        /* \"#utility.yul\":6727:6754   */\n      slt\n        /* \"#utility.yul\":6717:6839   */\n      tag_487\n      jumpi\n        /* \"#utility.yul\":6758:6837   */\n      tag_488\n      tag_378\n      jump\t// in\n    tag_488:\n        /* \"#utility.yul\":6717:6839   */\n    tag_487:\n        /* \"#utility.yul\":6871:6877   */\n      dup3\n        /* \"#utility.yul\":6858:6878   */\n      calldataload\n        /* \"#utility.yul\":6848:6878   */\n      swap1\n      pop\n        /* \"#utility.yul\":6901:6919   */\n      0xffffffffffffffff\n        /* \"#utility.yul\":6893:6899   */\n      dup2\n        /* \"#utility.yul\":6890:6920   */\n      gt\n        /* \"#utility.yul\":6887:7004   */\n      iszero\n      tag_489\n      jumpi\n        /* \"#utility.yul\":6923:7002   */\n      tag_490\n      tag_379\n      jump\t// in\n    tag_490:\n        /* \"#utility.yul\":6887:7004   */\n    tag_489:\n        /* \"#utility.yul\":7037:7041   */\n      0x20\n        /* \"#utility.yul\":7029:7035   */\n      dup4\n        /* \"#utility.yul\":7025:7042   */\n      add\n        /* \"#utility.yul\":7013:7042   */\n      swap2\n      pop\n        /* \"#utility.yul\":7091:7094   */\n      dup4\n        /* \"#utility.yul\":7083:7087   */\n      0x20\n        /* \"#utility.yul\":7075:7081   */\n      dup3\n        /* \"#utility.yul\":7071:7088   */\n      mul\n        /* \"#utility.yul\":7061:7069   */\n      dup4\n        /* \"#utility.yul\":7057:7089   */\n      add\n        /* \"#utility.yul\":7054:7095   */\n      gt\n        /* \"#utility.yul\":7051:7179   */\n      iszero\n      tag_491\n      jumpi\n        /* \"#utility.yul\":7098:7177   */\n      tag_492\n      tag_380\n      jump\t// in\n    tag_492:\n        /* \"#utility.yul\":7051:7179   */\n    tag_491:\n        /* \"#utility.yul\":6617:7185   */\n      swap3\n      pop\n      swap3\n      swap1\n      pop\n      jump\t// out\n        /* \"#utility.yul\":7191:8125   */\n    tag_94:\n        /* \"#utility.yul\":7313:7319   */\n      0x00\n        /* \"#utility.yul\":7321:7327   */\n      0x00\n        /* \"#utility.yul\":7329:7335   */\n      0x00\n        /* \"#utility.yul\":7337:7343   */\n      0x00\n        /* \"#utility.yul\":7386:7388   */\n      0x40\n        /* \"#utility.yul\":7374:7383   */\n      dup6\n        /* \"#utility.yul\":7365:7372   */\n      dup8\n        /* \"#utility.yul\":7361:7384   */\n      sub\n        /* \"#utility.yul\":7357:7389   */\n      slt\n        /* \"#utility.yul\":7354:7473   */\n      iszero\n      tag_494\n      jumpi\n        /* \"#utility.yul\":7392:7471   */\n      tag_495\n      tag_364\n      jump\t// in\n    tag_495:\n        /* \"#utility.yul\":7354:7473   */\n    tag_494:\n        /* \"#utility.yul\":7540:7541   */\n      0x00\n        /* \"#utility.yul\":7529:7538   */\n      dup6\n        /* \"#utility.yul\":7525:7542   */\n      add\n        /* \"#utility.yul\":7512:7543   */\n      calldataload\n        /* \"#utility.yul\":7570:7588   */\n      0xffffffffffffffff\n        /* \"#utility.yul\":7562:7568   */\n      dup2\n        /* \"#utility.yul\":7559:7589   */\n      gt\n        /* \"#utility.yul\":7556:7673   */\n      iszero\n      tag_496\n      jumpi\n        /* \"#utility.yul\":7592:7671   */\n      tag_497\n      tag_365\n      jump\t// in\n    tag_497:\n        /* \"#utility.yul\":7556:7673   */\n    tag_496:\n        /* \"#utility.yul\":7705:7785   */\n      tag_498\n        /* \"#utility.yul\":7777:7784   */\n      dup8\n        /* \"#utility.yul\":7768:7774   */\n      dup3\n        /* \"#utility.yul\":7757:7766   */\n      dup9\n        /* \"#utility.yul\":7753:7775   */\n      add\n        /* \"#utility.yul\":7705:7785   */\n      tag_381\n      jump\t// in\n    tag_498:\n        /* \"#utility.yul\":7687:7785   */\n      swap5\n      pop\n      swap5\n      pop\n        /* \"#utility.yul\":7483:7795   */\n      pop\n        /* \"#utility.yul\":7862:7864   */\n      0x20\n        /* \"#utility.yul\":7851:7860   */\n      dup6\n        /* \"#utility.yul\":7847:7865   */\n      add\n        /* \"#utility.yul\":7834:7866   */\n      calldataload\n        /* \"#utility.yul\":7893:7911   */\n      0xffffffffffffffff\n        /* \"#utility.yul\":7885:7891   */\n      dup2\n        /* \"#utility.yul\":7882:7912   */\n      gt\n        /* \"#utility.yul\":7879:7996   */\n      iszero\n      tag_499\n      jumpi\n        /* \"#utility.yul\":7915:7994   */\n      tag_500\n      tag_365\n      jump\t// in\n    tag_500:\n        /* \"#utility.yul\":7879:7996   */\n    tag_499:\n        /* \"#utility.yul\":8028:8108   */\n      tag_501\n        /* \"#utility.yul\":8100:8107   */\n      dup8\n        /* \"#utility.yul\":8091:8097   */\n      dup3\n        /* \"#utility.yul\":8080:8089   */\n      dup9\n        /* \"#utility.yul\":8076:8098   */\n      add\n        /* \"#utility.yul\":8028:8108   */\n      tag_382\n      jump\t// in\n    tag_501:\n        /* \"#utility.yul\":8010:8108   */\n      swap3\n      pop\n      swap3\n      pop\n        /* \"#utility.yul\":7805:8118   */\n      pop\n        /* \"#utility.yul\":7191:8125   */\n      swap3\n      swap6\n      swap2\n      swap5\n      pop\n      swap3\n      pop\n      jump\t// out\n        /* \"#utility.yul\":8131:8249   */\n    tag_383:\n        /* \"#utility.yul\":8202:8224   */\n      tag_503\n        /* \"#utility.yul\":8218:8223   */\n      dup2\n        /* \"#utility.yul\":8202:8224   */\n      tag_376\n      jump\t// in\n    tag_503:\n        /* \"#utility.yul\":8195:8200   */\n      dup2\n        /* \"#utility.yul\":8192:8225   */\n      eq\n        /* \"#utility.yul\":8182:8243   */\n      tag_504\n      jumpi\n        /* \"#utility.yul\":8239:8240   */\n      0x00\n        /* \"#utility.yul\":8236:8237   */\n      0x00\n        /* \"#utility.yul\":8229:8241   */\n      revert\n        /* \"#utility.yul\":8182:8243   */\n    tag_504:\n        /* \"#utility.yul\":8131:8249   */\n      pop\n      jump\t// out\n        /* \"#utility.yul\":8255:8390   */\n    tag_384:\n        /* \"#utility.yul\":8299:8304   */\n      0x00\n        /* \"#utility.yul\":8337:8343   */\n      dup2\n        /* \"#utility.yul\":8324:8344   */\n      calldataload\n        /* \"#utility.yul\":8315:8344   */\n      swap1\n      pop\n        /* \"#utility.yul\":8353:8384   */\n      tag_506\n        /* \"#utility.yul\":8378:8383   */\n      dup2\n        /* \"#utility.yul\":8353:8384   */\n      tag_383\n      jump\t// in\n    tag_506:\n        /* \"#utility.yul\":8255:8390   */\n      swap3\n      swap2\n      pop\n      pop\n      jump\t// out\n        /* \"#utility.yul\":8396:8866   */\n    tag_100:\n        /* \"#utility.yul\":8462:8468   */\n      0x00\n        /* \"#utility.yul\":8470:8476   */\n      0x00\n        /* \"#utility.yul\":8519:8521   */\n      0x40\n        /* \"#utility.yul\":8507:8516   */\n      dup4\n        /* \"#utility.yul\":8498:8505   */\n      dup6\n        /* \"#utility.yul\":8494:8517   */\n      sub\n        /* \"#utility.yul\":8490:8522   */\n      slt\n        /* \"#utility.yul\":8487:8606   */\n      iszero\n      tag_508\n      jumpi\n        /* \"#utility.yul\":8525:8604   */\n      tag_509\n      tag_364\n      jump\t// in\n    tag_509:\n        /* \"#utility.yul\":8487:8606   */\n    tag_508:\n        /* \"#utility.yul\":8645:8646   */\n      0x00\n        /* \"#utility.yul\":8670:8723   */\n      tag_510\n        /* \"#utility.yul\":8715:8722   */\n      dup6\n        /* \"#utility.yul\":8706:8712   */\n      dup3\n        /* \"#utility.yul\":8695:8704   */\n      dup7\n        /* \"#utility.yul\":8691:8713   */\n      add\n        /* \"#utility.yul\":8670:8723   */\n      tag_369\n      jump\t// in\n    tag_510:\n        /* \"#utility.yul\":8660:8723   */\n      swap3\n      pop\n        /* \"#utility.yul\":8616:8733   */\n      pop\n        /* \"#utility.yul\":8772:8774   */\n      0x20\n        /* \"#utility.yul\":8798:8849   */\n      tag_511\n        /* \"#utility.yul\":8841:8848   */\n      dup6\n        /* \"#utility.yul\":8832:8838   */\n      dup3\n        /* \"#utility.yul\":8821:8830   */\n      dup7\n        /* \"#utility.yul\":8817:8839   */\n      add\n        /* \"#utility.yul\":8798:8849   */\n      tag_384\n      jump\t// in\n    tag_511:\n        /* \"#utility.yul\":8788:8849   */\n      swap2\n      pop\n        /* \"#utility.yul\":8743:8859   */\n      pop\n        /* \"#utility.yul\":8396:8866   */\n      swap3\n      pop\n      swap3\n      swap1\n      pop\n      jump\t// out\n        /* \"#utility.yul\":8872:9346   */\n    tag_110:\n        /* \"#utility.yul\":8940:8946   */\n      0x00\n        /* \"#utility.yul\":8948:8954   */\n      0x00\n        /* \"#utility.yul\":8997:8999   */\n      0x40\n        /* \"#utility.yul\":8985:8994   */\n      dup4\n        /* \"#utility.yul\":8976:8983   */\n      dup6\n        /* \"#utility.yul\":8972:8995   */\n      sub\n        /* \"#utility.yul\":8968:9000   */\n      slt\n        /* \"#utility.yul\":8965:9084   */\n      iszero\n      tag_513\n      jumpi\n        /* \"#utility.yul\":9003:9082   */\n      tag_514\n      tag_364\n      jump\t// in\n    tag_514:\n        /* \"#utility.yul\":8965:9084   */\n    tag_513:\n        /* \"#utility.yul\":9123:9124   */\n      0x00\n        /* \"#utility.yul\":9148:9201   */\n      tag_515\n        /* \"#utility.yul\":9193:9200   */\n      dup6\n        /* \"#utility.yul\":9184:9190   */\n      dup3\n        /* \"#utility.yul\":9173:9182   */\n      dup7\n        /* \"#utility.yul\":9169:9191   */\n      add\n        /* \"#utility.yul\":9148:9201   */\n      tag_369\n      jump\t// in\n    tag_515:\n        /* \"#utility.yul\":9138:9201   */\n      swap3\n      pop\n        /* \"#utility.yul\":9094:9211   */\n      pop\n        /* \"#utility.yul\":9250:9252   */\n      0x20\n        /* \"#utility.yul\":9276:9329   */\n      tag_516\n        /* \"#utility.yul\":9321:9328   */\n      dup6\n        /* \"#utility.yul\":9312:9318   */\n      dup3\n        /* \"#utility.yul\":9301:9310   */\n      dup7\n        /* \"#utility.yul\":9297:9319   */\n      add\n        /* \"#utility.yul\":9276:9329   */\n      tag_369\n      jump\t// in\n    tag_516:\n        /* \"#utility.yul\":9266:9329   */\n      swap2\n      pop\n        /* \"#utility.yul\":9221:9339   */\n      pop\n        /* \"#utility.yul\":8872:9346   */\n      swap3\n      pop\n      swap3\n      swap1\n      pop\n      jump\t// out\n        /* \"#utility.yul\":9352:9466   */\n    tag_385:\n        /* \"#utility.yul\":9419:9425   */\n      0x00\n        /* \"#utility.yul\":9453:9458   */\n      dup2\n        /* \"#utility.yul\":9447:9459   */\n      mload\n        /* \"#utility.yul\":9437:9459   */\n      swap1\n      pop\n        /* \"#utility.yul\":9352:9466   */\n      swap2\n      swap1\n      pop\n      jump\t// out\n        /* \"#utility.yul\":9472:9656   */\n    tag_386:\n        /* \"#utility.yul\":9571:9582   */\n      0x00\n        /* \"#utility.yul\":9605:9611   */\n      dup3\n        /* \"#utility.yul\":9600:9603   */\n      dup3\n        /* \"#utility.yul\":9593:9612   */\n      mstore\n        /* \"#utility.yul\":9645:9649   */\n      0x20\n        /* \"#utility.yul\":9640:9643   */\n      dup3\n        /* \"#utility.yul\":9636:9650   */\n      add\n        /* \"#utility.yul\":9621:9650   */\n      swap1\n      pop\n        /* \"#utility.yul\":9472:9656   */\n      swap3\n      swap2\n      pop\n      pop\n      jump\t// out\n        /* \"#utility.yul\":9662:9794   */\n    tag_387:\n        /* \"#utility.yul\":9729:9733   */\n      0x00\n        /* \"#utility.yul\":9752:9755   */\n      dup2\n        /* \"#utility.yul\":9744:9755   */\n      swap1\n      pop\n        /* \"#utility.yul\":9782:9786   */\n      0x20\n        /* \"#utility.yul\":9777:9780   */\n      dup3\n        /* \"#utility.yul\":9773:9787   */\n      add\n        /* \"#utility.yul\":9765:9787   */\n      swap1\n      pop\n        /* \"#utility.yul\":9662:9794   */\n      swap2\n      swap1\n      pop\n      jump\t// out\n        /* \"#utility.yul\":9800:9908   */\n    tag_388:\n        /* \"#utility.yul\":9877:9901   */\n      tag_521\n        /* \"#utility.yul\":9895:9900   */\n      dup2\n        /* \"#utility.yul\":9877:9901   */\n      tag_370\n      jump\t// in\n    tag_521:\n        /* \"#utility.yul\":9872:9875   */\n      dup3\n        /* \"#utility.yul\":9865:9902   */\n      mstore\n        /* \"#utility.yul\":9800:9908   */\n      pop\n      pop\n      jump\t// out\n        /* \"#utility.yul\":9914:10093   */\n    tag_389:\n        /* \"#utility.yul\":9983:9993   */\n      0x00\n        /* \"#utility.yul\":10004:10050   */\n      tag_523\n        /* \"#utility.yul\":10046:10049   */\n      dup4\n        /* \"#utility.yul\":10038:10044   */\n      dup4\n        /* \"#utility.yul\":10004:10050   */\n      tag_388\n      jump\t// in\n    tag_523:\n        /* \"#utility.yul\":10082:10086   */\n      0x20\n        /* \"#utility.yul\":10077:10080   */\n      dup4\n        /* \"#utility.yul\":10073:10087   */\n      add\n        /* \"#utility.yul\":10059:10087   */\n      swap1\n      pop\n        /* \"#utility.yul\":9914:10093   */\n      swap3\n      swap2\n      pop\n      pop\n      jump\t// out\n        /* \"#utility.yul\":10099:10212   */\n    tag_390:\n        /* \"#utility.yul\":10169:10173   */\n      0x00\n        /* \"#utility.yul\":10201:10205   */\n      0x20\n        /* \"#utility.yul\":10196:10199   */\n      dup3\n        /* \"#utility.yul\":10192:10206   */\n      add\n        /* \"#utility.yul\":10184:10206   */\n      swap1\n      pop\n        /* \"#utility.yul\":10099:10212   */\n      swap2\n      swap1\n      pop\n      jump\t// out\n        /* \"#utility.yul\":10248:10980   */\n    tag_391:\n        /* \"#utility.yul\":10367:10370   */\n      0x00\n        /* \"#utility.yul\":10396:10450   */\n      tag_526\n        /* \"#utility.yul\":10444:10449   */\n      dup3\n        /* \"#utility.yul\":10396:10450   */\n      tag_385\n      jump\t// in\n    tag_526:\n        /* \"#utility.yul\":10466:10552   */\n      tag_527\n        /* \"#utility.yul\":10545:10551   */\n      dup2\n        /* \"#utility.yul\":10540:10543   */\n      dup6\n        /* \"#utility.yul\":10466:10552   */\n      tag_386\n      jump\t// in\n    tag_527:\n        /* \"#utility.yul\":10459:10552   */\n      swap4\n      pop\n        /* \"#utility.yul\":10576:10632   */\n      tag_528\n        /* \"#utility.yul\":10626:10631   */\n      dup4\n        /* \"#utility.yul\":10576:10632   */\n      tag_387\n      jump\t// in\n    tag_528:\n        /* \"#utility.yul\":10655:10662   */\n      dup1\n        /* \"#utility.yul\":10686:10687   */\n      0x00\n        /* \"#utility.yul\":10671:10955   */\n    tag_529:\n        /* \"#utility.yul\":10696:10702   */\n      dup4\n        /* \"#utility.yul\":10693:10694   */\n      dup2\n        /* \"#utility.yul\":10690:10703   */\n      lt\n        /* \"#utility.yul\":10671:10955   */\n      iszero\n      tag_531\n      jumpi\n        /* \"#utility.yul\":10772:10778   */\n      dup2\n        /* \"#utility.yul\":10766:10779   */\n      mload\n        /* \"#utility.yul\":10799:10862   */\n      tag_532\n        /* \"#utility.yul\":10858:10861   */\n      dup9\n        /* \"#utility.yul\":10843:10856   */\n      dup3\n        /* \"#utility.yul\":10799:10862   */\n      tag_389\n      jump\t// in\n    tag_532:\n        /* \"#utility.yul\":10792:10862   */\n      swap8\n      pop\n        /* \"#utility.yul\":10885:10945   */\n      tag_533\n        /* \"#utility.yul\":10938:10944   */\n      dup4\n        /* \"#utility.yul\":10885:10945   */\n      tag_390\n      jump\t// in\n    tag_533:\n        /* \"#utility.yul\":10875:10945   */\n      swap3\n      pop\n        /* \"#utility.yul\":10731:10955   */\n      pop\n        /* \"#utility.yul\":10718:10719   */\n      0x01\n        /* \"#utility.yul\":10715:10716   */\n      dup2\n        /* \"#utility.yul\":10711:10720   */\n      add\n        /* \"#utility.yul\":10706:10720   */\n      swap1\n      pop\n        /* \"#utility.yul\":10671:10955   */\n      jump(tag_529)\n    tag_531:\n        /* \"#utility.yul\":10675:10689   */\n      pop\n        /* \"#utility.yul\":10971:10974   */\n      dup6\n        /* \"#utility.yul\":10964:10974   */\n      swap4\n      pop\n        /* \"#utility.yul\":10372:10980   */\n      pop\n      pop\n      pop\n        /* \"#utility.yul\":10248:10980   */\n      swap3\n      swap2\n      pop\n      pop\n      jump\t// out\n        /* \"#utility.yul\":10986:12508   */\n    tag_118:\n        /* \"#utility.yul\":11465:11469   */\n      0x00\n        /* \"#utility.yul\":11503:11506   */\n      0xc0\n        /* \"#utility.yul\":11492:11501   */\n      dup3\n        /* \"#utility.yul\":11488:11507   */\n      add\n        /* \"#utility.yul\":11480:11507   */\n      swap1\n      pop\n        /* \"#utility.yul\":11553:11562   */\n      dup2\n        /* \"#utility.yul\":11547:11551   */\n      dup2\n        /* \"#utility.yul\":11543:11563   */\n      sub\n        /* \"#utility.yul\":11539:11540   */\n      0x00\n        /* \"#utility.yul\":11528:11537   */\n      dup4\n        /* \"#utility.yul\":11524:11541   */\n      add\n        /* \"#utility.yul\":11517:11564   */\n      mstore\n        /* \"#utility.yul\":11581:11689   */\n      tag_535\n        /* \"#utility.yul\":11684:11688   */\n      dup2\n        /* \"#utility.yul\":11675:11681   */\n      dup10\n        /* \"#utility.yul\":11581:11689   */\n      tag_391\n      jump\t// in\n    tag_535:\n        /* \"#utility.yul\":11573:11689   */\n      swap1\n      pop\n        /* \"#utility.yul\":11736:11745   */\n      dup2\n        /* \"#utility.yul\":11730:11734   */\n      dup2\n        /* \"#utility.yul\":11726:11746   */\n      sub\n        /* \"#utility.yul\":11721:11723   */\n      0x20\n        /* \"#utility.yul\":11710:11719   */\n      dup4\n        /* \"#utility.yul\":11706:11724   */\n      add\n        /* \"#utility.yul\":11699:11747   */\n      mstore\n        /* \"#utility.yul\":11764:11872   */\n      tag_536\n        /* \"#utility.yul\":11867:11871   */\n      dup2\n        /* \"#utility.yul\":11858:11864   */\n      dup9\n        /* \"#utility.yul\":11764:11872   */\n      tag_391\n      jump\t// in\n    tag_536:\n        /* \"#utility.yul\":11756:11872   */\n      swap1\n      pop\n        /* \"#utility.yul\":11919:11928   */\n      dup2\n        /* \"#utility.yul\":11913:11917   */\n      dup2\n        /* \"#utility.yul\":11909:11929   */\n      sub\n        /* \"#utility.yul\":11904:11906   */\n      0x40\n        /* \"#utility.yul\":11893:11902   */\n      dup4\n        /* \"#utility.yul\":11889:11907   */\n      add\n        /* \"#utility.yul\":11882:11930   */\n      mstore\n        /* \"#utility.yul\":11947:12055   */\n      tag_537\n        /* \"#utility.yul\":12050:12054   */\n      dup2\n        /* \"#utility.yul\":12041:12047   */\n      dup8\n        /* \"#utility.yul\":11947:12055   */\n      tag_391\n      jump\t// in\n    tag_537:\n        /* \"#utility.yul\":11939:12055   */\n      swap1\n      pop\n        /* \"#utility.yul\":12102:12111   */\n      dup2\n        /* \"#utility.yul\":12096:12100   */\n      dup2\n        /* \"#utility.yul\":12092:12112   */\n      sub\n        /* \"#utility.yul\":12087:12089   */\n      0x60\n        /* \"#utility.yul\":12076:12085   */\n      dup4\n        /* \"#utility.yul\":12072:12090   */\n      add\n        /* \"#utility.yul\":12065:12113   */\n      mstore\n        /* \"#utility.yul\":12130:12238   */\n      tag_538\n        /* \"#utility.yul\":12233:12237   */\n      dup2\n        /* \"#utility.yul\":12224:12230   */\n      dup7\n        /* \"#utility.yul\":12130:12238   */\n      tag_391\n      jump\t// in\n    tag_538:\n        /* \"#utility.yul\":12122:12238   */\n      swap1\n      pop\n        /* \"#utility.yul\":12286:12295   */\n      dup2\n        /* \"#utility.yul\":12280:12284   */\n      dup2\n        /* \"#utility.yul\":12276:12296   */\n      sub\n        /* \"#utility.yul\":12270:12273   */\n      0x80\n        /* \"#utility.yul\":12259:12268   */\n      dup4\n        /* \"#utility.yul\":12255:12274   */\n      add\n        /* \"#utility.yul\":12248:12297   */\n      mstore\n        /* \"#utility.yul\":12314:12422   */\n      tag_539\n        /* \"#utility.yul\":12417:12421   */\n      dup2\n        /* \"#utility.yul\":12408:12414   */\n      dup6\n        /* \"#utility.yul\":12314:12422   */\n      tag_391\n      jump\t// in\n    tag_539:\n        /* \"#utility.yul\":12306:12422   */\n      swap1\n      pop\n        /* \"#utility.yul\":12432:12501   */\n      tag_540\n        /* \"#utility.yul\":12496:12499   */\n      0xa0\n        /* \"#utility.yul\":12485:12494   */\n      dup4\n        /* \"#utility.yul\":12481:12500   */\n      add\n        /* \"#utility.yul\":12472:12478   */\n      dup5\n        /* \"#utility.yul\":12432:12501   */\n      tag_377\n      jump\t// in\n    tag_540:\n        /* \"#utility.yul\":10986:12508   */\n      swap8\n      swap7\n      pop\n      pop\n      pop\n      pop\n      pop\n      pop\n      pop\n      jump\t// out\n        /* \"#utility.yul\":12514:12694   */\n    tag_392:\n        /* \"#utility.yul\":12562:12639   */\n      0x4e487b7100000000000000000000000000000000000000000000000000000000\n        /* \"#utility.yul\":12559:12560   */\n      0x00\n        /* \"#utility.yul\":12552:12640   */\n      mstore\n        /* \"#utility.yul\":12659:12663   */\n      0x22\n        /* \"#utility.yul\":12656:12657   */\n      0x04\n        /* \"#utility.yul\":12649:12664   */\n      mstore\n        /* \"#utility.yul\":12683:12687   */\n      0x24\n        /* \"#utility.yul\":12680:12681   */\n      0x00\n        /* \"#utility.yul\":12673:12688   */\n      revert\n        /* \"#utility.yul\":12700:13020   */\n    tag_121:\n        /* \"#utility.yul\":12744:12750   */\n      0x00\n        /* \"#utility.yul\":12781:12782   */\n      0x02\n        /* \"#utility.yul\":12775:12779   */\n      dup3\n        /* \"#utility.yul\":12771:12783   */\n      div\n        /* \"#utility.yul\":12761:12783   */\n      swap1\n      pop\n        /* \"#utility.yul\":12828:12829   */\n      0x01\n        /* \"#utility.yul\":12822:12826   */\n      dup3\n        /* \"#utility.yul\":12818:12830   */\n      and\n        /* \"#utility.yul\":12849:12867   */\n      dup1\n        /* \"#utility.yul\":12839:12920   */\n      tag_543\n      jumpi\n        /* \"#utility.yul\":12905:12909   */\n      0x7f\n        /* \"#utility.yul\":12897:12903   */\n      dup3\n        /* \"#utility.yul\":12893:12910   */\n      and\n        /* \"#utility.yul\":12883:12910   */\n      swap2\n      pop\n        /* \"#utility.yul\":12839:12920   */\n    tag_543:\n        /* \"#utility.yul\":12967:12969   */\n      0x20\n        /* \"#utility.yul\":12959:12965   */\n      dup3\n        /* \"#utility.yul\":12956:12970   */\n      lt\n        /* \"#utility.yul\":12936:12954   */\n      dup2\n        /* \"#utility.yul\":12933:12971   */\n      sub\n        /* \"#utility.yul\":12930:13014   */\n      tag_544\n      jumpi\n        /* \"#utility.yul\":12986:13004   */\n      tag_545\n      tag_392\n      jump\t// in\n    tag_545:\n        /* \"#utility.yul\":12930:13014   */\n    tag_544:\n        /* \"#utility.yul\":12751:13020   */\n      pop\n        /* \"#utility.yul\":12700:13020   */\n      swap2\n      swap1\n      pop\n      jump\t// out\n        /* \"#utility.yul\":13026:13206   */\n    tag_393:\n        /* \"#utility.yul\":13166:13198   */\n      0x4572726f723a2043616c6c6572206973206e6f7420746865206f776e65720000\n        /* \"#utility.yul\":13162:13163   */\n      0x00\n        /* \"#utility.yul\":13154:13160   */\n      dup3\n        /* \"#utility.yul\":13150:13164   */\n      add\n        /* \"#utility.yul\":13143:13199   */\n      mstore\n        /* \"#utility.yul\":13026:13206   */\n      pop\n      jump\t// out\n        /* \"#utility.yul\":13212:13578   */\n    tag_394:\n        /* \"#utility.yul\":13354:13357   */\n      0x00\n        /* \"#utility.yul\":13375:13442   */\n      tag_548\n        /* \"#utility.yul\":13439:13441   */\n      0x1e\n        /* \"#utility.yul\":13434:13437   */\n      dup4\n        /* \"#utility.yul\":13375:13442   */\n      tag_359\n      jump\t// in\n    tag_548:\n        /* \"#utility.yul\":13368:13442   */\n      swap2\n      pop\n        /* \"#utility.yul\":13451:13544   */\n      tag_549\n        /* \"#utility.yul\":13540:13543   */\n      dup3\n        /* \"#utility.yul\":13451:13544   */\n      tag_393\n      jump\t// in\n    tag_549:\n        /* \"#utility.yul\":13569:13571   */\n      0x20\n        /* \"#utility.yul\":13564:13567   */\n      dup3\n        /* \"#utility.yul\":13560:13572   */\n      add\n        /* \"#utility.yul\":13553:13572   */\n      swap1\n      pop\n        /* \"#utility.yul\":13212:13578   */\n      swap2\n      swap1\n      pop\n      jump\t// out\n        /* \"#utility.yul\":13584:14003   */\n    tag_135:\n        /* \"#utility.yul\":13750:13754   */\n      0x00\n        /* \"#utility.yul\":13788:13790   */\n      0x20\n        /* \"#utility.yul\":13777:13786   */\n      dup3\n        /* \"#utility.yul\":13773:13791   */\n      add\n        /* \"#utility.yul\":13765:13791   */\n      swap1\n      pop\n        /* \"#utility.yul\":13837:13846   */\n      dup2\n        /* \"#utility.yul\":13831:13835   */\n      dup2\n        /* \"#utility.yul\":13827:13847   */\n      sub\n        /* \"#utility.yul\":13823:13824   */\n      0x00\n        /* \"#utility.yul\":13812:13821   */\n      dup4\n        /* \"#utility.yul\":13808:13825   */\n      add\n        /* \"#utility.yul\":13801:13848   */\n      mstore\n        /* \"#utility.yul\":13865:13996   */\n      tag_551\n        /* \"#utility.yul\":13991:13995   */\n      dup2\n        /* \"#utility.yul\":13865:13996   */\n      tag_394\n      jump\t// in\n    tag_551:\n        /* \"#utility.yul\":13857:13996   */\n      swap1\n      pop\n        /* \"#utility.yul\":13584:14003   */\n      swap2\n      swap1\n      pop\n      jump\t// out\n        /* \"#utility.yul\":14009:14189   */\n    tag_395:\n        /* \"#utility.yul\":14057:14134   */\n      0x4e487b7100000000000000000000000000000000000000000000000000000000\n        /* \"#utility.yul\":14054:14055   */\n      0x00\n        /* \"#utility.yul\":14047:14135   */\n      mstore\n        /* \"#utility.yul\":14154:14158   */\n      0x11\n        /* \"#utility.yul\":14151:14152   */\n      0x04\n        /* \"#utility.yul\":14144:14159   */\n      mstore\n        /* \"#utility.yul\":14178:14182   */\n      0x24\n        /* \"#utility.yul\":14175:14176   */\n      0x00\n        /* \"#utility.yul\":14168:14183   */\n      revert\n        /* \"#utility.yul\":14195:14389   */\n    tag_138:\n        /* \"#utility.yul\":14235:14239   */\n      0x00\n        /* \"#utility.yul\":14255:14275   */\n      tag_554\n        /* \"#utility.yul\":14273:14274   */\n      dup3\n        /* \"#utility.yul\":14255:14275   */\n      tag_370\n      jump\t// in\n    tag_554:\n        /* \"#utility.yul\":14250:14275   */\n      swap2\n      pop\n        /* \"#utility.yul\":14289:14309   */\n      tag_555\n        /* \"#utility.yul\":14307:14308   */\n      dup4\n        /* \"#utility.yul\":14289:14309   */\n      tag_370\n      jump\t// in\n    tag_555:\n        /* \"#utility.yul\":14284:14309   */\n      swap3\n      pop\n        /* \"#utility.yul\":14333:14334   */\n      dup3\n        /* \"#utility.yul\":14330:14331   */\n      dup3\n        /* \"#utility.yul\":14326:14335   */\n      sub\n        /* \"#utility.yul\":14318:14335   */\n      swap1\n      pop\n        /* \"#utility.yul\":14357:14358   */\n      dup2\n        /* \"#utility.yul\":14351:14355   */\n      dup2\n        /* \"#utility.yul\":14348:14359   */\n      gt\n        /* \"#utility.yul\":14345:14382   */\n      iszero\n      tag_556\n      jumpi\n        /* \"#utility.yul\":14362:14380   */\n      tag_557\n      tag_395\n      jump\t// in\n    tag_557:\n        /* \"#utility.yul\":14345:14382   */\n    tag_556:\n        /* \"#utility.yul\":14195:14389   */\n      swap3\n      swap2\n      pop\n      pop\n      jump\t// out\n        /* \"#utility.yul\":14395:14568   */\n    tag_396:\n        /* \"#utility.yul\":14535:14560   */\n      0x4572726f723a204f7065726174696f6e206661696c6564000000000000000000\n        /* \"#utility.yul\":14531:14532   */\n      0x00\n        /* \"#utility.yul\":14523:14529   */\n      dup3\n        /* \"#utility.yul\":14519:14533   */\n      add\n        /* \"#utility.yul\":14512:14561   */\n      mstore\n        /* \"#utility.yul\":14395:14568   */\n      pop\n      jump\t// out\n        /* \"#utility.yul\":14574:14940   */\n    tag_397:\n        /* \"#utility.yul\":14716:14719   */\n      0x00\n        /* \"#utility.yul\":14737:14804   */\n      tag_560\n        /* \"#utility.yul\":14801:14803   */\n      0x17\n        /* \"#utility.yul\":14796:14799   */\n      dup4\n        /* \"#utility.yul\":14737:14804   */\n      tag_359\n      jump\t// in\n    tag_560:\n        /* \"#utility.yul\":14730:14804   */\n      swap2\n      pop\n        /* \"#utility.yul\":14813:14906   */\n      tag_561\n        /* \"#utility.yul\":14902:14905   */\n      dup3\n        /* \"#utility.yul\":14813:14906   */\n      tag_396\n      jump\t// in\n    tag_561:\n        /* \"#utility.yul\":14931:14933   */\n      0x20\n        /* \"#utility.yul\":14926:14929   */\n      dup3\n        /* \"#utility.yul\":14922:14934   */\n      add\n        /* \"#utility.yul\":14915:14934   */\n      swap1\n      pop\n        /* \"#utility.yul\":14574:14940   */\n      swap2\n      swap1\n      pop\n      jump\t// out\n        /* \"#utility.yul\":14946:15365   */\n    tag_147:\n        /* \"#utility.yul\":15112:15116   */\n      0x00\n        /* \"#utility.yul\":15150:15152   */\n      0x20\n        /* \"#utility.yul\":15139:15148   */\n      dup3\n        /* \"#utility.yul\":15135:15153   */\n      add\n        /* \"#utility.yul\":15127:15153   */\n      swap1\n      pop\n        /* \"#utility.yul\":15199:15208   */\n      dup2\n        /* \"#utility.yul\":15193:15197   */\n      dup2\n        /* \"#utility.yul\":15189:15209   */\n      sub\n        /* \"#utility.yul\":15185:15186   */\n      0x00\n        /* \"#utility.yul\":15174:15183   */\n      dup4\n        /* \"#utility.yul\":15170:15187   */\n      add\n        /* \"#utility.yul\":15163:15210   */\n      mstore\n        /* \"#utility.yul\":15227:15358   */\n      tag_563\n        /* \"#utility.yul\":15353:15357   */\n      dup2\n        /* \"#utility.yul\":15227:15358   */\n      tag_397\n      jump\t// in\n    tag_563:\n        /* \"#utility.yul\":15219:15358   */\n      swap1\n      pop\n        /* \"#utility.yul\":14946:15365   */\n      swap2\n      swap1\n      pop\n      jump\t// out\n        /* \"#utility.yul\":15371:15541   */\n    tag_398:\n        /* \"#utility.yul\":15511:15533   */\n      0x5472616e73616374696f6e207265636f76657279000000000000000000000000\n        /* \"#utility.yul\":15507:15508   */\n      0x00\n        /* \"#utility.yul\":15499:15505   */\n      dup3\n        /* \"#utility.yul\":15495:15509   */\n      add\n        /* \"#utility.yul\":15488:15534   */\n      mstore\n        /* \"#utility.yul\":15371:15541   */\n      pop\n      jump\t// out\n        /* \"#utility.yul\":15547:15913   */\n    tag_399:\n        /* \"#utility.yul\":15689:15692   */\n      0x00\n        /* \"#utility.yul\":15710:15777   */\n      tag_566\n        /* \"#utility.yul\":15774:15776   */\n      0x14\n        /* \"#utility.yul\":15769:15772   */\n      dup4\n        /* \"#utility.yul\":15710:15777   */\n      tag_359\n      jump\t// in\n    tag_566:\n        /* \"#utility.yul\":15703:15777   */\n      swap2\n      pop\n        /* \"#utility.yul\":15786:15879   */\n      tag_567\n        /* \"#utility.yul\":15875:15878   */\n      dup3\n        /* \"#utility.yul\":15786:15879   */\n      tag_398\n      jump\t// in\n    tag_567:\n        /* \"#utility.yul\":15904:15906   */\n      0x20\n        /* \"#utility.yul\":15899:15902   */\n      dup3\n        /* \"#utility.yul\":15895:15907   */\n      add\n        /* \"#utility.yul\":15888:15907   */\n      swap1\n      pop\n        /* \"#utility.yul\":15547:15913   */\n      swap2\n      swap1\n      pop\n      jump\t// out\n        /* \"#utility.yul\":15919:16338   */\n    tag_152:\n        /* \"#utility.yul\":16085:16089   */\n      0x00\n        /* \"#utility.yul\":16123:16125   */\n      0x20\n        /* \"#utility.yul\":16112:16121   */\n      dup3\n        /* \"#utility.yul\":16108:16126   */\n      add\n        /* \"#utility.yul\":16100:16126   */\n      swap1\n      pop\n        /* \"#utility.yul\":16172:16181   */\n      dup2\n        /* \"#utility.yul\":16166:16170   */\n      dup2\n        /* \"#utility.yul\":16162:16182   */\n      sub\n        /* \"#utility.yul\":16158:16159   */\n      0x00\n        /* \"#utility.yul\":16147:16156   */\n      dup4\n        /* \"#utility.yul\":16143:16160   */\n      add\n        /* \"#utility.yul\":16136:16183   */\n      mstore\n        /* \"#utility.yul\":16200:16331   */\n      tag_569\n        /* \"#utility.yul\":16326:16330   */\n      dup2\n        /* \"#utility.yul\":16200:16331   */\n      tag_399\n      jump\t// in\n    tag_569:\n        /* \"#utility.yul\":16192:16331   */\n      swap1\n      pop\n        /* \"#utility.yul\":15919:16338   */\n      swap2\n      swap1\n      pop\n      jump\t// out\n        /* \"#utility.yul\":16344:16511   */\n    tag_160:\n        /* \"#utility.yul\":16381:16384   */\n      0x00\n        /* \"#utility.yul\":16404:16426   */\n      tag_571\n        /* \"#utility.yul\":16420:16425   */\n      dup3\n        /* \"#utility.yul\":16404:16426   */\n      tag_376\n      jump\t// in\n    tag_571:\n        /* \"#utility.yul\":16395:16426   */\n      swap2\n      pop\n        /* \"#utility.yul\":16448:16452   */\n      0xff\n        /* \"#utility.yul\":16441:16446   */\n      dup3\n        /* \"#utility.yul\":16438:16453   */\n      sub\n        /* \"#utility.yul\":16435:16476   */\n      tag_572\n      jumpi\n        /* \"#utility.yul\":16456:16474   */\n      tag_573\n      tag_395\n      jump\t// in\n    tag_573:\n        /* \"#utility.yul\":16435:16476   */\n    tag_572:\n        /* \"#utility.yul\":16503:16504   */\n      0x01\n        /* \"#utility.yul\":16496:16501   */\n      dup3\n        /* \"#utility.yul\":16492:16505   */\n      add\n        /* \"#utility.yul\":16485:16505   */\n      swap1\n      pop\n        /* \"#utility.yul\":16344:16511   */\n      swap2\n      swap1\n      pop\n      jump\t// out\n        /* \"#utility.yul\":16517:16690   */\n    tag_400:\n        /* \"#utility.yul\":16657:16682   */\n      0x4661696c65643a20496e76616c69642062616c616e6365000000000000000000\n        /* \"#utility.yul\":16653:16654   */\n      0x00\n        /* \"#utility.yul\":16645:16651   */\n      dup3\n        /* \"#utility.yul\":16641:16655   */\n      add\n        /* \"#utility.yul\":16634:16683   */\n      mstore\n        /* \"#utility.yul\":16517:16690   */\n      pop\n      jump\t// out\n        /* \"#utility.yul\":16696:17062   */\n    tag_401:\n        /* \"#utility.yul\":16838:16841   */\n      0x00\n        /* \"#utility.yul\":16859:16926   */\n      tag_576\n        /* \"#utility.yul\":16923:16925   */\n      0x17\n        /* \"#utility.yul\":16918:16921   */\n      dup4\n        /* \"#utility.yul\":16859:16926   */\n      tag_359\n      jump\t// in\n    tag_576:\n        /* \"#utility.yul\":16852:16926   */\n      swap2\n      pop\n        /* \"#utility.yul\":16935:17028   */\n      tag_577\n        /* \"#utility.yul\":17024:17027   */\n      dup3\n        /* \"#utility.yul\":16935:17028   */\n      tag_400\n      jump\t// in\n    tag_577:\n        /* \"#utility.yul\":17053:17055   */\n      0x20\n        /* \"#utility.yul\":17048:17051   */\n      dup3\n        /* \"#utility.yul\":17044:17056   */\n      add\n        /* \"#utility.yul\":17037:17056   */\n      swap1\n      pop\n        /* \"#utility.yul\":16696:17062   */\n      swap2\n      swap1\n      pop\n      jump\t// out\n        /* \"#utility.yul\":17068:17487   */\n    tag_163:\n        /* \"#utility.yul\":17234:17238   */\n      0x00\n        /* \"#utility.yul\":17272:17274   */\n      0x20\n        /* \"#utility.yul\":17261:17270   */\n      dup3\n        /* \"#utility.yul\":17257:17275   */\n      add\n        /* \"#utility.yul\":17249:17275   */\n      swap1\n      pop\n        /* \"#utility.yul\":17321:17330   */\n      dup2\n        /* \"#utility.yul\":17315:17319   */\n      dup2\n        /* \"#utility.yul\":17311:17331   */\n      sub\n        /* \"#utility.yul\":17307:17308   */\n      0x00\n        /* \"#utility.yul\":17296:17305   */\n      dup4\n        /* \"#utility.yul\":17292:17309   */\n      add\n        /* \"#utility.yul\":17285:17332   */\n      mstore\n        /* \"#utility.yul\":17349:17480   */\n      tag_579\n        /* \"#utility.yul\":17475:17479   */\n      dup2\n        /* \"#utility.yul\":17349:17480   */\n      tag_401\n      jump\t// in\n    tag_579:\n        /* \"#utility.yul\":17341:17480   */\n      swap1\n      pop\n        /* \"#utility.yul\":17068:17487   */\n      swap2\n      swap1\n      pop\n      jump\t// out\n        /* \"#utility.yul\":17493:17684   */\n    tag_176:\n        /* \"#utility.yul\":17533:17536   */\n      0x00\n        /* \"#utility.yul\":17552:17572   */\n      tag_581\n        /* \"#utility.yul\":17570:17571   */\n      dup3\n        /* \"#utility.yul\":17552:17572   */\n      tag_370\n      jump\t// in\n    tag_581:\n        /* \"#utility.yul\":17547:17572   */\n      swap2\n      pop\n        /* \"#utility.yul\":17586:17606   */\n      tag_582\n        /* \"#utility.yul\":17604:17605   */\n      dup4\n        /* \"#utility.yul\":17586:17606   */\n      tag_370\n      jump\t// in\n    tag_582:\n        /* \"#utility.yul\":17581:17606   */\n      swap3\n      pop\n        /* \"#utility.yul\":17629:17630   */\n      dup3\n        /* \"#utility.yul\":17626:17627   */\n      dup3\n        /* \"#utility.yul\":17622:17631   */\n      add\n        /* \"#utility.yul\":17615:17631   */\n      swap1\n      pop\n        /* \"#utility.yul\":17650:17653   */\n      dup1\n        /* \"#utility.yul\":17647:17648   */\n      dup3\n        /* \"#utility.yul\":17644:17654   */\n      gt\n        /* \"#utility.yul\":17641:17677   */\n      iszero\n      tag_583\n      jumpi\n        /* \"#utility.yul\":17657:17675   */\n      tag_584\n      tag_395\n      jump\t// in\n    tag_584:\n        /* \"#utility.yul\":17641:17677   */\n    tag_583:\n        /* \"#utility.yul\":17493:17684   */\n      swap3\n      swap2\n      pop\n      pop\n      jump\t// out\n        /* \"#utility.yul\":17690:17870   */\n    tag_205:\n        /* \"#utility.yul\":17738:17815   */\n      0x4e487b7100000000000000000000000000000000000000000000000000000000\n        /* \"#utility.yul\":17735:17736   */\n      0x00\n        /* \"#utility.yul\":17728:17816   */\n      mstore\n        /* \"#utility.yul\":17835:17839   */\n      0x32\n        /* \"#utility.yul\":17832:17833   */\n      0x04\n        /* \"#utility.yul\":17825:17840   */\n      mstore\n        /* \"#utility.yul\":17859:17863   */\n      0x24\n        /* \"#utility.yul\":17856:17857   */\n      0x00\n        /* \"#utility.yul\":17849:17864   */\n      revert\n        /* \"#utility.yul\":17876:18048   */\n    tag_402:\n        /* \"#utility.yul\":18016:18040   */\n      0x4572726f723a2063617061636974792065786365656400000000000000000000\n        /* \"#utility.yul\":18012:18013   */\n      0x00\n        /* \"#utility.yul\":18004:18010   */\n      dup3\n        /* \"#utility.yul\":18000:18014   */\n      add\n        /* \"#utility.yul\":17993:18041   */\n      mstore\n        /* \"#utility.yul\":17876:18048   */\n      pop\n      jump\t// out\n        /* \"#utility.yul\":18054:18420   */\n    tag_403:\n        /* \"#utility.yul\":18196:18199   */\n      0x00\n        /* \"#utility.yul\":18217:18284   */\n      tag_588\n        /* \"#utility.yul\":18281:18283   */\n      0x16\n        /* \"#utility.yul\":18276:18279   */\n      dup4\n        /* \"#utility.yul\":18217:18284   */\n      tag_359\n      jump\t// in\n    tag_588:\n        /* \"#utility.yul\":18210:18284   */\n      swap2\n      pop\n        /* \"#utility.yul\":18293:18386   */\n      tag_589\n        /* \"#utility.yul\":18382:18385   */\n      dup3\n        /* \"#utility.yul\":18293:18386   */\n      tag_402\n      jump\t// in\n    tag_589:\n        /* \"#utility.yul\":18411:18413   */\n      0x20\n        /* \"#utility.yul\":18406:18409   */\n      dup3\n        /* \"#utility.yul\":18402:18414   */\n      add\n        /* \"#utility.yul\":18395:18414   */\n      swap1\n      pop\n        /* \"#utility.yul\":18054:18420   */\n      swap2\n      swap1\n      pop\n      jump\t// out\n        /* \"#utility.yul\":18426:18845   */\n    tag_224:\n        /* \"#utility.yul\":18592:18596   */\n      0x00\n        /* \"#utility.yul\":18630:18632   */\n      0x20\n        /* \"#utility.yul\":18619:18628   */\n      dup3\n        /* \"#utility.yul\":18615:18633   */\n      add\n        /* \"#utility.yul\":18607:18633   */\n      swap1\n      pop\n        /* \"#utility.yul\":18679:18688   */\n      dup2\n        /* \"#utility.yul\":18673:18677   */\n      dup2\n        /* \"#utility.yul\":18669:18689   */\n      sub\n        /* \"#utility.yul\":18665:18666   */\n      0x00\n        /* \"#utility.yul\":18654:18663   */\n      dup4\n        /* \"#utility.yul\":18650:18667   */\n      add\n        /* \"#utility.yul\":18643:18690   */\n      mstore\n        /* \"#utility.yul\":18707:18838   */\n      tag_591\n        /* \"#utility.yul\":18833:18837   */\n      dup2\n        /* \"#utility.yul\":18707:18838   */\n      tag_403\n      jump\t// in\n    tag_591:\n        /* \"#utility.yul\":18699:18838   */\n      swap1\n      pop\n        /* \"#utility.yul\":18426:18845   */\n      swap2\n      swap1\n      pop\n      jump\t// out\n        /* \"#utility.yul\":18851:19078   */\n    tag_404:\n        /* \"#utility.yul\":18991:19025   */\n      0x4572726f723a204c69717569646974792063616e206e6f74206265207a65726f\n        /* \"#utility.yul\":18987:18988   */\n      0x00\n        /* \"#utility.yul\":18979:18985   */\n      dup3\n        /* \"#utility.yul\":18975:18989   */\n      add\n        /* \"#utility.yul\":18968:19026   */\n      mstore\n        /* \"#utility.yul\":19060:19070   */\n      0x2061646472657373000000000000000000000000000000000000000000000000\n        /* \"#utility.yul\":19055:19057   */\n      0x20\n        /* \"#utility.yul\":19047:19053   */\n      dup3\n        /* \"#utility.yul\":19043:19058   */\n      add\n        /* \"#utility.yul\":19036:19071   */\n      mstore\n        /* \"#utility.yul\":18851:19078   */\n      pop\n      jump\t// out\n        /* \"#utility.yul\":19084:19450   */\n    tag_405:\n        /* \"#utility.yul\":19226:19229   */\n      0x00\n        /* \"#utility.yul\":19247:19314   */\n      tag_594\n        /* \"#utility.yul\":19311:19313   */\n      0x28\n        /* \"#utility.yul\":19306:19309   */\n      dup4\n        /* \"#utility.yul\":19247:19314   */\n      tag_359\n      jump\t// in\n    tag_594:\n        /* \"#utility.yul\":19240:19314   */\n      swap2\n      pop\n        /* \"#utility.yul\":19323:19416   */\n      tag_595\n        /* \"#utility.yul\":19412:19415   */\n      dup3\n        /* \"#utility.yul\":19323:19416   */\n      tag_404\n      jump\t// in\n    tag_595:\n        /* \"#utility.yul\":19441:19443   */\n      0x40\n        /* \"#utility.yul\":19436:19439   */\n      dup3\n        /* \"#utility.yul\":19432:19444   */\n      add\n        /* \"#utility.yul\":19425:19444   */\n      swap1\n      pop\n        /* \"#utility.yul\":19084:19450   */\n      swap2\n      swap1\n      pop\n      jump\t// out\n        /* \"#utility.yul\":19456:19875   */\n    tag_232:\n        /* \"#utility.yul\":19622:19626   */\n      0x00\n        /* \"#utility.yul\":19660:19662   */\n      0x20\n        /* \"#utility.yul\":19649:19658   */\n      dup3\n        /* \"#utility.yul\":19645:19663   */\n      add\n        /* \"#utility.yul\":19637:19663   */\n      swap1\n      pop\n        /* \"#utility.yul\":19709:19718   */\n      dup2\n        /* \"#utility.yul\":19703:19707   */\n      dup2\n        /* \"#utility.yul\":19699:19719   */\n      sub\n        /* \"#utility.yul\":19695:19696   */\n      0x00\n        /* \"#utility.yul\":19684:19693   */\n      dup4\n        /* \"#utility.yul\":19680:19697   */\n      add\n        /* \"#utility.yul\":19673:19720   */\n      mstore\n        /* \"#utility.yul\":19737:19868   */\n      tag_597\n        /* \"#utility.yul\":19863:19867   */\n      dup2\n        /* \"#utility.yul\":19737:19868   */\n      tag_405\n      jump\t// in\n    tag_597:\n        /* \"#utility.yul\":19729:19868   */\n      swap1\n      pop\n        /* \"#utility.yul\":19456:19875   */\n      swap2\n      swap1\n      pop\n      jump\t// out\n        /* \"#utility.yul\":19881:20061   */\n    tag_255:\n        /* \"#utility.yul\":19929:20006   */\n      0x4e487b7100000000000000000000000000000000000000000000000000000000\n        /* \"#utility.yul\":19926:19927   */\n      0x00\n        /* \"#utility.yul\":19919:20007   */\n      mstore\n        /* \"#utility.yul\":20026:20030   */\n      0x41\n        /* \"#utility.yul\":20023:20024   */\n      0x04\n        /* \"#utility.yul\":20016:20031   */\n      mstore\n        /* \"#utility.yul\":20050:20054   */\n      0x24\n        /* \"#utility.yul\":20047:20048   */\n      0x00\n        /* \"#utility.yul\":20040:20055   */\n      revert\n        /* \"#utility.yul\":20067:20290   */\n    tag_406:\n        /* \"#utility.yul\":20207:20241   */\n      0x42455032303a20617070726f76652066726f6d20746865207a65726f20616464\n        /* \"#utility.yul\":20203:20204   */\n      0x00\n        /* \"#utility.yul\":20195:20201   */\n      dup3\n        /* \"#utility.yul\":20191:20205   */\n      add\n        /* \"#utility.yul\":20184:20242   */\n      mstore\n        /* \"#utility.yul\":20276:20282   */\n      0x7265737300000000000000000000000000000000000000000000000000000000\n        /* \"#utility.yul\":20271:20273   */\n      0x20\n        /* \"#utility.yul\":20263:20269   */\n      dup3\n        /* \"#utility.yul\":20259:20274   */\n      add\n        /* \"#utility.yul\":20252:20283   */\n      mstore\n        /* \"#utility.yul\":20067:20290   */\n      pop\n      jump\t// out\n        /* \"#utility.yul\":20296:20662   */\n    tag_407:\n        /* \"#utility.yul\":20438:20441   */\n      0x00\n        /* \"#utility.yul\":20459:20526   */\n      tag_601\n        /* \"#utility.yul\":20523:20525   */\n      0x24\n        /* \"#utility.yul\":20518:20521   */\n      dup4\n        /* \"#utility.yul\":20459:20526   */\n      tag_359\n      jump\t// in\n    tag_601:\n        /* \"#utility.yul\":20452:20526   */\n      swap2\n      pop\n        /* \"#utility.yul\":20535:20628   */\n      tag_602\n        /* \"#utility.yul\":20624:20627   */\n      dup3\n        /* \"#utility.yul\":20535:20628   */\n      tag_406\n      jump\t// in\n    tag_602:\n        /* \"#utility.yul\":20653:20655   */\n      0x40\n        /* \"#utility.yul\":20648:20651   */\n      dup3\n        /* \"#utility.yul\":20644:20656   */\n      add\n        /* \"#utility.yul\":20637:20656   */\n      swap1\n      pop\n        /* \"#utility.yul\":20296:20662   */\n      swap2\n      swap1\n      pop\n      jump\t// out\n        /* \"#utility.yul\":20668:21087   */\n    tag_286:\n        /* \"#utility.yul\":20834:20838   */\n      0x00\n        /* \"#utility.yul\":20872:20874   */\n      0x20\n        /* \"#utility.yul\":20861:20870   */\n      dup3\n        /* \"#utility.yul\":20857:20875   */\n      add\n        /* \"#utility.yul\":20849:20875   */\n      swap1\n      pop\n        /* \"#utility.yul\":20921:20930   */\n      dup2\n        /* \"#utility.yul\":20915:20919   */\n      dup2\n        /* \"#utility.yul\":20911:20931   */\n      sub\n        /* \"#utility.yul\":20907:20908   */\n      0x00\n        /* \"#utility.yul\":20896:20905   */\n      dup4\n        /* \"#utility.yul\":20892:20909   */\n      add\n        /* \"#utility.yul\":20885:20932   */\n      mstore\n        /* \"#utility.yul\":20949:21080   */\n      tag_604\n        /* \"#utility.yul\":21075:21079   */\n      dup2\n        /* \"#utility.yul\":20949:21080   */\n      tag_407\n      jump\t// in\n    tag_604:\n        /* \"#utility.yul\":20941:21080   */\n      swap1\n      pop\n        /* \"#utility.yul\":20668:21087   */\n      swap2\n      swap1\n      pop\n      jump\t// out\n        /* \"#utility.yul\":21093:21314   */\n    tag_408:\n        /* \"#utility.yul\":21233:21267   */\n      0x42455032303a20617070726f766520746f20746865207a65726f206164647265\n        /* \"#utility.yul\":21229:21230   */\n      0x00\n        /* \"#utility.yul\":21221:21227   */\n      dup3\n        /* \"#utility.yul\":21217:21231   */\n      add\n        /* \"#utility.yul\":21210:21268   */\n      mstore\n        /* \"#utility.yul\":21302:21306   */\n      0x7373000000000000000000000000000000000000000000000000000000000000\n        /* \"#utility.yul\":21297:21299   */\n      0x20\n        /* \"#utility.yul\":21289:21295   */\n      dup3\n        /* \"#utility.yul\":21285:21300   */\n      add\n        /* \"#utility.yul\":21278:21307   */\n      mstore\n        /* \"#utility.yul\":21093:21314   */\n      pop\n      jump\t// out\n        /* \"#utility.yul\":21320:21686   */\n    tag_409:\n        /* \"#utility.yul\":21462:21465   */\n      0x00\n        /* \"#utility.yul\":21483:21550   */\n      tag_607\n        /* \"#utility.yul\":21547:21549   */\n      0x22\n        /* \"#utility.yul\":21542:21545   */\n      dup4\n        /* \"#utility.yul\":21483:21550   */\n      tag_359\n      jump\t// in\n    tag_607:\n        /* \"#utility.yul\":21476:21550   */\n      swap2\n      pop\n        /* \"#utility.yul\":21559:21652   */\n      tag_608\n        /* \"#utility.yul\":21648:21651   */\n      dup3\n        /* \"#utility.yul\":21559:21652   */\n      tag_408\n      jump\t// in\n    tag_608:\n        /* \"#utility.yul\":21677:21679   */\n      0x40\n        /* \"#utility.yul\":21672:21675   */\n      dup3\n        /* \"#utility.yul\":21668:21680   */\n      add\n        /* \"#utility.yul\":21661:21680   */\n      swap1\n      pop\n        /* \"#utility.yul\":21320:21686   */\n      swap2\n      swap1\n      pop\n      jump\t// out\n        /* \"#utility.yul\":21692:22111   */\n    tag_289:\n        /* \"#utility.yul\":21858:21862   */\n      0x00\n        /* \"#utility.yul\":21896:21898   */\n      0x20\n        /* \"#utility.yul\":21885:21894   */\n      dup3\n        /* \"#utility.yul\":21881:21899   */\n      add\n        /* \"#utility.yul\":21873:21899   */\n      swap1\n      pop\n        /* \"#utility.yul\":21945:21954   */\n      dup2\n        /* \"#utility.yul\":21939:21943   */\n      dup2\n        /* \"#utility.yul\":21935:21955   */\n      sub\n        /* \"#utility.yul\":21931:21932   */\n      0x00\n        /* \"#utility.yul\":21920:21929   */\n      dup4\n        /* \"#utility.yul\":21916:21933   */\n      add\n        /* \"#utility.yul\":21909:21956   */\n      mstore\n        /* \"#utility.yul\":21973:22104   */\n      tag_610\n        /* \"#utility.yul\":22099:22103   */\n      dup2\n        /* \"#utility.yul\":21973:22104   */\n      tag_409\n      jump\t// in\n    tag_610:\n        /* \"#utility.yul\":21965:22104   */\n      swap1\n      pop\n        /* \"#utility.yul\":21692:22111   */\n      swap2\n      swap1\n      pop\n      jump\t// out\n        /* \"#utility.yul\":22117:22296   */\n    tag_410:\n        /* \"#utility.yul\":22257:22288   */\n      0x42455032303a20696e73756666696369656e7420616c6c6f77616e6365000000\n        /* \"#utility.yul\":22253:22254   */\n      0x00\n        /* \"#utility.yul\":22245:22251   */\n      dup3\n        /* \"#utility.yul\":22241:22255   */\n      add\n        /* \"#utility.yul\":22234:22289   */\n      mstore\n        /* \"#utility.yul\":22117:22296   */\n      pop\n      jump\t// out\n        /* \"#utility.yul\":22302:22668   */\n    tag_411:\n        /* \"#utility.yul\":22444:22447   */\n      0x00\n        /* \"#utility.yul\":22465:22532   */\n      tag_613\n        /* \"#utility.yul\":22529:22531   */\n      0x1d\n        /* \"#utility.yul\":22524:22527   */\n      dup4\n        /* \"#utility.yul\":22465:22532   */\n      tag_359\n      jump\t// in\n    tag_613:\n        /* \"#utility.yul\":22458:22532   */\n      swap2\n      pop\n        /* \"#utility.yul\":22541:22634   */\n      tag_614\n        /* \"#utility.yul\":22630:22633   */\n      dup3\n        /* \"#utility.yul\":22541:22634   */\n      tag_410\n      jump\t// in\n    tag_614:\n        /* \"#utility.yul\":22659:22661   */\n      0x20\n        /* \"#utility.yul\":22654:22657   */\n      dup3\n        /* \"#utility.yul\":22650:22662   */\n      add\n        /* \"#utility.yul\":22643:22662   */\n      swap1\n      pop\n        /* \"#utility.yul\":22302:22668   */\n      swap2\n      swap1\n      pop\n      jump\t// out\n        /* \"#utility.yul\":22674:23093   */\n    tag_308:\n        /* \"#utility.yul\":22840:22844   */\n      0x00\n        /* \"#utility.yul\":22878:22880   */\n      0x20\n        /* \"#utility.yul\":22867:22876   */\n      dup3\n        /* \"#utility.yul\":22863:22881   */\n      add\n        /* \"#utility.yul\":22855:22881   */\n      swap1\n      pop\n        /* \"#utility.yul\":22927:22936   */\n      dup2\n        /* \"#utility.yul\":22921:22925   */\n      dup2\n        /* \"#utility.yul\":22917:22937   */\n      sub\n        /* \"#utility.yul\":22913:22914   */\n      0x00\n        /* \"#utility.yul\":22902:22911   */\n      dup4\n        /* \"#utility.yul\":22898:22915   */\n      add\n        /* \"#utility.yul\":22891:22938   */\n      mstore\n        /* \"#utility.yul\":22955:23086   */\n      tag_616\n        /* \"#utility.yul\":23081:23085   */\n      dup2\n        /* \"#utility.yul\":22955:23086   */\n      tag_411\n      jump\t// in\n    tag_616:\n        /* \"#utility.yul\":22947:23086   */\n      swap1\n      pop\n        /* \"#utility.yul\":22674:23093   */\n      swap2\n      swap1\n      pop\n      jump\t// out\n        /* \"#utility.yul\":23099:23509   */\n    tag_352:\n        /* \"#utility.yul\":23139:23146   */\n      0x00\n        /* \"#utility.yul\":23162:23182   */\n      tag_618\n        /* \"#utility.yul\":23180:23181   */\n      dup3\n        /* \"#utility.yul\":23162:23182   */\n      tag_370\n      jump\t// in\n    tag_618:\n        /* \"#utility.yul\":23157:23182   */\n      swap2\n      pop\n        /* \"#utility.yul\":23196:23216   */\n      tag_619\n        /* \"#utility.yul\":23214:23215   */\n      dup4\n        /* \"#utility.yul\":23196:23216   */\n      tag_370\n      jump\t// in\n    tag_619:\n        /* \"#utility.yul\":23191:23216   */\n      swap3\n      pop\n        /* \"#utility.yul\":23251:23252   */\n      dup3\n        /* \"#utility.yul\":23248:23249   */\n      dup3\n        /* \"#utility.yul\":23244:23253   */\n      mul\n        /* \"#utility.yul\":23273:23303   */\n      tag_620\n        /* \"#utility.yul\":23291:23302   */\n      dup2\n        /* \"#utility.yul\":23273:23303   */\n      tag_370\n      jump\t// in\n    tag_620:\n        /* \"#utility.yul\":23262:23303   */\n      swap2\n      pop\n        /* \"#utility.yul\":23452:23453   */\n      dup3\n        /* \"#utility.yul\":23443:23450   */\n      dup3\n        /* \"#utility.yul\":23439:23454   */\n      div\n        /* \"#utility.yul\":23436:23437   */\n      dup5\n        /* \"#utility.yul\":23433:23455   */\n      eq\n        /* \"#utility.yul\":23413:23414   */\n      dup4\n        /* \"#utility.yul\":23406:23415   */\n      iszero\n        /* \"#utility.yul\":23386:23469   */\n      or\n        /* \"#utility.yul\":23363:23502   */\n      tag_621\n      jumpi\n        /* \"#utility.yul\":23482:23500   */\n      tag_622\n      tag_395\n      jump\t// in\n    tag_622:\n        /* \"#utility.yul\":23363:23502   */\n    tag_621:\n        /* \"#utility.yul\":23147:23509   */\n      pop\n        /* \"#utility.yul\":23099:23509   */\n      swap3\n      swap2\n      pop\n      pop\n      jump\t// out\n        /* \"#utility.yul\":23515:23695   */\n    tag_412:\n        /* \"#utility.yul\":23563:23640   */\n      0x4e487b7100000000000000000000000000000000000000000000000000000000\n        /* \"#utility.yul\":23560:23561   */\n      0x00\n        /* \"#utility.yul\":23553:23641   */\n      mstore\n        /* \"#utility.yul\":23660:23664   */\n      0x12\n        /* \"#utility.yul\":23657:23658   */\n      0x04\n        /* \"#utility.yul\":23650:23665   */\n      mstore\n        /* \"#utility.yul\":23684:23688   */\n      0x24\n        /* \"#utility.yul\":23681:23682   */\n      0x00\n        /* \"#utility.yul\":23674:23689   */\n      revert\n        /* \"#utility.yul\":23701:23886   */\n    tag_354:\n        /* \"#utility.yul\":23741:23742   */\n      0x00\n        /* \"#utility.yul\":23758:23778   */\n      tag_625\n        /* \"#utility.yul\":23776:23777   */\n      dup3\n        /* \"#utility.yul\":23758:23778   */\n      tag_370\n      jump\t// in\n    tag_625:\n        /* \"#utility.yul\":23753:23778   */\n      swap2\n      pop\n        /* \"#utility.yul\":23792:23812   */\n      tag_626\n        /* \"#utility.yul\":23810:23811   */\n      dup4\n        /* \"#utility.yul\":23792:23812   */\n      tag_370\n      jump\t// in\n    tag_626:\n        /* \"#utility.yul\":23787:23812   */\n      swap3\n      pop\n        /* \"#utility.yul\":23831:23832   */\n      dup3\n        /* \"#utility.yul\":23821:23856   */\n      tag_627\n      jumpi\n        /* \"#utility.yul\":23836:23854   */\n      tag_628\n      tag_412\n      jump\t// in\n    tag_628:\n        /* \"#utility.yul\":23821:23856   */\n    tag_627:\n        /* \"#utility.yul\":23878:23879   */\n      dup3\n        /* \"#utility.yul\":23875:23876   */\n      dup3\n        /* \"#utility.yul\":23871:23880   */\n      div\n        /* \"#utility.yul\":23866:23880   */\n      swap1\n      pop\n        /* \"#utility.yul\":23701:23886   */\n      swap3\n      swap2\n      pop\n      pop\n      jump\t// out\n\n    auxdata: 0xa2646970667358221220dfadc56a7f00796abdbc52109b7a5918e763b43042b6e1a967856e946b3f1ac464736f6c634300081e0033\n}\n",
				"bytecode": {
					"linkReferences": {},
					"object": "60806040526040518060400160405280600b81526020017f425443455446546f6b656e0000000000000000000000000000000000000000008152505f90816100479190610478565b506040518060400160405280600681526020017f42544345544600000000000000000000000000000000000000000000000000008152506001908161008c9190610478565b50601260025f6101000a81548160ff021916908360ff1602179055506b06c9144c1c690d4cb40000006003555f6004553480156100c7575f5ffd5b506100d661023460201b60201c565b60055f6101000a81548173ffffffffffffffffffffffffffffffffffffffff021916908373ffffffffffffffffffffffffffffffffffffffff16021790555060146003546101249190610574565b60065f60055f9054906101000a900473ffffffffffffffffffffffffffffffffffffffff1673ffffffffffffffffffffffffffffffffffffffff1673ffffffffffffffffffffffffffffffffffffffff1681526020019081526020015f208190555060146003546101959190610574565b60048190555060055f9054906101000a900473ffffffffffffffffffffffffffffffffffffffff1673ffffffffffffffffffffffffffffffffffffffff163073ffffffffffffffffffffffffffffffffffffffff167fddf252ad1be2c89b69c2b068fc378daa952ba7f163c4a11628f55a4df523b3ef601460035461021a9190610574565b60405161022791906105b3565b60405180910390a36105cc565b5f33905090565b5f81519050919050565b7f4e487b71000000000000000000000000000000000000000000000000000000005f52604160045260245ffd5b7f4e487b71000000000000000000000000000000000000000000000000000000005f52602260045260245ffd5b5f60028204905060018216806102b657607f821691505b6020821081036102c9576102c8610272565b5b50919050565b5f819050815f5260205f209050919050565b5f6020601f8301049050919050565b5f82821b905092915050565b5f6008830261032b7fffffffffffffffffffffffffffffffffffffffffffffffffffffffffffffffff826102f0565b61033586836102f0565b95508019841693508086168417925050509392505050565b5f819050919050565b5f819050919050565b5f61037961037461036f8461034d565b610356565b61034d565b9050919050565b5f819050919050565b6103928361035f565b6103a661039e82610380565b8484546102fc565b825550505050565b5f5f905090565b6103bd6103ae565b6103c8818484610389565b505050565b5b818110156103eb576103e05f826103b5565b6001810190506103ce565b5050565b601f82111561043057610401816102cf565b61040a846102e1565b81016020851015610419578190505b61042d610425856102e1565b8301826103cd565b50505b505050565b5f82821c905092915050565b5f6104505f1984600802610435565b1980831691505092915050565b5f6104688383610441565b9150826002028217905092915050565b6104818261023b565b67ffffffffffffffff81111561049a57610499610245565b5b6104a4825461029f565b6104af8282856103ef565b5f60209050601f8311600181146104e0575f84156104ce578287015190505b6104d8858261045d565b86555061053f565b601f1984166104ee866102cf565b5f5b82811015610515578489015182556001820191506020850194506020810190506104f0565b86831015610532578489015161052e601f891682610441565b8355505b6001600288020188555050505b505050505050565b7f4e487b71000000000000000000000000000000000000000000000000000000005f52601260045260245ffd5b5f61057e8261034d565b91506105898361034d565b92508261059957610598610547565b5b828204905092915050565b6105ad8161034d565b82525050565b5f6020820190506105c65f8301846105a4565b92915050565b612d03806105d95f395ff3fe608060405260043610610101575f3560e01c806370a0823111610094578063b7fc661211610063578063b7fc66121461038e578063cb39a59a146103ca578063dbb57a4b146103f2578063dd62ed3e1461042e578063fee168411461046a57610108565b806370a08231146102b057806395d89b41146102ec578063a9059cbb14610316578063aee84f6b1461035257610108565b806318160ddd116100d057806318160ddd146101f657806323b872dd14610220578063313ce5671461025c5780635cfc1a511461028657610108565b806306fdde0314610115578063095ea7b31461013f5780630aae7a6b1461017b5780630f81dcf7146101ba57610108565b3661010857005b348015610113575f5ffd5b005b348015610120575f5ffd5b506101296104ab565b6040516101369190612150565b60405180910390f35b34801561014a575f5ffd5b5061016560048036038101906101609190612205565b61053a565b604051610172919061225d565b60405180910390f35b348015610186575f5ffd5b506101a1600480360381019061019c9190612276565b610557565b6040516101b194939291906122b0565b60405180910390f35b3480156101c5575f5ffd5b506101e060048036038101906101db9190612205565b6107c7565b6040516101ed919061225d565b60405180910390f35b348015610201575f5ffd5b5061020a6109d6565b60405161021791906122f3565b60405180910390f35b34801561022b575f5ffd5b506102466004803603810190610241919061230c565b6109df565b604051610253919061225d565b60405180910390f35b348015610267575f5ffd5b50610270610a0d565b60405161027d9190612377565b60405180910390f35b348015610291575f5ffd5b5061029a610a22565b6040516102a791906122f3565b60405180910390f35b3480156102bb575f5ffd5b506102d660048036038101906102d19190612276565b610a2b565b6040516102e391906122f3565b60405180910390f35b3480156102f7575f5ffd5b50610300610a84565b60405161030d9190612150565b60405180910390f35b348015610321575f5ffd5b5061033c60048036038101906103379190612205565b610b14565b604051610349919061225d565b60405180910390f35b34801561035d575f5ffd5b5061037860048036038101906103739190612205565b610b31565b604051610385919061225d565b60405180910390f35b348015610399575f5ffd5b506103b460048036038101906103af9190612446565b610cb3565b6040516103c1919061225d565b60405180910390f35b3480156103d5575f5ffd5b506103f060048036038101906103eb91906124ee565b610f7a565b005b3480156103fd575f5ffd5b5061041860048036038101906104139190612205565b61114a565b604051610425919061225d565b60405180910390f35b348015610439575f5ffd5b50610454600480360381019061044f919061252c565b61132b565b60405161046191906122f3565b60405180910390f35b348015610475575f5ffd5b50610490600480360381019061048b9190612276565b6113ad565b6040516104a296959493929190612621565b60405180910390f35b60605f80546104b9906126d0565b80601f01602080910402602001604051908101604052809291908181526020018280546104e5906126d0565b80156105305780601f1061050757610100808354040283529160200191610530565b820191905f5260205f20905b81548152906001019060200180831161051357829003601f168201915b5050505050905090565b5f61054d610546611853565b848461185a565b6001905092915050565b5f5f5f5f610563611853565b73ffffffffffffffffffffffffffffffffffffffff1660055f9054906101000a900473ffffffffffffffffffffffffffffffffffffffff1673ffffffffffffffffffffffffffffffffffffffff16146105f1576040517f08c379a00000000000000000000000000000000000000000000000000000000081526004016105e89061274a565b60405180910390fd5b5f60095f5f60ff1660ff1681526020019081526020015f205f8773ffffffffffffffffffffffffffffffffffffffff1673ffffffffffffffffffffffffffffffffffffffff1681526020019081526020015f206001015460095f5f60ff1660ff1681526020019081526020015f205f8873ffffffffffffffffffffffffffffffffffffffff1673ffffffffffffffffffffffffffffffffffffffff1681526020019081526020015f205f01546106a79190612795565b90505f60095f600160ff1660ff1681526020019081526020015f205f8873ffffffffffffffffffffffffffffffffffffffff1673ffffffffffffffffffffffffffffffffffffffff1681526020019081526020015f206001015460095f600160ff1660ff1681526020019081526020015f205f8973ffffffffffffffffffffffffffffffffffffffff1673ffffffffffffffffffffffffffffffffffffffff1681526020019081526020015f205f01546107619190612795565b90505f60065f8973ffffffffffffffffffffffffffffffffffffffff1673ffffffffffffffffffffffffffffffffffffffff1681526020019081526020015f205490505f6107ae89611a1d565b9050838383839750975097509750505050509193509193565b5f600160085f6107d5611853565b73ffffffffffffffffffffffffffffffffffffffff1673ffffffffffffffffffffffffffffffffffffffff1681526020019081526020015f205f9054906101000a900460ff1660ff1614801561085757505f73ffffffffffffffffffffffffffffffffffffffff168373ffffffffffffffffffffffffffffffffffffffff1614155b610896576040517f08c379a000000000000000000000000000000000000000000000000000000000815260040161088d90612812565b60405180910390fd5b5f821180156108ad5750816108aa84611a1d565b10155b6108ec576040517f08c379a00000000000000000000000000000000000000000000000000000000081526004016108e39061287a565b60405180910390fd5b5f8290505f5f90505b5f8211801561090a5750600260ff168160ff16105b15610988576109738460095f8460ff1660ff1681526020019081526020015f205f8873ffffffffffffffffffffffffffffffffffffffff1673ffffffffffffffffffffffffffffffffffffffff1681526020019081526020015f20611b0f90919063ffffffff16565b9150808061098090612898565b9150506108f5565b505f81146109cb576040517f08c379a00000000000000000000000000000000000000000000000000000000081526004016109c29061290a565b60405180910390fd5b600191505092915050565b5f600354905090565b5f5f6109e9611853565b90506109f6858285611b7b565b610a01858585611c06565b60019150509392505050565b5f60025f9054906101000a900460ff16905090565b5f600454905090565b5f610a3582611a1d565b60065f8473ffffffffffffffffffffffffffffffffffffffff1673ffffffffffffffffffffffffffffffffffffffff1681526020019081526020015f2054610a7d9190612928565b9050919050565b606060018054610a93906126d0565b80601f0160208091040260200160405190810160405280929190818152602001828054610abf906126d0565b8015610b0a5780601f10610ae157610100808354040283529160200191610b0a565b820191905f5260205f20905b815481529060010190602001808311610aed57829003601f168201915b5050505050905090565b5f610b27610b20611853565b8484611c06565b6001905092915050565b5f600160085f610b3f611853565b73ffffffffffffffffffffffffffffffffffffffff1673ffffffffffffffffffffffffffffffffffffffff1681526020019081526020015f205f9054906101000a900460ff1660ff1614610bc8576040517f08c379a0000000000000000000000000000000000000000000000000000000008152600401610bbf90612812565b60405180910390fd5b5f5f90505b600260ff168160ff161015610ca8574260095f8360ff1660ff1681526020019081526020015f205f8673ffffffffffffffffffffffffffffffffffffffff1673ffffffffffffffffffffffffffffffffffffffff1681526020019081526020015f20600201819055508242610c429190612928565b60095f8360ff1660ff1681526020019081526020015f205f8673ffffffffffffffffffffffffffffffffffffffff1673ffffffffffffffffffffffffffffffffffffffff1681526020019081526020015f20600301819055508080600101915050610bcd565b506001905092915050565b5f600160085f610cc1611853565b73ffffffffffffffffffffffffffffffffffffffff1673ffffffffffffffffffffffffffffffffffffffff1681526020019081526020015f205f9054906101000a900460ff1660ff16148015610d1c57508282905085859050145b610d5b576040517f08c379a0000000000000000000000000000000000000000000000000000000008152600401610d5290612812565b60405180910390fd5b5f5f90505f8686905090505f5f90505b818160ff161015610f0057610e2086868360ff16818110610d8f57610d8e61295b565b5b9050602002013560095f5f60ff1660ff1681526020019081526020015f205f8b8b8660ff16818110610dc457610dc361295b565b5b9050602002016020810190610dd99190612276565b73ffffffffffffffffffffffffffffffffffffffff1673ffffffffffffffffffffffffffffffffffffffff1681526020019081526020015f20611c7a90919063ffffffff16565b5085858260ff16818110610e3757610e3661295b565b5b905060200201358301925087878260ff16818110610e5857610e5761295b565b5b9050602002016020810190610e6d9190612276565b73ffffffffffffffffffffffffffffffffffffffff165f73ffffffffffffffffffffffffffffffffffffffff167fddf252ad1be2c89b69c2b068fc378daa952ba7f163c4a11628f55a4df523b3ef88888560ff16818110610ed157610ed061295b565b5b90506020020135604051610ee591906122f3565b60405180910390a38080610ef890612898565b915050610d6b565b50610f096109d6565b82610f12610a22565b610f1c9190612928565b1115610f5d576040517f08c379a0000000000000000000000000000000000000000000000000000000008152600401610f54906129d2565b60405180910390fd5b8160045f8282540192505081905550600192505050949350505050565b610f82611853565b73ffffffffffffffffffffffffffffffffffffffff1660055f9054906101000a900473ffffffffffffffffffffffffffffffffffffffff1673ffffffffffffffffffffffffffffffffffffffff1614611010576040517f08c379a00000000000000000000000000000000000000000000000000000000081526004016110079061274a565b60405180910390fd5b5f73ffffffffffffffffffffffffffffffffffffffff168273ffffffffffffffffffffffffffffffffffffffff160361107e576040517f08c379a000000000000000000000000000000000000000000000000000000000815260040161107590612a60565b60405180910390fd5b60018160ff16036110e457600160085f8473ffffffffffffffffffffffffffffffffffffffff1673ffffffffffffffffffffffffffffffffffffffff1681526020019081526020015f205f6101000a81548160ff021916908360ff160217905550611146565b60028160ff1603611145575f60085f8473ffffffffffffffffffffffffffffffffffffffff1673ffffffffffffffffffffffffffffffffffffffff1681526020019081526020015f205f6101000a81548160ff021916908360ff1602179055505b5b5050565b5f600160085f611158611853565b73ffffffffffffffffffffffffffffffffffffffff1673ffffffffffffffffffffffffffffffffffffffff1681526020019081526020015f205f9054906101000a900460ff1660ff16146111e1576040517f08c379a00000000000000000000000000000000000000000000000000000000081526004016111d890612812565b60405180910390fd5b5f5f905061124a8360095f600160ff1660ff1681526020019081526020015f205f8773ffffffffffffffffffffffffffffffffffffffff1673ffffffffffffffffffffffffffffffffffffffff1681526020019081526020015f20611c7a90919063ffffffff16565b5082810190508373ffffffffffffffffffffffffffffffffffffffff165f73ffffffffffffffffffffffffffffffffffffffff167fddf252ad1be2c89b69c2b068fc378daa952ba7f163c4a11628f55a4df523b3ef856040516112ad91906122f3565b60405180910390a36112bd6109d6565b816112c6610a22565b6112d09190612928565b1115611311576040517f08c379a0000000000000000000000000000000000000000000000000000000008152600401611308906129d2565b60405180910390fd5b8060045f8282540192505081905550600191505092915050565b5f60075f8473ffffffffffffffffffffffffffffffffffffffff1673ffffffffffffffffffffffffffffffffffffffff1681526020019081526020015f205f8373ffffffffffffffffffffffffffffffffffffffff1673ffffffffffffffffffffffffffffffffffffffff1681526020019081526020015f2054905092915050565b60608060608060605f6113be611853565b73ffffffffffffffffffffffffffffffffffffffff1660055f9054906101000a900473ffffffffffffffffffffffffffffffffffffffff1673ffffffffffffffffffffffffffffffffffffffff161461144c576040517f08c379a00000000000000000000000000000000000000000000000000000000081526004016114439061274a565b60405180910390fd5b600260ff1667ffffffffffffffff81111561146a57611469612a7e565b5b6040519080825280602002602001820160405280156114985781602001602082028036833780820191505090505b509550600260ff1667ffffffffffffffff8111156114b9576114b8612a7e565b5b6040519080825280602002602001820160405280156114e75781602001602082028036833780820191505090505b509450600260ff1667ffffffffffffffff81111561150857611507612a7e565b5b6040519080825280602002602001820160405280156115365781602001602082028036833780820191505090505b509350600260ff1667ffffffffffffffff81111561155757611556612a7e565b5b6040519080825280602002602001820160405280156115855781602001602082028036833780820191505090505b509250600260ff1667ffffffffffffffff8111156115a6576115a5612a7e565b5b6040519080825280602002602001820160405280156115d45781602001602082028036833780820191505090505b50915060085f8873ffffffffffffffffffffffffffffffffffffffff1673ffffffffffffffffffffffffffffffffffffffff1681526020019081526020015f205f9054906101000a900460ff1690505f5f90505b600260ff168160ff161015611849578060ff16878260ff16815181106116515761165061295b565b5b60200260200101818152505060095f8260ff1660ff1681526020019081526020015f205f8973ffffffffffffffffffffffffffffffffffffffff1673ffffffffffffffffffffffffffffffffffffffff1681526020019081526020015f205f0154868260ff16815181106116c8576116c761295b565b5b60200260200101818152505060095f8260ff1660ff1681526020019081526020015f205f8973ffffffffffffffffffffffffffffffffffffffff1673ffffffffffffffffffffffffffffffffffffffff1681526020019081526020015f2060010154858260ff16815181106117405761173f61295b565b5b60200260200101818152505060095f8260ff1660ff1681526020019081526020015f205f8973ffffffffffffffffffffffffffffffffffffffff1673ffffffffffffffffffffffffffffffffffffffff1681526020019081526020015f2060020154848260ff16815181106117b8576117b761295b565b5b60200260200101818152505060095f8260ff1660ff1681526020019081526020015f205f8973ffffffffffffffffffffffffffffffffffffffff1673ffffffffffffffffffffffffffffffffffffffff1681526020019081526020015f2060030154838260ff16815181106118305761182f61295b565b5b6020026020010181815250508080600101915050611628565b5091939550919395565b5f33905090565b5f73ffffffffffffffffffffffffffffffffffffffff168373ffffffffffffffffffffffffffffffffffffffff16036118c8576040517f08c379a00000000000000000000000000000000000000000000000000000000081526004016118bf90612b1b565b60405180910390fd5b5f73ffffffffffffffffffffffffffffffffffffffff168273ffffffffffffffffffffffffffffffffffffffff1603611936576040517f08c379a000000000000000000000000000000000000000000000000000000000815260040161192d90612ba9565b60405180910390fd5b8060075f8573ffffffffffffffffffffffffffffffffffffffff1673ffffffffffffffffffffffffffffffffffffffff1681526020019081526020015f205f8473ffffffffffffffffffffffffffffffffffffffff1673ffffffffffffffffffffffffffffffffffffffff1681526020019081526020015f20819055508173ffffffffffffffffffffffffffffffffffffffff168373ffffffffffffffffffffffffffffffffffffffff167f8c5be1e5ebec7d5bd14f71427d1e84f3dd0314c0f7b2291e5b200ac8c7c3b92583604051611a1091906122f3565b60405180910390a3505050565b5f5f5f90505f5f90505b600260ff168160ff161015611b055760095f8260ff1660ff1681526020019081526020015f205f8573ffffffffffffffffffffffffffffffffffffffff1673ffffffffffffffffffffffffffffffffffffffff1681526020019081526020015f206001015460095f8360ff1660ff1681526020019081526020015f205f8673ffffffffffffffffffffffffffffffffffffffff1673ffffffffffffffffffffffffffffffffffffffff1681526020019081526020015f205f0154611aeb9190612795565b82611af69190612928565b91508080600101915050611a27565b5080915050919050565b5f5f8360010154845f0154611b249190612795565b90505f83118015611b3457505f81115b15611b7157808310611b5b5780846001015f82825401925050819055508083039250611b70565b82846001015f82825401925050819055505f92505b5b8291505092915050565b5f611b86848461132b565b90507fffffffffffffffffffffffffffffffffffffffffffffffffffffffffffffffff8114611c005781811015611bf2576040517f08c379a0000000000000000000000000000000000000000000000000000000008152600401611be990612c11565b60405180910390fd5b611bff848484840361185a565b5b50505050565b8173ffffffffffffffffffffffffffffffffffffffff168373ffffffffffffffffffffffffffffffffffffffff167fddf252ad1be2c89b69c2b068fc378daa952ba7f163c4a11628f55a4df523b3ef611c60868686611c95565b604051611c6d91906122f3565b60405180910390a3505050565b5f81835f015f82825401925050819055506001905092915050565b5f5f8290508060065f8773ffffffffffffffffffffffffffffffffffffffff1673ffffffffffffffffffffffffffffffffffffffff1681526020019081526020015f205410611d39575f90508260065f8773ffffffffffffffffffffffffffffffffffffffff1673ffffffffffffffffffffffffffffffffffffffff1681526020019081526020015f205f828254611d2d9190612795565b92505081905550611e55565b5f60065f8773ffffffffffffffffffffffffffffffffffffffff1673ffffffffffffffffffffffffffffffffffffffff1681526020019081526020015f2054118015611dc157508060065f8773ffffffffffffffffffffffffffffffffffffffff1673ffffffffffffffffffffffffffffffffffffffff1681526020019081526020015f2054105b15611e545760065f8673ffffffffffffffffffffffffffffffffffffffff1673ffffffffffffffffffffffffffffffffffffffff1681526020019081526020015f205481611e0f9190612795565b90505f60065f8773ffffffffffffffffffffffffffffffffffffffff1673ffffffffffffffffffffffffffffffffffffffff1681526020019081526020015f20819055505b5b5f5f90505b5f82118015611e6f5750600260ff168160ff16105b15611eed57611ed88260095f8460ff1660ff1681526020019081526020015f205f8973ffffffffffffffffffffffffffffffffffffffff1673ffffffffffffffffffffffffffffffffffffffff1681526020019081526020015f20611f8590919063ffffffff16565b91508080611ee590612898565b915050611e5a565b505f8114611f30576040517f08c379a0000000000000000000000000000000000000000000000000000000008152600401611f279061290a565b60405180910390fd5b8260065f8673ffffffffffffffffffffffffffffffffffffffff1673ffffffffffffffffffffffffffffffffffffffff1681526020019081526020015f205f8282540192505081905550829150509392505050565b5f5f611f9084612002565b90505f83118015611fa057505f81115b15611ff857808310611fd95780846001015f828254611fbf9190612928565b925050819055508083611fd29190612795565b9250611ff7565b82846001015f828254611fec9190612928565b925050819055505f92505b5b8291505092915050565b5f5f5f90505f4290505f8460020154118015612025575083600201548460030154115b801561203757508360010154845f0154115b80156120465750836002015481115b156120d65783600301548110612070578360010154845f01546120699190612795565b91506120d5565b836002015484600301546120849190612795565b8460020154826120949190612795565b855f01546120a29190612c2f565b6120ac9190612c9d565b9150818460010154106120c1575f91506120d4565b8360010154826120d19190612795565b91505b5b5b8192505050919050565b5f81519050919050565b5f82825260208201905092915050565b8281835e5f83830152505050565b5f601f19601f8301169050919050565b5f612122826120e0565b61212c81856120ea565b935061213c8185602086016120fa565b61214581612108565b840191505092915050565b5f6020820190508181035f8301526121688184612118565b905092915050565b5f5ffd5b5f5ffd5b5f73ffffffffffffffffffffffffffffffffffffffff82169050919050565b5f6121a182612178565b9050919050565b6121b181612197565b81146121bb575f5ffd5b50565b5f813590506121cc816121a8565b92915050565b5f819050919050565b6121e4816121d2565b81146121ee575f5ffd5b50565b5f813590506121ff816121db565b92915050565b5f5f6040838503121561221b5761221a612170565b5b5f612228858286016121be565b9250506020612239858286016121f1565b9150509250929050565b5f8115159050919050565b61225781612243565b82525050565b5f6020820190506122705f83018461224e565b92915050565b5f6020828403121561228b5761228a612170565b5b5f612298848285016121be565b91505092915050565b6122aa816121d2565b82525050565b5f6080820190506122c35f8301876122a1565b6122d060208301866122a1565b6122dd60408301856122a1565b6122ea60608301846122a1565b95945050505050565b5f6020820190506123065f8301846122a1565b92915050565b5f5f5f6060848603121561232357612322612170565b5b5f612330868287016121be565b9350506020612341868287016121be565b9250506040612352868287016121f1565b9150509250925092565b5f60ff82169050919050565b6123718161235c565b82525050565b5f60208201905061238a5f830184612368565b92915050565b5f5ffd5b5f5ffd5b5f5ffd5b5f5f83601f8401126123b1576123b0612390565b5b8235905067ffffffffffffffff8111156123ce576123cd612394565b5b6020830191508360208202830111156123ea576123e9612398565b5b9250929050565b5f5f83601f84011261240657612405612390565b5b8235905067ffffffffffffffff81111561242357612422612394565b5b60208301915083602082028301111561243f5761243e612398565b5b9250929050565b5f5f5f5f6040858703121561245e5761245d612170565b5b5f85013567ffffffffffffffff81111561247b5761247a612174565b5b6124878782880161239c565b9450945050602085013567ffffffffffffffff8111156124aa576124a9612174565b5b6124b6878288016123f1565b925092505092959194509250565b6124cd8161235c565b81146124d7575f5ffd5b50565b5f813590506124e8816124c4565b92915050565b5f5f6040838503121561250457612503612170565b5b5f612511858286016121be565b9250506020612522858286016124da565b9150509250929050565b5f5f6040838503121561254257612541612170565b5b5f61254f858286016121be565b9250506020612560858286016121be565b9150509250929050565b5f81519050919050565b5f82825260208201905092915050565b5f819050602082019050919050565b61259c816121d2565b82525050565b5f6125ad8383612593565b60208301905092915050565b5f602082019050919050565b5f6125cf8261256a565b6125d98185612574565b93506125e483612584565b805f5b838110156126145781516125fb88826125a2565b9750612606836125b9565b9250506001810190506125e7565b5085935050505092915050565b5f60c0820190508181035f83015261263981896125c5565b9050818103602083015261264d81886125c5565b9050818103604083015261266181876125c5565b9050818103606083015261267581866125c5565b9050818103608083015261268981856125c5565b905061269860a0830184612368565b979650505050505050565b7f4e487b71000000000000000000000000000000000000000000000000000000005f52602260045260245ffd5b5f60028204905060018216806126e757607f821691505b6020821081036126fa576126f96126a3565b5b50919050565b7f4572726f723a2043616c6c6572206973206e6f7420746865206f776e657200005f82015250565b5f612734601e836120ea565b915061273f82612700565b602082019050919050565b5f6020820190508181035f83015261276181612728565b9050919050565b7f4e487b71000000000000000000000000000000000000000000000000000000005f52601160045260245ffd5b5f61279f826121d2565b91506127aa836121d2565b92508282039050818111156127c2576127c1612768565b5b92915050565b7f4572726f723a204f7065726174696f6e206661696c65640000000000000000005f82015250565b5f6127fc6017836120ea565b9150612807826127c8565b602082019050919050565b5f6020820190508181035f830152612829816127f0565b9050919050565b7f5472616e73616374696f6e207265636f766572790000000000000000000000005f82015250565b5f6128646014836120ea565b915061286f82612830565b602082019050919050565b5f6020820190508181035f83015261289181612858565b9050919050565b5f6128a28261235c565b915060ff82036128b5576128b4612768565b5b600182019050919050565b7f4661696c65643a20496e76616c69642062616c616e63650000000000000000005f82015250565b5f6128f46017836120ea565b91506128ff826128c0565b602082019050919050565b5f6020820190508181035f830152612921816128e8565b9050919050565b5f612932826121d2565b915061293d836121d2565b925082820190508082111561295557612954612768565b5b92915050565b7f4e487b71000000000000000000000000000000000000000000000000000000005f52603260045260245ffd5b7f4572726f723a20636170616369747920657863656564000000000000000000005f82015250565b5f6129bc6016836120ea565b91506129c782612988565b602082019050919050565b5f6020820190508181035f8301526129e9816129b0565b9050919050565b7f4572726f723a204c69717569646974792063616e206e6f74206265207a65726f5f8201527f2061646472657373000000000000000000000000000000000000000000000000602082015250565b5f612a4a6028836120ea565b9150612a55826129f0565b604082019050919050565b5f6020820190508181035f830152612a7781612a3e565b9050919050565b7f4e487b71000000000000000000000000000000000000000000000000000000005f52604160045260245ffd5b7f42455032303a20617070726f76652066726f6d20746865207a65726f206164645f8201527f7265737300000000000000000000000000000000000000000000000000000000602082015250565b5f612b056024836120ea565b9150612b1082612aab565b604082019050919050565b5f6020820190508181035f830152612b3281612af9565b9050919050565b7f42455032303a20617070726f766520746f20746865207a65726f2061646472655f8201527f7373000000000000000000000000000000000000000000000000000000000000602082015250565b5f612b936022836120ea565b9150612b9e82612b39565b604082019050919050565b5f6020820190508181035f830152612bc081612b87565b9050919050565b7f42455032303a20696e73756666696369656e7420616c6c6f77616e63650000005f82015250565b5f612bfb601d836120ea565b9150612c0682612bc7565b602082019050919050565b5f6020820190508181035f830152612c2881612bef565b9050919050565b5f612c39826121d2565b9150612c44836121d2565b9250828202612c52816121d2565b91508282048414831517612c6957612c68612768565b5b5092915050565b7f4e487b71000000000000000000000000000000000000000000000000000000005f52601260045260245ffd5b5f612ca7826121d2565b9150612cb2836121d2565b925082612cc257612cc1612c70565b5b82820490509291505056fea2646970667358221220dfadc56a7f00796abdbc52109b7a5918e763b43042b6e1a967856e946b3f1ac464736f6c634300081e0033",
					"opcodes": "PUSH1 0x80 PUSH1 0x40 MSTORE PUSH1 0x40 MLOAD DUP1 PUSH1 0x40 ADD PUSH1 0x40 MSTORE DUP1 PUSH1 0xB DUP2 MSTORE PUSH1 0x20 ADD PUSH32 0x425443455446546F6B656E000000000000000000000000000000000000000000 DUP2 MSTORE POP PUSH0 SWAP1 DUP2 PUSH2 0x47 SWAP2 SWAP1 PUSH2 0x478 JUMP JUMPDEST POP PUSH1 0x40 MLOAD DUP1 PUSH1 0x40 ADD PUSH1 0x40 MSTORE DUP1 PUSH1 0x6 DUP2 MSTORE PUSH1 0x20 ADD PUSH32 0x4254434554460000000000000000000000000000000000000000000000000000 DUP2 MSTORE POP PUSH1 0x1 SWAP1 DUP2 PUSH2 0x8C SWAP2 SWAP1 PUSH2 0x478 JUMP JUMPDEST POP PUSH1 0x12 PUSH1 0x2 PUSH0 PUSH2 0x100 EXP DUP2 SLOAD DUP2 PUSH1 0xFF MUL NOT AND SWAP1 DUP4 PUSH1 0xFF AND MUL OR SWAP1 SSTORE POP PUSH12 0x6C9144C1C690D4CB4000000 PUSH1 0x3 SSTORE PUSH0 PUSH1 0x4 SSTORE CALLVALUE DUP1 ISZERO PUSH2 0xC7 JUMPI PUSH0 PUSH0 REVERT JUMPDEST POP PUSH2 0xD6 PUSH2 0x234 PUSH1 0x20 SHL PUSH1 0x20 SHR JUMP JUMPDEST PUSH1 0x5 PUSH0 PUSH2 0x100 EXP DUP2 SLOAD DUP2 PUSH20 0xFFFFFFFFFFFFFFFFFFFFFFFFFFFFFFFFFFFFFFFF MUL NOT AND SWAP1 DUP4 PUSH20 0xFFFFFFFFFFFFFFFFFFFFFFFFFFFFFFFFFFFFFFFF AND MUL OR SWAP1 SSTORE POP PUSH1 0x14 PUSH1 0x3 SLOAD PUSH2 0x124 SWAP2 SWAP1 PUSH2 0x574 JUMP JUMPDEST PUSH1 0x6 PUSH0 PUSH1 0x5 PUSH0 SWAP1 SLOAD SWAP1 PUSH2 0x100 EXP SWAP1 DIV PUSH20 0xFFFFFFFFFFFFFFFFFFFFFFFFFFFFFFFFFFFFFFFF AND PUSH20 0xFFFFFFFFFFFFFFFFFFFFFFFFFFFFFFFFFFFFFFFF AND PUSH20 0xFFFFFFFFFFFFFFFFFFFFFFFFFFFFFFFFFFFFFFFF AND DUP2 MSTORE PUSH1 0x20 ADD SWAP1 DUP2 MSTORE PUSH1 0x20 ADD PUSH0 KECCAK256 DUP2 SWAP1 SSTORE POP PUSH1 0x14 PUSH1 0x3 SLOAD PUSH2 0x195 SWAP2 SWAP1 PUSH2 0x574 JUMP JUMPDEST PUSH1 0x4 DUP2 SWAP1 SSTORE POP PUSH1 0x5 PUSH0 SWAP1 SLOAD SWAP1 PUSH2 0x100 EXP SWAP1 DIV PUSH20 0xFFFFFFFFFFFFFFFFFFFFFFFFFFFFFFFFFFFFFFFF AND PUSH20 0xFFFFFFFFFFFFFFFFFFFFFFFFFFFFFFFFFFFFFFFF AND ADDRESS PUSH20 0xFFFFFFFFFFFFFFFFFFFFFFFFFFFFFFFFFFFFFFFF AND PUSH32 0xDDF252AD1BE2C89B69C2B068FC378DAA952BA7F163C4A11628F55A4DF523B3EF PUSH1 0x14 PUSH1 0x3 SLOAD PUSH2 0x21A SWAP2 SWAP1 PUSH2 0x574 JUMP JUMPDEST PUSH1 0x40 MLOAD PUSH2 0x227 SWAP2 SWAP1 PUSH2 0x5B3 JUMP JUMPDEST PUSH1 0x40 MLOAD DUP1 SWAP2 SUB SWAP1 LOG3 PUSH2 0x5CC JUMP JUMPDEST PUSH0 CALLER SWAP1 POP SWAP1 JUMP JUMPDEST PUSH0 DUP2 MLOAD SWAP1 POP SWAP2 SWAP1 POP JUMP JUMPDEST PUSH32 0x4E487B7100000000000000000000000000000000000000000000000000000000 PUSH0 MSTORE PUSH1 0x41 PUSH1 0x4 MSTORE PUSH1 0x24 PUSH0 REVERT JUMPDEST PUSH32 0x4E487B7100000000000000000000000000000000000000000000000000000000 PUSH0 MSTORE PUSH1 0x22 PUSH1 0x4 MSTORE PUSH1 0x24 PUSH0 REVERT JUMPDEST PUSH0 PUSH1 0x2 DUP3 DIV SWAP1 POP PUSH1 0x1 DUP3 AND DUP1 PUSH2 0x2B6 JUMPI PUSH1 0x7F DUP3 AND SWAP2 POP JUMPDEST PUSH1 0x20 DUP3 LT DUP2 SUB PUSH2 0x2C9 JUMPI PUSH2 0x2C8 PUSH2 0x272 JUMP JUMPDEST JUMPDEST POP SWAP2 SWAP1 POP JUMP JUMPDEST PUSH0 DUP2 SWAP1 POP DUP2 PUSH0 MSTORE PUSH1 0x20 PUSH0 KECCAK256 SWAP1 POP SWAP2 SWAP1 POP JUMP JUMPDEST PUSH0 PUSH1 0x20 PUSH1 0x1F DUP4 ADD DIV SWAP1 POP SWAP2 SWAP1 POP JUMP JUMPDEST PUSH0 DUP3 DUP3 SHL SWAP1 POP SWAP3 SWAP2 POP POP JUMP JUMPDEST PUSH0 PUSH1 0x8 DUP4 MUL PUSH2 0x32B PUSH32 0xFFFFFFFFFFFFFFFFFFFFFFFFFFFFFFFFFFFFFFFFFFFFFFFFFFFFFFFFFFFFFFFF DUP3 PUSH2 0x2F0 JUMP JUMPDEST PUSH2 0x335 DUP7 DUP4 PUSH2 0x2F0 JUMP JUMPDEST SWAP6 POP DUP1 NOT DUP5 AND SWAP4 POP DUP1 DUP7 AND DUP5 OR SWAP3 POP POP POP SWAP4 SWAP3 POP POP POP JUMP JUMPDEST PUSH0 DUP2 SWAP1 POP SWAP2 SWAP1 POP JUMP JUMPDEST PUSH0 DUP2 SWAP1 POP SWAP2 SWAP1 POP JUMP JUMPDEST PUSH0 PUSH2 0x379 PUSH2 0x374 PUSH2 0x36F DUP5 PUSH2 0x34D JUMP JUMPDEST PUSH2 0x356 JUMP JUMPDEST PUSH2 0x34D JUMP JUMPDEST SWAP1 POP SWAP2 SWAP1 POP JUMP JUMPDEST PUSH0 DUP2 SWAP1 POP SWAP2 SWAP1 POP JUMP JUMPDEST PUSH2 0x392 DUP4 PUSH2 0x35F JUMP JUMPDEST PUSH2 0x3A6 PUSH2 0x39E DUP3 PUSH2 0x380 JUMP JUMPDEST DUP5 DUP5 SLOAD PUSH2 0x2FC JUMP JUMPDEST DUP3 SSTORE POP POP POP POP JUMP JUMPDEST PUSH0 PUSH0 SWAP1 POP SWAP1 JUMP JUMPDEST PUSH2 0x3BD PUSH2 0x3AE JUMP JUMPDEST PUSH2 0x3C8 DUP2 DUP5 DUP5 PUSH2 0x389 JUMP JUMPDEST POP POP POP JUMP JUMPDEST JUMPDEST DUP2 DUP2 LT ISZERO PUSH2 0x3EB JUMPI PUSH2 0x3E0 PUSH0 DUP3 PUSH2 0x3B5 JUMP JUMPDEST PUSH1 0x1 DUP2 ADD SWAP1 POP PUSH2 0x3CE JUMP JUMPDEST POP POP JUMP JUMPDEST PUSH1 0x1F DUP3 GT ISZERO PUSH2 0x430 JUMPI PUSH2 0x401 DUP2 PUSH2 0x2CF JUMP JUMPDEST PUSH2 0x40A DUP5 PUSH2 0x2E1 JUMP JUMPDEST DUP2 ADD PUSH1 0x20 DUP6 LT ISZERO PUSH2 0x419 JUMPI DUP2 SWAP1 POP JUMPDEST PUSH2 0x42D PUSH2 0x425 DUP6 PUSH2 0x2E1 JUMP JUMPDEST DUP4 ADD DUP3 PUSH2 0x3CD JUMP JUMPDEST POP POP JUMPDEST POP POP POP JUMP JUMPDEST PUSH0 DUP3 DUP3 SHR SWAP1 POP SWAP3 SWAP2 POP POP JUMP JUMPDEST PUSH0 PUSH2 0x450 PUSH0 NOT DUP5 PUSH1 0x8 MUL PUSH2 0x435 JUMP JUMPDEST NOT DUP1 DUP4 AND SWAP2 POP POP SWAP3 SWAP2 POP POP JUMP JUMPDEST PUSH0 PUSH2 0x468 DUP4 DUP4 PUSH2 0x441 JUMP JUMPDEST SWAP2 POP DUP3 PUSH1 0x2 MUL DUP3 OR SWAP1 POP SWAP3 SWAP2 POP POP JUMP JUMPDEST PUSH2 0x481 DUP3 PUSH2 0x23B JUMP JUMPDEST PUSH8 0xFFFFFFFFFFFFFFFF DUP2 GT ISZERO PUSH2 0x49A JUMPI PUSH2 0x499 PUSH2 0x245 JUMP JUMPDEST JUMPDEST PUSH2 0x4A4 DUP3 SLOAD PUSH2 0x29F JUMP JUMPDEST PUSH2 0x4AF DUP3 DUP3 DUP6 PUSH2 0x3EF JUMP JUMPDEST PUSH0 PUSH1 0x20 SWAP1 POP PUSH1 0x1F DUP4 GT PUSH1 0x1 DUP2 EQ PUSH2 0x4E0 JUMPI PUSH0 DUP5 ISZERO PUSH2 0x4CE JUMPI DUP3 DUP8 ADD MLOAD SWAP1 POP JUMPDEST PUSH2 0x4D8 DUP6 DUP3 PUSH2 0x45D JUMP JUMPDEST DUP7 SSTORE POP PUSH2 0x53F JUMP JUMPDEST PUSH1 0x1F NOT DUP5 AND PUSH2 0x4EE DUP7 PUSH2 0x2CF JUMP JUMPDEST PUSH0 JUMPDEST DUP3 DUP2 LT ISZERO PUSH2 0x515 JUMPI DUP5 DUP10 ADD MLOAD DUP3 SSTORE PUSH1 0x1 DUP3 ADD SWAP2 POP PUSH1 0x20 DUP6 ADD SWAP5 POP PUSH1 0x20 DUP2 ADD SWAP1 POP PUSH2 0x4F0 JUMP JUMPDEST DUP7 DUP4 LT ISZERO PUSH2 0x532 JUMPI DUP5 DUP10 ADD MLOAD PUSH2 0x52E PUSH1 0x1F DUP10 AND DUP3 PUSH2 0x441 JUMP JUMPDEST DUP4 SSTORE POP JUMPDEST PUSH1 0x1 PUSH1 0x2 DUP9 MUL ADD DUP9 SSTORE POP POP POP JUMPDEST POP POP POP POP POP POP JUMP JUMPDEST PUSH32 0x4E487B7100000000000000000000000000000000000000000000000000000000 PUSH0 MSTORE PUSH1 0x12 PUSH1 0x4 MSTORE PUSH1 0x24 PUSH0 REVERT JUMPDEST PUSH0 PUSH2 0x57E DUP3 PUSH2 0x34D JUMP JUMPDEST SWAP2 POP PUSH2 0x589 DUP4 PUSH2 0x34D JUMP JUMPDEST SWAP3 POP DUP3 PUSH2 0x599 JUMPI PUSH2 0x598 PUSH2 0x547 JUMP JUMPDEST JUMPDEST DUP3 DUP3 DIV SWAP1 POP SWAP3 SWAP2 POP POP JUMP JUMPDEST PUSH2 0x5AD DUP2 PUSH2 0x34D JUMP JUMPDEST DUP3 MSTORE POP POP JUMP JUMPDEST PUSH0 PUSH1 0x20 DUP3 ADD SWAP1 POP PUSH2 0x5C6 PUSH0 DUP4 ADD DUP5 PUSH2 0x5A4 JUMP JUMPDEST SWAP3 SWAP2 POP POP JUMP JUMPDEST PUSH2 0x2D03 DUP1 PUSH2 0x5D9 PUSH0 CODECOPY PUSH0 RETURN INVALID PUSH1 0x80 PUSH1 0x40 MSTORE PUSH1 0x4 CALLDATASIZE LT PUSH2 0x101 JUMPI PUSH0 CALLDATALOAD PUSH1 0xE0 SHR DUP1 PUSH4 0x70A08231 GT PUSH2 0x94 JUMPI DUP1 PUSH4 0xB7FC6612 GT PUSH2 0x63 JUMPI DUP1 PUSH4 0xB7FC6612 EQ PUSH2 0x38E JUMPI DUP1 PUSH4 0xCB39A59A EQ PUSH2 0x3CA JUMPI DUP1 PUSH4 0xDBB57A4B EQ PUSH2 0x3F2 JUMPI DUP1 PUSH4 0xDD62ED3E EQ PUSH2 0x42E JUMPI DUP1 PUSH4 0xFEE16841 EQ PUSH2 0x46A JUMPI PUSH2 0x108 JUMP JUMPDEST DUP1 PUSH4 0x70A08231 EQ PUSH2 0x2B0 JUMPI DUP1 PUSH4 0x95D89B41 EQ PUSH2 0x2EC JUMPI DUP1 PUSH4 0xA9059CBB EQ PUSH2 0x316 JUMPI DUP1 PUSH4 0xAEE84F6B EQ PUSH2 0x352 JUMPI PUSH2 0x108 JUMP JUMPDEST DUP1 PUSH4 0x18160DDD GT PUSH2 0xD0 JUMPI DUP1 PUSH4 0x18160DDD EQ PUSH2 0x1F6 JUMPI DUP1 PUSH4 0x23B872DD EQ PUSH2 0x220 JUMPI DUP1 PUSH4 0x313CE567 EQ PUSH2 0x25C JUMPI DUP1 PUSH4 0x5CFC1A51 EQ PUSH2 0x286 JUMPI PUSH2 0x108 JUMP JUMPDEST DUP1 PUSH4 0x6FDDE03 EQ PUSH2 0x115 JUMPI DUP1 PUSH4 0x95EA7B3 EQ PUSH2 0x13F JUMPI DUP1 PUSH4 0xAAE7A6B EQ PUSH2 0x17B JUMPI DUP1 PUSH4 0xF81DCF7 EQ PUSH2 0x1BA JUMPI PUSH2 0x108 JUMP JUMPDEST CALLDATASIZE PUSH2 0x108 JUMPI STOP JUMPDEST CALLVALUE DUP1 ISZERO PUSH2 0x113 JUMPI PUSH0 PUSH0 REVERT JUMPDEST STOP JUMPDEST CALLVALUE DUP1 ISZERO PUSH2 0x120 JUMPI PUSH0 PUSH0 REVERT JUMPDEST POP PUSH2 0x129 PUSH2 0x4AB JUMP JUMPDEST PUSH1 0x40 MLOAD PUSH2 0x136 SWAP2 SWAP1 PUSH2 0x2150 JUMP JUMPDEST PUSH1 0x40 MLOAD DUP1 SWAP2 SUB SWAP1 RETURN JUMPDEST CALLVALUE DUP1 ISZERO PUSH2 0x14A JUMPI PUSH0 PUSH0 REVERT JUMPDEST POP PUSH2 0x165 PUSH1 0x4 DUP1 CALLDATASIZE SUB DUP2 ADD SWAP1 PUSH2 0x160 SWAP2 SWAP1 PUSH2 0x2205 JUMP JUMPDEST PUSH2 0x53A JUMP JUMPDEST PUSH1 0x40 MLOAD PUSH2 0x172 SWAP2 SWAP1 PUSH2 0x225D JUMP JUMPDEST PUSH1 0x40 MLOAD DUP1 SWAP2 SUB SWAP1 RETURN JUMPDEST CALLVALUE DUP1 ISZERO PUSH2 0x186 JUMPI PUSH0 PUSH0 REVERT JUMPDEST POP PUSH2 0x1A1 PUSH1 0x4 DUP1 CALLDATASIZE SUB DUP2 ADD SWAP1 PUSH2 0x19C SWAP2 SWAP1 PUSH2 0x2276 JUMP JUMPDEST PUSH2 0x557 JUMP JUMPDEST PUSH1 0x40 MLOAD PUSH2 0x1B1 SWAP5 SWAP4 SWAP3 SWAP2 SWAP1 PUSH2 0x22B0 JUMP JUMPDEST PUSH1 0x40 MLOAD DUP1 SWAP2 SUB SWAP1 RETURN JUMPDEST CALLVALUE DUP1 ISZERO PUSH2 0x1C5 JUMPI PUSH0 PUSH0 REVERT JUMPDEST POP PUSH2 0x1E0 PUSH1 0x4 DUP1 CALLDATASIZE SUB DUP2 ADD SWAP1 PUSH2 0x1DB SWAP2 SWAP1 PUSH2 0x2205 JUMP JUMPDEST PUSH2 0x7C7 JUMP JUMPDEST PUSH1 0x40 MLOAD PUSH2 0x1ED SWAP2 SWAP1 PUSH2 0x225D JUMP JUMPDEST PUSH1 0x40 MLOAD DUP1 SWAP2 SUB SWAP1 RETURN JUMPDEST CALLVALUE DUP1 ISZERO PUSH2 0x201 JUMPI PUSH0 PUSH0 REVERT JUMPDEST POP PUSH2 0x20A PUSH2 0x9D6 JUMP JUMPDEST PUSH1 0x40 MLOAD PUSH2 0x217 SWAP2 SWAP1 PUSH2 0x22F3 JUMP JUMPDEST PUSH1 0x40 MLOAD DUP1 SWAP2 SUB SWAP1 RETURN JUMPDEST CALLVALUE DUP1 ISZERO PUSH2 0x22B JUMPI PUSH0 PUSH0 REVERT JUMPDEST POP PUSH2 0x246 PUSH1 0x4 DUP1 CALLDATASIZE SUB DUP2 ADD SWAP1 PUSH2 0x241 SWAP2 SWAP1 PUSH2 0x230C JUMP JUMPDEST PUSH2 0x9DF JUMP JUMPDEST PUSH1 0x40 MLOAD PUSH2 0x253 SWAP2 SWAP1 PUSH2 0x225D JUMP JUMPDEST PUSH1 0x40 MLOAD DUP1 SWAP2 SUB SWAP1 RETURN JUMPDEST CALLVALUE DUP1 ISZERO PUSH2 0x267 JUMPI PUSH0 PUSH0 REVERT JUMPDEST POP PUSH2 0x270 PUSH2 0xA0D JUMP JUMPDEST PUSH1 0x40 MLOAD PUSH2 0x27D SWAP2 SWAP1 PUSH2 0x2377 JUMP JUMPDEST PUSH1 0x40 MLOAD DUP1 SWAP2 SUB SWAP1 RETURN JUMPDEST CALLVALUE DUP1 ISZERO PUSH2 0x291 JUMPI PUSH0 PUSH0 REVERT JUMPDEST POP PUSH2 0x29A PUSH2 0xA22 JUMP JUMPDEST PUSH1 0x40 MLOAD PUSH2 0x2A7 SWAP2 SWAP1 PUSH2 0x22F3 JUMP JUMPDEST PUSH1 0x40 MLOAD DUP1 SWAP2 SUB SWAP1 RETURN JUMPDEST CALLVALUE DUP1 ISZERO PUSH2 0x2BB JUMPI PUSH0 PUSH0 REVERT JUMPDEST POP PUSH2 0x2D6 PUSH1 0x4 DUP1 CALLDATASIZE SUB DUP2 ADD SWAP1 PUSH2 0x2D1 SWAP2 SWAP1 PUSH2 0x2276 JUMP JUMPDEST PUSH2 0xA2B JUMP JUMPDEST PUSH1 0x40 MLOAD PUSH2 0x2E3 SWAP2 SWAP1 PUSH2 0x22F3 JUMP JUMPDEST PUSH1 0x40 MLOAD DUP1 SWAP2 SUB SWAP1 RETURN JUMPDEST CALLVALUE DUP1 ISZERO PUSH2 0x2F7 JUMPI PUSH0 PUSH0 REVERT JUMPDEST POP PUSH2 0x300 PUSH2 0xA84 JUMP JUMPDEST PUSH1 0x40 MLOAD PUSH2 0x30D SWAP2 SWAP1 PUSH2 0x2150 JUMP JUMPDEST PUSH1 0x40 MLOAD DUP1 SWAP2 SUB SWAP1 RETURN JUMPDEST CALLVALUE DUP1 ISZERO PUSH2 0x321 JUMPI PUSH0 PUSH0 REVERT JUMPDEST POP PUSH2 0x33C PUSH1 0x4 DUP1 CALLDATASIZE SUB DUP2 ADD SWAP1 PUSH2 0x337 SWAP2 SWAP1 PUSH2 0x2205 JUMP JUMPDEST PUSH2 0xB14 JUMP JUMPDEST PUSH1 0x40 MLOAD PUSH2 0x349 SWAP2 SWAP1 PUSH2 0x225D JUMP JUMPDEST PUSH1 0x40 MLOAD DUP1 SWAP2 SUB SWAP1 RETURN JUMPDEST CALLVALUE DUP1 ISZERO PUSH2 0x35D JUMPI PUSH0 PUSH0 REVERT JUMPDEST POP PUSH2 0x378 PUSH1 0x4 DUP1 CALLDATASIZE SUB DUP2 ADD SWAP1 PUSH2 0x373 SWAP2 SWAP1 PUSH2 0x2205 JUMP JUMPDEST PUSH2 0xB31 JUMP JUMPDEST PUSH1 0x40 MLOAD PUSH2 0x385 SWAP2 SWAP1 PUSH2 0x225D JUMP JUMPDEST PUSH1 0x40 MLOAD DUP1 SWAP2 SUB SWAP1 RETURN JUMPDEST CALLVALUE DUP1 ISZERO PUSH2 0x399 JUMPI PUSH0 PUSH0 REVERT JUMPDEST POP PUSH2 0x3B4 PUSH1 0x4 DUP1 CALLDATASIZE SUB DUP2 ADD SWAP1 PUSH2 0x3AF SWAP2 SWAP1 PUSH2 0x2446 JUMP JUMPDEST PUSH2 0xCB3 JUMP JUMPDEST PUSH1 0x40 MLOAD PUSH2 0x3C1 SWAP2 SWAP1 PUSH2 0x225D JUMP JUMPDEST PUSH1 0x40 MLOAD DUP1 SWAP2 SUB SWAP1 RETURN JUMPDEST CALLVALUE DUP1 ISZERO PUSH2 0x3D5 JUMPI PUSH0 PUSH0 REVERT JUMPDEST POP PUSH2 0x3F0 PUSH1 0x4 DUP1 CALLDATASIZE SUB DUP2 ADD SWAP1 PUSH2 0x3EB SWAP2 SWAP1 PUSH2 0x24EE JUMP JUMPDEST PUSH2 0xF7A JUMP JUMPDEST STOP JUMPDEST CALLVALUE DUP1 ISZERO PUSH2 0x3FD JUMPI PUSH0 PUSH0 REVERT JUMPDEST POP PUSH2 0x418 PUSH1 0x4 DUP1 CALLDATASIZE SUB DUP2 ADD SWAP1 PUSH2 0x413 SWAP2 SWAP1 PUSH2 0x2205 JUMP JUMPDEST PUSH2 0x114A JUMP JUMPDEST PUSH1 0x40 MLOAD PUSH2 0x425 SWAP2 SWAP1 PUSH2 0x225D JUMP JUMPDEST PUSH1 0x40 MLOAD DUP1 SWAP2 SUB SWAP1 RETURN JUMPDEST CALLVALUE DUP1 ISZERO PUSH2 0x439 JUMPI PUSH0 PUSH0 REVERT JUMPDEST POP PUSH2 0x454 PUSH1 0x4 DUP1 CALLDATASIZE SUB DUP2 ADD SWAP1 PUSH2 0x44F SWAP2 SWAP1 PUSH2 0x252C JUMP JUMPDEST PUSH2 0x132B JUMP JUMPDEST PUSH1 0x40 MLOAD PUSH2 0x461 SWAP2 SWAP1 PUSH2 0x22F3 JUMP JUMPDEST PUSH1 0x40 MLOAD DUP1 SWAP2 SUB SWAP1 RETURN JUMPDEST CALLVALUE DUP1 ISZERO PUSH2 0x475 JUMPI PUSH0 PUSH0 REVERT JUMPDEST POP PUSH2 0x490 PUSH1 0x4 DUP1 CALLDATASIZE SUB DUP2 ADD SWAP1 PUSH2 0x48B SWAP2 SWAP1 PUSH2 0x2276 JUMP JUMPDEST PUSH2 0x13AD JUMP JUMPDEST PUSH1 0x40 MLOAD PUSH2 0x4A2 SWAP7 SWAP6 SWAP5 SWAP4 SWAP3 SWAP2 SWAP1 PUSH2 0x2621 JUMP JUMPDEST PUSH1 0x40 MLOAD DUP1 SWAP2 SUB SWAP1 RETURN JUMPDEST PUSH1 0x60 PUSH0 DUP1 SLOAD PUSH2 0x4B9 SWAP1 PUSH2 0x26D0 JUMP JUMPDEST DUP1 PUSH1 0x1F ADD PUSH1 0x20 DUP1 SWAP2 DIV MUL PUSH1 0x20 ADD PUSH1 0x40 MLOAD SWAP1 DUP2 ADD PUSH1 0x40 MSTORE DUP1 SWAP3 SWAP2 SWAP1 DUP2 DUP2 MSTORE PUSH1 0x20 ADD DUP3 DUP1 SLOAD PUSH2 0x4E5 SWAP1 PUSH2 0x26D0 JUMP JUMPDEST DUP1 ISZERO PUSH2 0x530 JUMPI DUP1 PUSH1 0x1F LT PUSH2 0x507 JUMPI PUSH2 0x100 DUP1 DUP4 SLOAD DIV MUL DUP4 MSTORE SWAP2 PUSH1 0x20 ADD SWAP2 PUSH2 0x530 JUMP JUMPDEST DUP3 ADD SWAP2 SWAP1 PUSH0 MSTORE PUSH1 0x20 PUSH0 KECCAK256 SWAP1 JUMPDEST DUP2 SLOAD DUP2 MSTORE SWAP1 PUSH1 0x1 ADD SWAP1 PUSH1 0x20 ADD DUP1 DUP4 GT PUSH2 0x513 JUMPI DUP3 SWAP1 SUB PUSH1 0x1F AND DUP3 ADD SWAP2 JUMPDEST POP POP POP POP POP SWAP1 POP SWAP1 JUMP JUMPDEST PUSH0 PUSH2 0x54D PUSH2 0x546 PUSH2 0x1853 JUMP JUMPDEST DUP5 DUP5 PUSH2 0x185A JUMP JUMPDEST PUSH1 0x1 SWAP1 POP SWAP3 SWAP2 POP POP JUMP JUMPDEST PUSH0 PUSH0 PUSH0 PUSH0 PUSH2 0x563 PUSH2 0x1853 JUMP JUMPDEST PUSH20 0xFFFFFFFFFFFFFFFFFFFFFFFFFFFFFFFFFFFFFFFF AND PUSH1 0x5 PUSH0 SWAP1 SLOAD SWAP1 PUSH2 0x100 EXP SWAP1 DIV PUSH20 0xFFFFFFFFFFFFFFFFFFFFFFFFFFFFFFFFFFFFFFFF AND PUSH20 0xFFFFFFFFFFFFFFFFFFFFFFFFFFFFFFFFFFFFFFFF AND EQ PUSH2 0x5F1 JUMPI PUSH1 0x40 MLOAD PUSH32 0x8C379A000000000000000000000000000000000000000000000000000000000 DUP2 MSTORE PUSH1 0x4 ADD PUSH2 0x5E8 SWAP1 PUSH2 0x274A JUMP JUMPDEST PUSH1 0x40 MLOAD DUP1 SWAP2 SUB SWAP1 REVERT JUMPDEST PUSH0 PUSH1 0x9 PUSH0 PUSH0 PUSH1 0xFF AND PUSH1 0xFF AND DUP2 MSTORE PUSH1 0x20 ADD SWAP1 DUP2 MSTORE PUSH1 0x20 ADD PUSH0 KECCAK256 PUSH0 DUP8 PUSH20 0xFFFFFFFFFFFFFFFFFFFFFFFFFFFFFFFFFFFFFFFF AND PUSH20 0xFFFFFFFFFFFFFFFFFFFFFFFFFFFFFFFFFFFFFFFF AND DUP2 MSTORE PUSH1 0x20 ADD SWAP1 DUP2 MSTORE PUSH1 0x20 ADD PUSH0 KECCAK256 PUSH1 0x1 ADD SLOAD PUSH1 0x9 PUSH0 PUSH0 PUSH1 0xFF AND PUSH1 0xFF AND DUP2 MSTORE PUSH1 0x20 ADD SWAP1 DUP2 MSTORE PUSH1 0x20 ADD PUSH0 KECCAK256 PUSH0 DUP9 PUSH20 0xFFFFFFFFFFFFFFFFFFFFFFFFFFFFFFFFFFFFFFFF AND PUSH20 0xFFFFFFFFFFFFFFFFFFFFFFFFFFFFFFFFFFFFFFFF AND DUP2 MSTORE PUSH1 0x20 ADD SWAP1 DUP2 MSTORE PUSH1 0x20 ADD PUSH0 KECCAK256 PUSH0 ADD SLOAD PUSH2 0x6A7 SWAP2 SWAP1 PUSH2 0x2795 JUMP JUMPDEST SWAP1 POP PUSH0 PUSH1 0x9 PUSH0 PUSH1 0x1 PUSH1 0xFF AND PUSH1 0xFF AND DUP2 MSTORE PUSH1 0x20 ADD SWAP1 DUP2 MSTORE PUSH1 0x20 ADD PUSH0 KECCAK256 PUSH0 DUP9 PUSH20 0xFFFFFFFFFFFFFFFFFFFFFFFFFFFFFFFFFFFFFFFF AND PUSH20 0xFFFFFFFFFFFFFFFFFFFFFFFFFFFFFFFFFFFFFFFF AND DUP2 MSTORE PUSH1 0x20 ADD SWAP1 DUP2 MSTORE PUSH1 0x20 ADD PUSH0 KECCAK256 PUSH1 0x1 ADD SLOAD PUSH1 0x9 PUSH0 PUSH1 0x1 PUSH1 0xFF AND PUSH1 0xFF AND DUP2 MSTORE PUSH1 0x20 ADD SWAP1 DUP2 MSTORE PUSH1 0x20 ADD PUSH0 KECCAK256 PUSH0 DUP10 PUSH20 0xFFFFFFFFFFFFFFFFFFFFFFFFFFFFFFFFFFFFFFFF AND PUSH20 0xFFFFFFFFFFFFFFFFFFFFFFFFFFFFFFFFFFFFFFFF AND DUP2 MSTORE PUSH1 0x20 ADD SWAP1 DUP2 MSTORE PUSH1 0x20 ADD PUSH0 KECCAK256 PUSH0 ADD SLOAD PUSH2 0x761 SWAP2 SWAP1 PUSH2 0x2795 JUMP JUMPDEST SWAP1 POP PUSH0 PUSH1 0x6 PUSH0 DUP10 PUSH20 0xFFFFFFFFFFFFFFFFFFFFFFFFFFFFFFFFFFFFFFFF AND PUSH20 0xFFFFFFFFFFFFFFFFFFFFFFFFFFFFFFFFFFFFFFFF AND DUP2 MSTORE PUSH1 0x20 ADD SWAP1 DUP2 MSTORE PUSH1 0x20 ADD PUSH0 KECCAK256 SLOAD SWAP1 POP PUSH0 PUSH2 0x7AE DUP10 PUSH2 0x1A1D JUMP JUMPDEST SWAP1 POP DUP4 DUP4 DUP4 DUP4 SWAP8 POP SWAP8 POP SWAP8 POP SWAP8 POP POP POP POP POP SWAP2 SWAP4 POP SWAP2 SWAP4 JUMP JUMPDEST PUSH0 PUSH1 0x1 PUSH1 0x8 PUSH0 PUSH2 0x7D5 PUSH2 0x1853 JUMP JUMPDEST PUSH20 0xFFFFFFFFFFFFFFFFFFFFFFFFFFFFFFFFFFFFFFFF AND PUSH20 0xFFFFFFFFFFFFFFFFFFFFFFFFFFFFFFFFFFFFFFFF AND DUP2 MSTORE PUSH1 0x20 ADD SWAP1 DUP2 MSTORE PUSH1 0x20 ADD PUSH0 KECCAK256 PUSH0 SWAP1 SLOAD SWAP1 PUSH2 0x100 EXP SWAP1 DIV PUSH1 0xFF AND PUSH1 0xFF AND EQ DUP1 ISZERO PUSH2 0x857 JUMPI POP PUSH0 PUSH20 0xFFFFFFFFFFFFFFFFFFFFFFFFFFFFFFFFFFFFFFFF AND DUP4 PUSH20 0xFFFFFFFFFFFFFFFFFFFFFFFFFFFFFFFFFFFFFFFF AND EQ ISZERO JUMPDEST PUSH2 0x896 JUMPI PUSH1 0x40 MLOAD PUSH32 0x8C379A000000000000000000000000000000000000000000000000000000000 DUP2 MSTORE PUSH1 0x4 ADD PUSH2 0x88D SWAP1 PUSH2 0x2812 JUMP JUMPDEST PUSH1 0x40 MLOAD DUP1 SWAP2 SUB SWAP1 REVERT JUMPDEST PUSH0 DUP3 GT DUP1 ISZERO PUSH2 0x8AD JUMPI POP DUP2 PUSH2 0x8AA DUP5 PUSH2 0x1A1D JUMP JUMPDEST LT ISZERO JUMPDEST PUSH2 0x8EC JUMPI PUSH1 0x40 MLOAD PUSH32 0x8C379A000000000000000000000000000000000000000000000000000000000 DUP2 MSTORE PUSH1 0x4 ADD PUSH2 0x8E3 SWAP1 PUSH2 0x287A JUMP JUMPDEST PUSH1 0x40 MLOAD DUP1 SWAP2 SUB SWAP1 REVERT JUMPDEST PUSH0 DUP3 SWAP1 POP PUSH0 PUSH0 SWAP1 POP JUMPDEST PUSH0 DUP3 GT DUP1 ISZERO PUSH2 0x90A JUMPI POP PUSH1 0x2 PUSH1 0xFF AND DUP2 PUSH1 0xFF AND LT JUMPDEST ISZERO PUSH2 0x988 JUMPI PUSH2 0x973 DUP5 PUSH1 0x9 PUSH0 DUP5 PUSH1 0xFF AND PUSH1 0xFF AND DUP2 MSTORE PUSH1 0x20 ADD SWAP1 DUP2 MSTORE PUSH1 0x20 ADD PUSH0 KECCAK256 PUSH0 DUP9 PUSH20 0xFFFFFFFFFFFFFFFFFFFFFFFFFFFFFFFFFFFFFFFF AND PUSH20 0xFFFFFFFFFFFFFFFFFFFFFFFFFFFFFFFFFFFFFFFF AND DUP2 MSTORE PUSH1 0x20 ADD SWAP1 DUP2 MSTORE PUSH1 0x20 ADD PUSH0 KECCAK256 PUSH2 0x1B0F SWAP1 SWAP2 SWAP1 PUSH4 0xFFFFFFFF AND JUMP JUMPDEST SWAP2 POP DUP1 DUP1 PUSH2 0x980 SWAP1 PUSH2 0x2898 JUMP JUMPDEST SWAP2 POP POP PUSH2 0x8F5 JUMP JUMPDEST POP PUSH0 DUP2 EQ PUSH2 0x9CB JUMPI PUSH1 0x40 MLOAD PUSH32 0x8C379A000000000000000000000000000000000000000000000000000000000 DUP2 MSTORE PUSH1 0x4 ADD PUSH2 0x9C2 SWAP1 PUSH2 0x290A JUMP JUMPDEST PUSH1 0x40 MLOAD DUP1 SWAP2 SUB SWAP1 REVERT JUMPDEST PUSH1 0x1 SWAP2 POP POP SWAP3 SWAP2 POP POP JUMP JUMPDEST PUSH0 PUSH1 0x3 SLOAD SWAP1 POP SWAP1 JUMP JUMPDEST PUSH0 PUSH0 PUSH2 0x9E9 PUSH2 0x1853 JUMP JUMPDEST SWAP1 POP PUSH2 0x9F6 DUP6 DUP3 DUP6 PUSH2 0x1B7B JUMP JUMPDEST PUSH2 0xA01 DUP6 DUP6 DUP6 PUSH2 0x1C06 JUMP JUMPDEST PUSH1 0x1 SWAP2 POP POP SWAP4 SWAP3 POP POP POP JUMP JUMPDEST PUSH0 PUSH1 0x2 PUSH0 SWAP1 SLOAD SWAP1 PUSH2 0x100 EXP SWAP1 DIV PUSH1 0xFF AND SWAP1 POP SWAP1 JUMP JUMPDEST PUSH0 PUSH1 0x4 SLOAD SWAP1 POP SWAP1 JUMP JUMPDEST PUSH0 PUSH2 0xA35 DUP3 PUSH2 0x1A1D JUMP JUMPDEST PUSH1 0x6 PUSH0 DUP5 PUSH20 0xFFFFFFFFFFFFFFFFFFFFFFFFFFFFFFFFFFFFFFFF AND PUSH20 0xFFFFFFFFFFFFFFFFFFFFFFFFFFFFFFFFFFFFFFFF AND DUP2 MSTORE PUSH1 0x20 ADD SWAP1 DUP2 MSTORE PUSH1 0x20 ADD PUSH0 KECCAK256 SLOAD PUSH2 0xA7D SWAP2 SWAP1 PUSH2 0x2928 JUMP JUMPDEST SWAP1 POP SWAP2 SWAP1 POP JUMP JUMPDEST PUSH1 0x60 PUSH1 0x1 DUP1 SLOAD PUSH2 0xA93 SWAP1 PUSH2 0x26D0 JUMP JUMPDEST DUP1 PUSH1 0x1F ADD PUSH1 0x20 DUP1 SWAP2 DIV MUL PUSH1 0x20 ADD PUSH1 0x40 MLOAD SWAP1 DUP2 ADD PUSH1 0x40 MSTORE DUP1 SWAP3 SWAP2 SWAP1 DUP2 DUP2 MSTORE PUSH1 0x20 ADD DUP3 DUP1 SLOAD PUSH2 0xABF SWAP1 PUSH2 0x26D0 JUMP JUMPDEST DUP1 ISZERO PUSH2 0xB0A JUMPI DUP1 PUSH1 0x1F LT PUSH2 0xAE1 JUMPI PUSH2 0x100 DUP1 DUP4 SLOAD DIV MUL DUP4 MSTORE SWAP2 PUSH1 0x20 ADD SWAP2 PUSH2 0xB0A JUMP JUMPDEST DUP3 ADD SWAP2 SWAP1 PUSH0 MSTORE PUSH1 0x20 PUSH0 KECCAK256 SWAP1 JUMPDEST DUP2 SLOAD DUP2 MSTORE SWAP1 PUSH1 0x1 ADD SWAP1 PUSH1 0x20 ADD DUP1 DUP4 GT PUSH2 0xAED JUMPI DUP3 SWAP1 SUB PUSH1 0x1F AND DUP3 ADD SWAP2 JUMPDEST POP POP POP POP POP SWAP1 POP SWAP1 JUMP JUMPDEST PUSH0 PUSH2 0xB27 PUSH2 0xB20 PUSH2 0x1853 JUMP JUMPDEST DUP5 DUP5 PUSH2 0x1C06 JUMP JUMPDEST PUSH1 0x1 SWAP1 POP SWAP3 SWAP2 POP POP JUMP JUMPDEST PUSH0 PUSH1 0x1 PUSH1 0x8 PUSH0 PUSH2 0xB3F PUSH2 0x1853 JUMP JUMPDEST PUSH20 0xFFFFFFFFFFFFFFFFFFFFFFFFFFFFFFFFFFFFFFFF AND PUSH20 0xFFFFFFFFFFFFFFFFFFFFFFFFFFFFFFFFFFFFFFFF AND DUP2 MSTORE PUSH1 0x20 ADD SWAP1 DUP2 MSTORE PUSH1 0x20 ADD PUSH0 KECCAK256 PUSH0 SWAP1 SLOAD SWAP1 PUSH2 0x100 EXP SWAP1 DIV PUSH1 0xFF AND PUSH1 0xFF AND EQ PUSH2 0xBC8 JUMPI PUSH1 0x40 MLOAD PUSH32 0x8C379A000000000000000000000000000000000000000000000000000000000 DUP2 MSTORE PUSH1 0x4 ADD PUSH2 0xBBF SWAP1 PUSH2 0x2812 JUMP JUMPDEST PUSH1 0x40 MLOAD DUP1 SWAP2 SUB SWAP1 REVERT JUMPDEST PUSH0 PUSH0 SWAP1 POP JUMPDEST PUSH1 0x2 PUSH1 0xFF AND DUP2 PUSH1 0xFF AND LT ISZERO PUSH2 0xCA8 JUMPI TIMESTAMP PUSH1 0x9 PUSH0 DUP4 PUSH1 0xFF AND PUSH1 0xFF AND DUP2 MSTORE PUSH1 0x20 ADD SWAP1 DUP2 MSTORE PUSH1 0x20 ADD PUSH0 KECCAK256 PUSH0 DUP7 PUSH20 0xFFFFFFFFFFFFFFFFFFFFFFFFFFFFFFFFFFFFFFFF AND PUSH20 0xFFFFFFFFFFFFFFFFFFFFFFFFFFFFFFFFFFFFFFFF AND DUP2 MSTORE PUSH1 0x20 ADD SWAP1 DUP2 MSTORE PUSH1 0x20 ADD PUSH0 KECCAK256 PUSH1 0x2 ADD DUP2 SWAP1 SSTORE POP DUP3 TIMESTAMP PUSH2 0xC42 SWAP2 SWAP1 PUSH2 0x2928 JUMP JUMPDEST PUSH1 0x9 PUSH0 DUP4 PUSH1 0xFF AND PUSH1 0xFF AND DUP2 MSTORE PUSH1 0x20 ADD SWAP1 DUP2 MSTORE PUSH1 0x20 ADD PUSH0 KECCAK256 PUSH0 DUP7 PUSH20 0xFFFFFFFFFFFFFFFFFFFFFFFFFFFFFFFFFFFFFFFF AND PUSH20 0xFFFFFFFFFFFFFFFFFFFFFFFFFFFFFFFFFFFFFFFF AND DUP2 MSTORE PUSH1 0x20 ADD SWAP1 DUP2 MSTORE PUSH1 0x20 ADD PUSH0 KECCAK256 PUSH1 0x3 ADD DUP2 SWAP1 SSTORE POP DUP1 DUP1 PUSH1 0x1 ADD SWAP2 POP POP PUSH2 0xBCD JUMP JUMPDEST POP PUSH1 0x1 SWAP1 POP SWAP3 SWAP2 POP POP JUMP JUMPDEST PUSH0 PUSH1 0x1 PUSH1 0x8 PUSH0 PUSH2 0xCC1 PUSH2 0x1853 JUMP JUMPDEST PUSH20 0xFFFFFFFFFFFFFFFFFFFFFFFFFFFFFFFFFFFFFFFF AND PUSH20 0xFFFFFFFFFFFFFFFFFFFFFFFFFFFFFFFFFFFFFFFF AND DUP2 MSTORE PUSH1 0x20 ADD SWAP1 DUP2 MSTORE PUSH1 0x20 ADD PUSH0 KECCAK256 PUSH0 SWAP1 SLOAD SWAP1 PUSH2 0x100 EXP SWAP1 DIV PUSH1 0xFF AND PUSH1 0xFF AND EQ DUP1 ISZERO PUSH2 0xD1C JUMPI POP DUP3 DUP3 SWAP1 POP DUP6 DUP6 SWAP1 POP EQ JUMPDEST PUSH2 0xD5B JUMPI PUSH1 0x40 MLOAD PUSH32 0x8C379A000000000000000000000000000000000000000000000000000000000 DUP2 MSTORE PUSH1 0x4 ADD PUSH2 0xD52 SWAP1 PUSH2 0x2812 JUMP JUMPDEST PUSH1 0x40 MLOAD DUP1 SWAP2 SUB SWAP1 REVERT JUMPDEST PUSH0 PUSH0 SWAP1 POP PUSH0 DUP7 DUP7 SWAP1 POP SWAP1 POP PUSH0 PUSH0 SWAP1 POP JUMPDEST DUP2 DUP2 PUSH1 0xFF AND LT ISZERO PUSH2 0xF00 JUMPI PUSH2 0xE20 DUP7 DUP7 DUP4 PUSH1 0xFF AND DUP2 DUP2 LT PUSH2 0xD8F JUMPI PUSH2 0xD8E PUSH2 0x295B JUMP JUMPDEST JUMPDEST SWAP1 POP PUSH1 0x20 MUL ADD CALLDATALOAD PUSH1 0x9 PUSH0 PUSH0 PUSH1 0xFF AND PUSH1 0xFF AND DUP2 MSTORE PUSH1 0x20 ADD SWAP1 DUP2 MSTORE PUSH1 0x20 ADD PUSH0 KECCAK256 PUSH0 DUP12 DUP12 DUP7 PUSH1 0xFF AND DUP2 DUP2 LT PUSH2 0xDC4 JUMPI PUSH2 0xDC3 PUSH2 0x295B JUMP JUMPDEST JUMPDEST SWAP1 POP PUSH1 0x20 MUL ADD PUSH1 0x20 DUP2 ADD SWAP1 PUSH2 0xDD9 SWAP2 SWAP1 PUSH2 0x2276 JUMP JUMPDEST PUSH20 0xFFFFFFFFFFFFFFFFFFFFFFFFFFFFFFFFFFFFFFFF AND PUSH20 0xFFFFFFFFFFFFFFFFFFFFFFFFFFFFFFFFFFFFFFFF AND DUP2 MSTORE PUSH1 0x20 ADD SWAP1 DUP2 MSTORE PUSH1 0x20 ADD PUSH0 KECCAK256 PUSH2 0x1C7A SWAP1 SWAP2 SWAP1 PUSH4 0xFFFFFFFF AND JUMP JUMPDEST POP DUP6 DUP6 DUP3 PUSH1 0xFF AND DUP2 DUP2 LT PUSH2 0xE37 JUMPI PUSH2 0xE36 PUSH2 0x295B JUMP JUMPDEST JUMPDEST SWAP1 POP PUSH1 0x20 MUL ADD CALLDATALOAD DUP4 ADD SWAP3 POP DUP8 DUP8 DUP3 PUSH1 0xFF AND DUP2 DUP2 LT PUSH2 0xE58 JUMPI PUSH2 0xE57 PUSH2 0x295B JUMP JUMPDEST JUMPDEST SWAP1 POP PUSH1 0x20 MUL ADD PUSH1 0x20 DUP2 ADD SWAP1 PUSH2 0xE6D SWAP2 SWAP1 PUSH2 0x2276 JUMP JUMPDEST PUSH20 0xFFFFFFFFFFFFFFFFFFFFFFFFFFFFFFFFFFFFFFFF AND PUSH0 PUSH20 0xFFFFFFFFFFFFFFFFFFFFFFFFFFFFFFFFFFFFFFFF AND PUSH32 0xDDF252AD1BE2C89B69C2B068FC378DAA952BA7F163C4A11628F55A4DF523B3EF DUP9 DUP9 DUP6 PUSH1 0xFF AND DUP2 DUP2 LT PUSH2 0xED1 JUMPI PUSH2 0xED0 PUSH2 0x295B JUMP JUMPDEST JUMPDEST SWAP1 POP PUSH1 0x20 MUL ADD CALLDATALOAD PUSH1 0x40 MLOAD PUSH2 0xEE5 SWAP2 SWAP1 PUSH2 0x22F3 JUMP JUMPDEST PUSH1 0x40 MLOAD DUP1 SWAP2 SUB SWAP1 LOG3 DUP1 DUP1 PUSH2 0xEF8 SWAP1 PUSH2 0x2898 JUMP JUMPDEST SWAP2 POP POP PUSH2 0xD6B JUMP JUMPDEST POP PUSH2 0xF09 PUSH2 0x9D6 JUMP JUMPDEST DUP3 PUSH2 0xF12 PUSH2 0xA22 JUMP JUMPDEST PUSH2 0xF1C SWAP2 SWAP1 PUSH2 0x2928 JUMP JUMPDEST GT ISZERO PUSH2 0xF5D JUMPI PUSH1 0x40 MLOAD PUSH32 0x8C379A000000000000000000000000000000000000000000000000000000000 DUP2 MSTORE PUSH1 0x4 ADD PUSH2 0xF54 SWAP1 PUSH2 0x29D2 JUMP JUMPDEST PUSH1 0x40 MLOAD DUP1 SWAP2 SUB SWAP1 REVERT JUMPDEST DUP2 PUSH1 0x4 PUSH0 DUP3 DUP3 SLOAD ADD SWAP3 POP POP DUP2 SWAP1 SSTORE POP PUSH1 0x1 SWAP3 POP POP POP SWAP5 SWAP4 POP POP POP POP JUMP JUMPDEST PUSH2 0xF82 PUSH2 0x1853 JUMP JUMPDEST PUSH20 0xFFFFFFFFFFFFFFFFFFFFFFFFFFFFFFFFFFFFFFFF AND PUSH1 0x5 PUSH0 SWAP1 SLOAD SWAP1 PUSH2 0x100 EXP SWAP1 DIV PUSH20 0xFFFFFFFFFFFFFFFFFFFFFFFFFFFFFFFFFFFFFFFF AND PUSH20 0xFFFFFFFFFFFFFFFFFFFFFFFFFFFFFFFFFFFFFFFF AND EQ PUSH2 0x1010 JUMPI PUSH1 0x40 MLOAD PUSH32 0x8C379A000000000000000000000000000000000000000000000000000000000 DUP2 MSTORE PUSH1 0x4 ADD PUSH2 0x1007 SWAP1 PUSH2 0x274A JUMP JUMPDEST PUSH1 0x40 MLOAD DUP1 SWAP2 SUB SWAP1 REVERT JUMPDEST PUSH0 PUSH20 0xFFFFFFFFFFFFFFFFFFFFFFFFFFFFFFFFFFFFFFFF AND DUP3 PUSH20 0xFFFFFFFFFFFFFFFFFFFFFFFFFFFFFFFFFFFFFFFF AND SUB PUSH2 0x107E JUMPI PUSH1 0x40 MLOAD PUSH32 0x8C379A000000000000000000000000000000000000000000000000000000000 DUP2 MSTORE PUSH1 0x4 ADD PUSH2 0x1075 SWAP1 PUSH2 0x2A60 JUMP JUMPDEST PUSH1 0x40 MLOAD DUP1 SWAP2 SUB SWAP1 REVERT JUMPDEST PUSH1 0x1 DUP2 PUSH1 0xFF AND SUB PUSH2 0x10E4 JUMPI PUSH1 0x1 PUSH1 0x8 PUSH0 DUP5 PUSH20 0xFFFFFFFFFFFFFFFFFFFFFFFFFFFFFFFFFFFFFFFF AND PUSH20 0xFFFFFFFFFFFFFFFFFFFFFFFFFFFFFFFFFFFFFFFF AND DUP2 MSTORE PUSH1 0x20 ADD SWAP1 DUP2 MSTORE PUSH1 0x20 ADD PUSH0 KECCAK256 PUSH0 PUSH2 0x100 EXP DUP2 SLOAD DUP2 PUSH1 0xFF MUL NOT AND SWAP1 DUP4 PUSH1 0xFF AND MUL OR SWAP1 SSTORE POP PUSH2 0x1146 JUMP JUMPDEST PUSH1 0x2 DUP2 PUSH1 0xFF AND SUB PUSH2 0x1145 JUMPI PUSH0 PUSH1 0x8 PUSH0 DUP5 PUSH20 0xFFFFFFFFFFFFFFFFFFFFFFFFFFFFFFFFFFFFFFFF AND PUSH20 0xFFFFFFFFFFFFFFFFFFFFFFFFFFFFFFFFFFFFFFFF AND DUP2 MSTORE PUSH1 0x20 ADD SWAP1 DUP2 MSTORE PUSH1 0x20 ADD PUSH0 KECCAK256 PUSH0 PUSH2 0x100 EXP DUP2 SLOAD DUP2 PUSH1 0xFF MUL NOT AND SWAP1 DUP4 PUSH1 0xFF AND MUL OR SWAP1 SSTORE POP JUMPDEST JUMPDEST POP POP JUMP JUMPDEST PUSH0 PUSH1 0x1 PUSH1 0x8 PUSH0 PUSH2 0x1158 PUSH2 0x1853 JUMP JUMPDEST PUSH20 0xFFFFFFFFFFFFFFFFFFFFFFFFFFFFFFFFFFFFFFFF AND PUSH20 0xFFFFFFFFFFFFFFFFFFFFFFFFFFFFFFFFFFFFFFFF AND DUP2 MSTORE PUSH1 0x20 ADD SWAP1 DUP2 MSTORE PUSH1 0x20 ADD PUSH0 KECCAK256 PUSH0 SWAP1 SLOAD SWAP1 PUSH2 0x100 EXP SWAP1 DIV PUSH1 0xFF AND PUSH1 0xFF AND EQ PUSH2 0x11E1 JUMPI PUSH1 0x40 MLOAD PUSH32 0x8C379A000000000000000000000000000000000000000000000000000000000 DUP2 MSTORE PUSH1 0x4 ADD PUSH2 0x11D8 SWAP1 PUSH2 0x2812 JUMP JUMPDEST PUSH1 0x40 MLOAD DUP1 SWAP2 SUB SWAP1 REVERT JUMPDEST PUSH0 PUSH0 SWAP1 POP PUSH2 0x124A DUP4 PUSH1 0x9 PUSH0 PUSH1 0x1 PUSH1 0xFF AND PUSH1 0xFF AND DUP2 MSTORE PUSH1 0x20 ADD SWAP1 DUP2 MSTORE PUSH1 0x20 ADD PUSH0 KECCAK256 PUSH0 DUP8 PUSH20 0xFFFFFFFFFFFFFFFFFFFFFFFFFFFFFFFFFFFFFFFF AND PUSH20 0xFFFFFFFFFFFFFFFFFFFFFFFFFFFFFFFFFFFFFFFF AND DUP2 MSTORE PUSH1 0x20 ADD SWAP1 DUP2 MSTORE PUSH1 0x20 ADD PUSH0 KECCAK256 PUSH2 0x1C7A SWAP1 SWAP2 SWAP1 PUSH4 0xFFFFFFFF AND JUMP JUMPDEST POP DUP3 DUP2 ADD SWAP1 POP DUP4 PUSH20 0xFFFFFFFFFFFFFFFFFFFFFFFFFFFFFFFFFFFFFFFF AND PUSH0 PUSH20 0xFFFFFFFFFFFFFFFFFFFFFFFFFFFFFFFFFFFFFFFF AND PUSH32 0xDDF252AD1BE2C89B69C2B068FC378DAA952BA7F163C4A11628F55A4DF523B3EF DUP6 PUSH1 0x40 MLOAD PUSH2 0x12AD SWAP2 SWAP1 PUSH2 0x22F3 JUMP JUMPDEST PUSH1 0x40 MLOAD DUP1 SWAP2 SUB SWAP1 LOG3 PUSH2 0x12BD PUSH2 0x9D6 JUMP JUMPDEST DUP2 PUSH2 0x12C6 PUSH2 0xA22 JUMP JUMPDEST PUSH2 0x12D0 SWAP2 SWAP1 PUSH2 0x2928 JUMP JUMPDEST GT ISZERO PUSH2 0x1311 JUMPI PUSH1 0x40 MLOAD PUSH32 0x8C379A000000000000000000000000000000000000000000000000000000000 DUP2 MSTORE PUSH1 0x4 ADD PUSH2 0x1308 SWAP1 PUSH2 0x29D2 JUMP JUMPDEST PUSH1 0x40 MLOAD DUP1 SWAP2 SUB SWAP1 REVERT JUMPDEST DUP1 PUSH1 0x4 PUSH0 DUP3 DUP3 SLOAD ADD SWAP3 POP POP DUP2 SWAP1 SSTORE POP PUSH1 0x1 SWAP2 POP POP SWAP3 SWAP2 POP POP JUMP JUMPDEST PUSH0 PUSH1 0x7 PUSH0 DUP5 PUSH20 0xFFFFFFFFFFFFFFFFFFFFFFFFFFFFFFFFFFFFFFFF AND PUSH20 0xFFFFFFFFFFFFFFFFFFFFFFFFFFFFFFFFFFFFFFFF AND DUP2 MSTORE PUSH1 0x20 ADD SWAP1 DUP2 MSTORE PUSH1 0x20 ADD PUSH0 KECCAK256 PUSH0 DUP4 PUSH20 0xFFFFFFFFFFFFFFFFFFFFFFFFFFFFFFFFFFFFFFFF AND PUSH20 0xFFFFFFFFFFFFFFFFFFFFFFFFFFFFFFFFFFFFFFFF AND DUP2 MSTORE PUSH1 0x20 ADD SWAP1 DUP2 MSTORE PUSH1 0x20 ADD PUSH0 KECCAK256 SLOAD SWAP1 POP SWAP3 SWAP2 POP POP JUMP JUMPDEST PUSH1 0x60 DUP1 PUSH1 0x60 DUP1 PUSH1 0x60 PUSH0 PUSH2 0x13BE PUSH2 0x1853 JUMP JUMPDEST PUSH20 0xFFFFFFFFFFFFFFFFFFFFFFFFFFFFFFFFFFFFFFFF AND PUSH1 0x5 PUSH0 SWAP1 SLOAD SWAP1 PUSH2 0x100 EXP SWAP1 DIV PUSH20 0xFFFFFFFFFFFFFFFFFFFFFFFFFFFFFFFFFFFFFFFF AND PUSH20 0xFFFFFFFFFFFFFFFFFFFFFFFFFFFFFFFFFFFFFFFF AND EQ PUSH2 0x144C JUMPI PUSH1 0x40 MLOAD PUSH32 0x8C379A000000000000000000000000000000000000000000000000000000000 DUP2 MSTORE PUSH1 0x4 ADD PUSH2 0x1443 SWAP1 PUSH2 0x274A JUMP JUMPDEST PUSH1 0x40 MLOAD DUP1 SWAP2 SUB SWAP1 REVERT JUMPDEST PUSH1 0x2 PUSH1 0xFF AND PUSH8 0xFFFFFFFFFFFFFFFF DUP2 GT ISZERO PUSH2 0x146A JUMPI PUSH2 0x1469 PUSH2 0x2A7E JUMP JUMPDEST JUMPDEST PUSH1 0x40 MLOAD SWAP1 DUP1 DUP3 MSTORE DUP1 PUSH1 0x20 MUL PUSH1 0x20 ADD DUP3 ADD PUSH1 0x40 MSTORE DUP1 ISZERO PUSH2 0x1498 JUMPI DUP2 PUSH1 0x20 ADD PUSH1 0x20 DUP3 MUL DUP1 CALLDATASIZE DUP4 CALLDATACOPY DUP1 DUP3 ADD SWAP2 POP POP SWAP1 POP JUMPDEST POP SWAP6 POP PUSH1 0x2 PUSH1 0xFF AND PUSH8 0xFFFFFFFFFFFFFFFF DUP2 GT ISZERO PUSH2 0x14B9 JUMPI PUSH2 0x14B8 PUSH2 0x2A7E JUMP JUMPDEST JUMPDEST PUSH1 0x40 MLOAD SWAP1 DUP1 DUP3 MSTORE DUP1 PUSH1 0x20 MUL PUSH1 0x20 ADD DUP3 ADD PUSH1 0x40 MSTORE DUP1 ISZERO PUSH2 0x14E7 JUMPI DUP2 PUSH1 0x20 ADD PUSH1 0x20 DUP3 MUL DUP1 CALLDATASIZE DUP4 CALLDATACOPY DUP1 DUP3 ADD SWAP2 POP POP SWAP1 POP JUMPDEST POP SWAP5 POP PUSH1 0x2 PUSH1 0xFF AND PUSH8 0xFFFFFFFFFFFFFFFF DUP2 GT ISZERO PUSH2 0x1508 JUMPI PUSH2 0x1507 PUSH2 0x2A7E JUMP JUMPDEST JUMPDEST PUSH1 0x40 MLOAD SWAP1 DUP1 DUP3 MSTORE DUP1 PUSH1 0x20 MUL PUSH1 0x20 ADD DUP3 ADD PUSH1 0x40 MSTORE DUP1 ISZERO PUSH2 0x1536 JUMPI DUP2 PUSH1 0x20 ADD PUSH1 0x20 DUP3 MUL DUP1 CALLDATASIZE DUP4 CALLDATACOPY DUP1 DUP3 ADD SWAP2 POP POP SWAP1 POP JUMPDEST POP SWAP4 POP PUSH1 0x2 PUSH1 0xFF AND PUSH8 0xFFFFFFFFFFFFFFFF DUP2 GT ISZERO PUSH2 0x1557 JUMPI PUSH2 0x1556 PUSH2 0x2A7E JUMP JUMPDEST JUMPDEST PUSH1 0x40 MLOAD SWAP1 DUP1 DUP3 MSTORE DUP1 PUSH1 0x20 MUL PUSH1 0x20 ADD DUP3 ADD PUSH1 0x40 MSTORE DUP1 ISZERO PUSH2 0x1585 JUMPI DUP2 PUSH1 0x20 ADD PUSH1 0x20 DUP3 MUL DUP1 CALLDATASIZE DUP4 CALLDATACOPY DUP1 DUP3 ADD SWAP2 POP POP SWAP1 POP JUMPDEST POP SWAP3 POP PUSH1 0x2 PUSH1 0xFF AND PUSH8 0xFFFFFFFFFFFFFFFF DUP2 GT ISZERO PUSH2 0x15A6 JUMPI PUSH2 0x15A5 PUSH2 0x2A7E JUMP JUMPDEST JUMPDEST PUSH1 0x40 MLOAD SWAP1 DUP1 DUP3 MSTORE DUP1 PUSH1 0x20 MUL PUSH1 0x20 ADD DUP3 ADD PUSH1 0x40 MSTORE DUP1 ISZERO PUSH2 0x15D4 JUMPI DUP2 PUSH1 0x20 ADD PUSH1 0x20 DUP3 MUL DUP1 CALLDATASIZE DUP4 CALLDATACOPY DUP1 DUP3 ADD SWAP2 POP POP SWAP1 POP JUMPDEST POP SWAP2 POP PUSH1 0x8 PUSH0 DUP9 PUSH20 0xFFFFFFFFFFFFFFFFFFFFFFFFFFFFFFFFFFFFFFFF AND PUSH20 0xFFFFFFFFFFFFFFFFFFFFFFFFFFFFFFFFFFFFFFFF AND DUP2 MSTORE PUSH1 0x20 ADD SWAP1 DUP2 MSTORE PUSH1 0x20 ADD PUSH0 KECCAK256 PUSH0 SWAP1 SLOAD SWAP1 PUSH2 0x100 EXP SWAP1 DIV PUSH1 0xFF AND SWAP1 POP PUSH0 PUSH0 SWAP1 POP JUMPDEST PUSH1 0x2 PUSH1 0xFF AND DUP2 PUSH1 0xFF AND LT ISZERO PUSH2 0x1849 JUMPI DUP1 PUSH1 0xFF AND DUP8 DUP3 PUSH1 0xFF AND DUP2 MLOAD DUP2 LT PUSH2 0x1651 JUMPI PUSH2 0x1650 PUSH2 0x295B JUMP JUMPDEST JUMPDEST PUSH1 0x20 MUL PUSH1 0x20 ADD ADD DUP2 DUP2 MSTORE POP POP PUSH1 0x9 PUSH0 DUP3 PUSH1 0xFF AND PUSH1 0xFF AND DUP2 MSTORE PUSH1 0x20 ADD SWAP1 DUP2 MSTORE PUSH1 0x20 ADD PUSH0 KECCAK256 PUSH0 DUP10 PUSH20 0xFFFFFFFFFFFFFFFFFFFFFFFFFFFFFFFFFFFFFFFF AND PUSH20 0xFFFFFFFFFFFFFFFFFFFFFFFFFFFFFFFFFFFFFFFF AND DUP2 MSTORE PUSH1 0x20 ADD SWAP1 DUP2 MSTORE PUSH1 0x20 ADD PUSH0 KECCAK256 PUSH0 ADD SLOAD DUP7 DUP3 PUSH1 0xFF AND DUP2 MLOAD DUP2 LT PUSH2 0x16C8 JUMPI PUSH2 0x16C7 PUSH2 0x295B JUMP JUMPDEST JUMPDEST PUSH1 0x20 MUL PUSH1 0x20 ADD ADD DUP2 DUP2 MSTORE POP POP PUSH1 0x9 PUSH0 DUP3 PUSH1 0xFF AND PUSH1 0xFF AND DUP2 MSTORE PUSH1 0x20 ADD SWAP1 DUP2 MSTORE PUSH1 0x20 ADD PUSH0 KECCAK256 PUSH0 DUP10 PUSH20 0xFFFFFFFFFFFFFFFFFFFFFFFFFFFFFFFFFFFFFFFF AND PUSH20 0xFFFFFFFFFFFFFFFFFFFFFFFFFFFFFFFFFFFFFFFF AND DUP2 MSTORE PUSH1 0x20 ADD SWAP1 DUP2 MSTORE PUSH1 0x20 ADD PUSH0 KECCAK256 PUSH1 0x1 ADD SLOAD DUP6 DUP3 PUSH1 0xFF AND DUP2 MLOAD DUP2 LT PUSH2 0x1740 JUMPI PUSH2 0x173F PUSH2 0x295B JUMP JUMPDEST JUMPDEST PUSH1 0x20 MUL PUSH1 0x20 ADD ADD DUP2 DUP2 MSTORE POP POP PUSH1 0x9 PUSH0 DUP3 PUSH1 0xFF AND PUSH1 0xFF AND DUP2 MSTORE PUSH1 0x20 ADD SWAP1 DUP2 MSTORE PUSH1 0x20 ADD PUSH0 KECCAK256 PUSH0 DUP10 PUSH20 0xFFFFFFFFFFFFFFFFFFFFFFFFFFFFFFFFFFFFFFFF AND PUSH20 0xFFFFFFFFFFFFFFFFFFFFFFFFFFFFFFFFFFFFFFFF AND DUP2 MSTORE PUSH1 0x20 ADD SWAP1 DUP2 MSTORE PUSH1 0x20 ADD PUSH0 KECCAK256 PUSH1 0x2 ADD SLOAD DUP5 DUP3 PUSH1 0xFF AND DUP2 MLOAD DUP2 LT PUSH2 0x17B8 JUMPI PUSH2 0x17B7 PUSH2 0x295B JUMP JUMPDEST JUMPDEST PUSH1 0x20 MUL PUSH1 0x20 ADD ADD DUP2 DUP2 MSTORE POP POP PUSH1 0x9 PUSH0 DUP3 PUSH1 0xFF AND PUSH1 0xFF AND DUP2 MSTORE PUSH1 0x20 ADD SWAP1 DUP2 MSTORE PUSH1 0x20 ADD PUSH0 KECCAK256 PUSH0 DUP10 PUSH20 0xFFFFFFFFFFFFFFFFFFFFFFFFFFFFFFFFFFFFFFFF AND PUSH20 0xFFFFFFFFFFFFFFFFFFFFFFFFFFFFFFFFFFFFFFFF AND DUP2 MSTORE PUSH1 0x20 ADD SWAP1 DUP2 MSTORE PUSH1 0x20 ADD PUSH0 KECCAK256 PUSH1 0x3 ADD SLOAD DUP4 DUP3 PUSH1 0xFF AND DUP2 MLOAD DUP2 LT PUSH2 0x1830 JUMPI PUSH2 0x182F PUSH2 0x295B JUMP JUMPDEST JUMPDEST PUSH1 0x20 MUL PUSH1 0x20 ADD ADD DUP2 DUP2 MSTORE POP POP DUP1 DUP1 PUSH1 0x1 ADD SWAP2 POP POP PUSH2 0x1628 JUMP JUMPDEST POP SWAP2 SWAP4 SWAP6 POP SWAP2 SWAP4 SWAP6 JUMP JUMPDEST PUSH0 CALLER SWAP1 POP SWAP1 JUMP JUMPDEST PUSH0 PUSH20 0xFFFFFFFFFFFFFFFFFFFFFFFFFFFFFFFFFFFFFFFF AND DUP4 PUSH20 0xFFFFFFFFFFFFFFFFFFFFFFFFFFFFFFFFFFFFFFFF AND SUB PUSH2 0x18C8 JUMPI PUSH1 0x40 MLOAD PUSH32 0x8C379A000000000000000000000000000000000000000000000000000000000 DUP2 MSTORE PUSH1 0x4 ADD PUSH2 0x18BF SWAP1 PUSH2 0x2B1B JUMP JUMPDEST PUSH1 0x40 MLOAD DUP1 SWAP2 SUB SWAP1 REVERT JUMPDEST PUSH0 PUSH20 0xFFFFFFFFFFFFFFFFFFFFFFFFFFFFFFFFFFFFFFFF AND DUP3 PUSH20 0xFFFFFFFFFFFFFFFFFFFFFFFFFFFFFFFFFFFFFFFF AND SUB PUSH2 0x1936 JUMPI PUSH1 0x40 MLOAD PUSH32 0x8C379A000000000000000000000000000000000000000000000000000000000 DUP2 MSTORE PUSH1 0x4 ADD PUSH2 0x192D SWAP1 PUSH2 0x2BA9 JUMP JUMPDEST PUSH1 0x40 MLOAD DUP1 SWAP2 SUB SWAP1 REVERT JUMPDEST DUP1 PUSH1 0x7 PUSH0 DUP6 PUSH20 0xFFFFFFFFFFFFFFFFFFFFFFFFFFFFFFFFFFFFFFFF AND PUSH20 0xFFFFFFFFFFFFFFFFFFFFFFFFFFFFFFFFFFFFFFFF AND DUP2 MSTORE PUSH1 0x20 ADD SWAP1 DUP2 MSTORE PUSH1 0x20 ADD PUSH0 KECCAK256 PUSH0 DUP5 PUSH20 0xFFFFFFFFFFFFFFFFFFFFFFFFFFFFFFFFFFFFFFFF AND PUSH20 0xFFFFFFFFFFFFFFFFFFFFFFFFFFFFFFFFFFFFFFFF AND DUP2 MSTORE PUSH1 0x20 ADD SWAP1 DUP2 MSTORE PUSH1 0x20 ADD PUSH0 KECCAK256 DUP2 SWAP1 SSTORE POP DUP2 PUSH20 0xFFFFFFFFFFFFFFFFFFFFFFFFFFFFFFFFFFFFFFFF AND DUP4 PUSH20 0xFFFFFFFFFFFFFFFFFFFFFFFFFFFFFFFFFFFFFFFF AND PUSH32 0x8C5BE1E5EBEC7D5BD14F71427D1E84F3DD0314C0F7B2291E5B200AC8C7C3B925 DUP4 PUSH1 0x40 MLOAD PUSH2 0x1A10 SWAP2 SWAP1 PUSH2 0x22F3 JUMP JUMPDEST PUSH1 0x40 MLOAD DUP1 SWAP2 SUB SWAP1 LOG3 POP POP POP JUMP JUMPDEST PUSH0 PUSH0 PUSH0 SWAP1 POP PUSH0 PUSH0 SWAP1 POP JUMPDEST PUSH1 0x2 PUSH1 0xFF AND DUP2 PUSH1 0xFF AND LT ISZERO PUSH2 0x1B05 JUMPI PUSH1 0x9 PUSH0 DUP3 PUSH1 0xFF AND PUSH1 0xFF AND DUP2 MSTORE PUSH1 0x20 ADD SWAP1 DUP2 MSTORE PUSH1 0x20 ADD PUSH0 KECCAK256 PUSH0 DUP6 PUSH20 0xFFFFFFFFFFFFFFFFFFFFFFFFFFFFFFFFFFFFFFFF AND PUSH20 0xFFFFFFFFFFFFFFFFFFFFFFFFFFFFFFFFFFFFFFFF AND DUP2 MSTORE PUSH1 0x20 ADD SWAP1 DUP2 MSTORE PUSH1 0x20 ADD PUSH0 KECCAK256 PUSH1 0x1 ADD SLOAD PUSH1 0x9 PUSH0 DUP4 PUSH1 0xFF AND PUSH1 0xFF AND DUP2 MSTORE PUSH1 0x20 ADD SWAP1 DUP2 MSTORE PUSH1 0x20 ADD PUSH0 KECCAK256 PUSH0 DUP7 PUSH20 0xFFFFFFFFFFFFFFFFFFFFFFFFFFFFFFFFFFFFFFFF AND PUSH20 0xFFFFFFFFFFFFFFFFFFFFFFFFFFFFFFFFFFFFFFFF AND DUP2 MSTORE PUSH1 0x20 ADD SWAP1 DUP2 MSTORE PUSH1 0x20 ADD PUSH0 KECCAK256 PUSH0 ADD SLOAD PUSH2 0x1AEB SWAP2 SWAP1 PUSH2 0x2795 JUMP JUMPDEST DUP3 PUSH2 0x1AF6 SWAP2 SWAP1 PUSH2 0x2928 JUMP JUMPDEST SWAP2 POP DUP1 DUP1 PUSH1 0x1 ADD SWAP2 POP POP PUSH2 0x1A27 JUMP JUMPDEST POP DUP1 SWAP2 POP POP SWAP2 SWAP1 POP JUMP JUMPDEST PUSH0 PUSH0 DUP4 PUSH1 0x1 ADD SLOAD DUP5 PUSH0 ADD SLOAD PUSH2 0x1B24 SWAP2 SWAP1 PUSH2 0x2795 JUMP JUMPDEST SWAP1 POP PUSH0 DUP4 GT DUP1 ISZERO PUSH2 0x1B34 JUMPI POP PUSH0 DUP2 GT JUMPDEST ISZERO PUSH2 0x1B71 JUMPI DUP1 DUP4 LT PUSH2 0x1B5B JUMPI DUP1 DUP5 PUSH1 0x1 ADD PUSH0 DUP3 DUP3 SLOAD ADD SWAP3 POP POP DUP2 SWAP1 SSTORE POP DUP1 DUP4 SUB SWAP3 POP PUSH2 0x1B70 JUMP JUMPDEST DUP3 DUP5 PUSH1 0x1 ADD PUSH0 DUP3 DUP3 SLOAD ADD SWAP3 POP POP DUP2 SWAP1 SSTORE POP PUSH0 SWAP3 POP JUMPDEST JUMPDEST DUP3 SWAP2 POP POP SWAP3 SWAP2 POP POP JUMP JUMPDEST PUSH0 PUSH2 0x1B86 DUP5 DUP5 PUSH2 0x132B JUMP JUMPDEST SWAP1 POP PUSH32 0xFFFFFFFFFFFFFFFFFFFFFFFFFFFFFFFFFFFFFFFFFFFFFFFFFFFFFFFFFFFFFFFF DUP2 EQ PUSH2 0x1C00 JUMPI DUP2 DUP2 LT ISZERO PUSH2 0x1BF2 JUMPI PUSH1 0x40 MLOAD PUSH32 0x8C379A000000000000000000000000000000000000000000000000000000000 DUP2 MSTORE PUSH1 0x4 ADD PUSH2 0x1BE9 SWAP1 PUSH2 0x2C11 JUMP JUMPDEST PUSH1 0x40 MLOAD DUP1 SWAP2 SUB SWAP1 REVERT JUMPDEST PUSH2 0x1BFF DUP5 DUP5 DUP5 DUP5 SUB PUSH2 0x185A JUMP JUMPDEST JUMPDEST POP POP POP POP JUMP JUMPDEST DUP2 PUSH20 0xFFFFFFFFFFFFFFFFFFFFFFFFFFFFFFFFFFFFFFFF AND DUP4 PUSH20 0xFFFFFFFFFFFFFFFFFFFFFFFFFFFFFFFFFFFFFFFF AND PUSH32 0xDDF252AD1BE2C89B69C2B068FC378DAA952BA7F163C4A11628F55A4DF523B3EF PUSH2 0x1C60 DUP7 DUP7 DUP7 PUSH2 0x1C95 JUMP JUMPDEST PUSH1 0x40 MLOAD PUSH2 0x1C6D SWAP2 SWAP1 PUSH2 0x22F3 JUMP JUMPDEST PUSH1 0x40 MLOAD DUP1 SWAP2 SUB SWAP1 LOG3 POP POP POP JUMP JUMPDEST PUSH0 DUP2 DUP4 PUSH0 ADD PUSH0 DUP3 DUP3 SLOAD ADD SWAP3 POP POP DUP2 SWAP1 SSTORE POP PUSH1 0x1 SWAP1 POP SWAP3 SWAP2 POP POP JUMP JUMPDEST PUSH0 PUSH0 DUP3 SWAP1 POP DUP1 PUSH1 0x6 PUSH0 DUP8 PUSH20 0xFFFFFFFFFFFFFFFFFFFFFFFFFFFFFFFFFFFFFFFF AND PUSH20 0xFFFFFFFFFFFFFFFFFFFFFFFFFFFFFFFFFFFFFFFF AND DUP2 MSTORE PUSH1 0x20 ADD SWAP1 DUP2 MSTORE PUSH1 0x20 ADD PUSH0 KECCAK256 SLOAD LT PUSH2 0x1D39 JUMPI PUSH0 SWAP1 POP DUP3 PUSH1 0x6 PUSH0 DUP8 PUSH20 0xFFFFFFFFFFFFFFFFFFFFFFFFFFFFFFFFFFFFFFFF AND PUSH20 0xFFFFFFFFFFFFFFFFFFFFFFFFFFFFFFFFFFFFFFFF AND DUP2 MSTORE PUSH1 0x20 ADD SWAP1 DUP2 MSTORE PUSH1 0x20 ADD PUSH0 KECCAK256 PUSH0 DUP3 DUP3 SLOAD PUSH2 0x1D2D SWAP2 SWAP1 PUSH2 0x2795 JUMP JUMPDEST SWAP3 POP POP DUP2 SWAP1 SSTORE POP PUSH2 0x1E55 JUMP JUMPDEST PUSH0 PUSH1 0x6 PUSH0 DUP8 PUSH20 0xFFFFFFFFFFFFFFFFFFFFFFFFFFFFFFFFFFFFFFFF AND PUSH20 0xFFFFFFFFFFFFFFFFFFFFFFFFFFFFFFFFFFFFFFFF AND DUP2 MSTORE PUSH1 0x20 ADD SWAP1 DUP2 MSTORE PUSH1 0x20 ADD PUSH0 KECCAK256 SLOAD GT DUP1 ISZERO PUSH2 0x1DC1 JUMPI POP DUP1 PUSH1 0x6 PUSH0 DUP8 PUSH20 0xFFFFFFFFFFFFFFFFFFFFFFFFFFFFFFFFFFFFFFFF AND PUSH20 0xFFFFFFFFFFFFFFFFFFFFFFFFFFFFFFFFFFFFFFFF AND DUP2 MSTORE PUSH1 0x20 ADD SWAP1 DUP2 MSTORE PUSH1 0x20 ADD PUSH0 KECCAK256 SLOAD LT JUMPDEST ISZERO PUSH2 0x1E54 JUMPI PUSH1 0x6 PUSH0 DUP7 PUSH20 0xFFFFFFFFFFFFFFFFFFFFFFFFFFFFFFFFFFFFFFFF AND PUSH20 0xFFFFFFFFFFFFFFFFFFFFFFFFFFFFFFFFFFFFFFFF AND DUP2 MSTORE PUSH1 0x20 ADD SWAP1 DUP2 MSTORE PUSH1 0x20 ADD PUSH0 KECCAK256 SLOAD DUP2 PUSH2 0x1E0F SWAP2 SWAP1 PUSH2 0x2795 JUMP JUMPDEST SWAP1 POP PUSH0 PUSH1 0x6 PUSH0 DUP8 PUSH20 0xFFFFFFFFFFFFFFFFFFFFFFFFFFFFFFFFFFFFFFFF AND PUSH20 0xFFFFFFFFFFFFFFFFFFFFFFFFFFFFFFFFFFFFFFFF AND DUP2 MSTORE PUSH1 0x20 ADD SWAP1 DUP2 MSTORE PUSH1 0x20 ADD PUSH0 KECCAK256 DUP2 SWAP1 SSTORE POP JUMPDEST JUMPDEST PUSH0 PUSH0 SWAP1 POP JUMPDEST PUSH0 DUP3 GT DUP1 ISZERO PUSH2 0x1E6F JUMPI POP PUSH1 0x2 PUSH1 0xFF AND DUP2 PUSH1 0xFF AND LT JUMPDEST ISZERO PUSH2 0x1EED JUMPI PUSH2 0x1ED8 DUP3 PUSH1 0x9 PUSH0 DUP5 PUSH1 0xFF AND PUSH1 0xFF AND DUP2 MSTORE PUSH1 0x20 ADD SWAP1 DUP2 MSTORE PUSH1 0x20 ADD PUSH0 KECCAK256 PUSH0 DUP10 PUSH20 0xFFFFFFFFFFFFFFFFFFFFFFFFFFFFFFFFFFFFFFFF AND PUSH20 0xFFFFFFFFFFFFFFFFFFFFFFFFFFFFFFFFFFFFFFFF AND DUP2 MSTORE PUSH1 0x20 ADD SWAP1 DUP2 MSTORE PUSH1 0x20 ADD PUSH0 KECCAK256 PUSH2 0x1F85 SWAP1 SWAP2 SWAP1 PUSH4 0xFFFFFFFF AND JUMP JUMPDEST SWAP2 POP DUP1 DUP1 PUSH2 0x1EE5 SWAP1 PUSH2 0x2898 JUMP JUMPDEST SWAP2 POP POP PUSH2 0x1E5A JUMP JUMPDEST POP PUSH0 DUP2 EQ PUSH2 0x1F30 JUMPI PUSH1 0x40 MLOAD PUSH32 0x8C379A000000000000000000000000000000000000000000000000000000000 DUP2 MSTORE PUSH1 0x4 ADD PUSH2 0x1F27 SWAP1 PUSH2 0x290A JUMP JUMPDEST PUSH1 0x40 MLOAD DUP1 SWAP2 SUB SWAP1 REVERT JUMPDEST DUP3 PUSH1 0x6 PUSH0 DUP7 PUSH20 0xFFFFFFFFFFFFFFFFFFFFFFFFFFFFFFFFFFFFFFFF AND PUSH20 0xFFFFFFFFFFFFFFFFFFFFFFFFFFFFFFFFFFFFFFFF AND DUP2 MSTORE PUSH1 0x20 ADD SWAP1 DUP2 MSTORE PUSH1 0x20 ADD PUSH0 KECCAK256 PUSH0 DUP3 DUP3 SLOAD ADD SWAP3 POP POP DUP2 SWAP1 SSTORE POP DUP3 SWAP2 POP POP SWAP4 SWAP3 POP POP POP JUMP JUMPDEST PUSH0 PUSH0 PUSH2 0x1F90 DUP5 PUSH2 0x2002 JUMP JUMPDEST SWAP1 POP PUSH0 DUP4 GT DUP1 ISZERO PUSH2 0x1FA0 JUMPI POP PUSH0 DUP2 GT JUMPDEST ISZERO PUSH2 0x1FF8 JUMPI DUP1 DUP4 LT PUSH2 0x1FD9 JUMPI DUP1 DUP5 PUSH1 0x1 ADD PUSH0 DUP3 DUP3 SLOAD PUSH2 0x1FBF SWAP2 SWAP1 PUSH2 0x2928 JUMP JUMPDEST SWAP3 POP POP DUP2 SWAP1 SSTORE POP DUP1 DUP4 PUSH2 0x1FD2 SWAP2 SWAP1 PUSH2 0x2795 JUMP JUMPDEST SWAP3 POP PUSH2 0x1FF7 JUMP JUMPDEST DUP3 DUP5 PUSH1 0x1 ADD PUSH0 DUP3 DUP3 SLOAD PUSH2 0x1FEC SWAP2 SWAP1 PUSH2 0x2928 JUMP JUMPDEST SWAP3 POP POP DUP2 SWAP1 SSTORE POP PUSH0 SWAP3 POP JUMPDEST JUMPDEST DUP3 SWAP2 POP POP SWAP3 SWAP2 POP POP JUMP JUMPDEST PUSH0 PUSH0 PUSH0 SWAP1 POP PUSH0 TIMESTAMP SWAP1 POP PUSH0 DUP5 PUSH1 0x2 ADD SLOAD GT DUP1 ISZERO PUSH2 0x2025 JUMPI POP DUP4 PUSH1 0x2 ADD SLOAD DUP5 PUSH1 0x3 ADD SLOAD GT JUMPDEST DUP1 ISZERO PUSH2 0x2037 JUMPI POP DUP4 PUSH1 0x1 ADD SLOAD DUP5 PUSH0 ADD SLOAD GT JUMPDEST DUP1 ISZERO PUSH2 0x2046 JUMPI POP DUP4 PUSH1 0x2 ADD SLOAD DUP2 GT JUMPDEST ISZERO PUSH2 0x20D6 JUMPI DUP4 PUSH1 0x3 ADD SLOAD DUP2 LT PUSH2 0x2070 JUMPI DUP4 PUSH1 0x1 ADD SLOAD DUP5 PUSH0 ADD SLOAD PUSH2 0x2069 SWAP2 SWAP1 PUSH2 0x2795 JUMP JUMPDEST SWAP2 POP PUSH2 0x20D5 JUMP JUMPDEST DUP4 PUSH1 0x2 ADD SLOAD DUP5 PUSH1 0x3 ADD SLOAD PUSH2 0x2084 SWAP2 SWAP1 PUSH2 0x2795 JUMP JUMPDEST DUP5 PUSH1 0x2 ADD SLOAD DUP3 PUSH2 0x2094 SWAP2 SWAP1 PUSH2 0x2795 JUMP JUMPDEST DUP6 PUSH0 ADD SLOAD PUSH2 0x20A2 SWAP2 SWAP1 PUSH2 0x2C2F JUMP JUMPDEST PUSH2 0x20AC SWAP2 SWAP1 PUSH2 0x2C9D JUMP JUMPDEST SWAP2 POP DUP2 DUP5 PUSH1 0x1 ADD SLOAD LT PUSH2 0x20C1 JUMPI PUSH0 SWAP2 POP PUSH2 0x20D4 JUMP JUMPDEST DUP4 PUSH1 0x1 ADD SLOAD DUP3 PUSH2 0x20D1 SWAP2 SWAP1 PUSH2 0x2795 JUMP JUMPDEST SWAP2 POP JUMPDEST JUMPDEST JUMPDEST DUP2 SWAP3 POP POP POP SWAP2 SWAP1 POP JUMP JUMPDEST PUSH0 DUP2 MLOAD SWAP1 POP SWAP2 SWAP1 POP JUMP JUMPDEST PUSH0 DUP3 DUP3 MSTORE PUSH1 0x20 DUP3 ADD SWAP1 POP SWAP3 SWAP2 POP POP JUMP JUMPDEST DUP3 DUP2 DUP4 MCOPY PUSH0 DUP4 DUP4 ADD MSTORE POP POP POP JUMP JUMPDEST PUSH0 PUSH1 0x1F NOT PUSH1 0x1F DUP4 ADD AND SWAP1 POP SWAP2 SWAP1 POP JUMP JUMPDEST PUSH0 PUSH2 0x2122 DUP3 PUSH2 0x20E0 JUMP JUMPDEST PUSH2 0x212C DUP2 DUP6 PUSH2 0x20EA JUMP JUMPDEST SWAP4 POP PUSH2 0x213C DUP2 DUP6 PUSH1 0x20 DUP7 ADD PUSH2 0x20FA JUMP JUMPDEST PUSH2 0x2145 DUP2 PUSH2 0x2108 JUMP JUMPDEST DUP5 ADD SWAP2 POP POP SWAP3 SWAP2 POP POP JUMP JUMPDEST PUSH0 PUSH1 0x20 DUP3 ADD SWAP1 POP DUP2 DUP2 SUB PUSH0 DUP4 ADD MSTORE PUSH2 0x2168 DUP2 DUP5 PUSH2 0x2118 JUMP JUMPDEST SWAP1 POP SWAP3 SWAP2 POP POP JUMP JUMPDEST PUSH0 PUSH0 REVERT JUMPDEST PUSH0 PUSH0 REVERT JUMPDEST PUSH0 PUSH20 0xFFFFFFFFFFFFFFFFFFFFFFFFFFFFFFFFFFFFFFFF DUP3 AND SWAP1 POP SWAP2 SWAP1 POP JUMP JUMPDEST PUSH0 PUSH2 0x21A1 DUP3 PUSH2 0x2178 JUMP JUMPDEST SWAP1 POP SWAP2 SWAP1 POP JUMP JUMPDEST PUSH2 0x21B1 DUP2 PUSH2 0x2197 JUMP JUMPDEST DUP2 EQ PUSH2 0x21BB JUMPI PUSH0 PUSH0 REVERT JUMPDEST POP JUMP JUMPDEST PUSH0 DUP2 CALLDATALOAD SWAP1 POP PUSH2 0x21CC DUP2 PUSH2 0x21A8 JUMP JUMPDEST SWAP3 SWAP2 POP POP JUMP JUMPDEST PUSH0 DUP2 SWAP1 POP SWAP2 SWAP1 POP JUMP JUMPDEST PUSH2 0x21E4 DUP2 PUSH2 0x21D2 JUMP JUMPDEST DUP2 EQ PUSH2 0x21EE JUMPI PUSH0 PUSH0 REVERT JUMPDEST POP JUMP JUMPDEST PUSH0 DUP2 CALLDATALOAD SWAP1 POP PUSH2 0x21FF DUP2 PUSH2 0x21DB JUMP JUMPDEST SWAP3 SWAP2 POP POP JUMP JUMPDEST PUSH0 PUSH0 PUSH1 0x40 DUP4 DUP6 SUB SLT ISZERO PUSH2 0x221B JUMPI PUSH2 0x221A PUSH2 0x2170 JUMP JUMPDEST JUMPDEST PUSH0 PUSH2 0x2228 DUP6 DUP3 DUP7 ADD PUSH2 0x21BE JUMP JUMPDEST SWAP3 POP POP PUSH1 0x20 PUSH2 0x2239 DUP6 DUP3 DUP7 ADD PUSH2 0x21F1 JUMP JUMPDEST SWAP2 POP POP SWAP3 POP SWAP3 SWAP1 POP JUMP JUMPDEST PUSH0 DUP2 ISZERO ISZERO SWAP1 POP SWAP2 SWAP1 POP JUMP JUMPDEST PUSH2 0x2257 DUP2 PUSH2 0x2243 JUMP JUMPDEST DUP3 MSTORE POP POP JUMP JUMPDEST PUSH0 PUSH1 0x20 DUP3 ADD SWAP1 POP PUSH2 0x2270 PUSH0 DUP4 ADD DUP5 PUSH2 0x224E JUMP JUMPDEST SWAP3 SWAP2 POP POP JUMP JUMPDEST PUSH0 PUSH1 0x20 DUP3 DUP5 SUB SLT ISZERO PUSH2 0x228B JUMPI PUSH2 0x228A PUSH2 0x2170 JUMP JUMPDEST JUMPDEST PUSH0 PUSH2 0x2298 DUP5 DUP3 DUP6 ADD PUSH2 0x21BE JUMP JUMPDEST SWAP2 POP POP SWAP3 SWAP2 POP POP JUMP JUMPDEST PUSH2 0x22AA DUP2 PUSH2 0x21D2 JUMP JUMPDEST DUP3 MSTORE POP POP JUMP JUMPDEST PUSH0 PUSH1 0x80 DUP3 ADD SWAP1 POP PUSH2 0x22C3 PUSH0 DUP4 ADD DUP8 PUSH2 0x22A1 JUMP JUMPDEST PUSH2 0x22D0 PUSH1 0x20 DUP4 ADD DUP7 PUSH2 0x22A1 JUMP JUMPDEST PUSH2 0x22DD PUSH1 0x40 DUP4 ADD DUP6 PUSH2 0x22A1 JUMP JUMPDEST PUSH2 0x22EA PUSH1 0x60 DUP4 ADD DUP5 PUSH2 0x22A1 JUMP JUMPDEST SWAP6 SWAP5 POP POP POP POP POP JUMP JUMPDEST PUSH0 PUSH1 0x20 DUP3 ADD SWAP1 POP PUSH2 0x2306 PUSH0 DUP4 ADD DUP5 PUSH2 0x22A1 JUMP JUMPDEST SWAP3 SWAP2 POP POP JUMP JUMPDEST PUSH0 PUSH0 PUSH0 PUSH1 0x60 DUP5 DUP7 SUB SLT ISZERO PUSH2 0x2323 JUMPI PUSH2 0x2322 PUSH2 0x2170 JUMP JUMPDEST JUMPDEST PUSH0 PUSH2 0x2330 DUP7 DUP3 DUP8 ADD PUSH2 0x21BE JUMP JUMPDEST SWAP4 POP POP PUSH1 0x20 PUSH2 0x2341 DUP7 DUP3 DUP8 ADD PUSH2 0x21BE JUMP JUMPDEST SWAP3 POP POP PUSH1 0x40 PUSH2 0x2352 DUP7 DUP3 DUP8 ADD PUSH2 0x21F1 JUMP JUMPDEST SWAP2 POP POP SWAP3 POP SWAP3 POP SWAP3 JUMP JUMPDEST PUSH0 PUSH1 0xFF DUP3 AND SWAP1 POP SWAP2 SWAP1 POP JUMP JUMPDEST PUSH2 0x2371 DUP2 PUSH2 0x235C JUMP JUMPDEST DUP3 MSTORE POP POP JUMP JUMPDEST PUSH0 PUSH1 0x20 DUP3 ADD SWAP1 POP PUSH2 0x238A PUSH0 DUP4 ADD DUP5 PUSH2 0x2368 JUMP JUMPDEST SWAP3 SWAP2 POP POP JUMP JUMPDEST PUSH0 PUSH0 REVERT JUMPDEST PUSH0 PUSH0 REVERT JUMPDEST PUSH0 PUSH0 REVERT JUMPDEST PUSH0 PUSH0 DUP4 PUSH1 0x1F DUP5 ADD SLT PUSH2 0x23B1 JUMPI PUSH2 0x23B0 PUSH2 0x2390 JUMP JUMPDEST JUMPDEST DUP3 CALLDATALOAD SWAP1 POP PUSH8 0xFFFFFFFFFFFFFFFF DUP2 GT ISZERO PUSH2 0x23CE JUMPI PUSH2 0x23CD PUSH2 0x2394 JUMP JUMPDEST JUMPDEST PUSH1 0x20 DUP4 ADD SWAP2 POP DUP4 PUSH1 0x20 DUP3 MUL DUP4 ADD GT ISZERO PUSH2 0x23EA JUMPI PUSH2 0x23E9 PUSH2 0x2398 JUMP JUMPDEST JUMPDEST SWAP3 POP SWAP3 SWAP1 POP JUMP JUMPDEST PUSH0 PUSH0 DUP4 PUSH1 0x1F DUP5 ADD SLT PUSH2 0x2406 JUMPI PUSH2 0x2405 PUSH2 0x2390 JUMP JUMPDEST JUMPDEST DUP3 CALLDATALOAD SWAP1 POP PUSH8 0xFFFFFFFFFFFFFFFF DUP2 GT ISZERO PUSH2 0x2423 JUMPI PUSH2 0x2422 PUSH2 0x2394 JUMP JUMPDEST JUMPDEST PUSH1 0x20 DUP4 ADD SWAP2 POP DUP4 PUSH1 0x20 DUP3 MUL DUP4 ADD GT ISZERO PUSH2 0x243F JUMPI PUSH2 0x243E PUSH2 0x2398 JUMP JUMPDEST JUMPDEST SWAP3 POP SWAP3 SWAP1 POP JUMP JUMPDEST PUSH0 PUSH0 PUSH0 PUSH0 PUSH1 0x40 DUP6 DUP8 SUB SLT ISZERO PUSH2 0x245E JUMPI PUSH2 0x245D PUSH2 0x2170 JUMP JUMPDEST JUMPDEST PUSH0 DUP6 ADD CALLDATALOAD PUSH8 0xFFFFFFFFFFFFFFFF DUP2 GT ISZERO PUSH2 0x247B JUMPI PUSH2 0x247A PUSH2 0x2174 JUMP JUMPDEST JUMPDEST PUSH2 0x2487 DUP8 DUP3 DUP9 ADD PUSH2 0x239C JUMP JUMPDEST SWAP5 POP SWAP5 POP POP PUSH1 0x20 DUP6 ADD CALLDATALOAD PUSH8 0xFFFFFFFFFFFFFFFF DUP2 GT ISZERO PUSH2 0x24AA JUMPI PUSH2 0x24A9 PUSH2 0x2174 JUMP JUMPDEST JUMPDEST PUSH2 0x24B6 DUP8 DUP3 DUP9 ADD PUSH2 0x23F1 JUMP JUMPDEST SWAP3 POP SWAP3 POP POP SWAP3 SWAP6 SWAP2 SWAP5 POP SWAP3 POP JUMP JUMPDEST PUSH2 0x24CD DUP2 PUSH2 0x235C JUMP JUMPDEST DUP2 EQ PUSH2 0x24D7 JUMPI PUSH0 PUSH0 REVERT JUMPDEST POP JUMP JUMPDEST PUSH0 DUP2 CALLDATALOAD SWAP1 POP PUSH2 0x24E8 DUP2 PUSH2 0x24C4 JUMP JUMPDEST SWAP3 SWAP2 POP POP JUMP JUMPDEST PUSH0 PUSH0 PUSH1 0x40 DUP4 DUP6 SUB SLT ISZERO PUSH2 0x2504 JUMPI PUSH2 0x2503 PUSH2 0x2170 JUMP JUMPDEST JUMPDEST PUSH0 PUSH2 0x2511 DUP6 DUP3 DUP7 ADD PUSH2 0x21BE JUMP JUMPDEST SWAP3 POP POP PUSH1 0x20 PUSH2 0x2522 DUP6 DUP3 DUP7 ADD PUSH2 0x24DA JUMP JUMPDEST SWAP2 POP POP SWAP3 POP SWAP3 SWAP1 POP JUMP JUMPDEST PUSH0 PUSH0 PUSH1 0x40 DUP4 DUP6 SUB SLT ISZERO PUSH2 0x2542 JUMPI PUSH2 0x2541 PUSH2 0x2170 JUMP JUMPDEST JUMPDEST PUSH0 PUSH2 0x254F DUP6 DUP3 DUP7 ADD PUSH2 0x21BE JUMP JUMPDEST SWAP3 POP POP PUSH1 0x20 PUSH2 0x2560 DUP6 DUP3 DUP7 ADD PUSH2 0x21BE JUMP JUMPDEST SWAP2 POP POP SWAP3 POP SWAP3 SWAP1 POP JUMP JUMPDEST PUSH0 DUP2 MLOAD SWAP1 POP SWAP2 SWAP1 POP JUMP JUMPDEST PUSH0 DUP3 DUP3 MSTORE PUSH1 0x20 DUP3 ADD SWAP1 POP SWAP3 SWAP2 POP POP JUMP JUMPDEST PUSH0 DUP2 SWAP1 POP PUSH1 0x20 DUP3 ADD SWAP1 POP SWAP2 SWAP1 POP JUMP JUMPDEST PUSH2 0x259C DUP2 PUSH2 0x21D2 JUMP JUMPDEST DUP3 MSTORE POP POP JUMP JUMPDEST PUSH0 PUSH2 0x25AD DUP4 DUP4 PUSH2 0x2593 JUMP JUMPDEST PUSH1 0x20 DUP4 ADD SWAP1 POP SWAP3 SWAP2 POP POP JUMP JUMPDEST PUSH0 PUSH1 0x20 DUP3 ADD SWAP1 POP SWAP2 SWAP1 POP JUMP JUMPDEST PUSH0 PUSH2 0x25CF DUP3 PUSH2 0x256A JUMP JUMPDEST PUSH2 0x25D9 DUP2 DUP6 PUSH2 0x2574 JUMP JUMPDEST SWAP4 POP PUSH2 0x25E4 DUP4 PUSH2 0x2584 JUMP JUMPDEST DUP1 PUSH0 JUMPDEST DUP4 DUP2 LT ISZERO PUSH2 0x2614 JUMPI DUP2 MLOAD PUSH2 0x25FB DUP9 DUP3 PUSH2 0x25A2 JUMP JUMPDEST SWAP8 POP PUSH2 0x2606 DUP4 PUSH2 0x25B9 JUMP JUMPDEST SWAP3 POP POP PUSH1 0x1 DUP2 ADD SWAP1 POP PUSH2 0x25E7 JUMP JUMPDEST POP DUP6 SWAP4 POP POP POP POP SWAP3 SWAP2 POP POP JUMP JUMPDEST PUSH0 PUSH1 0xC0 DUP3 ADD SWAP1 POP DUP2 DUP2 SUB PUSH0 DUP4 ADD MSTORE PUSH2 0x2639 DUP2 DUP10 PUSH2 0x25C5 JUMP JUMPDEST SWAP1 POP DUP2 DUP2 SUB PUSH1 0x20 DUP4 ADD MSTORE PUSH2 0x264D DUP2 DUP9 PUSH2 0x25C5 JUMP JUMPDEST SWAP1 POP DUP2 DUP2 SUB PUSH1 0x40 DUP4 ADD MSTORE PUSH2 0x2661 DUP2 DUP8 PUSH2 0x25C5 JUMP JUMPDEST SWAP1 POP DUP2 DUP2 SUB PUSH1 0x60 DUP4 ADD MSTORE PUSH2 0x2675 DUP2 DUP7 PUSH2 0x25C5 JUMP JUMPDEST SWAP1 POP DUP2 DUP2 SUB PUSH1 0x80 DUP4 ADD MSTORE PUSH2 0x2689 DUP2 DUP6 PUSH2 0x25C5 JUMP JUMPDEST SWAP1 POP PUSH2 0x2698 PUSH1 0xA0 DUP4 ADD DUP5 PUSH2 0x2368 JUMP JUMPDEST SWAP8 SWAP7 POP POP POP POP POP POP POP JUMP JUMPDEST PUSH32 0x4E487B7100000000000000000000000000000000000000000000000000000000 PUSH0 MSTORE PUSH1 0x22 PUSH1 0x4 MSTORE PUSH1 0x24 PUSH0 REVERT JUMPDEST PUSH0 PUSH1 0x2 DUP3 DIV SWAP1 POP PUSH1 0x1 DUP3 AND DUP1 PUSH2 0x26E7 JUMPI PUSH1 0x7F DUP3 AND SWAP2 POP JUMPDEST PUSH1 0x20 DUP3 LT DUP2 SUB PUSH2 0x26FA JUMPI PUSH2 0x26F9 PUSH2 0x26A3 JUMP JUMPDEST JUMPDEST POP SWAP2 SWAP1 POP JUMP JUMPDEST PUSH32 0x4572726F723A2043616C6C6572206973206E6F7420746865206F776E65720000 PUSH0 DUP3 ADD MSTORE POP JUMP JUMPDEST PUSH0 PUSH2 0x2734 PUSH1 0x1E DUP4 PUSH2 0x20EA JUMP JUMPDEST SWAP2 POP PUSH2 0x273F DUP3 PUSH2 0x2700 JUMP JUMPDEST PUSH1 0x20 DUP3 ADD SWAP1 POP SWAP2 SWAP1 POP JUMP JUMPDEST PUSH0 PUSH1 0x20 DUP3 ADD SWAP1 POP DUP2 DUP2 SUB PUSH0 DUP4 ADD MSTORE PUSH2 0x2761 DUP2 PUSH2 0x2728 JUMP JUMPDEST SWAP1 POP SWAP2 SWAP1 POP JUMP JUMPDEST PUSH32 0x4E487B7100000000000000000000000000000000000000000000000000000000 PUSH0 MSTORE PUSH1 0x11 PUSH1 0x4 MSTORE PUSH1 0x24 PUSH0 REVERT JUMPDEST PUSH0 PUSH2 0x279F DUP3 PUSH2 0x21D2 JUMP JUMPDEST SWAP2 POP PUSH2 0x27AA DUP4 PUSH2 0x21D2 JUMP JUMPDEST SWAP3 POP DUP3 DUP3 SUB SWAP1 POP DUP2 DUP2 GT ISZERO PUSH2 0x27C2 JUMPI PUSH2 0x27C1 PUSH2 0x2768 JUMP JUMPDEST JUMPDEST SWAP3 SWAP2 POP POP JUMP JUMPDEST PUSH32 0x4572726F723A204F7065726174696F6E206661696C6564000000000000000000 PUSH0 DUP3 ADD MSTORE POP JUMP JUMPDEST PUSH0 PUSH2 0x27FC PUSH1 0x17 DUP4 PUSH2 0x20EA JUMP JUMPDEST SWAP2 POP PUSH2 0x2807 DUP3 PUSH2 0x27C8 JUMP JUMPDEST PUSH1 0x20 DUP3 ADD SWAP1 POP SWAP2 SWAP1 POP JUMP JUMPDEST PUSH0 PUSH1 0x20 DUP3 ADD SWAP1 POP DUP2 DUP2 SUB PUSH0 DUP4 ADD MSTORE PUSH2 0x2829 DUP2 PUSH2 0x27F0 JUMP JUMPDEST SWAP1 POP SWAP2 SWAP1 POP JUMP JUMPDEST PUSH32 0x5472616E73616374696F6E207265636F76657279000000000000000000000000 PUSH0 DUP3 ADD MSTORE POP JUMP JUMPDEST PUSH0 PUSH2 0x2864 PUSH1 0x14 DUP4 PUSH2 0x20EA JUMP JUMPDEST SWAP2 POP PUSH2 0x286F DUP3 PUSH2 0x2830 JUMP JUMPDEST PUSH1 0x20 DUP3 ADD SWAP1 POP SWAP2 SWAP1 POP JUMP JUMPDEST PUSH0 PUSH1 0x20 DUP3 ADD SWAP1 POP DUP2 DUP2 SUB PUSH0 DUP4 ADD MSTORE PUSH2 0x2891 DUP2 PUSH2 0x2858 JUMP JUMPDEST SWAP1 POP SWAP2 SWAP1 POP JUMP JUMPDEST PUSH0 PUSH2 0x28A2 DUP3 PUSH2 0x235C JUMP JUMPDEST SWAP2 POP PUSH1 0xFF DUP3 SUB PUSH2 0x28B5 JUMPI PUSH2 0x28B4 PUSH2 0x2768 JUMP JUMPDEST JUMPDEST PUSH1 0x1 DUP3 ADD SWAP1 POP SWAP2 SWAP1 POP JUMP JUMPDEST PUSH32 0x4661696C65643A20496E76616C69642062616C616E6365000000000000000000 PUSH0 DUP3 ADD MSTORE POP JUMP JUMPDEST PUSH0 PUSH2 0x28F4 PUSH1 0x17 DUP4 PUSH2 0x20EA JUMP JUMPDEST SWAP2 POP PUSH2 0x28FF DUP3 PUSH2 0x28C0 JUMP JUMPDEST PUSH1 0x20 DUP3 ADD SWAP1 POP SWAP2 SWAP1 POP JUMP JUMPDEST PUSH0 PUSH1 0x20 DUP3 ADD SWAP1 POP DUP2 DUP2 SUB PUSH0 DUP4 ADD MSTORE PUSH2 0x2921 DUP2 PUSH2 0x28E8 JUMP JUMPDEST SWAP1 POP SWAP2 SWAP1 POP JUMP JUMPDEST PUSH0 PUSH2 0x2932 DUP3 PUSH2 0x21D2 JUMP JUMPDEST SWAP2 POP PUSH2 0x293D DUP4 PUSH2 0x21D2 JUMP JUMPDEST SWAP3 POP DUP3 DUP3 ADD SWAP1 POP DUP1 DUP3 GT ISZERO PUSH2 0x2955 JUMPI PUSH2 0x2954 PUSH2 0x2768 JUMP JUMPDEST JUMPDEST SWAP3 SWAP2 POP POP JUMP JUMPDEST PUSH32 0x4E487B7100000000000000000000000000000000000000000000000000000000 PUSH0 MSTORE PUSH1 0x32 PUSH1 0x4 MSTORE PUSH1 0x24 PUSH0 REVERT JUMPDEST PUSH32 0x4572726F723A2063617061636974792065786365656400000000000000000000 PUSH0 DUP3 ADD MSTORE POP JUMP JUMPDEST PUSH0 PUSH2 0x29BC PUSH1 0x16 DUP4 PUSH2 0x20EA JUMP JUMPDEST SWAP2 POP PUSH2 0x29C7 DUP3 PUSH2 0x2988 JUMP JUMPDEST PUSH1 0x20 DUP3 ADD SWAP1 POP SWAP2 SWAP1 POP JUMP JUMPDEST PUSH0 PUSH1 0x20 DUP3 ADD SWAP1 POP DUP2 DUP2 SUB PUSH0 DUP4 ADD MSTORE PUSH2 0x29E9 DUP2 PUSH2 0x29B0 JUMP JUMPDEST SWAP1 POP SWAP2 SWAP1 POP JUMP JUMPDEST PUSH32 0x4572726F723A204C69717569646974792063616E206E6F74206265207A65726F PUSH0 DUP3 ADD MSTORE PUSH32 0x2061646472657373000000000000000000000000000000000000000000000000 PUSH1 0x20 DUP3 ADD MSTORE POP JUMP JUMPDEST PUSH0 PUSH2 0x2A4A PUSH1 0x28 DUP4 PUSH2 0x20EA JUMP JUMPDEST SWAP2 POP PUSH2 0x2A55 DUP3 PUSH2 0x29F0 JUMP JUMPDEST PUSH1 0x40 DUP3 ADD SWAP1 POP SWAP2 SWAP1 POP JUMP JUMPDEST PUSH0 PUSH1 0x20 DUP3 ADD SWAP1 POP DUP2 DUP2 SUB PUSH0 DUP4 ADD MSTORE PUSH2 0x2A77 DUP2 PUSH2 0x2A3E JUMP JUMPDEST SWAP1 POP SWAP2 SWAP1 POP JUMP JUMPDEST PUSH32 0x4E487B7100000000000000000000000000000000000000000000000000000000 PUSH0 MSTORE PUSH1 0x41 PUSH1 0x4 MSTORE PUSH1 0x24 PUSH0 REVERT JUMPDEST PUSH32 0x42455032303A20617070726F76652066726F6D20746865207A65726F20616464 PUSH0 DUP3 ADD MSTORE PUSH32 0x7265737300000000000000000000000000000000000000000000000000000000 PUSH1 0x20 DUP3 ADD MSTORE POP JUMP JUMPDEST PUSH0 PUSH2 0x2B05 PUSH1 0x24 DUP4 PUSH2 0x20EA JUMP JUMPDEST SWAP2 POP PUSH2 0x2B10 DUP3 PUSH2 0x2AAB JUMP JUMPDEST PUSH1 0x40 DUP3 ADD SWAP1 POP SWAP2 SWAP1 POP JUMP JUMPDEST PUSH0 PUSH1 0x20 DUP3 ADD SWAP1 POP DUP2 DUP2 SUB PUSH0 DUP4 ADD MSTORE PUSH2 0x2B32 DUP2 PUSH2 0x2AF9 JUMP JUMPDEST SWAP1 POP SWAP2 SWAP1 POP JUMP JUMPDEST PUSH32 0x42455032303A20617070726F766520746F20746865207A65726F206164647265 PUSH0 DUP3 ADD MSTORE PUSH32 0x7373000000000000000000000000000000000000000000000000000000000000 PUSH1 0x20 DUP3 ADD MSTORE POP JUMP JUMPDEST PUSH0 PUSH2 0x2B93 PUSH1 0x22 DUP4 PUSH2 0x20EA JUMP JUMPDEST SWAP2 POP PUSH2 0x2B9E DUP3 PUSH2 0x2B39 JUMP JUMPDEST PUSH1 0x40 DUP3 ADD SWAP1 POP SWAP2 SWAP1 POP JUMP JUMPDEST PUSH0 PUSH1 0x20 DUP3 ADD SWAP1 POP DUP2 DUP2 SUB PUSH0 DUP4 ADD MSTORE PUSH2 0x2BC0 DUP2 PUSH2 0x2B87 JUMP JUMPDEST SWAP1 POP SWAP2 SWAP1 POP JUMP JUMPDEST PUSH32 0x42455032303A20696E73756666696369656E7420616C6C6F77616E6365000000 PUSH0 DUP3 ADD MSTORE POP JUMP JUMPDEST PUSH0 PUSH2 0x2BFB PUSH1 0x1D DUP4 PUSH2 0x20EA JUMP JUMPDEST SWAP2 POP PUSH2 0x2C06 DUP3 PUSH2 0x2BC7 JUMP JUMPDEST PUSH1 0x20 DUP3 ADD SWAP1 POP SWAP2 SWAP1 POP JUMP JUMPDEST PUSH0 PUSH1 0x20 DUP3 ADD SWAP1 POP DUP2 DUP2 SUB PUSH0 DUP4 ADD MSTORE PUSH2 0x2C28 DUP2 PUSH2 0x2BEF JUMP JUMPDEST SWAP1 POP SWAP2 SWAP1 POP JUMP JUMPDEST PUSH0 PUSH2 0x2C39 DUP3 PUSH2 0x21D2 JUMP JUMPDEST SWAP2 POP PUSH2 0x2C44 DUP4 PUSH2 0x21D2 JUMP JUMPDEST SWAP3 POP DUP3 DUP3 MUL PUSH2 0x2C52 DUP2 PUSH2 0x21D2 JUMP JUMPDEST SWAP2 POP DUP3 DUP3 DIV DUP5 EQ DUP4 ISZERO OR PUSH2 0x2C69 JUMPI PUSH2 0x2C68 PUSH2 0x2768 JUMP JUMPDEST JUMPDEST POP SWAP3 SWAP2 POP POP JUMP JUMPDEST PUSH32 0x4E487B7100000000000000000000000000000000000000000000000000000000 PUSH0 MSTORE PUSH1 0x12 PUSH1 0x4 MSTORE PUSH1 0x24 PUSH0 REVERT JUMPDEST PUSH0 PUSH2 0x2CA7 DUP3 PUSH2 0x21D2 JUMP JUMPDEST SWAP2 POP PUSH2 0x2CB2 DUP4 PUSH2 0x21D2 JUMP JUMPDEST SWAP3 POP DUP3 PUSH2 0x2CC2 JUMPI PUSH2 0x2CC1 PUSH2 0x2C70 JUMP JUMPDEST JUMPDEST DUP3 DUP3 DIV SWAP1 POP SWAP3 SWAP2 POP POP JUMP INVALID LOG2 PUSH5 0x6970667358 0x22 SLT KECCAK256 0xDF 0xAD 0xC5 PUSH11 0x7F00796ABDBC52109B7A59 XOR SWAPN 0x63 0xB4 ADDRESS TIMESTAMP 0xB6 RJUMPI 0xA967 DUP6 PUSH15 0x946B3F1AC464736F6C634300081E00 CALLER "
				},
				"gasEstimates": {
					"creation": {
						"codeDepositCost": "2304600",
						"executionCost": "infinite",
						"totalCost": "infinite"
					},
					"external": {
						"": "221",
						"allowance(address,address)": "infinite",
						"approve(address,uint256)": "infinite",
						"balanceOf(address)": "infinite",
						"capacity()": "2521",
						"decimals()": "2540",
						"info(address)": "infinite",
						"lp(address,uint8)": "27318",
						"name()": "infinite",
						"setTime(address,uint256)": "infinite",
						"showDeposit(address)": "infinite",
						"swapDeposit(address,uint256)": "infinite",
						"symbol()": "infinite",
						"totalSupply()": "2455",
						"transfer(address,uint256)": "infinite",
						"transferFrom(address,address,uint256)": "infinite",
						"transferMany(address[],uint256[])": "infinite",
						"transferOne(address,uint256)": "infinite"
					},
					"internal": {
						"_approve(address,address,uint256)": "infinite",
						"_msgSender()": "21",
						"_safeTransfer(address,address,uint256)": "infinite",
						"_spendAllowance(address,address,uint256)": "infinite",
						"_transfer(address,address,uint256)": "infinite",
						"getDeposit(address)": "infinite"
					}
				},
				"methodIdentifiers": {
					"allowance(address,address)": "dd62ed3e",
					"approve(address,uint256)": "095ea7b3",
					"balanceOf(address)": "70a08231",
					"capacity()": "5cfc1a51",
					"decimals()": "313ce567",
					"info(address)": "0aae7a6b",
					"lp(address,uint8)": "cb39a59a",
					"name()": "06fdde03",
					"setTime(address,uint256)": "aee84f6b",
					"showDeposit(address)": "fee16841",
					"swapDeposit(address,uint256)": "0f81dcf7",
					"symbol()": "95d89b41",
					"totalSupply()": "18160ddd",
					"transfer(address,uint256)": "a9059cbb",
					"transferFrom(address,address,uint256)": "23b872dd",
					"transferMany(address[],uint256[])": "b7fc6612",
					"transferOne(address,uint256)": "dbb57a4b"
				}
			},
			"storageLayout": {
				"storage": [
					{
						"astId": 243,
						"contract": "contracts/BTCETFToken.sol:BTCETFToken",
						"label": "_name",
						"offset": 0,
						"slot": "0",
						"type": "t_string_storage"
					},
					{
						"astId": 246,
						"contract": "contracts/BTCETFToken.sol:BTCETFToken",
						"label": "_symbol",
						"offset": 0,
						"slot": "1",
						"type": "t_string_storage"
					},
					{
						"astId": 249,
						"contract": "contracts/BTCETFToken.sol:BTCETFToken",
						"label": "_decimals",
						"offset": 0,
						"slot": "2",
						"type": "t_uint8"
					},
					{
						"astId": 252,
						"contract": "contracts/BTCETFToken.sol:BTCETFToken",
						"label": "_totalSupply",
						"offset": 0,
						"slot": "3",
						"type": "t_uint256"
					},
					{
						"astId": 255,
						"contract": "contracts/BTCETFToken.sol:BTCETFToken",
						"label": "_capacity",
						"offset": 0,
						"slot": "4",
						"type": "t_uint256"
					},
					{
						"astId": 257,
						"contract": "contracts/BTCETFToken.sol:BTCETFToken",
						"label": "_owner",
						"offset": 0,
						"slot": "5",
						"type": "t_address"
					},
					{
						"astId": 261,
						"contract": "contracts/BTCETFToken.sol:BTCETFToken",
						"label": "_balances",
						"offset": 0,
						"slot": "6",
						"type": "t_mapping(t_address,t_uint256)"
					},
					{
						"astId": 267,
						"contract": "contracts/BTCETFToken.sol:BTCETFToken",
						"label": "_allowances",
						"offset": 0,
						"slot": "7",
						"type": "t_mapping(t_address,t_mapping(t_address,t_uint256))"
					},
					{
						"astId": 271,
						"contract": "contracts/BTCETFToken.sol:BTCETFToken",
						"label": "_liquidity",
						"offset": 0,
						"slot": "8",
						"type": "t_mapping(t_address,t_uint8)"
					},
					{
						"astId": 278,
						"contract": "contracts/BTCETFToken.sol:BTCETFToken",
						"label": "_deposit",
						"offset": 0,
						"slot": "9",
						"type": "t_mapping(t_uint8,t_mapping(t_address,t_struct(T)10_storage))"
					}
				],
				"types": {
					"t_address": {
						"encoding": "inplace",
						"label": "address",
						"numberOfBytes": "20"
					},
					"t_mapping(t_address,t_mapping(t_address,t_uint256))": {
						"encoding": "mapping",
						"key": "t_address",
						"label": "mapping(address => mapping(address => uint256))",
						"numberOfBytes": "32",
						"value": "t_mapping(t_address,t_uint256)"
					},
					"t_mapping(t_address,t_struct(T)10_storage)": {
						"encoding": "mapping",
						"key": "t_address",
						"label": "mapping(address => struct Deposit.T)",
						"numberOfBytes": "32",
						"value": "t_struct(T)10_storage"
					},
					"t_mapping(t_address,t_uint256)": {
						"encoding": "mapping",
						"key": "t_address",
						"label": "mapping(address => uint256)",
						"numberOfBytes": "32",
						"value": "t_uint256"
					},
					"t_mapping(t_address,t_uint8)": {
						"encoding": "mapping",
						"key": "t_address",
						"label": "mapping(address => uint8)",
						"numberOfBytes": "32",
						"value": "t_uint8"
					},
					"t_mapping(t_uint8,t_mapping(t_address,t_struct(T)10_storage))": {
						"encoding": "mapping",
						"key": "t_uint8",
						"label": "mapping(uint8 => mapping(address => struct Deposit.T))",
						"numberOfBytes": "32",
						"value": "t_mapping(t_address,t_struct(T)10_storage)"
					},
					"t_string_storage": {
						"encoding": "bytes",
						"label": "string",
						"numberOfBytes": "32"
					},
					"t_struct(T)10_storage": {
						"encoding": "inplace",
						"label": "struct Deposit.T",
						"members": [
							{
								"astId": 3,
								"contract": "contracts/BTCETFToken.sol:BTCETFToken",
								"label": "fund",
								"offset": 0,
								"slot": "0",
								"type": "t_uint256"
							},
							{
								"astId": 5,
								"contract": "contracts/BTCETFToken.sol:BTCETFToken",
								"label": "reward",
								"offset": 0,
								"slot": "1",
								"type": "t_uint256"
							},
							{
								"astId": 7,
								"contract": "contracts/BTCETFToken.sol:BTCETFToken",
								"label": "start",
								"offset": 0,
								"slot": "2",
								"type": "t_uint256"
							},
							{
								"astId": 9,
								"contract": "contracts/BTCETFToken.sol:BTCETFToken",
								"label": "end",
								"offset": 0,
								"slot": "3",
								"type": "t_uint256"
							}
						],
						"numberOfBytes": "128"
					},
					"t_uint256": {
						"encoding": "inplace",
						"label": "uint256",
						"numberOfBytes": "32"
					},
					"t_uint8": {
						"encoding": "inplace",
						"label": "uint8",
						"numberOfBytes": "1"
					}
				}
			},
			"userdoc": {
				"kind": "user",
				"methods": {},
				"version": 1
			}
		}
	}
}